{
  "address": "0xDc64a140Aa3E981100a9becA4E685f962f0cF6C9",
  "abi": [
    {
      "inputs": [
        {
          "internalType": "address",
          "name": "vrfCoordinatorV2",
          "type": "address"
        },
        {
          "internalType": "uint64",
          "name": "subscriptionId",
          "type": "uint64"
        },
        {
          "internalType": "bytes32",
          "name": "gasLane",
          "type": "bytes32"
        },
        {
          "internalType": "uint32",
          "name": "callbackGasLimit",
          "type": "uint32"
        },
        {
          "internalType": "address",
          "name": "data",
          "type": "address"
        }
      ],
      "stateMutability": "nonpayable",
      "type": "constructor"
    },
    {
      "inputs": [
        {
          "internalType": "address",
          "name": "have",
          "type": "address"
        },
        {
          "internalType": "address",
          "name": "want",
          "type": "address"
        }
      ],
      "name": "OnlyCoordinatorCanFulfill",
      "type": "error"
    },
    {
      "anonymous": false,
      "inputs": [
        {
          "indexed": true,
          "internalType": "address",
          "name": "player",
          "type": "address"
        }
      ],
      "name": "CurrentPlayer",
      "type": "event"
    },
    {
      "anonymous": false,
      "inputs": [],
      "name": "DiceRolled",
      "type": "event"
    },
    {
      "anonymous": false,
      "inputs": [
        {
          "indexed": true,
          "internalType": "address",
          "name": "winner",
          "type": "address"
        }
      ],
      "name": "GameOver",
      "type": "event"
    },
    {
      "anonymous": false,
      "inputs": [
        {
          "indexed": true,
          "internalType": "address",
          "name": "player",
          "type": "address"
        }
      ],
      "name": "PlayerAttacking",
      "type": "event"
    },
    {
      "anonymous": false,
      "inputs": [
        {
          "indexed": true,
          "internalType": "address",
          "name": "player",
          "type": "address"
        }
      ],
      "name": "PlayerDeploying",
      "type": "event"
    },
    {
      "anonymous": false,
      "inputs": [
        {
          "indexed": true,
          "internalType": "address",
          "name": "player",
          "type": "address"
        }
      ],
      "name": "PlayerFortifying",
      "type": "event"
    },
    {
      "anonymous": false,
      "inputs": [
        {
          "indexed": true,
          "internalType": "address",
          "name": "main",
          "type": "address"
        }
      ],
      "name": "ReceivedMain",
      "type": "event"
    },
    {
      "anonymous": false,
      "inputs": [
        {
          "indexed": true,
          "internalType": "uint256",
          "name": "s_requestId",
          "type": "uint256"
        }
      ],
      "name": "RollingDice",
      "type": "event"
    },
    {
      "anonymous": false,
      "inputs": [
        {
          "indexed": true,
          "internalType": "uint256",
          "name": "territoryBeingAttacked",
          "type": "uint256"
        }
      ],
      "name": "TransferTroopsAvailable",
      "type": "event"
    },
    {
      "inputs": [
        {
          "internalType": "uint256",
          "name": "index",
          "type": "uint256"
        }
      ],
      "name": "add_troop_to_territory",
      "outputs": [],
      "stateMutability": "nonpayable",
      "type": "function"
    },
    {
      "inputs": [
        {
          "internalType": "uint8",
          "name": "territoryOwned",
          "type": "uint8"
        },
        {
          "internalType": "uint8",
          "name": "territoryAttacking",
          "type": "uint8"
        },
        {
          "internalType": "uint256",
          "name": "attackingArmies",
          "type": "uint256"
        }
      ],
      "name": "attack_control",
      "outputs": [],
      "stateMutability": "nonpayable",
      "type": "function"
    },
    {
      "inputs": [
        {
          "internalType": "uint8",
          "name": "amountToDeploy",
          "type": "uint8"
        },
        {
          "internalType": "uint8",
          "name": "location",
          "type": "uint8"
        }
      ],
      "name": "deploy_control",
      "outputs": [
        {
          "internalType": "bool",
          "name": "",
          "type": "bool"
        }
      ],
      "stateMutability": "nonpayable",
      "type": "function"
    },
    {
      "inputs": [
        {
          "internalType": "uint8",
          "name": "territoryMovingFrom",
          "type": "uint8"
        },
        {
          "internalType": "uint8",
          "name": "territoryMovingTo",
          "type": "uint8"
        },
        {
          "internalType": "uint256",
          "name": "troopsMoving",
          "type": "uint256"
        }
      ],
      "name": "fortify_control",
      "outputs": [
        {
          "internalType": "bool",
          "name": "",
          "type": "bool"
        }
      ],
      "stateMutability": "nonpayable",
      "type": "function"
    },
    {
      "inputs": [],
      "name": "gameOver",
      "outputs": [],
      "stateMutability": "nonpayable",
      "type": "function"
    },
    {
      "inputs": [],
      "name": "getAttackStatus",
      "outputs": [
        {
          "internalType": "bool",
          "name": "",
          "type": "bool"
        }
      ],
      "stateMutability": "view",
      "type": "function"
    },
    {
      "inputs": [],
      "name": "getPlayerTurn",
      "outputs": [
        {
          "internalType": "address",
          "name": "",
          "type": "address"
        }
      ],
      "stateMutability": "view",
      "type": "function"
    },
    {
      "inputs": [],
      "name": "getRequestId",
      "outputs": [
        {
          "internalType": "uint256",
          "name": "",
          "type": "uint256"
        }
      ],
      "stateMutability": "view",
      "type": "function"
    },
    {
      "inputs": [
        {
          "internalType": "uint256",
          "name": "player",
          "type": "uint256"
        }
      ],
      "name": "getTotalTroops",
      "outputs": [
        {
          "internalType": "uint256",
          "name": "",
          "type": "uint256"
        }
      ],
      "stateMutability": "nonpayable",
      "type": "function"
    },
    {
      "inputs": [
        {
          "internalType": "uint256",
          "name": "j",
          "type": "uint256"
        }
      ],
      "name": "get_territory_owner",
      "outputs": [
        {
          "internalType": "uint256",
          "name": "",
          "type": "uint256"
        }
      ],
      "stateMutability": "nonpayable",
      "type": "function"
    },
    {
      "inputs": [],
      "name": "get_troops_to_deploy",
      "outputs": [
        {
          "internalType": "uint8",
          "name": "",
          "type": "uint8"
        }
      ],
      "stateMutability": "view",
      "type": "function"
    },
    {
      "inputs": [
        {
          "internalType": "uint8",
          "name": "playerAwarded",
          "type": "uint8"
        }
      ],
      "name": "push_to_territories",
      "outputs": [],
      "stateMutability": "nonpayable",
      "type": "function"
    },
    {
      "inputs": [
        {
          "internalType": "uint256",
          "name": "requestId",
          "type": "uint256"
        },
        {
          "internalType": "uint256[]",
          "name": "randomWords",
          "type": "uint256[]"
        }
      ],
      "name": "rawFulfillRandomWords",
      "outputs": [],
      "stateMutability": "nonpayable",
      "type": "function"
    },
    {
      "inputs": [],
      "name": "s_mainSet",
      "outputs": [
        {
          "internalType": "enum Controls.mainAddressSent",
          "name": "",
          "type": "uint8"
        }
      ],
      "stateMutability": "view",
      "type": "function"
    },
    {
      "inputs": [],
      "name": "s_playerTurn",
      "outputs": [
        {
          "internalType": "uint8",
          "name": "",
          "type": "uint8"
        }
      ],
      "stateMutability": "view",
      "type": "function"
    },
    {
      "inputs": [],
      "name": "s_requestId",
      "outputs": [
        {
          "internalType": "uint256",
          "name": "",
          "type": "uint256"
        }
      ],
      "stateMutability": "view",
      "type": "function"
    },
    {
      "inputs": [],
      "name": "s_troopsToDeploy",
      "outputs": [
        {
          "internalType": "uint8",
          "name": "",
          "type": "uint8"
        }
      ],
      "stateMutability": "view",
      "type": "function"
    },
    {
      "inputs": [
        {
          "internalType": "address",
          "name": "main",
          "type": "address"
        }
      ],
      "name": "set_main_address",
      "outputs": [],
      "stateMutability": "nonpayable",
      "type": "function"
    },
    {
      "inputs": [
        {
          "internalType": "address payable[]",
          "name": "players",
          "type": "address[]"
        }
      ],
      "name": "set_players",
      "outputs": [],
      "stateMutability": "nonpayable",
      "type": "function"
    },
    {
      "inputs": [
        {
          "internalType": "uint8",
          "name": "territoryMovingFrom",
          "type": "uint8"
        },
        {
          "internalType": "uint8",
          "name": "territoryMovingTo",
          "type": "uint8"
        },
        {
          "internalType": "uint256",
          "name": "troopsMoving",
          "type": "uint256"
        }
      ],
      "name": "transferTroops",
      "outputs": [],
      "stateMutability": "nonpayable",
      "type": "function"
    },
    {
      "inputs": [
        {
          "internalType": "uint256",
          "name": "amountOfTroops",
          "type": "uint256"
        }
      ],
      "name": "troopTransferAfterAttack",
      "outputs": [],
      "stateMutability": "nonpayable",
      "type": "function"
    }
  ],
  "transactionHash": "0x1b370a60a1ab513de264da9c4faa73b5b8dd3559227a6082b417d0a9ee745e61",
  "args": [
    "0x5FbDB2315678afecb367f032d93F642f64180aa3",
    "1",
    "0x79d3d8832d904592c0bf9818b621522c988bb8b0c05cdc3b15aea1b6e8db0c15",
    "3000000",
    "0xe7f1725E7734CE288F8367e1Bb143E90bb3F0512"
  ],
  "numDeployments": 1,
  "solcInputHash": "f851865327b17bc511bc6cb79d0af24b",
  "bytecode": "0x6101206040523480156200001257600080fd5b5060405162005490380380620054908339818101604052810190620000389190620002fa565b848073ffffffffffffffffffffffffffffffffffffffff1660808173ffffffffffffffffffffffffffffffffffffffff1660601b81525050508473ffffffffffffffffffffffffffffffffffffffff1660a08173ffffffffffffffffffffffffffffffffffffffff1660601b815250508367ffffffffffffffff1660c08167ffffffffffffffff1660c01b815250508260e081815250508163ffffffff166101008163ffffffff1660e01b8152505080600360006101000a81548173ffffffffffffffffffffffffffffffffffffffff021916908373ffffffffffffffffffffffffffffffffffffffff1602179055506001600360146101000a81548160ff0219169083600181111562000151576200015062000382565b5b02179055506003600560016101000a81548160ff021916908360ff1602179055506000600560006101000a81548160ff021916908360ff1602179055506000600860006101000a81548160ff0219169083151502179055506000600860016101000a81548160ff0219169083151502179055505050505050620003b1565b600080fd5b600073ffffffffffffffffffffffffffffffffffffffff82169050919050565b60006200020182620001d4565b9050919050565b6200021381620001f4565b81146200021f57600080fd5b50565b600081519050620002338162000208565b92915050565b600067ffffffffffffffff82169050919050565b620002588162000239565b81146200026457600080fd5b50565b60008151905062000278816200024d565b92915050565b6000819050919050565b62000293816200027e565b81146200029f57600080fd5b50565b600081519050620002b38162000288565b92915050565b600063ffffffff82169050919050565b620002d481620002b9565b8114620002e057600080fd5b50565b600081519050620002f481620002c9565b92915050565b600080600080600060a08688031215620003195762000318620001cf565b5b6000620003298882890162000222565b95505060206200033c8882890162000267565b94505060406200034f88828901620002a2565b93505060606200036288828901620002e3565b9250506080620003758882890162000222565b9150509295509295909350565b7f4e487b7100000000000000000000000000000000000000000000000000000000600052602160045260246000fd5b60805160601c60a05160601c60c05160c01c60e0516101005160e01c615087620004096000396000612c6701526000612c2301526000612c4401526000612be701526000818161097701526109cb01526150876000f3fe608060405234801561001057600080fd5b50600436106101375760003560e01c8063785776d2116100b8578063b6d5bc6f1161007c578063b6d5bc6f14610328578063bdb337d114610346578063be85fc7614610350578063c53752101461036c578063c758c1261461039c578063e89e106a146103b857610137565b8063785776d2146102845780638d2ed997146102a0578063aa181e85146102be578063ada2c7a8146102da578063af0b94d41461030a57610137565b806323c288e7116100ff57806323c288e7146101e05780632572cd6e146101fc5780635a1095f31461021a57806366f9879514610236578063780b5bf91461025457610137565b8063041dcfcc1461013c57806305ca49b01461016c578063077001b9146101885780631c6f86cc146101a65780631fe543e3146101c4575b600080fd5b61015660048036038101906101519190613be0565b6103d6565b6040516101639190613c3b565b60405180910390f35b61018660048036038101906101819190613cb4565b6107db565b005b610190610958565b60405161019d9190613cfa565b60405180910390f35b6101ae610962565b6040516101bb9190613d24565b60405180910390f35b6101de60048036038101906101d99190613ec4565b610975565b005b6101fa60048036038101906101f59190613f20565b610a35565b005b610204610c6b565b6040516102119190613f82565b60405180910390f35b610234600480360381019061022f9190613f9d565b610cc3565b005b61023e610dab565b60405161024b9190613d24565b60405180910390f35b61026e60048036038101906102699190613f9d565b610dbe565b60405161027b9190613cfa565b60405180910390f35b61029e60048036038101906102999190613f9d565b610ecf565b005b6102a86111ec565b6040516102b59190614041565b60405180910390f35b6102d860048036038101906102d3919061405c565b6111ff565b005b6102f460048036038101906102ef9190613f20565b6112e7565b6040516103019190613c3b565b60405180910390f35b610312611479565b60405161031f9190613c3b565b60405180910390f35b610330611490565b60405161033d9190613d24565b60405180910390f35b61034e6114a7565b005b61036a60048036038101906103659190613f20565b611747565b005b61038660048036038101906103819190613f9d565b611a9d565b6040516103939190613cfa565b60405180910390f35b6103b660048036038101906103b1919061418a565b611c3d565b005b6103c0611d39565b6040516103cd9190613cfa565b60405180910390f35b600060028054906101000a900473ffffffffffffffffffffffffffffffffffffffff1673ffffffffffffffffffffffffffffffffffffffff163373ffffffffffffffffffffffffffffffffffffffff161461043057600080fd5b600560019054906101000a900460ff1660ff16600360009054906101000a900473ffffffffffffffffffffffffffffffffffffffff1673ffffffffffffffffffffffffffffffffffffffff16634423b787846040518263ffffffff1660e01b815260040161049e919061420e565b602060405180830381600087803b1580156104b857600080fd5b505af11580156104cc573d6000803e3d6000fd5b505050506040513d601f19601f820116820180604052508101906104f0919061423e565b60ff1614610533576040517f08c379a000000000000000000000000000000000000000000000000000000000815260040161052a906142c8565b60405180910390fd5b6105ba6040518060400160405280600981526020017f576520686176653a200000000000000000000000000000000000000000000000815250600560009054906101000a900460ff1660ff166040518060400160405280601081526020017f74726f6f707320746f206465706c6f7900000000000000000000000000000000815250611d3f565b61061960405180606001604052806021815260200161500d602191398460ff166040518060400160405280601681526020017f2074726f6f70732c206174207465727269746f727920000000000000000000008152508560ff16611dde565b6006600560019054906101000a900460ff1660ff168154811061063f5761063e6142e8565b5b9060005260206000200160009054906101000a900473ffffffffffffffffffffffffffffffffffffffff1673ffffffffffffffffffffffffffffffffffffffff167fe92878f508d0c22d489dcd5f4ee8376a415f0ee7b5dcba2ceae2d73da0fdfce960405160405180910390a260005b8360ff1681101561075a57600360009054906101000a900473ffffffffffffffffffffffffffffffffffffffff1673ffffffffffffffffffffffffffffffffffffffff1663a3f09a93846040518263ffffffff1660e01b8152600401610715919061420e565b600060405180830381600087803b15801561072f57600080fd5b505af1158015610743573d6000803e3d6000fd5b50505050808061075290614346565b9150506106af565b5082600560008282829054906101000a900460ff16610779919061438f565b92506101000a81548160ff021916908360ff1602179055506107ac600560009054906101000a900460ff1660ff16611e80565b6000600560009054906101000a900460ff1660ff1614156107d057600090506107d5565b600190505b92915050565b6001808111156107ee576107ed613fca565b5b600360149054906101000a900460ff1660018111156108105761080f613fca565b5b1461081a57600080fd5b8073ffffffffffffffffffffffffffffffffffffffff167fc347a26bea69a31d705cd31225784accd8aabfcba5952e3b6c2d66429acaca4f60405160405180910390a2806002806101000a81548173ffffffffffffffffffffffffffffffffffffffff021916908373ffffffffffffffffffffffffffffffffffffffff1602179055506000600360146101000a81548160ff021916908360018111156108c3576108c2613fca565b5b0217905550600360009054906101000a900473ffffffffffffffffffffffffffffffffffffffff1673ffffffffffffffffffffffffffffffffffffffff1663b0876995306040518263ffffffff1660e01b81526004016109239190613f82565b600060405180830381600087803b15801561093d57600080fd5b505af1158015610951573d6000803e3d6000fd5b5050505050565b6000600454905090565b600560009054906101000a900460ff1681565b7f000000000000000000000000000000000000000000000000000000000000000073ffffffffffffffffffffffffffffffffffffffff163373ffffffffffffffffffffffffffffffffffffffff1614610a2757337f00000000000000000000000000000000000000000000000000000000000000006040517f1cf993f4000000000000000000000000000000000000000000000000000000008152600401610a1e9291906143c3565b60405180910390fd5b610a318282611f19565b5050565b600360009054906101000a900473ffffffffffffffffffffffffffffffffffffffff1673ffffffffffffffffffffffffffffffffffffffff1663d2885910846040518263ffffffff1660e01b8152600401610a90919061420e565b60206040518083038186803b158015610aa857600080fd5b505afa158015610abc573d6000803e3d6000fd5b505050506040513d601f19601f82011682018060405250810190610ae09190614401565b81108015610aee5750600081115b610b2d576040517f08c379a0000000000000000000000000000000000000000000000000000000008152600401610b24906144a0565b60405180910390fd5b60005b81811015610c6557600360009054906101000a900473ffffffffffffffffffffffffffffffffffffffff1673ffffffffffffffffffffffffffffffffffffffff1663a3f09a93846040518263ffffffff1660e01b8152600401610b93919061420e565b600060405180830381600087803b158015610bad57600080fd5b505af1158015610bc1573d6000803e3d6000fd5b50505050600360009054906101000a900473ffffffffffffffffffffffffffffffffffffffff1673ffffffffffffffffffffffffffffffffffffffff1663d86819d7856040518263ffffffff1660e01b8152600401610c20919061420e565b600060405180830381600087803b158015610c3a57600080fd5b505af1158015610c4e573d6000803e3d6000fd5b505050508080610c5d90614346565b915050610b30565b50505050565b60006006600560019054906101000a900460ff1660ff1681548110610c9357610c926142e8565b5b9060005260206000200160009054906101000a900473ffffffffffffffffffffffffffffffffffffffff16905090565b60028054906101000a900473ffffffffffffffffffffffffffffffffffffffff1673ffffffffffffffffffffffffffffffffffffffff163373ffffffffffffffffffffffffffffffffffffffff1614610d1b57600080fd5b600360009054906101000a900473ffffffffffffffffffffffffffffffffffffffff1673ffffffffffffffffffffffffffffffffffffffff1663a3f09a93826040518263ffffffff1660e01b8152600401610d769190613cfa565b600060405180830381600087803b158015610d9057600080fd5b505af1158015610da4573d6000803e3d6000fd5b5050505050565b600560019054906101000a900460ff1681565b600060028054906101000a900473ffffffffffffffffffffffffffffffffffffffff1673ffffffffffffffffffffffffffffffffffffffff163373ffffffffffffffffffffffffffffffffffffffff1614610e1857600080fd5b600360009054906101000a900473ffffffffffffffffffffffffffffffffffffffff1673ffffffffffffffffffffffffffffffffffffffff16634423b787836040518263ffffffff1660e01b8152600401610e739190613cfa565b602060405180830381600087803b158015610e8d57600080fd5b505af1158015610ea1573d6000803e3d6000fd5b505050506040513d601f19601f82011682018060405250810190610ec5919061423e565b60ff169050919050565b600860009054906101000a900460ff16610ee857600080fd5b3373ffffffffffffffffffffffffffffffffffffffff166006600560019054906101000a900460ff1660ff1681548110610f2557610f246142e8565b5b9060005260206000200160009054906101000a900473ffffffffffffffffffffffffffffffffffffffff1673ffffffffffffffffffffffffffffffffffffffff1614610f7057600080fd5b600360009054906101000a900473ffffffffffffffffffffffffffffffffffffffff1673ffffffffffffffffffffffffffffffffffffffff1663d2885910600260009054906101000a900460ff166040518263ffffffff1660e01b8152600401610fda919061420e565b60206040518083038186803b158015610ff257600080fd5b505afa158015611006573d6000803e3d6000fd5b505050506040513d601f19601f8201168201806040525081019061102a9190614401565b811080156110385750600081115b611077576040517f08c379a000000000000000000000000000000000000000000000000000000000815260040161106e906144a0565b60405180910390fd5b60005b818110156111cd57600360009054906101000a900473ffffffffffffffffffffffffffffffffffffffff1673ffffffffffffffffffffffffffffffffffffffff1663a3f09a93600260019054906101000a900460ff166040518263ffffffff1660e01b81526004016110ec919061420e565b600060405180830381600087803b15801561110657600080fd5b505af115801561111a573d6000803e3d6000fd5b50505050600360009054906101000a900473ffffffffffffffffffffffffffffffffffffffff1673ffffffffffffffffffffffffffffffffffffffff1663d86819d7600260009054906101000a900460ff166040518263ffffffff1660e01b8152600401611188919061420e565b600060405180830381600087803b1580156111a257600080fd5b505af11580156111b6573d6000803e3d6000fd5b5050505080806111c590614346565b91505061107a565b506000600860006101000a81548160ff02191690831515021790555050565b600360149054906101000a900460ff1681565b60028054906101000a900473ffffffffffffffffffffffffffffffffffffffff1673ffffffffffffffffffffffffffffffffffffffff163373ffffffffffffffffffffffffffffffffffffffff161461125757600080fd5b600360009054906101000a900473ffffffffffffffffffffffffffffffffffffffff1673ffffffffffffffffffffffffffffffffffffffff166321eb9dab826040518263ffffffff1660e01b81526004016112b29190613d24565b600060405180830381600087803b1580156112cc57600080fd5b505af11580156112e0573d6000803e3d6000fd5b5050505050565b600060028054906101000a900473ffffffffffffffffffffffffffffffffffffffff1673ffffffffffffffffffffffffffffffffffffffff163373ffffffffffffffffffffffffffffffffffffffff161461134157600080fd5b61137f6040518060400160405280601681526020017f696e7369646520666f72746966795f636f6e74726f6c00000000000000000000815250611f95565b6006600560019054906101000a900460ff1660ff16815481106113a5576113a46142e8565b5b9060005260206000200160009054906101000a900473ffffffffffffffffffffffffffffffffffffffff1673ffffffffffffffffffffffffffffffffffffffff167fe5e8bf4ce065b9d690ddea8f25596e4baf50c582be4eacf4717653e910adf52860405160405180910390a261141c848461202e565b61145b576040517f08c379a000000000000000000000000000000000000000000000000000000000815260040161145290614558565b60405180910390fd5b611466848484610a35565b61146e612401565b600190509392505050565b6000600860009054906101000a900460ff16905090565b6000600560009054906101000a900460ff16905090565b60011515600860019054906101000a900460ff161515146114c757600080fd5b60006006600560019054906101000a900460ff1660ff16815481106114ef576114ee6142e8565b5b9060005260206000200160009054906101000a900473ffffffffffffffffffffffffffffffffffffffff1690508073ffffffffffffffffffffffffffffffffffffffff167ff556ad7790e70877edcf3b3bb441255def8a405faa0dfdb005a02fa8e557bca960405160405180910390a2600060028054906101000a900473ffffffffffffffffffffffffffffffffffffffff1673ffffffffffffffffffffffffffffffffffffffff16826040516024016115a99190613f82565b6040516020818303038152906040527f19b09f9b000000000000000000000000000000000000000000000000000000007bffffffffffffffffffffffffffffffffffffffffffffffffffffffff19166020820180517bffffffffffffffffffffffffffffffffffffffffffffffffffffffff838183161783525050505060405161163391906145f2565b6000604051808303816000865af19150503d8060008114611670576040519150601f19603f3d011682016040523d82523d6000602084013e611675565b606091505b50509050806116b9576040517f08c379a00000000000000000000000000000000000000000000000000000000081526004016116b090614655565b60405180910390fd5b600360009054906101000a900473ffffffffffffffffffffffffffffffffffffffff1673ffffffffffffffffffffffffffffffffffffffff1663478c4e0e6040518163ffffffff1660e01b8152600401600060405180830381600087803b15801561172357600080fd5b505af1158015611737573d6000803e3d6000fd5b50505050611743612862565b5050565b60028054906101000a900473ffffffffffffffffffffffffffffffffffffffff1673ffffffffffffffffffffffffffffffffffffffff163373ffffffffffffffffffffffffffffffffffffffff161461179f57600080fd5b6117a98383612932565b6117e8576040517f08c379a00000000000000000000000000000000000000000000000000000000081526004016117df906146e7565b60405180910390fd5b600360009054906101000a900473ffffffffffffffffffffffffffffffffffffffff1673ffffffffffffffffffffffffffffffffffffffff1663d2885910846040518263ffffffff1660e01b8152600401611843919061420e565b60206040518083038186803b15801561185b57600080fd5b505afa15801561186f573d6000803e3d6000fd5b505050506040513d601f19601f820116820180604052508101906118939190614401565b811080156118a15750600081115b6118e0576040517f08c379a00000000000000000000000000000000000000000000000000000000081526004016118d790614779565b60405180910390fd5b6006600560019054906101000a900460ff1660ff1681548110611906576119056142e8565b5b9060005260206000200160009054906101000a900473ffffffffffffffffffffffffffffffffffffffff1673ffffffffffffffffffffffffffffffffffffffff167f4faa3127e27f3f0467a37943f210253ed28fe31be9064ac5e66ed6e805c947c260405160405180910390a26000600360009054906101000a900473ffffffffffffffffffffffffffffffffffffffff1673ffffffffffffffffffffffffffffffffffffffff1663d2885910846040518263ffffffff1660e01b81526004016119d0919061420e565b60206040518083038186803b1580156119e857600080fd5b505afa1580156119fc573d6000803e3d6000fd5b505050506040513d601f19601f82011682018060405250810190611a209190614401565b905060028110611a335760029050611a38565b600190505b6000611a448383612b7d565b905084600260006101000a81548160ff021916908360ff16021790555083600260016101000a81548160ff021916908360ff1602179055508260008190555081600181905550611a968160ff16612be5565b5050505050565b6000806000905060005b602a811015611c335783600360009054906101000a900473ffffffffffffffffffffffffffffffffffffffff1673ffffffffffffffffffffffffffffffffffffffff16634423b787836040518263ffffffff1660e01b8152600401611b0c9190613cfa565b602060405180830381600087803b158015611b2657600080fd5b505af1158015611b3a573d6000803e3d6000fd5b505050506040513d601f19601f82011682018060405250810190611b5e919061423e565b60ff161415611c2057600360009054906101000a900473ffffffffffffffffffffffffffffffffffffffff1673ffffffffffffffffffffffffffffffffffffffff1663d2885910826040518263ffffffff1660e01b8152600401611bc29190613cfa565b60206040518083038186803b158015611bda57600080fd5b505afa158015611bee573d6000803e3d6000fd5b505050506040513d601f19601f82011682018060405250810190611c129190614401565b82611c1d9190614799565b91505b8080611c2b90614346565b915050611aa7565b5080915050919050565b60028054906101000a900473ffffffffffffffffffffffffffffffffffffffff1673ffffffffffffffffffffffffffffffffffffffff163373ffffffffffffffffffffffffffffffffffffffff1614611c9557600080fd5b8060069080519060200190611cab929190613a9f565b50600360009054906101000a900473ffffffffffffffffffffffffffffffffffffffff1673ffffffffffffffffffffffffffffffffffffffff16633bee987f6040518163ffffffff1660e01b8152600401600060405180830381600087803b158015611d1657600080fd5b505af1158015611d2a573d6000803e3d6000fd5b50505050611d36612401565b50565b60045481565b611dd9838383604051602401611d5793929190614833565b6040516020818303038152906040527f5970e089000000000000000000000000000000000000000000000000000000007bffffffffffffffffffffffffffffffffffffffffffffffffffffffff19166020820180517bffffffffffffffffffffffffffffffffffffffffffffffffffffffff8381831617835250505050612d31565b505050565b611e7a84848484604051602401611df89493929190614878565b6040516020818303038152906040527fc67ea9d1000000000000000000000000000000000000000000000000000000007bffffffffffffffffffffffffffffffffffffffffffffffffffffffff19166020820180517bffffffffffffffffffffffffffffffffffffffffffffffffffffffff8381831617835250505050612d31565b50505050565b611f1681604051602401611e949190613cfa565b6040516020818303038152906040527ff82c50f1000000000000000000000000000000000000000000000000000000007bffffffffffffffffffffffffffffffffffffffffffffffffffffffff19166020820180517bffffffffffffffffffffffffffffffffffffffffffffffffffffffff8381831617835250505050612d31565b50565b8060079080519060200190611f2f929190613b29565b507f48ed86bcf5a9db215d430a3d797d5fd900be09379a002b6f37891bd2aacbe5cf60405160405180910390a1611f91600054600154600260009054906101000a900460ff1660ff16600260019054906101000a900460ff1660ff1685612d5a565b5050565b61202b81604051602401611fa991906148cb565b6040516020818303038152906040527f41304fac000000000000000000000000000000000000000000000000000000007bffffffffffffffffffffffffffffffffffffffffffffffffffffffff19166020820180517bffffffffffffffffffffffffffffffffffffffffffffffffffffffff8381831617835250505050612d31565b50565b60006001600360009054906101000a900473ffffffffffffffffffffffffffffffffffffffff1673ffffffffffffffffffffffffffffffffffffffff1663d2885910856040518263ffffffff1660e01b815260040161208d919061420e565b60206040518083038186803b1580156120a557600080fd5b505afa1580156120b9573d6000803e3d6000fd5b505050506040513d601f19601f820116820180604052508101906120dd9190614401565b1161211d576040517f08c379a00000000000000000000000000000000000000000000000000000000081526004016121149061495f565b60405180910390fd5b61212d8360ff168360ff16613731565b612295600360009054906101000a900473ffffffffffffffffffffffffffffffffffffffff1673ffffffffffffffffffffffffffffffffffffffff16634423b787856040518263ffffffff1660e01b815260040161218b919061420e565b602060405180830381600087803b1580156121a557600080fd5b505af11580156121b9573d6000803e3d6000fd5b505050506040513d601f19601f820116820180604052508101906121dd919061423e565b60ff16600360009054906101000a900473ffffffffffffffffffffffffffffffffffffffff1673ffffffffffffffffffffffffffffffffffffffff16634423b787856040518263ffffffff1660e01b815260040161223b919061420e565b602060405180830381600087803b15801561225557600080fd5b505af1158015612269573d6000803e3d6000fd5b505050506040513d601f19601f8201168201806040525081019061228d919061423e565b60ff16613731565b61229e836137cd565b80156122af57506122ae826137cd565b5b6122ee576040517f08c379a00000000000000000000000000000000000000000000000000000000081526004016122e5906149f1565b60405180910390fd5b6000600360009054906101000a900473ffffffffffffffffffffffffffffffffffffffff1673ffffffffffffffffffffffffffffffffffffffff166389290109856040518263ffffffff1660e01b815260040161234b919061420e565b60006040518083038186803b15801561236357600080fd5b505afa158015612377573d6000803e3d6000fd5b505050506040513d6000823e3d601f19601f820116820180604052508101906123a09190614ad4565b905060005b60068110156123f4578181815181106123c1576123c06142e8565b5b602002602001015160ff168460ff1614156123e1576001925050506123fb565b80806123ec90614346565b9150506123a5565b5060009150505b92915050565b6005600181819054906101000a900460ff168092919061242090614b1d565b91906101000a81548160ff021916908360ff16021790555050600680549050600560019054906101000a900460ff1660ff161415612475576000600560016101000a81548160ff021916908360ff1602179055505b600360009054906101000a900473ffffffffffffffffffffffffffffffffffffffff1673ffffffffffffffffffffffffffffffffffffffff166364b6667d6040518163ffffffff1660e01b8152600401600060405180830381600087803b1580156124df57600080fd5b505af11580156124f3573d6000803e3d6000fd5b505050506000600560006101000a81548160ff021916908360ff16021790555060005b60068110156126da57600560019054906101000a900460ff1660ff16600360009054906101000a900473ffffffffffffffffffffffffffffffffffffffff1673ffffffffffffffffffffffffffffffffffffffff16630452338e836040518263ffffffff1660e01b815260040161258d9190613cfa565b60206040518083038186803b1580156125a557600080fd5b505afa1580156125b9573d6000803e3d6000fd5b505050506040513d601f19601f820116820180604052508101906125dd919061423e565b60ff1614156126c757600360009054906101000a900473ffffffffffffffffffffffffffffffffffffffff1673ffffffffffffffffffffffffffffffffffffffff16631e8d6c3c826040518263ffffffff1660e01b81526004016126419190613cfa565b60206040518083038186803b15801561265957600080fd5b505afa15801561266d573d6000803e3d6000fd5b505050506040513d601f19601f82011682018060405250810190612691919061423e565b600560008282829054906101000a900460ff166126ae9190614b47565b92506101000a81548160ff021916908360ff1602179055505b80806126d290614346565b915050612516565b506000805b602a8110156127d357600560019054906101000a900460ff1660ff16600360009054906101000a900473ffffffffffffffffffffffffffffffffffffffff1673ffffffffffffffffffffffffffffffffffffffff16634423b787836040518263ffffffff1660e01b81526004016127569190613cfa565b602060405180830381600087803b15801561277057600080fd5b505af1158015612784573d6000803e3d6000fd5b505050506040513d601f19601f820116820180604052508101906127a8919061423e565b60ff1614156127c05781806127bc90614b1d565b9250505b80806127cb90614346565b9150506126df565b5060098160ff16101561281c576003600560008282829054906101000a900460ff166127ff9190614b47565b92506101000a81548160ff021916908360ff16021790555061285f565b6003816128299190614bad565b600560008282829054906101000a900460ff166128469190614b47565b92506101000a81548160ff021916908360ff1602179055505b50565b6003600560016101000a81548160ff021916908360ff1602179055506000600560006101000a81548160ff021916908360ff1602179055506000600860006101000a81548160ff0219169083151502179055506000600860016101000a81548160ff021916908315150217905550600067ffffffffffffffff8111156128eb576128ea613d81565b5b6040519080825280602002602001820160405280156129195781602001602082028036833780820191505090505b506006908051906020019061292f929190613a9f565b50565b60006001600360009054906101000a900473ffffffffffffffffffffffffffffffffffffffff1673ffffffffffffffffffffffffffffffffffffffff1663d2885910856040518263ffffffff1660e01b8152600401612991919061420e565b60206040518083038186803b1580156129a957600080fd5b505afa1580156129bd573d6000803e3d6000fd5b505050506040513d601f19601f820116820180604052508101906129e19190614401565b11612a21576040517f08c379a0000000000000000000000000000000000000000000000000000000008152600401612a1890614c76565b60405180910390fd5b612a2a826137cd565b15612a6a576040517f08c379a0000000000000000000000000000000000000000000000000000000008152600401612a6190614d08565b60405180910390fd5b6000600360009054906101000a900473ffffffffffffffffffffffffffffffffffffffff1673ffffffffffffffffffffffffffffffffffffffff166389290109856040518263ffffffff1660e01b8152600401612ac7919061420e565b60006040518083038186803b158015612adf57600080fd5b505afa158015612af3573d6000803e3d6000fd5b505050506040513d6000823e3d601f19601f82011682018060405250810190612b1c9190614ad4565b905060005b6006811015612b7057818181518110612b3d57612b3c6142e8565b5b602002602001015160ff168460ff161415612b5d57600192505050612b77565b8080612b6890614346565b915050612b21565b5060009150505b92915050565b600080600090506003841415612b965760039050612bae565b6002841415612ba85760029050612bad565b600190505b5b6002831415612bcb57600281612bc49190614b47565b9050612bdb565b600181612bd89190614b47565b90505b8091505092915050565b7f000000000000000000000000000000000000000000000000000000000000000073ffffffffffffffffffffffffffffffffffffffff16635d3b1d307f00000000000000000000000000000000000000000000000000000000000000007f000000000000000000000000000000000000000000000000000000000000000060037f0000000000000000000000000000000000000000000000000000000000000000866040518663ffffffff1660e01b8152600401612ca7959493929190614da0565b602060405180830381600087803b158015612cc157600080fd5b505af1158015612cd5573d6000803e3d6000fd5b505050506040513d601f19601f82011682018060405250810190612cf99190614401565b6004819055506004547f20d9f2861ba87fcdc90b5f0254ea9210c08b0aaf238de5b53049db100f4f6a5760405160405180910390a250565b60008151905060006a636f6e736f6c652e6c6f679050602083016000808483855afa5050505050565b612d986040518060400160405280601b81526020017f496e736964652074686520626174746c652066756e6374696f6e2e0000000000815250611f95565b60008567ffffffffffffffff811115612db457612db3613d81565b5b604051908082528060200260200182016040528015612de25781602001602082028036833780820191505090505b50905060008567ffffffffffffffff811115612e0157612e00613d81565b5b604051908082528060200260200182016040528015612e2f5781602001602082028036833780820191505090505b50905060005b8688612e419190614799565b811015612f005787811015612e9b576006848281518110612e6557612e646142e8565b5b6020026020010151612e779190614df3565b838281518110612e8a57612e896142e8565b5b602002602001018181525050612eed565b6006848281518110612eb057612eaf6142e8565b5b6020026020010151612ec29190614df3565b828983612ecf9190614e24565b81518110612ee057612edf6142e8565b5b6020026020010181815250505b8080612ef890614346565b915050612e35565b50612f0a826138b1565b612f13816138b1565b612f516040518060400160405280601881526020017f41747461636b65722064696520726f6c6c73206172653a200000000000000000815250611f95565b60005b8251811015612f9357612f80838281518110612f7357612f726142e8565b5b6020026020010151611e80565b8080612f8b90614346565b915050612f54565b50612fd26040518060400160405280601881526020017f446566656e6465722064696520726f6c6c73206172653a200000000000000000815250611f95565b60005b815181101561301457613001828281518110612ff457612ff36142e8565b5b6020026020010151611e80565b808061300c90614346565b915050612fd5565b506000868811156130275786905061302b565b8790505b61306a6040518060400160405280601f81526020017f546865206e756d626572206f662061747461636b732077696c6c2062653a2000815250826139bf565b60005b8181101561372657828181518110613088576130876142e8565b5b60200260200101518482815181106130a3576130a26142e8565b5b60200260200101511115613647576130ef6040518060400160405280601b81526020017f5468652061747461636b657220776f6e20616e2061747461636b2e0000000000815250611f95565b600360009054906101000a900473ffffffffffffffffffffffffffffffffffffffff1673ffffffffffffffffffffffffffffffffffffffff1663d86819d7876040518263ffffffff1660e01b815260040161314a9190613cfa565b600060405180830381600087803b15801561316457600080fd5b505af1158015613178573d6000803e3d6000fd5b5050505061324860405180606001604052806024815260200161502e60249139600360009054906101000a900473ffffffffffffffffffffffffffffffffffffffff1673ffffffffffffffffffffffffffffffffffffffff1663d2885910896040518263ffffffff1660e01b81526004016131f39190613cfa565b60206040518083038186803b15801561320b57600080fd5b505afa15801561321f573d6000803e3d6000fd5b505050506040513d601f19601f820116820180604052508101906132439190614401565b6139bf565b6000600360009054906101000a900473ffffffffffffffffffffffffffffffffffffffff1673ffffffffffffffffffffffffffffffffffffffff1663d2885910886040518263ffffffff1660e01b81526004016132a59190613cfa565b60206040518083038186803b1580156132bd57600080fd5b505afa1580156132d1573d6000803e3d6000fd5b505050506040513d601f19601f820116820180604052508101906132f59190614401565b141561364257600360009054906101000a900473ffffffffffffffffffffffffffffffffffffffff1673ffffffffffffffffffffffffffffffffffffffff1663b66831e287600560019054906101000a900460ff166040518363ffffffff1660e01b8152600401613367929190614e58565b600060405180830381600087803b15801561338157600080fd5b505af1158015613395573d6000803e3d6000fd5b50505050600360009054906101000a900473ffffffffffffffffffffffffffffffffffffffff1673ffffffffffffffffffffffffffffffffffffffff1663d86819d7886040518263ffffffff1660e01b81526004016133f49190613cfa565b600060405180830381600087803b15801561340e57600080fd5b505af1158015613422573d6000803e3d6000fd5b50505050600360009054906101000a900473ffffffffffffffffffffffffffffffffffffffff1673ffffffffffffffffffffffffffffffffffffffff1663a3f09a93876040518263ffffffff1660e01b81526004016134819190613cfa565b600060405180830381600087803b15801561349b57600080fd5b505af11580156134af573d6000803e3d6000fd5b505050506001600860006101000a81548160ff0219169083151502179055506000600360009054906101000a900473ffffffffffffffffffffffffffffffffffffffff1673ffffffffffffffffffffffffffffffffffffffff16634423b787886040518263ffffffff1660e01b815260040161352b9190613cfa565b602060405180830381600087803b15801561354557600080fd5b505af1158015613559573d6000803e3d6000fd5b505050506040513d601f19601f8201168201806040525081019061357d919061423e565b60ff169050600061358d82611a9d565b141561359d5761359c81613a5b565b5b600160068054905014156135d3576135b36114a7565b6001600860016101000a81548160ff021916908315150217905550613640565b867f91c9edc9b039d5f7fae48dcc2f589f5e1f79055249eaca570a445d00692b14ee60405160405180910390a261363f6040518060400160405280601681526020017f63616e207472616e736665722074726f6f707320746f00000000000000000000815250886139bf565b5b505b613713565b6136856040518060400160405280601b81526020017f54686520646566656e64657220776f6e20616e2061747461636b2e0000000000815250611f95565b600360009054906101000a900473ffffffffffffffffffffffffffffffffffffffff1673ffffffffffffffffffffffffffffffffffffffff1663d86819d7886040518263ffffffff1660e01b81526004016136e09190613cfa565b600060405180830381600087803b1580156136fa57600080fd5b505af115801561370e573d6000803e3d6000fd5b505050505b808061371e90614346565b91505061306d565b505050505050505050565b6137c98282604051602401613747929190614e81565b6040516020818303038152906040527ff666715a000000000000000000000000000000000000000000000000000000007bffffffffffffffffffffffffffffffffffffffffffffffffffffffff19166020820180517bffffffffffffffffffffffffffffffffffffffffffffffffffffffff8381831617835250505050612d31565b5050565b600080600360009054906101000a900473ffffffffffffffffffffffffffffffffffffffff1673ffffffffffffffffffffffffffffffffffffffff16634423b787846040518263ffffffff1660e01b815260040161382b919061420e565b602060405180830381600087803b15801561384557600080fd5b505af1158015613859573d6000803e3d6000fd5b505050506040513d601f19601f8201168201806040525081019061387d919061423e565b9050600560019054906101000a900460ff1660ff168160ff1614156138a65760019150506138ac565b60009150505b919050565b6000806000600192505b83518310156139b9578383815181106138d7576138d66142e8565b5b602002602001015191506001836138ee9190614e24565b90505b6000811215801561391b575081848281518110613911576139106142e8565b5b6020026020010151105b1561397a57838181518110613933576139326142e8565b5b6020026020010151846001836139499190614eb4565b8151811061395a576139596142e8565b5b6020026020010181815250506001816139739190614f48565b90506138f1565b81846001836139899190614eb4565b8151811061399a576139996142e8565b5b60200260200101818152505082806139b190614346565b9350506138bb565b50505050565b613a5782826040516024016139d5929190614fdc565b6040516020818303038152906040527fb60e72cc000000000000000000000000000000000000000000000000000000007bffffffffffffffffffffffffffffffffffffffffffffffffffffffff19166020820180517bffffffffffffffffffffffffffffffffffffffffffffffffffffffff8381831617835250505050612d31565b5050565b60068181548110613a6f57613a6e6142e8565b5b9060005260206000200160006101000a81549073ffffffffffffffffffffffffffffffffffffffff021916905550565b828054828255906000526020600020908101928215613b18579160200282015b82811115613b175782518260006101000a81548173ffffffffffffffffffffffffffffffffffffffff021916908373ffffffffffffffffffffffffffffffffffffffff16021790555091602001919060010190613abf565b5b509050613b259190613b76565b5090565b828054828255906000526020600020908101928215613b65579160200282015b82811115613b64578251825591602001919060010190613b49565b5b509050613b729190613b76565b5090565b5b80821115613b8f576000816000905550600101613b77565b5090565b6000604051905090565b600080fd5b600080fd5b600060ff82169050919050565b613bbd81613ba7565b8114613bc857600080fd5b50565b600081359050613bda81613bb4565b92915050565b60008060408385031215613bf757613bf6613b9d565b5b6000613c0585828601613bcb565b9250506020613c1685828601613bcb565b9150509250929050565b60008115159050919050565b613c3581613c20565b82525050565b6000602082019050613c506000830184613c2c565b92915050565b600073ffffffffffffffffffffffffffffffffffffffff82169050919050565b6000613c8182613c56565b9050919050565b613c9181613c76565b8114613c9c57600080fd5b50565b600081359050613cae81613c88565b92915050565b600060208284031215613cca57613cc9613b9d565b5b6000613cd884828501613c9f565b91505092915050565b6000819050919050565b613cf481613ce1565b82525050565b6000602082019050613d0f6000830184613ceb565b92915050565b613d1e81613ba7565b82525050565b6000602082019050613d396000830184613d15565b92915050565b613d4881613ce1565b8114613d5357600080fd5b50565b600081359050613d6581613d3f565b92915050565b600080fd5b6000601f19601f8301169050919050565b7f4e487b7100000000000000000000000000000000000000000000000000000000600052604160045260246000fd5b613db982613d70565b810181811067ffffffffffffffff82111715613dd857613dd7613d81565b5b80604052505050565b6000613deb613b93565b9050613df78282613db0565b919050565b600067ffffffffffffffff821115613e1757613e16613d81565b5b602082029050602081019050919050565b600080fd5b6000613e40613e3b84613dfc565b613de1565b90508083825260208201905060208402830185811115613e6357613e62613e28565b5b835b81811015613e8c5780613e788882613d56565b845260208401935050602081019050613e65565b5050509392505050565b600082601f830112613eab57613eaa613d6b565b5b8135613ebb848260208601613e2d565b91505092915050565b60008060408385031215613edb57613eda613b9d565b5b6000613ee985828601613d56565b925050602083013567ffffffffffffffff811115613f0a57613f09613ba2565b5b613f1685828601613e96565b9150509250929050565b600080600060608486031215613f3957613f38613b9d565b5b6000613f4786828701613bcb565b9350506020613f5886828701613bcb565b9250506040613f6986828701613d56565b9150509250925092565b613f7c81613c76565b82525050565b6000602082019050613f976000830184613f73565b92915050565b600060208284031215613fb357613fb2613b9d565b5b6000613fc184828501613d56565b91505092915050565b7f4e487b7100000000000000000000000000000000000000000000000000000000600052602160045260246000fd5b6002811061400a57614009613fca565b5b50565b600081905061401b82613ff9565b919050565b600061402b8261400d565b9050919050565b61403b81614020565b82525050565b60006020820190506140566000830184614032565b92915050565b60006020828403121561407257614071613b9d565b5b600061408084828501613bcb565b91505092915050565b600067ffffffffffffffff8211156140a4576140a3613d81565b5b602082029050602081019050919050565b60006140c082613c56565b9050919050565b6140d0816140b5565b81146140db57600080fd5b50565b6000813590506140ed816140c7565b92915050565b600061410661410184614089565b613de1565b9050808382526020820190506020840283018581111561412957614128613e28565b5b835b81811015614152578061413e88826140de565b84526020840193505060208101905061412b565b5050509392505050565b600082601f83011261417157614170613d6b565b5b81356141818482602086016140f3565b91505092915050565b6000602082840312156141a05761419f613b9d565b5b600082013567ffffffffffffffff8111156141be576141bd613ba2565b5b6141ca8482850161415c565b91505092915050565b6000819050919050565b60006141f86141f36141ee84613ba7565b6141d3565b613ce1565b9050919050565b614208816141dd565b82525050565b600060208201905061422360008301846141ff565b92915050565b60008151905061423881613bb4565b92915050565b60006020828403121561425457614253613b9d565b5b600061426284828501614229565b91505092915050565b600082825260208201905092915050565b7f596f7520646f206e6f74206f776e2074686973207465727269746f7279000000600082015250565b60006142b2601d8361426b565b91506142bd8261427c565b602082019050919050565b600060208201905081810360008301526142e1816142a5565b9050919050565b7f4e487b7100000000000000000000000000000000000000000000000000000000600052603260045260246000fd5b7f4e487b7100000000000000000000000000000000000000000000000000000000600052601160045260246000fd5b600061435182613ce1565b91507fffffffffffffffffffffffffffffffffffffffffffffffffffffffffffffffff82141561438457614383614317565b5b600182019050919050565b600061439a82613ba7565b91506143a583613ba7565b9250828210156143b8576143b7614317565b5b828203905092915050565b60006040820190506143d86000830185613f73565b6143e56020830184613f73565b9392505050565b6000815190506143fb81613d3f565b92915050565b60006020828403121561441757614416613b9d565b5b6000614425848285016143ec565b91505092915050565b7f596f752063616e6e6f74206d6f7665207468617420616d6f756e74206f66207460008201527f726f6f7073210000000000000000000000000000000000000000000000000000602082015250565b600061448a60268361426b565b91506144958261442e565b604082019050919050565b600060208201905081810360008301526144b98161447d565b9050919050565b7f5465727269746f727920796f752061726520747279696e67206d6f766520747260008201527f6f6f707320746f206973206e6f74206f6e65206f6620796f7572206e6569676860208201527f626f757273210000000000000000000000000000000000000000000000000000604082015250565b600061454260468361426b565b915061454d826144c0565b606082019050919050565b6000602082019050818103600083015261457181614535565b9050919050565b600081519050919050565b600081905092915050565b60005b838110156145ac578082015181840152602081019050614591565b838111156145bb576000848401525b50505050565b60006145cc82614578565b6145d68185614583565b93506145e681856020860161458e565b80840191505092915050565b60006145fe82846145c1565b915081905092915050565b7f63616c6c20746f206d61696e206661696c656400000000000000000000000000600082015250565b600061463f60138361426b565b915061464a82614609565b602082019050919050565b6000602082019050818103600083015261466e81614632565b9050919050565b7f5465727269746f727920796f752061726520747279696e6720746f206174746160008201527f636b206973206e6f742061206e65696768626f75722100000000000000000000602082015250565b60006146d160368361426b565b91506146dc82614675565b604082019050919050565b60006020820190508181036000830152614700816146c4565b9050919050565b7f596f752063616e6e6f742061747461636b20776974682074686174206d616e7960008201527f2074726f6f707321000000000000000000000000000000000000000000000000602082015250565b600061476360288361426b565b915061476e82614707565b604082019050919050565b6000602082019050818103600083015261479281614756565b9050919050565b60006147a482613ce1565b91506147af83613ce1565b9250827fffffffffffffffffffffffffffffffffffffffffffffffffffffffffffffffff038211156147e4576147e3614317565b5b828201905092915050565b600081519050919050565b6000614805826147ef565b61480f818561426b565b935061481f81856020860161458e565b61482881613d70565b840191505092915050565b6000606082019050818103600083015261484d81866147fa565b905061485c6020830185613ceb565b818103604083015261486e81846147fa565b9050949350505050565b6000608082019050818103600083015261489281876147fa565b90506148a16020830186613ceb565b81810360408301526148b381856147fa565b90506148c26060830184613ceb565b95945050505050565b600060208201905081810360008301526148e581846147fa565b905092915050565b7f596f75206d7573742068617665206d6f7265207468616e20312074726f6f702060008201527f746f206d6f766521000000000000000000000000000000000000000000000000602082015250565b600061494960288361426b565b9150614954826148ed565b604082019050919050565b600060208201905081810360008301526149788161493c565b9050919050565b7f596f75206d757374206f776e20626f7468207465727269746f7269657320746f60008201527f206d6f76652074726f6f70732100000000000000000000000000000000000000602082015250565b60006149db602d8361426b565b91506149e68261497f565b604082019050919050565b60006020820190508181036000830152614a0a816149ce565b9050919050565b600067ffffffffffffffff821115614a2c57614a2b613d81565b5b602082029050602081019050919050565b6000614a50614a4b84614a11565b613de1565b90508083825260208201905060208402830185811115614a7357614a72613e28565b5b835b81811015614a9c5780614a888882614229565b845260208401935050602081019050614a75565b5050509392505050565b600082601f830112614abb57614aba613d6b565b5b8151614acb848260208601614a3d565b91505092915050565b600060208284031215614aea57614ae9613b9d565b5b600082015167ffffffffffffffff811115614b0857614b07613ba2565b5b614b1484828501614aa6565b91505092915050565b6000614b2882613ba7565b915060ff821415614b3c57614b3b614317565b5b600182019050919050565b6000614b5282613ba7565b9150614b5d83613ba7565b92508260ff03821115614b7357614b72614317565b5b828201905092915050565b7f4e487b7100000000000000000000000000000000000000000000000000000000600052601260045260246000fd5b6000614bb882613ba7565b9150614bc383613ba7565b925082614bd357614bd2614b7e565b5b828204905092915050565b7f596f75206d7573742068617665206174206c6561737420312074726f6f70207260008201527f656d61696e696e6720696e20796f7572207465727269746f727920746f20617460208201527f7461636b21000000000000000000000000000000000000000000000000000000604082015250565b6000614c6060458361426b565b9150614c6b82614bde565b606082019050919050565b60006020820190508181036000830152614c8f81614c53565b9050919050565b7f596f752063616e6e6f742061747461636b20796f7572206f776e20746572726960008201527f746f727921000000000000000000000000000000000000000000000000000000602082015250565b6000614cf260258361426b565b9150614cfd82614c96565b604082019050919050565b60006020820190508181036000830152614d2181614ce5565b9050919050565b6000819050919050565b614d3b81614d28565b82525050565b600067ffffffffffffffff82169050919050565b614d5e81614d41565b82525050565b600061ffff82169050919050565b614d7b81614d64565b82525050565b600063ffffffff82169050919050565b614d9a81614d81565b82525050565b600060a082019050614db56000830188614d32565b614dc26020830187614d55565b614dcf6040830186614d72565b614ddc6060830185614d91565b614de96080830184614d91565b9695505050505050565b6000614dfe82613ce1565b9150614e0983613ce1565b925082614e1957614e18614b7e565b5b828206905092915050565b6000614e2f82613ce1565b9150614e3a83613ce1565b925082821015614e4d57614e4c614317565b5b828203905092915050565b6000604082019050614e6d6000830185613ceb565b614e7a6020830184613d15565b9392505050565b6000604082019050614e966000830185613ceb565b614ea36020830184613ceb565b9392505050565b6000819050919050565b6000614ebf82614eaa565b9150614eca83614eaa565b9250817f7fffffffffffffffffffffffffffffffffffffffffffffffffffffffffffffff03831360008312151615614f0557614f04614317565b5b817f8000000000000000000000000000000000000000000000000000000000000000038312600083121615614f3d57614f3c614317565b5b828201905092915050565b6000614f5382614eaa565b9150614f5e83614eaa565b9250827f800000000000000000000000000000000000000000000000000000000000000001821260008412151615614f9957614f98614317565b5b827f7fffffffffffffffffffffffffffffffffffffffffffffffffffffffffffffff018213600084121615614fd157614fd0614317565b5b828203905092915050565b60006040820190508181036000830152614ff681856147fa565b90506150056020830184613ceb565b939250505056fe496e73696465206465706c6f795f636f6e74726f6c2c206465706c6f79696e672074726f6f7073206c65667420696e2064656665646e696e67207465727269746f72793a20a2646970667358221220f1830d40f96646a49814c2950cd35b8fa72cdd4c26e6e181abd35243fc2976cd64736f6c63430008080033",
  "devdoc": {
    "kind": "dev",
    "methods": {},
    "version": 1
  },
  "userdoc": {
    "kind": "user",
    "methods": {},
    "version": 1
  },
  "storageLayout": {
    "storage": [
      {
        "astId": 280,
        "contract": "contracts/Controls.sol:Controls",
        "label": "s_recentAttackingArmies",
        "offset": 0,
        "slot": "0",
        "type": "t_uint256"
      },
      {
        "astId": 282,
        "contract": "contracts/Controls.sol:Controls",
        "label": "s_recentDefendingArmies",
        "offset": 0,
        "slot": "1",
        "type": "t_uint256"
      },
      {
        "astId": 284,
        "contract": "contracts/Controls.sol:Controls",
        "label": "s_recentTerritoryAttacking",
        "offset": 0,
        "slot": "2",
        "type": "t_uint8"
      },
      {
        "astId": 286,
        "contract": "contracts/Controls.sol:Controls",
        "label": "s_recentTerritoryBeingAttacked",
        "offset": 1,
        "slot": "2",
        "type": "t_uint8"
      },
      {
        "astId": 288,
        "contract": "contracts/Controls.sol:Controls",
        "label": "main_address",
        "offset": 2,
        "slot": "2",
        "type": "t_address"
      },
      {
        "astId": 290,
        "contract": "contracts/Controls.sol:Controls",
        "label": "data_address",
        "offset": 0,
        "slot": "3",
        "type": "t_address"
      },
      {
        "astId": 293,
        "contract": "contracts/Controls.sol:Controls",
        "label": "s_mainSet",
        "offset": 20,
        "slot": "3",
        "type": "t_enum(mainAddressSent)266"
      },
      {
        "astId": 295,
        "contract": "contracts/Controls.sol:Controls",
        "label": "s_requestId",
        "offset": 0,
        "slot": "4",
        "type": "t_uint256"
      },
      {
        "astId": 297,
        "contract": "contracts/Controls.sol:Controls",
        "label": "s_troopsToDeploy",
        "offset": 0,
        "slot": "5",
        "type": "t_uint8"
      },
      {
        "astId": 299,
        "contract": "contracts/Controls.sol:Controls",
        "label": "s_playerTurn",
        "offset": 1,
        "slot": "5",
        "type": "t_uint8"
      },
      {
        "astId": 302,
        "contract": "contracts/Controls.sol:Controls",
        "label": "s_playersArray",
        "offset": 0,
        "slot": "6",
        "type": "t_array(t_address_payable)dyn_storage"
      },
      {
        "astId": 305,
        "contract": "contracts/Controls.sol:Controls",
        "label": "s_diceWords",
        "offset": 0,
        "slot": "7",
        "type": "t_array(t_uint256)dyn_storage"
      },
      {
        "astId": 307,
        "contract": "contracts/Controls.sol:Controls",
        "label": "s_attackSuccess",
        "offset": 0,
        "slot": "8",
        "type": "t_bool"
      },
      {
        "astId": 309,
        "contract": "contracts/Controls.sol:Controls",
        "label": "s_gameIsOver",
        "offset": 1,
        "slot": "8",
        "type": "t_bool"
      }
    ],
    "types": {
      "t_address": {
        "encoding": "inplace",
        "label": "address",
        "numberOfBytes": "20"
      },
      "t_address_payable": {
        "encoding": "inplace",
        "label": "address payable",
        "numberOfBytes": "20"
      },
      "t_array(t_address_payable)dyn_storage": {
        "base": "t_address_payable",
        "encoding": "dynamic_array",
        "label": "address payable[]",
        "numberOfBytes": "32"
      },
      "t_array(t_uint256)dyn_storage": {
        "base": "t_uint256",
        "encoding": "dynamic_array",
        "label": "uint256[]",
        "numberOfBytes": "32"
      },
      "t_bool": {
        "encoding": "inplace",
        "label": "bool",
        "numberOfBytes": "1"
      },
      "t_enum(mainAddressSent)266": {
        "encoding": "inplace",
        "label": "enum Controls.mainAddressSent",
        "numberOfBytes": "1"
      },
      "t_uint256": {
        "encoding": "inplace",
        "label": "uint256",
        "numberOfBytes": "32"
      },
      "t_uint8": {
        "encoding": "inplace",
        "label": "uint8",
        "numberOfBytes": "1"
      }
    }
  }
}