{
  "address": "0xDc64a140Aa3E981100a9becA4E685f962f0cF6C9",
  "abi": [
    {
      "inputs": [
        {
          "internalType": "address",
          "name": "vrfCoordinatorV2",
          "type": "address"
        },
        {
          "internalType": "uint64",
          "name": "subscriptionId",
          "type": "uint64"
        },
        {
          "internalType": "bytes32",
          "name": "gasLane",
          "type": "bytes32"
        },
        {
          "internalType": "uint32",
          "name": "callbackGasLimit",
          "type": "uint32"
        },
        {
          "internalType": "address",
          "name": "data",
          "type": "address"
        }
      ],
      "stateMutability": "nonpayable",
      "type": "constructor"
    },
    {
      "inputs": [
        {
          "internalType": "address",
          "name": "have",
          "type": "address"
        },
        {
          "internalType": "address",
          "name": "want",
          "type": "address"
        }
      ],
      "name": "OnlyCoordinatorCanFulfill",
      "type": "error"
    },
    {
      "anonymous": false,
      "inputs": [
        {
          "indexed": true,
          "internalType": "uint256",
          "name": "die",
          "type": "uint256"
        }
      ],
      "name": "AttackerDie",
      "type": "event"
    },
    {
      "anonymous": false,
      "inputs": [
        {
          "indexed": true,
          "internalType": "address",
          "name": "player",
          "type": "address"
        }
      ],
      "name": "CurrentPlayer",
      "type": "event"
    },
    {
      "anonymous": false,
      "inputs": [
        {
          "indexed": true,
          "internalType": "uint256",
          "name": "die",
          "type": "uint256"
        }
      ],
      "name": "DefenderDie",
      "type": "event"
    },
    {
      "anonymous": false,
      "inputs": [],
      "name": "DiceRolled",
      "type": "event"
    },
    {
      "anonymous": false,
      "inputs": [
        {
          "indexed": true,
          "internalType": "address",
          "name": "winner",
          "type": "address"
        }
      ],
      "name": "GameOver",
      "type": "event"
    },
    {
      "anonymous": false,
      "inputs": [
        {
          "indexed": true,
          "internalType": "address",
          "name": "player",
          "type": "address"
        }
      ],
      "name": "PlayerAttacking",
      "type": "event"
    },
    {
      "anonymous": false,
      "inputs": [
        {
          "indexed": true,
          "internalType": "address",
          "name": "player",
          "type": "address"
        }
      ],
      "name": "PlayerDeploying",
      "type": "event"
    },
    {
      "anonymous": false,
      "inputs": [
        {
          "indexed": true,
          "internalType": "address",
          "name": "player",
          "type": "address"
        }
      ],
      "name": "PlayerFortifying",
      "type": "event"
    },
    {
      "anonymous": false,
      "inputs": [
        {
          "indexed": true,
          "internalType": "address",
          "name": "main",
          "type": "address"
        }
      ],
      "name": "ReceivedMain",
      "type": "event"
    },
    {
      "anonymous": false,
      "inputs": [
        {
          "indexed": true,
          "internalType": "uint256",
          "name": "s_requestId",
          "type": "uint256"
        }
      ],
      "name": "RollingDice",
      "type": "event"
    },
    {
      "anonymous": false,
      "inputs": [
        {
          "indexed": true,
          "internalType": "uint256",
          "name": "territoryBeingAttacked",
          "type": "uint256"
        }
      ],
      "name": "TransferTroopsAvailable",
      "type": "event"
    },
    {
      "inputs": [
        {
          "internalType": "uint256",
          "name": "index",
          "type": "uint256"
        }
      ],
      "name": "add_troop_to_territory",
      "outputs": [],
      "stateMutability": "nonpayable",
      "type": "function"
    },
    {
      "inputs": [
        {
          "internalType": "uint8",
          "name": "territoryOwned",
          "type": "uint8"
        },
        {
          "internalType": "uint8",
          "name": "territoryAttacking",
          "type": "uint8"
        },
        {
          "internalType": "uint256",
          "name": "attackingArmies",
          "type": "uint256"
        }
      ],
      "name": "attack_control",
      "outputs": [],
      "stateMutability": "nonpayable",
      "type": "function"
    },
    {
      "inputs": [
        {
          "internalType": "uint8",
          "name": "amountToDeploy",
          "type": "uint8"
        },
        {
          "internalType": "uint8",
          "name": "location",
          "type": "uint8"
        }
      ],
      "name": "deploy_control",
      "outputs": [
        {
          "internalType": "bool",
          "name": "",
          "type": "bool"
        }
      ],
      "stateMutability": "nonpayable",
      "type": "function"
    },
    {
      "inputs": [
        {
          "internalType": "uint8",
          "name": "territoryMovingFrom",
          "type": "uint8"
        },
        {
          "internalType": "uint8",
          "name": "territoryMovingTo",
          "type": "uint8"
        },
        {
          "internalType": "uint256",
          "name": "troopsMoving",
          "type": "uint256"
        }
      ],
      "name": "fortify_control",
      "outputs": [
        {
          "internalType": "bool",
          "name": "",
          "type": "bool"
        }
      ],
      "stateMutability": "nonpayable",
      "type": "function"
    },
    {
      "inputs": [],
      "name": "gameOver",
      "outputs": [],
      "stateMutability": "nonpayable",
      "type": "function"
    },
    {
      "inputs": [],
      "name": "getAttackStatus",
      "outputs": [
        {
          "internalType": "bool",
          "name": "",
          "type": "bool"
        }
      ],
      "stateMutability": "view",
      "type": "function"
    },
    {
      "inputs": [],
      "name": "getPlayerTurn",
      "outputs": [
        {
          "internalType": "address",
          "name": "",
          "type": "address"
        }
      ],
      "stateMutability": "view",
      "type": "function"
    },
    {
      "inputs": [],
      "name": "getRequestId",
      "outputs": [
        {
          "internalType": "uint256",
          "name": "",
          "type": "uint256"
        }
      ],
      "stateMutability": "view",
      "type": "function"
    },
    {
      "inputs": [
        {
          "internalType": "uint256",
          "name": "player",
          "type": "uint256"
        }
      ],
      "name": "getTotalTroops",
      "outputs": [
        {
          "internalType": "uint256",
          "name": "",
          "type": "uint256"
        }
      ],
      "stateMutability": "nonpayable",
      "type": "function"
    },
    {
      "inputs": [
        {
          "internalType": "uint256",
          "name": "j",
          "type": "uint256"
        }
      ],
      "name": "get_territory_owner",
      "outputs": [
        {
          "internalType": "uint256",
          "name": "",
          "type": "uint256"
        }
      ],
      "stateMutability": "nonpayable",
      "type": "function"
    },
    {
      "inputs": [],
      "name": "get_troops_to_deploy",
      "outputs": [
        {
          "internalType": "uint8",
          "name": "",
          "type": "uint8"
        }
      ],
      "stateMutability": "view",
      "type": "function"
    },
    {
      "inputs": [
        {
          "internalType": "uint256",
          "name": "territory",
          "type": "uint256"
        },
        {
          "internalType": "uint8",
          "name": "playerAwarded",
          "type": "uint8"
        }
      ],
      "name": "push_to_territories",
      "outputs": [],
      "stateMutability": "nonpayable",
      "type": "function"
    },
    {
      "inputs": [
        {
          "internalType": "uint256",
          "name": "requestId",
          "type": "uint256"
        },
        {
          "internalType": "uint256[]",
          "name": "randomWords",
          "type": "uint256[]"
        }
      ],
      "name": "rawFulfillRandomWords",
      "outputs": [],
      "stateMutability": "nonpayable",
      "type": "function"
    },
    {
      "inputs": [],
      "name": "s_mainSet",
      "outputs": [
        {
          "internalType": "enum Controls.mainAddressSent",
          "name": "",
          "type": "uint8"
        }
      ],
      "stateMutability": "view",
      "type": "function"
    },
    {
      "inputs": [],
      "name": "s_playerTurn",
      "outputs": [
        {
          "internalType": "uint8",
          "name": "",
          "type": "uint8"
        }
      ],
      "stateMutability": "view",
      "type": "function"
    },
    {
      "inputs": [],
      "name": "s_requestId",
      "outputs": [
        {
          "internalType": "uint256",
          "name": "",
          "type": "uint256"
        }
      ],
      "stateMutability": "view",
      "type": "function"
    },
    {
      "inputs": [],
      "name": "s_troopsToDeploy",
      "outputs": [
        {
          "internalType": "uint8",
          "name": "",
          "type": "uint8"
        }
      ],
      "stateMutability": "view",
      "type": "function"
    },
    {
      "inputs": [
        {
          "internalType": "address",
          "name": "main",
          "type": "address"
        }
      ],
      "name": "set_main_address",
      "outputs": [],
      "stateMutability": "nonpayable",
      "type": "function"
    },
    {
      "inputs": [
        {
          "internalType": "address payable[]",
          "name": "players",
          "type": "address[]"
        }
      ],
      "name": "set_players",
      "outputs": [],
      "stateMutability": "nonpayable",
      "type": "function"
    },
    {
      "inputs": [
        {
          "internalType": "uint8",
          "name": "territoryMovingFrom",
          "type": "uint8"
        },
        {
          "internalType": "uint8",
          "name": "territoryMovingTo",
          "type": "uint8"
        },
        {
          "internalType": "uint256",
          "name": "troopsMoving",
          "type": "uint256"
        }
      ],
      "name": "transferTroops",
      "outputs": [],
      "stateMutability": "nonpayable",
      "type": "function"
    },
    {
      "inputs": [
        {
          "internalType": "uint256",
          "name": "amountOfTroops",
          "type": "uint256"
        }
      ],
      "name": "troopTransferAfterAttack",
      "outputs": [],
      "stateMutability": "nonpayable",
      "type": "function"
    }
  ],
  "transactionHash": "0xfd29712df58ee538213720be85039e814faa7902120bb3dad9ace132b7357e43",
  "args": [
    "0x5FbDB2315678afecb367f032d93F642f64180aa3",
    "1",
    "0x79d3d8832d904592c0bf9818b621522c988bb8b0c05cdc3b15aea1b6e8db0c15",
    "30000000",
    "0xe7f1725E7734CE288F8367e1Bb143E90bb3F0512"
  ],
  "numDeployments": 1,
  "solcInputHash": "81fab6f8d982eddb6e0df2f999f34d70",
  "bytecode": "0x6101206040523480156200001257600080fd5b5060405162004c8638038062004c868339818101604052810190620000389190620002ec565b848073ffffffffffffffffffffffffffffffffffffffff1660808173ffffffffffffffffffffffffffffffffffffffff1660601b81525050508473ffffffffffffffffffffffffffffffffffffffff1660a08173ffffffffffffffffffffffffffffffffffffffff1660601b815250508367ffffffffffffffff1660c08167ffffffffffffffff1660c01b815250508260e081815250508163ffffffff166101008163ffffffff1660e01b8152505080600360006101000a81548173ffffffffffffffffffffffffffffffffffffffff021916908373ffffffffffffffffffffffffffffffffffffffff1602179055506001600360146101000a81548160ff0219169083600181111562000151576200015062000374565b5b02179055506003600560016101000a81548160ff021916908360ff160217905550600560009054906101000a9050506000600860006101000a81548160ff0219169083151502179055506000600860016101000a81548160ff0219169083151502179055505050505050620003a3565b600080fd5b600073ffffffffffffffffffffffffffffffffffffffff82169050919050565b6000620001f382620001c6565b9050919050565b6200020581620001e6565b81146200021157600080fd5b50565b6000815190506200022581620001fa565b92915050565b600067ffffffffffffffff82169050919050565b6200024a816200022b565b81146200025657600080fd5b50565b6000815190506200026a816200023f565b92915050565b6000819050919050565b620002858162000270565b81146200029157600080fd5b50565b600081519050620002a5816200027a565b92915050565b600063ffffffff82169050919050565b620002c681620002ab565b8114620002d257600080fd5b50565b600081519050620002e681620002bb565b92915050565b600080600080600060a086880312156200030b576200030a620001c1565b5b60006200031b8882890162000214565b95505060206200032e8882890162000259565b9450506040620003418882890162000294565b93505060606200035488828901620002d5565b9250506080620003678882890162000214565b9150509295509295909350565b7f4e487b7100000000000000000000000000000000000000000000000000000000600052602160045260246000fd5b60805160601c60a05160601c60c05160c01c60e0516101005160e01c61488b620003fb6000396000612808015260006127c4015260006127e50152600061278801526000818161096101526109b5015261488b6000f3fe608060405234801561001057600080fd5b50600436106101375760003560e01c8063780b5bf9116100b8578063b6d5bc6f1161007c578063b6d5bc6f14610328578063bdb337d114610346578063be85fc7614610350578063c53752101461036c578063c758c1261461039c578063e89e106a146103b857610137565b8063780b5bf914610270578063785776d2146102a05780638d2ed997146102bc578063ada2c7a8146102da578063af0b94d41461030a57610137565b80631fe543e3116100ff5780631fe543e3146101e057806323c288e7146101fc5780632572cd6e146102185780635a1095f31461023657806366f987951461025257610137565b8063041dcfcc1461013c57806305ca49b01461016c5780630698b7e014610188578063077001b9146101a45780631c6f86cc146101c2575b600080fd5b61015660048036038101906101519190613544565b6103d6565b604051610163919061359f565b60405180910390f35b61018660048036038101906101819190613618565b6106da565b005b6101a2600480360381019061019d919061367b565b610857565b005b6101ac610942565b6040516101b991906136ca565b60405180910390f35b6101ca61094c565b6040516101d791906136f4565b60405180910390f35b6101fa60048036038101906101f59190613868565b61095f565b005b610216600480360381019061021191906138c4565b610a1f565b005b610220610c55565b60405161022d9190613926565b60405180910390f35b610250600480360381019061024b9190613941565b610cad565b005b61025a610d95565b60405161026791906136f4565b60405180910390f35b61028a60048036038101906102859190613941565b610da8565b60405161029791906136ca565b60405180910390f35b6102ba60048036038101906102b59190613941565b610eb9565b005b6102c46111d6565b6040516102d191906139e5565b60405180910390f35b6102f460048036038101906102ef91906138c4565b6111e9565b604051610301919061359f565b60405180910390f35b61031261133d565b60405161031f919061359f565b60405180910390f35b610330611354565b60405161033d91906136f4565b60405180910390f35b61034e61136b565b005b61036a600480360381019061036591906138c4565b61160b565b005b61038660048036038101906103819190613941565b6119a3565b60405161039391906136ca565b60405180910390f35b6103b660048036038101906103b19190613b01565b611b3f565b005b6103c0611c3b565b6040516103cd91906136ca565b60405180910390f35b600060028054906101000a900473ffffffffffffffffffffffffffffffffffffffff1673ffffffffffffffffffffffffffffffffffffffff163373ffffffffffffffffffffffffffffffffffffffff161461043057600080fd5b600560019054906101000a900460ff1660ff16600360009054906101000a900473ffffffffffffffffffffffffffffffffffffffff1673ffffffffffffffffffffffffffffffffffffffff16634423b787846040518263ffffffff1660e01b815260040161049e9190613b85565b602060405180830381600087803b1580156104b857600080fd5b505af11580156104cc573d6000803e3d6000fd5b505050506040513d601f19601f820116820180604052508101906104f09190613bb5565b60ff1614610533576040517f08c379a000000000000000000000000000000000000000000000000000000000815260040161052a90613c3f565b60405180910390fd5b6006600560019054906101000a900460ff1660ff168154811061055957610558613c5f565b5b9060005260206000200160009054906101000a900473ffffffffffffffffffffffffffffffffffffffff1673ffffffffffffffffffffffffffffffffffffffff167fe92878f508d0c22d489dcd5f4ee8376a415f0ee7b5dcba2ceae2d73da0fdfce960405160405180910390a260005b8360ff1681101561067457600360009054906101000a900473ffffffffffffffffffffffffffffffffffffffff1673ffffffffffffffffffffffffffffffffffffffff1663a3f09a93846040518263ffffffff1660e01b815260040161062f9190613b85565b600060405180830381600087803b15801561064957600080fd5b505af115801561065d573d6000803e3d6000fd5b50505050808061066c90613cbd565b9150506105c9565b5082600560008282829054906101000a900460ff166106939190613d06565b92506101000a81548160ff021916908360ff1602179055506000600560009054906101000a900460ff1660ff1614156106cf57600090506106d4565b600190505b92915050565b6001808111156106ed576106ec61396e565b5b600360149054906101000a900460ff16600181111561070f5761070e61396e565b5b1461071957600080fd5b8073ffffffffffffffffffffffffffffffffffffffff167fc347a26bea69a31d705cd31225784accd8aabfcba5952e3b6c2d66429acaca4f60405160405180910390a2806002806101000a81548173ffffffffffffffffffffffffffffffffffffffff021916908373ffffffffffffffffffffffffffffffffffffffff1602179055506000600360146101000a81548160ff021916908360018111156107c2576107c161396e565b5b0217905550600360009054906101000a900473ffffffffffffffffffffffffffffffffffffffff1673ffffffffffffffffffffffffffffffffffffffff1663b0876995306040518263ffffffff1660e01b81526004016108229190613926565b600060405180830381600087803b15801561083c57600080fd5b505af1158015610850573d6000803e3d6000fd5b5050505050565b60028054906101000a900473ffffffffffffffffffffffffffffffffffffffff1673ffffffffffffffffffffffffffffffffffffffff163373ffffffffffffffffffffffffffffffffffffffff16146108af57600080fd5b600360009054906101000a900473ffffffffffffffffffffffffffffffffffffffff1673ffffffffffffffffffffffffffffffffffffffff16637ce5c96983836040518363ffffffff1660e01b815260040161090c929190613d3a565b600060405180830381600087803b15801561092657600080fd5b505af115801561093a573d6000803e3d6000fd5b505050505050565b6000600454905090565b600560009054906101000a900460ff1681565b7f000000000000000000000000000000000000000000000000000000000000000073ffffffffffffffffffffffffffffffffffffffff163373ffffffffffffffffffffffffffffffffffffffff1614610a1157337f00000000000000000000000000000000000000000000000000000000000000006040517f1cf993f4000000000000000000000000000000000000000000000000000000008152600401610a08929190613d63565b60405180910390fd5b610a1b8282611c41565b5050565b600360009054906101000a900473ffffffffffffffffffffffffffffffffffffffff1673ffffffffffffffffffffffffffffffffffffffff1663d2885910846040518263ffffffff1660e01b8152600401610a7a9190613b85565b60206040518083038186803b158015610a9257600080fd5b505afa158015610aa6573d6000803e3d6000fd5b505050506040513d601f19601f82011682018060405250810190610aca9190613da1565b81108015610ad85750600081115b610b17576040517f08c379a0000000000000000000000000000000000000000000000000000000008152600401610b0e90613e40565b60405180910390fd5b60005b81811015610c4f57600360009054906101000a900473ffffffffffffffffffffffffffffffffffffffff1673ffffffffffffffffffffffffffffffffffffffff1663a3f09a93846040518263ffffffff1660e01b8152600401610b7d9190613b85565b600060405180830381600087803b158015610b9757600080fd5b505af1158015610bab573d6000803e3d6000fd5b50505050600360009054906101000a900473ffffffffffffffffffffffffffffffffffffffff1673ffffffffffffffffffffffffffffffffffffffff1663d86819d7856040518263ffffffff1660e01b8152600401610c0a9190613b85565b600060405180830381600087803b158015610c2457600080fd5b505af1158015610c38573d6000803e3d6000fd5b505050508080610c4790613cbd565b915050610b1a565b50505050565b60006006600560019054906101000a900460ff1660ff1681548110610c7d57610c7c613c5f565b5b9060005260206000200160009054906101000a900473ffffffffffffffffffffffffffffffffffffffff16905090565b60028054906101000a900473ffffffffffffffffffffffffffffffffffffffff1673ffffffffffffffffffffffffffffffffffffffff163373ffffffffffffffffffffffffffffffffffffffff1614610d0557600080fd5b600360009054906101000a900473ffffffffffffffffffffffffffffffffffffffff1673ffffffffffffffffffffffffffffffffffffffff1663a3f09a93826040518263ffffffff1660e01b8152600401610d6091906136ca565b600060405180830381600087803b158015610d7a57600080fd5b505af1158015610d8e573d6000803e3d6000fd5b5050505050565b600560019054906101000a900460ff1681565b600060028054906101000a900473ffffffffffffffffffffffffffffffffffffffff1673ffffffffffffffffffffffffffffffffffffffff163373ffffffffffffffffffffffffffffffffffffffff1614610e0257600080fd5b600360009054906101000a900473ffffffffffffffffffffffffffffffffffffffff1673ffffffffffffffffffffffffffffffffffffffff16634423b787836040518263ffffffff1660e01b8152600401610e5d91906136ca565b602060405180830381600087803b158015610e7757600080fd5b505af1158015610e8b573d6000803e3d6000fd5b505050506040513d601f19601f82011682018060405250810190610eaf9190613bb5565b60ff169050919050565b600860009054906101000a900460ff16610ed257600080fd5b3373ffffffffffffffffffffffffffffffffffffffff166006600560019054906101000a900460ff1660ff1681548110610f0f57610f0e613c5f565b5b9060005260206000200160009054906101000a900473ffffffffffffffffffffffffffffffffffffffff1673ffffffffffffffffffffffffffffffffffffffff1614610f5a57600080fd5b600360009054906101000a900473ffffffffffffffffffffffffffffffffffffffff1673ffffffffffffffffffffffffffffffffffffffff1663d2885910600260009054906101000a900460ff166040518263ffffffff1660e01b8152600401610fc49190613b85565b60206040518083038186803b158015610fdc57600080fd5b505afa158015610ff0573d6000803e3d6000fd5b505050506040513d601f19601f820116820180604052508101906110149190613da1565b811080156110225750600081115b611061576040517f08c379a000000000000000000000000000000000000000000000000000000000815260040161105890613e40565b60405180910390fd5b60005b818110156111b757600360009054906101000a900473ffffffffffffffffffffffffffffffffffffffff1673ffffffffffffffffffffffffffffffffffffffff1663a3f09a93600260019054906101000a900460ff166040518263ffffffff1660e01b81526004016110d69190613b85565b600060405180830381600087803b1580156110f057600080fd5b505af1158015611104573d6000803e3d6000fd5b50505050600360009054906101000a900473ffffffffffffffffffffffffffffffffffffffff1673ffffffffffffffffffffffffffffffffffffffff1663d86819d7600260009054906101000a900460ff166040518263ffffffff1660e01b81526004016111729190613b85565b600060405180830381600087803b15801561118c57600080fd5b505af11580156111a0573d6000803e3d6000fd5b5050505080806111af90613cbd565b915050611064565b506000600860006101000a81548160ff02191690831515021790555050565b600360149054906101000a900460ff1681565b600060028054906101000a900473ffffffffffffffffffffffffffffffffffffffff1673ffffffffffffffffffffffffffffffffffffffff163373ffffffffffffffffffffffffffffffffffffffff161461124357600080fd5b6006600560019054906101000a900460ff1660ff168154811061126957611268613c5f565b5b9060005260206000200160009054906101000a900473ffffffffffffffffffffffffffffffffffffffff1673ffffffffffffffffffffffffffffffffffffffff167fe5e8bf4ce065b9d690ddea8f25596e4baf50c582be4eacf4717653e910adf52860405160405180910390a26112e08484611cbd565b61131f576040517f08c379a000000000000000000000000000000000000000000000000000000000815260040161131690613ef8565b60405180910390fd5b61132a848484610a1f565b611332611f18565b600190509392505050565b6000600860009054906101000a900460ff16905090565b6000600560009054906101000a900460ff16905090565b60011515600860019054906101000a900460ff1615151461138b57600080fd5b60006006600560019054906101000a900460ff1660ff16815481106113b3576113b2613c5f565b5b9060005260206000200160009054906101000a900473ffffffffffffffffffffffffffffffffffffffff1690508073ffffffffffffffffffffffffffffffffffffffff167ff556ad7790e70877edcf3b3bb441255def8a405faa0dfdb005a02fa8e557bca960405160405180910390a2600060028054906101000a900473ffffffffffffffffffffffffffffffffffffffff1673ffffffffffffffffffffffffffffffffffffffff168260405160240161146d9190613926565b6040516020818303038152906040527f19b09f9b000000000000000000000000000000000000000000000000000000007bffffffffffffffffffffffffffffffffffffffffffffffffffffffff19166020820180517bffffffffffffffffffffffffffffffffffffffffffffffffffffffff83818316178352505050506040516114f79190613f92565b6000604051808303816000865af19150503d8060008114611534576040519150601f19603f3d011682016040523d82523d6000602084013e611539565b606091505b505090508061157d576040517f08c379a000000000000000000000000000000000000000000000000000000000815260040161157490613ff5565b60405180910390fd5b600360009054906101000a900473ffffffffffffffffffffffffffffffffffffffff1673ffffffffffffffffffffffffffffffffffffffff1663478c4e0e6040518163ffffffff1660e01b8152600401600060405180830381600087803b1580156115e757600080fd5b505af11580156115fb573d6000803e3d6000fd5b50505050611607612379565b5050565b60028054906101000a900473ffffffffffffffffffffffffffffffffffffffff1673ffffffffffffffffffffffffffffffffffffffff163373ffffffffffffffffffffffffffffffffffffffff161461166357600080fd5b61166d838361243b565b6116ac576040517f08c379a00000000000000000000000000000000000000000000000000000000081526004016116a390614087565b60405180910390fd5b600360009054906101000a900473ffffffffffffffffffffffffffffffffffffffff1673ffffffffffffffffffffffffffffffffffffffff1663d2885910846040518263ffffffff1660e01b81526004016117079190613b85565b60206040518083038186803b15801561171f57600080fd5b505afa158015611733573d6000803e3d6000fd5b505050506040513d601f19601f820116820180604052508101906117579190613da1565b811080156117655750600081115b6117a4576040517f08c379a000000000000000000000000000000000000000000000000000000000815260040161179b90614119565b60405180910390fd5b6006600560019054906101000a900460ff1660ff16815481106117ca576117c9613c5f565b5b9060005260206000200160009054906101000a900473ffffffffffffffffffffffffffffffffffffffff1673ffffffffffffffffffffffffffffffffffffffff167f4faa3127e27f3f0467a37943f210253ed28fe31be9064ac5e66ed6e805c947c260405160405180910390a26000600360009054906101000a900473ffffffffffffffffffffffffffffffffffffffff1673ffffffffffffffffffffffffffffffffffffffff1663d2885910846040518263ffffffff1660e01b81526004016118949190613b85565b60206040518083038186803b1580156118ac57600080fd5b505afa1580156118c0573d6000803e3d6000fd5b505050506040513d601f19601f820116820180604052508101906118e49190613da1565b9050600281106118f757600290506118fc565b600190505b60006119088383612686565b905061194c6040518060400160405280600a81526020017f6e756d20776f7264733a000000000000000000000000000000000000000000008152508260ff166126ea565b84600260006101000a81548160ff021916908360ff16021790555083600260016101000a81548160ff021916908360ff160217905550826000819055508160018190555061199c8160ff16612786565b5050505050565b60008060005b602a811015611b355783600360009054906101000a900473ffffffffffffffffffffffffffffffffffffffff1673ffffffffffffffffffffffffffffffffffffffff16634423b787836040518263ffffffff1660e01b8152600401611a0e91906136ca565b602060405180830381600087803b158015611a2857600080fd5b505af1158015611a3c573d6000803e3d6000fd5b505050506040513d601f19601f82011682018060405250810190611a609190613bb5565b60ff161415611b2257600360009054906101000a900473ffffffffffffffffffffffffffffffffffffffff1673ffffffffffffffffffffffffffffffffffffffff1663d2885910826040518263ffffffff1660e01b8152600401611ac491906136ca565b60206040518083038186803b158015611adc57600080fd5b505afa158015611af0573d6000803e3d6000fd5b505050506040513d601f19601f82011682018060405250810190611b149190613da1565b82611b1f9190614139565b91505b8080611b2d90613cbd565b9150506119a9565b5080915050919050565b60028054906101000a900473ffffffffffffffffffffffffffffffffffffffff1673ffffffffffffffffffffffffffffffffffffffff163373ffffffffffffffffffffffffffffffffffffffff1614611b9757600080fd5b8060069080519060200190611bad929190613403565b50600360009054906101000a900473ffffffffffffffffffffffffffffffffffffffff1673ffffffffffffffffffffffffffffffffffffffff16633bee987f6040518163ffffffff1660e01b8152600401600060405180830381600087803b158015611c1857600080fd5b505af1158015611c2c573d6000803e3d6000fd5b50505050611c38611f18565b50565b60045481565b8060079080519060200190611c5792919061348d565b507f48ed86bcf5a9db215d430a3d797d5fd900be09379a002b6f37891bd2aacbe5cf60405160405180910390a1611cb9600054600154600260009054906101000a900460ff1660ff16600260019054906101000a900460ff1660ff16856128d2565b5050565b60006001600360009054906101000a900473ffffffffffffffffffffffffffffffffffffffff1673ffffffffffffffffffffffffffffffffffffffff1663d2885910856040518263ffffffff1660e01b8152600401611d1c9190613b85565b60206040518083038186803b158015611d3457600080fd5b505afa158015611d48573d6000803e3d6000fd5b505050506040513d601f19601f82011682018060405250810190611d6c9190613da1565b11611dac576040517f08c379a0000000000000000000000000000000000000000000000000000000008152600401611da390614201565b60405180910390fd5b611db5836131a9565b8015611dc65750611dc5826131a9565b5b611e05576040517f08c379a0000000000000000000000000000000000000000000000000000000008152600401611dfc90614293565b60405180910390fd5b6000600360009054906101000a900473ffffffffffffffffffffffffffffffffffffffff1673ffffffffffffffffffffffffffffffffffffffff166389290109856040518263ffffffff1660e01b8152600401611e629190613b85565b60006040518083038186803b158015611e7a57600080fd5b505afa158015611e8e573d6000803e3d6000fd5b505050506040513d6000823e3d601f19601f82011682018060405250810190611eb79190614376565b905060005b6006811015611f0b57818181518110611ed857611ed7613c5f565b5b602002602001015160ff168460ff161415611ef857600192505050611f12565b8080611f0390613cbd565b915050611ebc565b5060009150505b92915050565b6005600181819054906101000a900460ff1680929190611f37906143bf565b91906101000a81548160ff021916908360ff16021790555050600680549050600560019054906101000a900460ff1660ff161415611f8c576000600560016101000a81548160ff021916908360ff1602179055505b600360009054906101000a900473ffffffffffffffffffffffffffffffffffffffff1673ffffffffffffffffffffffffffffffffffffffff166364b6667d6040518163ffffffff1660e01b8152600401600060405180830381600087803b158015611ff657600080fd5b505af115801561200a573d6000803e3d6000fd5b505050506000600560006101000a81548160ff021916908360ff16021790555060005b60068110156121f157600560019054906101000a900460ff1660ff16600360009054906101000a900473ffffffffffffffffffffffffffffffffffffffff1673ffffffffffffffffffffffffffffffffffffffff16630452338e836040518263ffffffff1660e01b81526004016120a491906136ca565b60206040518083038186803b1580156120bc57600080fd5b505afa1580156120d0573d6000803e3d6000fd5b505050506040513d601f19601f820116820180604052508101906120f49190613bb5565b60ff1614156121de57600360009054906101000a900473ffffffffffffffffffffffffffffffffffffffff1673ffffffffffffffffffffffffffffffffffffffff16631e8d6c3c826040518263ffffffff1660e01b815260040161215891906136ca565b60206040518083038186803b15801561217057600080fd5b505afa158015612184573d6000803e3d6000fd5b505050506040513d601f19601f820116820180604052508101906121a89190613bb5565b600560008282829054906101000a900460ff166121c591906143e9565b92506101000a81548160ff021916908360ff1602179055505b80806121e990613cbd565b91505061202d565b506000805b602a8110156122ea57600560019054906101000a900460ff1660ff16600360009054906101000a900473ffffffffffffffffffffffffffffffffffffffff1673ffffffffffffffffffffffffffffffffffffffff16634423b787836040518263ffffffff1660e01b815260040161226d91906136ca565b602060405180830381600087803b15801561228757600080fd5b505af115801561229b573d6000803e3d6000fd5b505050506040513d601f19601f820116820180604052508101906122bf9190613bb5565b60ff1614156122d75781806122d3906143bf565b9250505b80806122e290613cbd565b9150506121f6565b5060098160ff161015612333576003600560008282829054906101000a900460ff1661231691906143e9565b92506101000a81548160ff021916908360ff160217905550612376565b600381612340919061444f565b600560008282829054906101000a900460ff1661235d91906143e9565b92506101000a81548160ff021916908360ff1602179055505b50565b6003600560016101000a81548160ff021916908360ff160217905550600560009054906101000a9050506000600860006101000a81548160ff0219169083151502179055506000600860016101000a81548160ff021916908315150217905550600067ffffffffffffffff8111156123f4576123f3613725565b5b6040519080825280602002602001820160405280156124225781602001602082028036833780820191505090505b5060069080519060200190612438929190613403565b50565b60006001600360009054906101000a900473ffffffffffffffffffffffffffffffffffffffff1673ffffffffffffffffffffffffffffffffffffffff1663d2885910856040518263ffffffff1660e01b815260040161249a9190613b85565b60206040518083038186803b1580156124b257600080fd5b505afa1580156124c6573d6000803e3d6000fd5b505050506040513d601f19601f820116820180604052508101906124ea9190613da1565b1161252a576040517f08c379a000000000000000000000000000000000000000000000000000000000815260040161252190614518565b60405180910390fd5b612533826131a9565b15612573576040517f08c379a000000000000000000000000000000000000000000000000000000000815260040161256a906145aa565b60405180910390fd5b6000600360009054906101000a900473ffffffffffffffffffffffffffffffffffffffff1673ffffffffffffffffffffffffffffffffffffffff166389290109856040518263ffffffff1660e01b81526004016125d09190613b85565b60006040518083038186803b1580156125e857600080fd5b505afa1580156125fc573d6000803e3d6000fd5b505050506040513d6000823e3d601f19601f820116820180604052508101906126259190614376565b905060005b60068110156126795781818151811061264657612645613c5f565b5b602002602001015160ff168460ff16141561266657600192505050612680565b808061267190613cbd565b91505061262a565b5060009150505b92915050565b600080600384141561269b57600390506126b3565b60028414156126ad57600290506126b2565b600190505b5b60028314156126d0576002816126c991906143e9565b90506126e0565b6001816126dd91906143e9565b90505b8091505092915050565b612782828260405160240161270092919061460e565b6040516020818303038152906040527fb60e72cc000000000000000000000000000000000000000000000000000000007bffffffffffffffffffffffffffffffffffffffffffffffffffffffff19166020820180517bffffffffffffffffffffffffffffffffffffffffffffffffffffffff838183161783525050505061328d565b5050565b7f000000000000000000000000000000000000000000000000000000000000000073ffffffffffffffffffffffffffffffffffffffff16635d3b1d307f00000000000000000000000000000000000000000000000000000000000000007f000000000000000000000000000000000000000000000000000000000000000060037f0000000000000000000000000000000000000000000000000000000000000000866040518663ffffffff1660e01b81526004016128489594939291906146b6565b602060405180830381600087803b15801561286257600080fd5b505af1158015612876573d6000803e3d6000fd5b505050506040513d601f19601f8201168201806040525081019061289a9190613da1565b6004819055506004547f20d9f2861ba87fcdc90b5f0254ea9210c08b0aaf238de5b53049db100f4f6a5760405160405180910390a250565b60008567ffffffffffffffff8111156128ee576128ed613725565b5b60405190808252806020026020018201604052801561291c5781602001602082028036833780820191505090505b50905060008567ffffffffffffffff81111561293b5761293a613725565b5b6040519080825280602002602001820160405280156129695781602001602082028036833780820191505090505b50905060005b868861297b9190614139565b811015612a3857878110156129d557600684828151811061299f5761299e613c5f565b5b60200260200101516129b19190614709565b8382815181106129c4576129c3613c5f565b5b602002602001018181525050612a27565b60068482815181106129ea576129e9613c5f565b5b60200260200101516129fc9190614709565b828983612a09919061473a565b81518110612a1a57612a19613c5f565b5b6020026020010181815250505b80612a3190613cbd565b905061296f565b50612a42826132b6565b612a4b816132b6565b60005b8251811015612a685780612a6190613cbd565b9050612a4e565b5060005b8151811015612a865780612a7f90613cbd565b9050612a6c565b50600086881115612a9957869050612a9d565b8790505b60005b8181101561319e57612b016040518060400160405280600e81526020017f61747461636b657220726f6c6c73000000000000000000000000000000000000815250858381518110612af457612af3613c5f565b5b60200260200101516126ea565b612b5a6040518060400160405280600e81526020017f646566656e64657220726f6c6c73000000000000000000000000000000000000815250848381518110612b4d57612b4c613c5f565b5b60200260200101516126ea565b828181518110612b6d57612b6c613c5f565b5b6020026020010151848281518110612b8857612b87613c5f565b5b6020026020010151111561307157838181518110612ba957612ba8613c5f565b5b60200260200101517f23ca545b2511b72f1f06752112789eff8b29d12258a48d9380a6e395099bd3dc60405160405180910390a2828181518110612bf057612bef613c5f565b5b60200260200101517fc890a08f17a75c9e24daa64ee6fda8b9e386f3d673f63cbb81ebf02b0f5cca6d60405160405180910390a2600360009054906101000a900473ffffffffffffffffffffffffffffffffffffffff1673ffffffffffffffffffffffffffffffffffffffff1663d86819d7876040518263ffffffff1660e01b8152600401612c7f91906136ca565b600060405180830381600087803b158015612c9957600080fd5b505af1158015612cad573d6000803e3d6000fd5b505050506000600360009054906101000a900473ffffffffffffffffffffffffffffffffffffffff1673ffffffffffffffffffffffffffffffffffffffff1663d2885910886040518263ffffffff1660e01b8152600401612d0e91906136ca565b60206040518083038186803b158015612d2657600080fd5b505afa158015612d3a573d6000803e3d6000fd5b505050506040513d601f19601f82011682018060405250810190612d5e9190613da1565b141561306c57600360009054906101000a900473ffffffffffffffffffffffffffffffffffffffff1673ffffffffffffffffffffffffffffffffffffffff1663b66831e287600560019054906101000a900460ff166040518363ffffffff1660e01b8152600401612dd0929190613d3a565b600060405180830381600087803b158015612dea57600080fd5b505af1158015612dfe573d6000803e3d6000fd5b50505050600360009054906101000a900473ffffffffffffffffffffffffffffffffffffffff1673ffffffffffffffffffffffffffffffffffffffff1663d86819d7886040518263ffffffff1660e01b8152600401612e5d91906136ca565b600060405180830381600087803b158015612e7757600080fd5b505af1158015612e8b573d6000803e3d6000fd5b50505050600360009054906101000a900473ffffffffffffffffffffffffffffffffffffffff1673ffffffffffffffffffffffffffffffffffffffff1663a3f09a93876040518263ffffffff1660e01b8152600401612eea91906136ca565b600060405180830381600087803b158015612f0457600080fd5b505af1158015612f18573d6000803e3d6000fd5b505050506001600860006101000a81548160ff0219169083151502179055506000600360009054906101000a900473ffffffffffffffffffffffffffffffffffffffff1673ffffffffffffffffffffffffffffffffffffffff16634423b787886040518263ffffffff1660e01b8152600401612f9491906136ca565b602060405180830381600087803b158015612fae57600080fd5b505af1158015612fc2573d6000803e3d6000fd5b505050506040513d601f19601f82011682018060405250810190612fe69190613bb5565b60ff1690506000612ff6826119a3565b141561300657613005816133bf565b5b6001600680549050141561303c5761301c61136b565b6001600860016101000a81548160ff02191690831515021790555061306a565b867f91c9edc9b039d5f7fae48dcc2f589f5e1f79055249eaca570a445d00692b14ee60405160405180910390a25b505b61318d565b83818151811061308457613083613c5f565b5b60200260200101517f23ca545b2511b72f1f06752112789eff8b29d12258a48d9380a6e395099bd3dc60405160405180910390a28281815181106130cb576130ca613c5f565b5b60200260200101517fc890a08f17a75c9e24daa64ee6fda8b9e386f3d673f63cbb81ebf02b0f5cca6d60405160405180910390a2600360009054906101000a900473ffffffffffffffffffffffffffffffffffffffff1673ffffffffffffffffffffffffffffffffffffffff1663d86819d7886040518263ffffffff1660e01b815260040161315a91906136ca565b600060405180830381600087803b15801561317457600080fd5b505af1158015613188573d6000803e3d6000fd5b505050505b8061319790613cbd565b9050612aa0565b505050505050505050565b600080600360009054906101000a900473ffffffffffffffffffffffffffffffffffffffff1673ffffffffffffffffffffffffffffffffffffffff16634423b787846040518263ffffffff1660e01b81526004016132079190613b85565b602060405180830381600087803b15801561322157600080fd5b505af1158015613235573d6000803e3d6000fd5b505050506040513d601f19601f820116820180604052508101906132599190613bb5565b9050600560019054906101000a900460ff1660ff168160ff161415613282576001915050613288565b60009150505b919050565b60008151905060006a636f6e736f6c652e6c6f679050602083016000808483855afa5050505050565b6000806000600192505b83518310156133b9578383815181106132dc576132db613c5f565b5b602002602001015191506001836132f3919061473a565b90505b6000811215801561332057508184828151811061331657613315613c5f565b5b6020026020010151105b1561337c5783818151811061333857613337613c5f565b5b60200260200101518460018361334e9190614778565b8151811061335f5761335e613c5f565b5b602002602001018181525050806133759061480c565b90506132f6565b818460018361338b9190614778565b8151811061339c5761339b613c5f565b5b602002602001018181525050826133b290613cbd565b92506132c0565b50505050565b600681815481106133d3576133d2613c5f565b5b9060005260206000200160006101000a81549073ffffffffffffffffffffffffffffffffffffffff021916905550565b82805482825590600052602060002090810192821561347c579160200282015b8281111561347b5782518260006101000a81548173ffffffffffffffffffffffffffffffffffffffff021916908373ffffffffffffffffffffffffffffffffffffffff16021790555091602001919060010190613423565b5b50905061348991906134da565b5090565b8280548282559060005260206000209081019282156134c9579160200282015b828111156134c85782518255916020019190600101906134ad565b5b5090506134d691906134da565b5090565b5b808211156134f35760008160009055506001016134db565b5090565b6000604051905090565b600080fd5b600080fd5b600060ff82169050919050565b6135218161350b565b811461352c57600080fd5b50565b60008135905061353e81613518565b92915050565b6000806040838503121561355b5761355a613501565b5b60006135698582860161352f565b925050602061357a8582860161352f565b9150509250929050565b60008115159050919050565b61359981613584565b82525050565b60006020820190506135b46000830184613590565b92915050565b600073ffffffffffffffffffffffffffffffffffffffff82169050919050565b60006135e5826135ba565b9050919050565b6135f5816135da565b811461360057600080fd5b50565b600081359050613612816135ec565b92915050565b60006020828403121561362e5761362d613501565b5b600061363c84828501613603565b91505092915050565b6000819050919050565b61365881613645565b811461366357600080fd5b50565b6000813590506136758161364f565b92915050565b6000806040838503121561369257613691613501565b5b60006136a085828601613666565b92505060206136b18582860161352f565b9150509250929050565b6136c481613645565b82525050565b60006020820190506136df60008301846136bb565b92915050565b6136ee8161350b565b82525050565b600060208201905061370960008301846136e5565b92915050565b600080fd5b6000601f19601f8301169050919050565b7f4e487b7100000000000000000000000000000000000000000000000000000000600052604160045260246000fd5b61375d82613714565b810181811067ffffffffffffffff8211171561377c5761377b613725565b5b80604052505050565b600061378f6134f7565b905061379b8282613754565b919050565b600067ffffffffffffffff8211156137bb576137ba613725565b5b602082029050602081019050919050565b600080fd5b60006137e46137df846137a0565b613785565b90508083825260208201905060208402830185811115613807576138066137cc565b5b835b81811015613830578061381c8882613666565b845260208401935050602081019050613809565b5050509392505050565b600082601f83011261384f5761384e61370f565b5b813561385f8482602086016137d1565b91505092915050565b6000806040838503121561387f5761387e613501565b5b600061388d85828601613666565b925050602083013567ffffffffffffffff8111156138ae576138ad613506565b5b6138ba8582860161383a565b9150509250929050565b6000806000606084860312156138dd576138dc613501565b5b60006138eb8682870161352f565b93505060206138fc8682870161352f565b925050604061390d86828701613666565b9150509250925092565b613920816135da565b82525050565b600060208201905061393b6000830184613917565b92915050565b60006020828403121561395757613956613501565b5b600061396584828501613666565b91505092915050565b7f4e487b7100000000000000000000000000000000000000000000000000000000600052602160045260246000fd5b600281106139ae576139ad61396e565b5b50565b60008190506139bf8261399d565b919050565b60006139cf826139b1565b9050919050565b6139df816139c4565b82525050565b60006020820190506139fa60008301846139d6565b92915050565b600067ffffffffffffffff821115613a1b57613a1a613725565b5b602082029050602081019050919050565b6000613a37826135ba565b9050919050565b613a4781613a2c565b8114613a5257600080fd5b50565b600081359050613a6481613a3e565b92915050565b6000613a7d613a7884613a00565b613785565b90508083825260208201905060208402830185811115613aa057613a9f6137cc565b5b835b81811015613ac95780613ab58882613a55565b845260208401935050602081019050613aa2565b5050509392505050565b600082601f830112613ae857613ae761370f565b5b8135613af8848260208601613a6a565b91505092915050565b600060208284031215613b1757613b16613501565b5b600082013567ffffffffffffffff811115613b3557613b34613506565b5b613b4184828501613ad3565b91505092915050565b6000819050919050565b6000613b6f613b6a613b658461350b565b613b4a565b613645565b9050919050565b613b7f81613b54565b82525050565b6000602082019050613b9a6000830184613b76565b92915050565b600081519050613baf81613518565b92915050565b600060208284031215613bcb57613bca613501565b5b6000613bd984828501613ba0565b91505092915050565b600082825260208201905092915050565b7f596f7520646f206e6f74206f776e2074686973207465727269746f7279000000600082015250565b6000613c29601d83613be2565b9150613c3482613bf3565b602082019050919050565b60006020820190508181036000830152613c5881613c1c565b9050919050565b7f4e487b7100000000000000000000000000000000000000000000000000000000600052603260045260246000fd5b7f4e487b7100000000000000000000000000000000000000000000000000000000600052601160045260246000fd5b6000613cc882613645565b91507fffffffffffffffffffffffffffffffffffffffffffffffffffffffffffffffff821415613cfb57613cfa613c8e565b5b600182019050919050565b6000613d118261350b565b9150613d1c8361350b565b925082821015613d2f57613d2e613c8e565b5b828203905092915050565b6000604082019050613d4f60008301856136bb565b613d5c60208301846136e5565b9392505050565b6000604082019050613d786000830185613917565b613d856020830184613917565b9392505050565b600081519050613d9b8161364f565b92915050565b600060208284031215613db757613db6613501565b5b6000613dc584828501613d8c565b91505092915050565b7f596f752063616e6e6f74206d6f7665207468617420616d6f756e74206f66207460008201527f726f6f7073210000000000000000000000000000000000000000000000000000602082015250565b6000613e2a602683613be2565b9150613e3582613dce565b604082019050919050565b60006020820190508181036000830152613e5981613e1d565b9050919050565b7f5465727269746f727920796f752061726520747279696e67206d6f766520747260008201527f6f6f707320746f206973206e6f74206f6e65206f6620796f7572206e6569676860208201527f626f757273210000000000000000000000000000000000000000000000000000604082015250565b6000613ee2604683613be2565b9150613eed82613e60565b606082019050919050565b60006020820190508181036000830152613f1181613ed5565b9050919050565b600081519050919050565b600081905092915050565b60005b83811015613f4c578082015181840152602081019050613f31565b83811115613f5b576000848401525b50505050565b6000613f6c82613f18565b613f768185613f23565b9350613f86818560208601613f2e565b80840191505092915050565b6000613f9e8284613f61565b915081905092915050565b7f63616c6c20746f206d61696e206661696c656400000000000000000000000000600082015250565b6000613fdf601383613be2565b9150613fea82613fa9565b602082019050919050565b6000602082019050818103600083015261400e81613fd2565b9050919050565b7f5465727269746f727920796f752061726520747279696e6720746f206174746160008201527f636b206973206e6f742061206e65696768626f75722100000000000000000000602082015250565b6000614071603683613be2565b915061407c82614015565b604082019050919050565b600060208201905081810360008301526140a081614064565b9050919050565b7f596f752063616e6e6f742061747461636b20776974682074686174206d616e7960008201527f2074726f6f707321000000000000000000000000000000000000000000000000602082015250565b6000614103602883613be2565b915061410e826140a7565b604082019050919050565b60006020820190508181036000830152614132816140f6565b9050919050565b600061414482613645565b915061414f83613645565b9250827fffffffffffffffffffffffffffffffffffffffffffffffffffffffffffffffff0382111561418457614183613c8e565b5b828201905092915050565b7f596f75206d7573742068617665206d6f7265207468616e20312074726f6f702060008201527f746f206d6f766521000000000000000000000000000000000000000000000000602082015250565b60006141eb602883613be2565b91506141f68261418f565b604082019050919050565b6000602082019050818103600083015261421a816141de565b9050919050565b7f596f75206d757374206f776e20626f7468207465727269746f7269657320746f60008201527f206d6f76652074726f6f70732100000000000000000000000000000000000000602082015250565b600061427d602d83613be2565b915061428882614221565b604082019050919050565b600060208201905081810360008301526142ac81614270565b9050919050565b600067ffffffffffffffff8211156142ce576142cd613725565b5b602082029050602081019050919050565b60006142f26142ed846142b3565b613785565b90508083825260208201905060208402830185811115614315576143146137cc565b5b835b8181101561433e578061432a8882613ba0565b845260208401935050602081019050614317565b5050509392505050565b600082601f83011261435d5761435c61370f565b5b815161436d8482602086016142df565b91505092915050565b60006020828403121561438c5761438b613501565b5b600082015167ffffffffffffffff8111156143aa576143a9613506565b5b6143b684828501614348565b91505092915050565b60006143ca8261350b565b915060ff8214156143de576143dd613c8e565b5b600182019050919050565b60006143f48261350b565b91506143ff8361350b565b92508260ff0382111561441557614414613c8e565b5b828201905092915050565b7f4e487b7100000000000000000000000000000000000000000000000000000000600052601260045260246000fd5b600061445a8261350b565b91506144658361350b565b92508261447557614474614420565b5b828204905092915050565b7f596f75206d7573742068617665206174206c6561737420312074726f6f70207260008201527f656d61696e696e6720696e20796f7572207465727269746f727920746f20617460208201527f7461636b21000000000000000000000000000000000000000000000000000000604082015250565b6000614502604583613be2565b915061450d82614480565b606082019050919050565b60006020820190508181036000830152614531816144f5565b9050919050565b7f596f752063616e6e6f742061747461636b20796f7572206f776e20746572726960008201527f746f727921000000000000000000000000000000000000000000000000000000602082015250565b6000614594602583613be2565b915061459f82614538565b604082019050919050565b600060208201905081810360008301526145c381614587565b9050919050565b600081519050919050565b60006145e0826145ca565b6145ea8185613be2565b93506145fa818560208601613f2e565b61460381613714565b840191505092915050565b6000604082019050818103600083015261462881856145d5565b905061463760208301846136bb565b9392505050565b6000819050919050565b6146518161463e565b82525050565b600067ffffffffffffffff82169050919050565b61467481614657565b82525050565b600061ffff82169050919050565b6146918161467a565b82525050565b600063ffffffff82169050919050565b6146b081614697565b82525050565b600060a0820190506146cb6000830188614648565b6146d8602083018761466b565b6146e56040830186614688565b6146f260608301856146a7565b6146ff60808301846146a7565b9695505050505050565b600061471482613645565b915061471f83613645565b92508261472f5761472e614420565b5b828206905092915050565b600061474582613645565b915061475083613645565b92508282101561476357614762613c8e565b5b828203905092915050565b6000819050919050565b60006147838261476e565b915061478e8361476e565b9250817f7fffffffffffffffffffffffffffffffffffffffffffffffffffffffffffffff038313600083121516156147c9576147c8613c8e565b5b817f800000000000000000000000000000000000000000000000000000000000000003831260008312161561480157614800613c8e565b5b828201905092915050565b60006148178261476e565b91507f800000000000000000000000000000000000000000000000000000000000000082141561484a57614849613c8e565b5b60018203905091905056fea264697066735822122093b90234b1851218768959c766dc0e824d44a9f5fa3b92a0b2a132437b71448d64736f6c63430008080033",
  "devdoc": {
    "kind": "dev",
    "methods": {},
    "version": 1
  },
  "userdoc": {
    "kind": "user",
    "methods": {},
    "version": 1
  },
  "storageLayout": {
    "storage": [
      {
        "astId": 355,
        "contract": "contracts/Controls.sol:Controls",
        "label": "s_recentAttackingArmies",
        "offset": 0,
        "slot": "0",
        "type": "t_uint256"
      },
      {
        "astId": 357,
        "contract": "contracts/Controls.sol:Controls",
        "label": "s_recentDefendingArmies",
        "offset": 0,
        "slot": "1",
        "type": "t_uint256"
      },
      {
        "astId": 359,
        "contract": "contracts/Controls.sol:Controls",
        "label": "s_recentTerritoryAttacking",
        "offset": 0,
        "slot": "2",
        "type": "t_uint8"
      },
      {
        "astId": 361,
        "contract": "contracts/Controls.sol:Controls",
        "label": "s_recentTerritoryBeingAttacked",
        "offset": 1,
        "slot": "2",
        "type": "t_uint8"
      },
      {
        "astId": 363,
        "contract": "contracts/Controls.sol:Controls",
        "label": "main_address",
        "offset": 2,
        "slot": "2",
        "type": "t_address"
      },
      {
        "astId": 365,
        "contract": "contracts/Controls.sol:Controls",
        "label": "data_address",
        "offset": 0,
        "slot": "3",
        "type": "t_address"
      },
      {
        "astId": 368,
        "contract": "contracts/Controls.sol:Controls",
        "label": "s_mainSet",
        "offset": 20,
        "slot": "3",
        "type": "t_enum(mainAddressSent)341"
      },
      {
        "astId": 370,
        "contract": "contracts/Controls.sol:Controls",
        "label": "s_requestId",
        "offset": 0,
        "slot": "4",
        "type": "t_uint256"
      },
      {
        "astId": 372,
        "contract": "contracts/Controls.sol:Controls",
        "label": "s_troopsToDeploy",
        "offset": 0,
        "slot": "5",
        "type": "t_uint8"
      },
      {
        "astId": 374,
        "contract": "contracts/Controls.sol:Controls",
        "label": "s_playerTurn",
        "offset": 1,
        "slot": "5",
        "type": "t_uint8"
      },
      {
        "astId": 377,
        "contract": "contracts/Controls.sol:Controls",
        "label": "s_playersArray",
        "offset": 0,
        "slot": "6",
        "type": "t_array(t_address_payable)dyn_storage"
      },
      {
        "astId": 380,
        "contract": "contracts/Controls.sol:Controls",
        "label": "s_diceWords",
        "offset": 0,
        "slot": "7",
        "type": "t_array(t_uint256)dyn_storage"
      },
      {
        "astId": 382,
        "contract": "contracts/Controls.sol:Controls",
        "label": "s_attackSuccess",
        "offset": 0,
        "slot": "8",
        "type": "t_bool"
      },
      {
        "astId": 384,
        "contract": "contracts/Controls.sol:Controls",
        "label": "s_gameIsOver",
        "offset": 1,
        "slot": "8",
        "type": "t_bool"
      }
    ],
    "types": {
      "t_address": {
        "encoding": "inplace",
        "label": "address",
        "numberOfBytes": "20"
      },
      "t_address_payable": {
        "encoding": "inplace",
        "label": "address payable",
        "numberOfBytes": "20"
      },
      "t_array(t_address_payable)dyn_storage": {
        "base": "t_address_payable",
        "encoding": "dynamic_array",
        "label": "address payable[]",
        "numberOfBytes": "32"
      },
      "t_array(t_uint256)dyn_storage": {
        "base": "t_uint256",
        "encoding": "dynamic_array",
        "label": "uint256[]",
        "numberOfBytes": "32"
      },
      "t_bool": {
        "encoding": "inplace",
        "label": "bool",
        "numberOfBytes": "1"
      },
      "t_enum(mainAddressSent)341": {
        "encoding": "inplace",
        "label": "enum Controls.mainAddressSent",
        "numberOfBytes": "1"
      },
      "t_uint256": {
        "encoding": "inplace",
        "label": "uint256",
        "numberOfBytes": "32"
      },
      "t_uint8": {
        "encoding": "inplace",
        "label": "uint8",
        "numberOfBytes": "1"
      }
    }
  }
}