{
  "address": "0xDc64a140Aa3E981100a9becA4E685f962f0cF6C9",
  "abi": [
    {
      "inputs": [
        {
          "internalType": "address",
          "name": "vrfCoordinatorV2",
          "type": "address"
        },
        {
          "internalType": "uint64",
          "name": "subscriptionId",
          "type": "uint64"
        },
        {
          "internalType": "bytes32",
          "name": "gasLane",
          "type": "bytes32"
        },
        {
          "internalType": "uint32",
          "name": "callbackGasLimit",
          "type": "uint32"
        },
        {
          "internalType": "address",
          "name": "data",
          "type": "address"
        }
      ],
      "stateMutability": "nonpayable",
      "type": "constructor"
    },
    {
      "inputs": [
        {
          "internalType": "address",
          "name": "have",
          "type": "address"
        },
        {
          "internalType": "address",
          "name": "want",
          "type": "address"
        }
      ],
      "name": "OnlyCoordinatorCanFulfill",
      "type": "error"
    },
    {
      "anonymous": false,
      "inputs": [
        {
          "indexed": false,
          "internalType": "address",
          "name": "",
          "type": "address"
        }
      ],
      "name": "Attacking",
      "type": "event"
    },
    {
      "anonymous": false,
      "inputs": [
        {
          "indexed": true,
          "internalType": "address",
          "name": "player",
          "type": "address"
        }
      ],
      "name": "CurrentPlayer",
      "type": "event"
    },
    {
      "anonymous": false,
      "inputs": [
        {
          "indexed": false,
          "internalType": "address",
          "name": "",
          "type": "address"
        }
      ],
      "name": "Deploying",
      "type": "event"
    },
    {
      "anonymous": false,
      "inputs": [],
      "name": "DiceRolled",
      "type": "event"
    },
    {
      "anonymous": false,
      "inputs": [
        {
          "indexed": false,
          "internalType": "address",
          "name": "",
          "type": "address"
        }
      ],
      "name": "Fortifying",
      "type": "event"
    },
    {
      "anonymous": false,
      "inputs": [
        {
          "indexed": true,
          "internalType": "address",
          "name": "main",
          "type": "address"
        }
      ],
      "name": "ReceivedMain",
      "type": "event"
    },
    {
      "anonymous": false,
      "inputs": [
        {
          "indexed": true,
          "internalType": "uint256",
          "name": "identifier",
          "type": "uint256"
        }
      ],
      "name": "RollingDice",
      "type": "event"
    },
    {
      "inputs": [
        {
          "internalType": "uint256",
          "name": "index",
          "type": "uint256"
        }
      ],
      "name": "add_troop_to_territory",
      "outputs": [],
      "stateMutability": "nonpayable",
      "type": "function"
    },
    {
      "inputs": [
        {
          "internalType": "uint8",
          "name": "territoryOwned",
          "type": "uint8"
        },
        {
          "internalType": "uint8",
          "name": "territoryAttacking",
          "type": "uint8"
        },
        {
          "internalType": "uint256",
          "name": "attackingArmies",
          "type": "uint256"
        }
      ],
      "name": "attack_control",
      "outputs": [],
      "stateMutability": "nonpayable",
      "type": "function"
    },
    {
      "inputs": [
        {
          "internalType": "uint8",
          "name": "amountToDeploy",
          "type": "uint8"
        },
        {
          "internalType": "uint8",
          "name": "location",
          "type": "uint8"
        }
      ],
      "name": "deploy_control",
      "outputs": [
        {
          "internalType": "bool",
          "name": "",
          "type": "bool"
        }
      ],
      "stateMutability": "nonpayable",
      "type": "function"
    },
    {
      "inputs": [
        {
          "internalType": "uint32",
          "name": "num_words",
          "type": "uint32"
        }
      ],
      "name": "diceRoller",
      "outputs": [],
      "stateMutability": "nonpayable",
      "type": "function"
    },
    {
      "inputs": [],
      "name": "fortify_control",
      "outputs": [],
      "stateMutability": "nonpayable",
      "type": "function"
    },
    {
      "inputs": [],
      "name": "getPlayerTurn",
      "outputs": [
        {
          "internalType": "address",
          "name": "",
          "type": "address"
        }
      ],
      "stateMutability": "view",
      "type": "function"
    },
    {
      "inputs": [
        {
          "internalType": "uint256",
          "name": "j",
          "type": "uint256"
        }
      ],
      "name": "get_territory_owner",
      "outputs": [
        {
          "internalType": "uint256",
          "name": "owner",
          "type": "uint256"
        }
      ],
      "stateMutability": "nonpayable",
      "type": "function"
    },
    {
      "inputs": [],
      "name": "get_troops_to_deploy",
      "outputs": [
        {
          "internalType": "uint8",
          "name": "",
          "type": "uint8"
        }
      ],
      "stateMutability": "view",
      "type": "function"
    },
    {
      "inputs": [
        {
          "internalType": "uint8",
          "name": "playerAwarded",
          "type": "uint8"
        }
      ],
      "name": "push_to_territories",
      "outputs": [],
      "stateMutability": "nonpayable",
      "type": "function"
    },
    {
      "inputs": [
        {
          "internalType": "uint256",
          "name": "requestId",
          "type": "uint256"
        },
        {
          "internalType": "uint256[]",
          "name": "randomWords",
          "type": "uint256[]"
        }
      ],
      "name": "rawFulfillRandomWords",
      "outputs": [],
      "stateMutability": "nonpayable",
      "type": "function"
    },
    {
      "inputs": [],
      "name": "s_mainSet",
      "outputs": [
        {
          "internalType": "enum Controls.mainAddressSent",
          "name": "",
          "type": "uint8"
        }
      ],
      "stateMutability": "view",
      "type": "function"
    },
    {
      "inputs": [],
      "name": "s_playerTurn",
      "outputs": [
        {
          "internalType": "uint8",
          "name": "",
          "type": "uint8"
        }
      ],
      "stateMutability": "view",
      "type": "function"
    },
    {
      "inputs": [],
      "name": "s_troopsToDeploy",
      "outputs": [
        {
          "internalType": "uint8",
          "name": "",
          "type": "uint8"
        }
      ],
      "stateMutability": "view",
      "type": "function"
    },
    {
      "inputs": [
        {
          "internalType": "address",
          "name": "main",
          "type": "address"
        }
      ],
      "name": "set_main_address",
      "outputs": [],
      "stateMutability": "nonpayable",
      "type": "function"
    },
    {
      "inputs": [
        {
          "internalType": "address payable[]",
          "name": "players",
          "type": "address[]"
        }
      ],
      "name": "set_players",
      "outputs": [],
      "stateMutability": "nonpayable",
      "type": "function"
    }
  ],
  "transactionHash": "0xb3b51e2af4a0f3627522ed24f2d62762f1914f1a71c6d3ee2b5f9bc105415863",
  "args": [
    "0x5FbDB2315678afecb367f032d93F642f64180aa3",
    "1",
    "0x79d3d8832d904592c0bf9818b621522c988bb8b0c05cdc3b15aea1b6e8db0c15",
    "3000000",
    "0xe7f1725E7734CE288F8367e1Bb143E90bb3F0512"
  ],
  "numDeployments": 1,
  "solcInputHash": "c42645bb7d4f74aaee579a7584c629e6",
  "bytecode": "0x6101206040523480156200001257600080fd5b5060405162002e5438038062002e548339818101604052810190620000389190620002c4565b848073ffffffffffffffffffffffffffffffffffffffff1660808173ffffffffffffffffffffffffffffffffffffffff1660601b81525050508473ffffffffffffffffffffffffffffffffffffffff1660a08173ffffffffffffffffffffffffffffffffffffffff1660601b815250508367ffffffffffffffff1660c08167ffffffffffffffff1660c01b815250508260e081815250508163ffffffff166101008163ffffffff1660e01b8152505080600260006101000a81548173ffffffffffffffffffffffffffffffffffffffff021916908373ffffffffffffffffffffffffffffffffffffffff1602179055506001600260146101000a81548160ff021916908360018111156200015157620001506200034c565b5b02179055506003600260156101000a81548160ff021916908360ff1602179055506000600460006101000a81548160ff021916908360ff16021790555050505050506200037b565b600080fd5b600073ffffffffffffffffffffffffffffffffffffffff82169050919050565b6000620001cb826200019e565b9050919050565b620001dd81620001be565b8114620001e957600080fd5b50565b600081519050620001fd81620001d2565b92915050565b600067ffffffffffffffff82169050919050565b620002228162000203565b81146200022e57600080fd5b50565b600081519050620002428162000217565b92915050565b6000819050919050565b6200025d8162000248565b81146200026957600080fd5b50565b6000815190506200027d8162000252565b92915050565b600063ffffffff82169050919050565b6200029e8162000283565b8114620002aa57600080fd5b50565b600081519050620002be8162000293565b92915050565b600080600080600060a08688031215620002e357620002e262000199565b5b6000620002f388828901620001ec565b9550506020620003068882890162000231565b945050604062000319888289016200026c565b93505060606200032c88828901620002ad565b92505060806200033f88828901620001ec565b9150509295509295909350565b7f4e487b7100000000000000000000000000000000000000000000000000000000600052602160045260246000fd5b60805160601c60a05160601c60c05160c01c60e0516101005160e01c612a81620003d360003960006107e20152600061079e015260006107bf01526000610762015260008181610648015261069c0152612a816000f3fe608060405234801561001057600080fd5b50600436106100f55760003560e01c806366f9879511610097578063b6d5bc6f11610066578063b6d5bc6f1461025e578063be85fc761461027c578063c758c12614610298578063d695558c146102b4576100f5565b806366f98795146101d6578063780b5bf9146101f45780638d2ed99714610224578063aa181e8514610242576100f5565b80631fe543e3116100d35780631fe543e3146101645780632572cd6e1461018057806344fe72351461019e5780635a1095f3146101ba576100f5565b8063041dcfcc146100fa57806305ca49b01461012a5780631c6f86cc14610146575b600080fd5b610114600480360381019061010f9190611c01565b6102be565b6040516101219190611c5c565b60405180910390f35b610144600480360381019061013f9190611cd5565b6104b5565b005b61014e610633565b60405161015b9190611d11565b60405180910390f35b61017e60048036038101906101799190611ebb565b610646565b005b610188610706565b6040516101959190611f26565b60405180910390f35b6101b860048036038101906101b39190611f7d565b61075e565b005b6101d460048036038101906101cf9190611faa565b6108a7565b005b6101de610991565b6040516101eb9190611d11565b60405180910390f35b61020e60048036038101906102099190611faa565b6109a4565b60405161021b9190611fe6565b60405180910390f35b61022c610ab7565b6040516102399190612078565b60405180910390f35b61025c60048036038101906102579190612093565b610aca565b005b610266610bb4565b6040516102739190611d11565b60405180910390f35b610296600480360381019061029191906120c0565b610bcb565b005b6102b260048036038101906102ad9190612214565b610f12565b005b6102bc611010565b005b6000600160009054906101000a900473ffffffffffffffffffffffffffffffffffffffff1673ffffffffffffffffffffffffffffffffffffffff163373ffffffffffffffffffffffffffffffffffffffff161461031a57600080fd5b7f06ad1a5c4f3ee0adef7c6341ede5cbdb6a612fa1bc2b59b6f23cdddb24a0d9fb6003600260159054906101000a900460ff1660ff16815481106103615761036061225d565b5b9060005260206000200160009054906101000a900473ffffffffffffffffffffffffffffffffffffffff1660405161039991906122eb565b60405180910390a160005b8360ff1681101561044f57600260009054906101000a900473ffffffffffffffffffffffffffffffffffffffff1673ffffffffffffffffffffffffffffffffffffffff1663a3f09a93846040518263ffffffff1660e01b815260040161040a9190612337565b600060405180830381600087803b15801561042457600080fd5b505af1158015610438573d6000803e3d6000fd5b50505050808061044790612381565b9150506103a4565b5082600460008282829054906101000a900460ff1661046e91906123ca565b92506101000a81548160ff021916908360ff1602179055506000600460009054906101000a900460ff1660ff1614156104aa57600190506104af565b600090505b92915050565b6001808111156104c8576104c7612001565b5b600260149054906101000a900460ff1660018111156104ea576104e9612001565b5b146104f457600080fd5b8073ffffffffffffffffffffffffffffffffffffffff167fc347a26bea69a31d705cd31225784accd8aabfcba5952e3b6c2d66429acaca4f60405160405180910390a280600160006101000a81548173ffffffffffffffffffffffffffffffffffffffff021916908373ffffffffffffffffffffffffffffffffffffffff1602179055506000600260146101000a81548160ff0219169083600181111561059e5761059d612001565b5b0217905550600260009054906101000a900473ffffffffffffffffffffffffffffffffffffffff1673ffffffffffffffffffffffffffffffffffffffff1663b0876995306040518263ffffffff1660e01b81526004016105fe9190611f26565b600060405180830381600087803b15801561061857600080fd5b505af115801561062c573d6000803e3d6000fd5b5050505050565b600460009054906101000a900460ff1681565b7f000000000000000000000000000000000000000000000000000000000000000073ffffffffffffffffffffffffffffffffffffffff163373ffffffffffffffffffffffffffffffffffffffff16146106f857337f00000000000000000000000000000000000000000000000000000000000000006040517f1cf993f40000000000000000000000000000000000000000000000000000000081526004016106ef9291906123fe565b60405180910390fd5b61070282826110fb565b5050565b60006003600260159054906101000a900460ff1660ff168154811061072e5761072d61225d565b5b9060005260206000200160009054906101000a900473ffffffffffffffffffffffffffffffffffffffff16905090565b60007f000000000000000000000000000000000000000000000000000000000000000073ffffffffffffffffffffffffffffffffffffffff16635d3b1d307f00000000000000000000000000000000000000000000000000000000000000007f000000000000000000000000000000000000000000000000000000000000000060037f0000000000000000000000000000000000000000000000000000000000000000876040518663ffffffff1660e01b815260040161082295949392919061248f565b602060405180830381600087803b15801561083c57600080fd5b505af1158015610850573d6000803e3d6000fd5b505050506040513d601f19601f8201168201806040525081019061087491906124f7565b9050807f20d9f2861ba87fcdc90b5f0254ea9210c08b0aaf238de5b53049db100f4f6a5760405160405180910390a25050565b600160009054906101000a900473ffffffffffffffffffffffffffffffffffffffff1673ffffffffffffffffffffffffffffffffffffffff163373ffffffffffffffffffffffffffffffffffffffff161461090157600080fd5b600260009054906101000a900473ffffffffffffffffffffffffffffffffffffffff1673ffffffffffffffffffffffffffffffffffffffff1663a3f09a93826040518263ffffffff1660e01b815260040161095c9190611fe6565b600060405180830381600087803b15801561097657600080fd5b505af115801561098a573d6000803e3d6000fd5b5050505050565b600260159054906101000a900460ff1681565b6000600160009054906101000a900473ffffffffffffffffffffffffffffffffffffffff1673ffffffffffffffffffffffffffffffffffffffff163373ffffffffffffffffffffffffffffffffffffffff1614610a0057600080fd5b600260009054906101000a900473ffffffffffffffffffffffffffffffffffffffff1673ffffffffffffffffffffffffffffffffffffffff16634423b787836040518263ffffffff1660e01b8152600401610a5b9190611fe6565b602060405180830381600087803b158015610a7557600080fd5b505af1158015610a89573d6000803e3d6000fd5b505050506040513d601f19601f82011682018060405250810190610aad9190612539565b60ff169050919050565b600260149054906101000a900460ff1681565b600160009054906101000a900473ffffffffffffffffffffffffffffffffffffffff1673ffffffffffffffffffffffffffffffffffffffff163373ffffffffffffffffffffffffffffffffffffffff1614610b2457600080fd5b600260009054906101000a900473ffffffffffffffffffffffffffffffffffffffff1673ffffffffffffffffffffffffffffffffffffffff166321eb9dab826040518263ffffffff1660e01b8152600401610b7f9190611d11565b600060405180830381600087803b158015610b9957600080fd5b505af1158015610bad573d6000803e3d6000fd5b5050505050565b6000600460009054906101000a900460ff16905090565b600160009054906101000a900473ffffffffffffffffffffffffffffffffffffffff1673ffffffffffffffffffffffffffffffffffffffff163373ffffffffffffffffffffffffffffffffffffffff1614610c2557600080fd5b610c2f8383611150565b610c6e576040517f08c379a0000000000000000000000000000000000000000000000000000000008152600401610c65906125e9565b60405180910390fd5b600260009054906101000a900473ffffffffffffffffffffffffffffffffffffffff1673ffffffffffffffffffffffffffffffffffffffff1663d2885910846040518263ffffffff1660e01b8152600401610cc99190612337565b60206040518083038186803b158015610ce157600080fd5b505afa158015610cf5573d6000803e3d6000fd5b505050506040513d601f19601f82011682018060405250810190610d1991906124f7565b81108015610d275750600081115b610d66576040517f08c379a0000000000000000000000000000000000000000000000000000000008152600401610d5d9061267b565b60405180910390fd5b7f0dfacd5c23d1f8db8f4789bcaba445a361c06637990e1b82b68da35efb3f19a16003600260159054906101000a900460ff1660ff1681548110610dad57610dac61225d565b5b9060005260206000200160009054906101000a900473ffffffffffffffffffffffffffffffffffffffff16604051610de591906122eb565b60405180910390a16000600260009054906101000a900473ffffffffffffffffffffffffffffffffffffffff1673ffffffffffffffffffffffffffffffffffffffff1663d2885910846040518263ffffffff1660e01b8152600401610e4a9190612337565b60206040518083038186803b158015610e6257600080fd5b505afa158015610e76573d6000803e3d6000fd5b505050506040513d601f19601f82011682018060405250810190610e9a91906124f7565b90506002811115610eae5760029050610eb3565b600190505b6000610ebf838361139b565b9050610eff6040518060400160405280601981526020017f676f74207468726f75676820617461636b20636f6e74726f6c00000000000000815250611424565b610f0b8160ff1661075e565b5050505050565b600160009054906101000a900473ffffffffffffffffffffffffffffffffffffffff1673ffffffffffffffffffffffffffffffffffffffff163373ffffffffffffffffffffffffffffffffffffffff1614610f6c57600080fd5b8060039080519060200190610f82929190611ac0565b50600260009054906101000a900473ffffffffffffffffffffffffffffffffffffffff1673ffffffffffffffffffffffffffffffffffffffff16633bee987f6040518163ffffffff1660e01b8152600401600060405180830381600087803b158015610fed57600080fd5b505af1158015611001573d6000803e3d6000fd5b5050505061100d6114bd565b50565b600160009054906101000a900473ffffffffffffffffffffffffffffffffffffffff1673ffffffffffffffffffffffffffffffffffffffff163373ffffffffffffffffffffffffffffffffffffffff161461106a57600080fd5b7ff5cff37ebba32db40c76e1d0c44911ed01d7028c4075d2b2d5e1baeef124f7626003600260159054906101000a900460ff1660ff16815481106110b1576110b061225d565b5b9060005260206000200160009054906101000a900473ffffffffffffffffffffffffffffffffffffffff166040516110e991906122eb565b60405180910390a16110f96114bd565b565b8060009080519060200190611111929190611b4a565b507f48ed86bcf5a9db215d430a3d797d5fd900be09379a002b6f37891bd2aacbe5cf60405160405180910390a161114c60008054905061191a565b5050565b60006001600260009054906101000a900473ffffffffffffffffffffffffffffffffffffffff1673ffffffffffffffffffffffffffffffffffffffff1663d2885910856040518263ffffffff1660e01b81526004016111af9190612337565b60206040518083038186803b1580156111c757600080fd5b505afa1580156111db573d6000803e3d6000fd5b505050506040513d601f19601f820116820180604052508101906111ff91906124f7565b1161123f576040517f08c379a000000000000000000000000000000000000000000000000000000000815260040161123690612733565b60405180910390fd5b611248826119b3565b15611288576040517f08c379a000000000000000000000000000000000000000000000000000000000815260040161127f906127c5565b60405180910390fd5b6000600260009054906101000a900473ffffffffffffffffffffffffffffffffffffffff1673ffffffffffffffffffffffffffffffffffffffff166389290109856040518263ffffffff1660e01b81526004016112e59190612337565b60006040518083038186803b1580156112fd57600080fd5b505afa158015611311573d6000803e3d6000fd5b505050506040513d6000823e3d601f19601f8201168201806040525081019061133a91906128a8565b905060005b600681101561138e5781818151811061135b5761135a61225d565b5b602002602001015160ff168460ff16141561137b57600192505050611395565b808061138690612381565b91505061133f565b5060009150505b92915050565b6000806000905060038414156113bf576003816113b891906128f1565b90506113ed565b60028414156113dc576002816113d591906128f1565b90506113ec565b6001816113e991906128f1565b90505b5b600283141561140a5760028161140391906128f1565b905061141a565b60018161141791906128f1565b90505b8091505092915050565b6114ba81604051602401611438919061299f565b6040516020818303038152906040527f41304fac000000000000000000000000000000000000000000000000000000007bffffffffffffffffffffffffffffffffffffffffffffffffffffffff19166020820180517bffffffffffffffffffffffffffffffffffffffffffffffffffffffff8381831617835250505050611a97565b50565b6002601581819054906101000a900460ff16809291906114dc906129c1565b91906101000a81548160ff021916908360ff160217905550506004600260159054906101000a900460ff1660ff16141561152d576000600260156101000a81548160ff021916908360ff1602179055505b6000600460006101000a81548160ff021916908360ff160217905550600260009054906101000a900473ffffffffffffffffffffffffffffffffffffffff1673ffffffffffffffffffffffffffffffffffffffff166364b6667d6040518163ffffffff1660e01b8152600401600060405180830381600087803b1580156115b357600080fd5b505af11580156115c7573d6000803e3d6000fd5b5050505060005b600681101561179257600260159054906101000a900460ff1660ff16600260009054906101000a900473ffffffffffffffffffffffffffffffffffffffff1673ffffffffffffffffffffffffffffffffffffffff16630452338e836040518263ffffffff1660e01b81526004016116459190611fe6565b60206040518083038186803b15801561165d57600080fd5b505afa158015611671573d6000803e3d6000fd5b505050506040513d601f19601f820116820180604052508101906116959190612539565b60ff16141561177f57600260009054906101000a900473ffffffffffffffffffffffffffffffffffffffff1673ffffffffffffffffffffffffffffffffffffffff16631e8d6c3c826040518263ffffffff1660e01b81526004016116f99190611fe6565b60206040518083038186803b15801561171157600080fd5b505afa158015611725573d6000803e3d6000fd5b505050506040513d601f19601f820116820180604052508101906117499190612539565b600460008282829054906101000a900460ff1661176691906128f1565b92506101000a81548160ff021916908360ff1602179055505b808061178a90612381565b9150506115ce565b506000805b602a81101561188b57600260159054906101000a900460ff1660ff16600260009054906101000a900473ffffffffffffffffffffffffffffffffffffffff1673ffffffffffffffffffffffffffffffffffffffff16634423b787836040518263ffffffff1660e01b815260040161180e9190611fe6565b602060405180830381600087803b15801561182857600080fd5b505af115801561183c573d6000803e3d6000fd5b505050506040513d601f19601f820116820180604052508101906118609190612539565b60ff161415611878578180611874906129c1565b9250505b808061188390612381565b915050611797565b5060098160ff1610156118d4576003600460008282829054906101000a900460ff166118b791906128f1565b92506101000a81548160ff021916908360ff160217905550611917565b6003816118e19190612a1a565b600460008282829054906101000a900460ff166118fe91906128f1565b92506101000a81548160ff021916908360ff1602179055505b50565b6119b08160405160240161192e9190611fe6565b6040516020818303038152906040527ff82c50f1000000000000000000000000000000000000000000000000000000007bffffffffffffffffffffffffffffffffffffffffffffffffffffffff19166020820180517bffffffffffffffffffffffffffffffffffffffffffffffffffffffff8381831617835250505050611a97565b50565b600080600260009054906101000a900473ffffffffffffffffffffffffffffffffffffffff1673ffffffffffffffffffffffffffffffffffffffff16634423b787846040518263ffffffff1660e01b8152600401611a119190612337565b602060405180830381600087803b158015611a2b57600080fd5b505af1158015611a3f573d6000803e3d6000fd5b505050506040513d601f19601f82011682018060405250810190611a639190612539565b9050600260159054906101000a900460ff1660ff168160ff161415611a8c576001915050611a92565b60009150505b919050565b60008151905060006a636f6e736f6c652e6c6f679050602083016000808483855afa5050505050565b828054828255906000526020600020908101928215611b39579160200282015b82811115611b385782518260006101000a81548173ffffffffffffffffffffffffffffffffffffffff021916908373ffffffffffffffffffffffffffffffffffffffff16021790555091602001919060010190611ae0565b5b509050611b469190611b97565b5090565b828054828255906000526020600020908101928215611b86579160200282015b82811115611b85578251825591602001919060010190611b6a565b5b509050611b939190611b97565b5090565b5b80821115611bb0576000816000905550600101611b98565b5090565b6000604051905090565b600080fd5b600080fd5b600060ff82169050919050565b611bde81611bc8565b8114611be957600080fd5b50565b600081359050611bfb81611bd5565b92915050565b60008060408385031215611c1857611c17611bbe565b5b6000611c2685828601611bec565b9250506020611c3785828601611bec565b9150509250929050565b60008115159050919050565b611c5681611c41565b82525050565b6000602082019050611c716000830184611c4d565b92915050565b600073ffffffffffffffffffffffffffffffffffffffff82169050919050565b6000611ca282611c77565b9050919050565b611cb281611c97565b8114611cbd57600080fd5b50565b600081359050611ccf81611ca9565b92915050565b600060208284031215611ceb57611cea611bbe565b5b6000611cf984828501611cc0565b91505092915050565b611d0b81611bc8565b82525050565b6000602082019050611d266000830184611d02565b92915050565b6000819050919050565b611d3f81611d2c565b8114611d4a57600080fd5b50565b600081359050611d5c81611d36565b92915050565b600080fd5b6000601f19601f8301169050919050565b7f4e487b7100000000000000000000000000000000000000000000000000000000600052604160045260246000fd5b611db082611d67565b810181811067ffffffffffffffff82111715611dcf57611dce611d78565b5b80604052505050565b6000611de2611bb4565b9050611dee8282611da7565b919050565b600067ffffffffffffffff821115611e0e57611e0d611d78565b5b602082029050602081019050919050565b600080fd5b6000611e37611e3284611df3565b611dd8565b90508083825260208201905060208402830185811115611e5a57611e59611e1f565b5b835b81811015611e835780611e6f8882611d4d565b845260208401935050602081019050611e5c565b5050509392505050565b600082601f830112611ea257611ea1611d62565b5b8135611eb2848260208601611e24565b91505092915050565b60008060408385031215611ed257611ed1611bbe565b5b6000611ee085828601611d4d565b925050602083013567ffffffffffffffff811115611f0157611f00611bc3565b5b611f0d85828601611e8d565b9150509250929050565b611f2081611c97565b82525050565b6000602082019050611f3b6000830184611f17565b92915050565b600063ffffffff82169050919050565b611f5a81611f41565b8114611f6557600080fd5b50565b600081359050611f7781611f51565b92915050565b600060208284031215611f9357611f92611bbe565b5b6000611fa184828501611f68565b91505092915050565b600060208284031215611fc057611fbf611bbe565b5b6000611fce84828501611d4d565b91505092915050565b611fe081611d2c565b82525050565b6000602082019050611ffb6000830184611fd7565b92915050565b7f4e487b7100000000000000000000000000000000000000000000000000000000600052602160045260246000fd5b6002811061204157612040612001565b5b50565b600081905061205282612030565b919050565b600061206282612044565b9050919050565b61207281612057565b82525050565b600060208201905061208d6000830184612069565b92915050565b6000602082840312156120a9576120a8611bbe565b5b60006120b784828501611bec565b91505092915050565b6000806000606084860312156120d9576120d8611bbe565b5b60006120e786828701611bec565b93505060206120f886828701611bec565b925050604061210986828701611d4d565b9150509250925092565b600067ffffffffffffffff82111561212e5761212d611d78565b5b602082029050602081019050919050565b600061214a82611c77565b9050919050565b61215a8161213f565b811461216557600080fd5b50565b60008135905061217781612151565b92915050565b600061219061218b84612113565b611dd8565b905080838252602082019050602084028301858111156121b3576121b2611e1f565b5b835b818110156121dc57806121c88882612168565b8452602084019350506020810190506121b5565b5050509392505050565b600082601f8301126121fb576121fa611d62565b5b813561220b84826020860161217d565b91505092915050565b60006020828403121561222a57612229611bbe565b5b600082013567ffffffffffffffff81111561224857612247611bc3565b5b612254848285016121e6565b91505092915050565b7f4e487b7100000000000000000000000000000000000000000000000000000000600052603260045260246000fd5b6000819050919050565b60006122b16122ac6122a784611c77565b61228c565b611c77565b9050919050565b60006122c382612296565b9050919050565b60006122d5826122b8565b9050919050565b6122e5816122ca565b82525050565b600060208201905061230060008301846122dc565b92915050565b600061232161231c61231784611bc8565b61228c565b611d2c565b9050919050565b61233181612306565b82525050565b600060208201905061234c6000830184612328565b92915050565b7f4e487b7100000000000000000000000000000000000000000000000000000000600052601160045260246000fd5b600061238c82611d2c565b91507fffffffffffffffffffffffffffffffffffffffffffffffffffffffffffffffff8214156123bf576123be612352565b5b600182019050919050565b60006123d582611bc8565b91506123e083611bc8565b9250828210156123f3576123f2612352565b5b828203905092915050565b60006040820190506124136000830185611f17565b6124206020830184611f17565b9392505050565b6000819050919050565b61243a81612427565b82525050565b600067ffffffffffffffff82169050919050565b61245d81612440565b82525050565b600061ffff82169050919050565b61247a81612463565b82525050565b61248981611f41565b82525050565b600060a0820190506124a46000830188612431565b6124b16020830187612454565b6124be6040830186612471565b6124cb6060830185612480565b6124d86080830184612480565b9695505050505050565b6000815190506124f181611d36565b92915050565b60006020828403121561250d5761250c611bbe565b5b600061251b848285016124e2565b91505092915050565b60008151905061253381611bd5565b92915050565b60006020828403121561254f5761254e611bbe565b5b600061255d84828501612524565b91505092915050565b600082825260208201905092915050565b7f5465727269746f727920796f752061726520747279696e6720746f206174746160008201527f636b206973206e6f742061206e65696768626f75722100000000000000000000602082015250565b60006125d3603683612566565b91506125de82612577565b604082019050919050565b60006020820190508181036000830152612602816125c6565b9050919050565b7f596f752063616e6e6f742061747461636b20776974682074686174206d616e7960008201527f2074726f6f707321000000000000000000000000000000000000000000000000602082015250565b6000612665602883612566565b915061267082612609565b604082019050919050565b6000602082019050818103600083015261269481612658565b9050919050565b7f596f75206d7573742068617665206174206c6561737420312074726f6f70207260008201527f656d61696e696e6720696e20796f7572207465727269746f727920746f20617460208201527f7461636b21000000000000000000000000000000000000000000000000000000604082015250565b600061271d604583612566565b91506127288261269b565b606082019050919050565b6000602082019050818103600083015261274c81612710565b9050919050565b7f596f752063616e6e6f742061747461636b20796f7572206f776e20746572726960008201527f746f727921000000000000000000000000000000000000000000000000000000602082015250565b60006127af602583612566565b91506127ba82612753565b604082019050919050565b600060208201905081810360008301526127de816127a2565b9050919050565b600067ffffffffffffffff821115612800576127ff611d78565b5b602082029050602081019050919050565b600061282461281f846127e5565b611dd8565b9050808382526020820190506020840283018581111561284757612846611e1f565b5b835b81811015612870578061285c8882612524565b845260208401935050602081019050612849565b5050509392505050565b600082601f83011261288f5761288e611d62565b5b815161289f848260208601612811565b91505092915050565b6000602082840312156128be576128bd611bbe565b5b600082015167ffffffffffffffff8111156128dc576128db611bc3565b5b6128e88482850161287a565b91505092915050565b60006128fc82611bc8565b915061290783611bc8565b92508260ff0382111561291d5761291c612352565b5b828201905092915050565b600081519050919050565b60005b83811015612951578082015181840152602081019050612936565b83811115612960576000848401525b50505050565b600061297182612928565b61297b8185612566565b935061298b818560208601612933565b61299481611d67565b840191505092915050565b600060208201905081810360008301526129b98184612966565b905092915050565b60006129cc82611bc8565b915060ff8214156129e0576129df612352565b5b600182019050919050565b7f4e487b7100000000000000000000000000000000000000000000000000000000600052601260045260246000fd5b6000612a2582611bc8565b9150612a3083611bc8565b925082612a4057612a3f6129eb565b5b82820490509291505056fea2646970667358221220d43cccb2f2f509309ec0ad8d0f737d5ea5ff6537961b008f07015795f5b7896464736f6c63430008080033",
  "devdoc": {
    "kind": "dev",
    "methods": {},
    "version": 1
  },
  "userdoc": {
    "kind": "user",
    "methods": {},
    "version": 1
  },
  "storageLayout": {
    "storage": [
      {
        "astId": 263,
        "contract": "contracts/Controls.sol:Controls",
        "label": "s_diceWords",
        "offset": 0,
        "slot": "0",
        "type": "t_array(t_uint256)dyn_storage"
      },
      {
        "astId": 265,
        "contract": "contracts/Controls.sol:Controls",
        "label": "main_address",
        "offset": 0,
        "slot": "1",
        "type": "t_address"
      },
      {
        "astId": 267,
        "contract": "contracts/Controls.sol:Controls",
        "label": "data_address",
        "offset": 0,
        "slot": "2",
        "type": "t_address"
      },
      {
        "astId": 270,
        "contract": "contracts/Controls.sol:Controls",
        "label": "s_mainSet",
        "offset": 20,
        "slot": "2",
        "type": "t_enum(mainAddressSent)248"
      },
      {
        "astId": 272,
        "contract": "contracts/Controls.sol:Controls",
        "label": "s_playerTurn",
        "offset": 21,
        "slot": "2",
        "type": "t_uint8"
      },
      {
        "astId": 275,
        "contract": "contracts/Controls.sol:Controls",
        "label": "s_playersArray",
        "offset": 0,
        "slot": "3",
        "type": "t_array(t_address_payable)dyn_storage"
      },
      {
        "astId": 277,
        "contract": "contracts/Controls.sol:Controls",
        "label": "s_troopsToDeploy",
        "offset": 0,
        "slot": "4",
        "type": "t_uint8"
      }
    ],
    "types": {
      "t_address": {
        "encoding": "inplace",
        "label": "address",
        "numberOfBytes": "20"
      },
      "t_address_payable": {
        "encoding": "inplace",
        "label": "address payable",
        "numberOfBytes": "20"
      },
      "t_array(t_address_payable)dyn_storage": {
        "base": "t_address_payable",
        "encoding": "dynamic_array",
        "label": "address payable[]",
        "numberOfBytes": "32"
      },
      "t_array(t_uint256)dyn_storage": {
        "base": "t_uint256",
        "encoding": "dynamic_array",
        "label": "uint256[]",
        "numberOfBytes": "32"
      },
      "t_enum(mainAddressSent)248": {
        "encoding": "inplace",
        "label": "enum Controls.mainAddressSent",
        "numberOfBytes": "1"
      },
      "t_uint256": {
        "encoding": "inplace",
        "label": "uint256",
        "numberOfBytes": "32"
      },
      "t_uint8": {
        "encoding": "inplace",
        "label": "uint8",
        "numberOfBytes": "1"
      }
    }
  }
}