{
  "address": "0xe7f1725E7734CE288F8367e1Bb143E90bb3F0512",
  "abi": [
    {
      "inputs": [],
      "stateMutability": "nonpayable",
      "type": "constructor"
    },
    {
      "anonymous": false,
      "inputs": [
        {
          "indexed": true,
          "internalType": "address",
          "name": "controls",
          "type": "address"
        }
      ],
      "name": "ReceivedControls",
      "type": "event"
    },
    {
      "inputs": [
        {
          "internalType": "uint256",
          "name": "index",
          "type": "uint256"
        }
      ],
      "name": "addTroopToTerritory",
      "outputs": [],
      "stateMutability": "nonpayable",
      "type": "function"
    },
    {
      "inputs": [],
      "name": "getAllTerritories",
      "outputs": [
        {
          "components": [
            {
              "internalType": "uint8",
              "name": "owner",
              "type": "uint8"
            },
            {
              "internalType": "uint256",
              "name": "troops",
              "type": "uint256"
            }
          ],
          "internalType": "struct Data.Territory_Info[]",
          "name": "",
          "type": "tuple[]"
        }
      ],
      "stateMutability": "view",
      "type": "function"
    },
    {
      "inputs": [
        {
          "internalType": "uint256",
          "name": "continent",
          "type": "uint256"
        }
      ],
      "name": "getContinentBonus",
      "outputs": [
        {
          "internalType": "uint8",
          "name": "",
          "type": "uint8"
        }
      ],
      "stateMutability": "view",
      "type": "function"
    },
    {
      "inputs": [],
      "name": "getContinentInfo",
      "outputs": [
        {
          "components": [
            {
              "internalType": "uint8",
              "name": "owner",
              "type": "uint8"
            },
            {
              "internalType": "uint8",
              "name": "troopBonus",
              "type": "uint8"
            }
          ],
          "internalType": "struct Data.Continent_Info[6]",
          "name": "",
          "type": "tuple[6]"
        }
      ],
      "stateMutability": "view",
      "type": "function"
    },
    {
      "inputs": [
        {
          "internalType": "uint256",
          "name": "continent",
          "type": "uint256"
        }
      ],
      "name": "getContinentOwner",
      "outputs": [
        {
          "internalType": "uint8",
          "name": "",
          "type": "uint8"
        }
      ],
      "stateMutability": "view",
      "type": "function"
    },
    {
      "inputs": [
        {
          "internalType": "uint256",
          "name": "territory",
          "type": "uint256"
        }
      ],
      "name": "getNeighbours",
      "outputs": [
        {
          "internalType": "uint8[]",
          "name": "",
          "type": "uint8[]"
        }
      ],
      "stateMutability": "view",
      "type": "function"
    },
    {
      "inputs": [
        {
          "internalType": "uint256",
          "name": "territoryId",
          "type": "uint256"
        }
      ],
      "name": "getTerritories",
      "outputs": [
        {
          "components": [
            {
              "internalType": "uint8",
              "name": "owner",
              "type": "uint8"
            },
            {
              "internalType": "uint256",
              "name": "troops",
              "type": "uint256"
            }
          ],
          "internalType": "struct Data.Territory_Info",
          "name": "",
          "type": "tuple"
        }
      ],
      "stateMutability": "view",
      "type": "function"
    },
    {
      "inputs": [
        {
          "internalType": "uint256",
          "name": "j",
          "type": "uint256"
        }
      ],
      "name": "getTerritoryOwner",
      "outputs": [
        {
          "internalType": "uint8",
          "name": "owner",
          "type": "uint8"
        }
      ],
      "stateMutability": "view",
      "type": "function"
    },
    {
      "inputs": [
        {
          "internalType": "uint256",
          "name": "territory",
          "type": "uint256"
        }
      ],
      "name": "getTroopCount",
      "outputs": [
        {
          "internalType": "uint256",
          "name": "",
          "type": "uint256"
        }
      ],
      "stateMutability": "view",
      "type": "function"
    },
    {
      "inputs": [],
      "name": "initializeContinents",
      "outputs": [],
      "stateMutability": "nonpayable",
      "type": "function"
    },
    {
      "inputs": [
        {
          "internalType": "uint8",
          "name": "playerAwarded",
          "type": "uint8"
        }
      ],
      "name": "pushToTerritories",
      "outputs": [],
      "stateMutability": "nonpayable",
      "type": "function"
    },
    {
      "inputs": [
        {
          "internalType": "uint256",
          "name": "index",
          "type": "uint256"
        }
      ],
      "name": "removeTroopFromTerritory",
      "outputs": [],
      "stateMutability": "nonpayable",
      "type": "function"
    },
    {
      "inputs": [
        {
          "internalType": "uint256",
          "name": "",
          "type": "uint256"
        }
      ],
      "name": "s_continents",
      "outputs": [
        {
          "internalType": "uint8",
          "name": "owner",
          "type": "uint8"
        },
        {
          "internalType": "uint8",
          "name": "troopBonus",
          "type": "uint8"
        }
      ],
      "stateMutability": "view",
      "type": "function"
    },
    {
      "inputs": [],
      "name": "s_controlsSet",
      "outputs": [
        {
          "internalType": "enum Data.controlsAddressSent",
          "name": "",
          "type": "uint8"
        }
      ],
      "stateMutability": "view",
      "type": "function"
    },
    {
      "inputs": [
        {
          "internalType": "uint256",
          "name": "",
          "type": "uint256"
        },
        {
          "internalType": "uint256",
          "name": "",
          "type": "uint256"
        }
      ],
      "name": "s_neighbours",
      "outputs": [
        {
          "internalType": "uint8",
          "name": "",
          "type": "uint8"
        }
      ],
      "stateMutability": "view",
      "type": "function"
    },
    {
      "inputs": [
        {
          "internalType": "uint256",
          "name": "",
          "type": "uint256"
        }
      ],
      "name": "s_territories",
      "outputs": [
        {
          "internalType": "uint8",
          "name": "owner",
          "type": "uint8"
        },
        {
          "internalType": "uint256",
          "name": "troops",
          "type": "uint256"
        }
      ],
      "stateMutability": "view",
      "type": "function"
    },
    {
      "inputs": [
        {
          "internalType": "address",
          "name": "controls",
          "type": "address"
        }
      ],
      "name": "setControlsAddress",
      "outputs": [],
      "stateMutability": "nonpayable",
      "type": "function"
    },
    {
      "inputs": [],
      "name": "updateContinents",
      "outputs": [],
      "stateMutability": "nonpayable",
      "type": "function"
    }
  ],
  "transactionHash": "0x5f4b5c92f6f42a16bf57dd19b9cc2fc0fd43b1c49ca2ead1bde4fc46c8a1f976",
  "args": [],
  "numDeployments": 1,
  "solcInputHash": "c42645bb7d4f74aaee579a7584c629e6",
  "bytecode": "0x60806040526040518061054001604052806040518060c00160405280600160ff168152602001600360ff168152602001601d60ff168152602001606360ff168152602001606360ff168152602001606360ff1681525081526020016040518060c00160405280600060ff168152602001600360ff168152602001600460ff168152602001600260ff168152602001606360ff168152602001606360ff1681525081526020016040518060c00160405280600160ff168152602001600460ff168152602001600560ff168152602001600d60ff168152602001606360ff168152602001606360ff1681525081526020016040518060c00160405280600060ff168152602001600160ff168152602001600460ff168152602001600660ff168152602001606360ff168152602001606360ff1681525081526020016040518060c00160405280600160ff168152602001600260ff168152602001600360ff168152602001600560ff168152602001600660ff168152602001600760ff1681525081526020016040518060c00160405280600260ff168152602001600460ff168152602001600760ff168152602001606360ff168152602001606360ff168152602001606360ff1681525081526020016040518060c00160405280600360ff168152602001600460ff168152602001600760ff168152602001600860ff168152602001606360ff168152602001606360ff1681525081526020016040518060c00160405280600460ff168152602001600560ff168152602001600660ff168152602001600860ff168152602001606360ff168152602001606360ff1681525081526020016040518060c00160405280600660ff168152602001600760ff168152602001600960ff168152602001606360ff168152602001606360ff168152602001606360ff1681525081526020016040518060c00160405280600860ff168152602001600a60ff168152602001600b60ff168152602001606360ff168152602001606360ff168152602001606360ff1681525081526020016040518060c00160405280600960ff168152602001600b60ff168152602001600c60ff168152602001606360ff168152602001606360ff168152602001606360ff1681525081526020016040518060c00160405280600960ff168152602001600a60ff168152602001600c60ff168152602001601460ff168152602001606360ff168152602001606360ff1681525081526020016040518060c00160405280600a60ff168152602001600b60ff168152602001606360ff168152602001606360ff168152602001606360ff168152602001606360ff1681525081526020016040518060c00160405280600260ff168152602001600e60ff168152602001600f60ff168152602001606360ff168152602001606360ff168152602001606360ff1681525081526020016040518060c00160405280600d60ff168152602001600f60ff168152602001601060ff168152602001601160ff168152602001606360ff168152602001606360ff1681525081526020016040518060c00160405280600d60ff168152602001600e60ff168152602001601060ff168152602001601260ff168152602001606360ff168152602001606360ff1681525081526020016040518060c00160405280600e60ff168152602001600f60ff168152602001601160ff168152602001601260ff168152602001601360ff168152602001606360ff1681525081526020016040518060c00160405280600e60ff168152602001601060ff168152602001601360ff168152602001601a60ff168152602001602160ff168152602001602360ff1681525081526020016040518060c00160405280600f60ff168152602001601060ff168152602001601360ff168152602001601460ff168152602001606360ff168152602001606360ff1681525081526020016040518060c00160405280601060ff168152602001601160ff168152602001601260ff168152602001601460ff168152602001601560ff168152602001602360ff1681525081526020016040518060c00160405280600b60ff168152602001601260ff168152602001601360ff168152602001601560ff168152602001601660ff168152602001601760ff1681525081526020016040518060c00160405280601360ff168152602001601460ff168152602001601760ff168152602001602360ff168152602001606360ff168152602001606360ff1681525081526020016040518060c00160405280601460ff168152602001601560ff168152602001601760ff168152602001601860ff168152602001606360ff168152602001606360ff1681525081526020016040518060c00160405280601460ff168152602001601560ff168152602001601660ff168152602001601860ff168152602001601960ff168152602001602360ff1681525081526020016040518060c00160405280601660ff168152602001601760ff168152602001601960ff168152602001606360ff168152602001606360ff168152602001606360ff1681525081526020016040518060c00160405280601760ff168152602001601860ff168152602001606360ff168152602001606360ff168152602001606360ff168152602001606360ff1681525081526020016040518060c00160405280601160ff168152602001601b60ff168152602001602160ff168152602001602260ff168152602001606360ff168152602001606360ff1681525081526020016040518060c00160405280601a60ff168152602001601c60ff168152602001601e60ff168152602001601f60ff168152602001602260ff168152602001606360ff1681525081526020016040518060c00160405280601b60ff168152602001601e60ff168152602001601d60ff168152602001606360ff168152602001606360ff168152602001606360ff1681525081526020016040518060c00160405280601c60ff168152602001601e60ff168152602001601f60ff168152602001602060ff168152602001600060ff168152602001606360ff1681525081526020016040518060c00160405280601b60ff168152602001601c60ff168152602001601d60ff168152602001601f60ff168152602001606360ff168152602001606360ff1681525081526020016040518060c00160405280601d60ff168152602001601e60ff168152602001601b60ff168152602001602260ff168152602001602060ff168152602001606360ff1681525081526020016040518060c00160405280601d60ff168152602001601f60ff168152602001606360ff168152602001606360ff168152602001606360ff168152602001606360ff1681525081526020016040518060c00160405280601160ff168152602001601a60ff168152602001602260ff168152602001602460ff168152602001602360ff168152602001606360ff1681525081526020016040518060c00160405280601f60ff168152602001601b60ff168152602001601a60ff168152602001602160ff168152602001602460ff168152602001602560ff1681525081526020016040518060c00160405280601360ff168152602001601160ff168152602001602160ff168152602001602460ff168152602001601760ff168152602001601560ff1681525081526020016040518060c00160405280602360ff168152602001602160ff168152602001602260ff168152602001602560ff168152602001606360ff168152602001606360ff1681525081526020016040518060c00160405280602260ff168152602001602460ff168152602001602660ff168152602001606360ff168152602001606360ff168152602001606360ff1681525081526020016040518060c00160405280602560ff168152602001602760ff168152602001602860ff168152602001606360ff168152602001606360ff168152602001606360ff1681525081526020016040518060c00160405280602660ff168152602001602960ff168152602001602c60ff168152602001606360ff168152602001606360ff168152602001606360ff1681525081526020016040518060c00160405280602660ff168152602001602760ff168152602001602960ff168152602001606360ff168152602001606360ff168152602001606360ff1681525081526020016040518060c00160405280602860ff168152602001602760ff168152602001606360ff168152602001606360ff168152602001606360ff168152602001606360ff16815250815250600890602a62000c4492919062000c87565b5034801562000c5257600080fd5b506001600760146101000a81548160ff0219169083600181111562000c7c5762000c7b62000e08565b5b021790555062000e37565b82805482825590600052602060002090810192821562000cd6579160200282015b8281111562000cd55782518290600662000cc492919062000ce9565b509160200191906001019062000ca8565b5b50905062000ce5919062000d97565b5090565b82805482825590600052602060002090601f0160209004810192821562000d845791602002820160005b8382111562000d5357835183826101000a81548160ff021916908360ff160217905550926020019260010160208160000104928301926001030262000d13565b801562000d825782816101000a81549060ff021916905560010160208160000104928301926001030262000d53565b505b50905062000d93919062000dbf565b5090565b5b8082111562000dbb576000818162000db1919062000dde565b5060010162000d98565b5090565b5b8082111562000dda57600081600090555060010162000dc0565b5090565b50805460008255601f01602090049060005260206000209081019062000e05919062000dbf565b50565b7f4e487b7100000000000000000000000000000000000000000000000000000000600052602160045260246000fd5b6116ba8062000e476000396000f3fe608060405234801561001057600080fd5b50600436106101155760003560e01c80637cea559e116100a2578063a3f09a9311610071578063a3f09a93146102f6578063b087699514610312578063c21c58f81461032e578063d28859101461035e578063d86819d71461038e57610115565b80637cea559e1461024757806389290109146102785780638d068884146102a8578063906b1871146102d857610115565b80633bee987f116100e95780633bee987f146101b457806343a964cf146101be5780634423b787146101ef57806353964cc01461021f57806364b6667d1461023d57610115565b8062371dc51461011a5780630452338e146101385780631e8d6c3c1461016857806321eb9dab14610198575b600080fd5b6101226103aa565b60405161012f9190611077565b60405180910390f35b610152600480360381019061014d91906110ca565b610430565b60405161015f9190611106565b60405180910390f35b610182600480360381019061017d91906110ca565b61045e565b60405161018f9190611106565b60405180910390f35b6101b260048036038101906101ad919061114d565b61048c565b005b6101bc61055a565b005b6101d860048036038101906101d391906110ca565b6107b3565b6040516101e6929190611189565b60405180910390f35b610209600480360381019061020491906110ca565b6107f4565b6040516102169190611106565b60405180910390f35b610227610830565b6040516102349190611229565b60405180910390f35b610245610843565b005b610261600480360381019061025c91906110ca565b6108f3565b60405161026f929190611244565b60405180910390f35b610292600480360381019061028d91906110ca565b610934565b60405161029f919061131c565b60405180910390f35b6102c260048036038101906102bd91906110ca565b610a2a565b6040516102cf919061136d565b60405180910390f35b6102e0610a8d565b6040516102ed9190611453565b60405180910390f35b610310600480360381019061030b91906110ca565b610b16565b005b61032c600480360381019061032791906114cd565b610bae565b005b610348600480360381019061034391906114fa565b610c9f565b6040516103559190611106565b60405180910390f35b610378600480360381019061037391906110ca565b610cee565b604051610385919061153a565b60405180910390f35b6103a860048036038101906103a391906110ca565b610d1d565b005b60606006805480602002602001604051908101604052809291908181526020016000905b8282101561042757838290600052602060002090600202016040518060400160405290816000820160009054906101000a900460ff1660ff1660ff168152602001600182015481525050815260200190600101906103ce565b50505050905090565b600080826006811061044557610444611555565b5b0160000160009054906101000a900460ff169050919050565b600080826006811061047357610472611555565b5b0160000160019054906101000a900460ff169050919050565b600760009054906101000a900473ffffffffffffffffffffffffffffffffffffffff1673ffffffffffffffffffffffffffffffffffffffff163373ffffffffffffffffffffffffffffffffffffffff16146104e657600080fd5b600660405180604001604052808360ff1681526020016001815250908060018154018082558091505060019003906000526020600020906002020160009091909190915060008201518160000160006101000a81548160ff021916908360ff16021790555060208201518160010155505050565b600760009054906101000a900473ffffffffffffffffffffffffffffffffffffffff1673ffffffffffffffffffffffffffffffffffffffff163373ffffffffffffffffffffffffffffffffffffffff16146105b457600080fd5b60005b60068160ff1610156107b057600460008260ff16600681106105dc576105db611555565b5b0160000160006101000a81548160ff021916908360ff16021790555060008160ff16141561063e57600560008260ff166006811061061d5761061c611555565b5b0160000160016101000a81548160ff021916908360ff16021790555061079d565b60018160ff16141561068457600260008260ff166006811061066357610662611555565b5b0160000160016101000a81548160ff021916908360ff16021790555061079c565b60028160ff1614156106ca57600560008260ff16600681106106a9576106a8611555565b5b0160000160016101000a81548160ff021916908360ff16021790555061079b565b60038160ff16141561071057600360008260ff16600681106106ef576106ee611555565b5b0160000160016101000a81548160ff021916908360ff16021790555061079a565b60048160ff16141561075657600760008260ff166006811061073557610734611555565b5b0160000160016101000a81548160ff021916908360ff160217905550610799565b60058160ff16141561079857600260008260ff166006811061077b5761077a611555565b5b0160000160016101000a81548160ff021916908360ff1602179055505b5b5b5b5b5b80806107a8906115b3565b9150506105b7565b50565b600681815481106107c357600080fd5b90600052602060002090600202016000915090508060000160009054906101000a900460ff16908060010154905082565b60006006828154811061080a57610809611555565b5b906000526020600020906002020160000160009054906101000a900460ff169050919050565b600760149054906101000a900460ff1681565b600760009054906101000a900473ffffffffffffffffffffffffffffffffffffffff1673ffffffffffffffffffffffffffffffffffffffff163373ffffffffffffffffffffffffffffffffffffffff161461089d57600080fd5b6108ab600060096000610db5565b6108b96009600d6001610db5565b6108c7600d60146002610db5565b6108d56014601a6003610db5565b6108e3601a60266004610db5565b6108f16026602a6005610db5565b565b6000816006811061090357600080fd5b016000915090508060000160009054906101000a900460ff16908060000160019054906101000a900460ff16905082565b6060600760009054906101000a900473ffffffffffffffffffffffffffffffffffffffff1673ffffffffffffffffffffffffffffffffffffffff163373ffffffffffffffffffffffffffffffffffffffff161461099057600080fd5b600882815481106109a4576109a3611555565b5b90600052602060002001805480602002602001604051908101604052809291908181526020018280548015610a1e57602002820191906000526020600020906000905b82829054906101000a900460ff1660ff16815260200190600101906020826000010492830192600103820291508084116109e75790505b50505050509050919050565b610a32610efa565b60068281548110610a4657610a45611555565b5b90600052602060002090600202016040518060400160405290816000820160009054906101000a900460ff1660ff1660ff1681526020016001820154815250509050919050565b610a95610f17565b6000600680602002604051908101604052809291906000905b82821015610b0d578382016040518060400160405290816000820160009054906101000a900460ff1660ff1660ff1681526020016000820160019054906101000a900460ff1660ff1660ff168152505081526020019060010190610aae565b50505050905090565b600760009054906101000a900473ffffffffffffffffffffffffffffffffffffffff1673ffffffffffffffffffffffffffffffffffffffff163373ffffffffffffffffffffffffffffffffffffffff1614610b7057600080fd5b60068181548110610b8457610b83611555565b5b90600052602060002090600202016001016000815480929190610ba6906115dd565b919050555050565b600180811115610bc157610bc06111b2565b5b600760149054906101000a900460ff166001811115610be357610be26111b2565b5b14610bed57600080fd5b8073ffffffffffffffffffffffffffffffffffffffff167ff489abb24c0b02d87da58652d32937ca705601f4d9b20bf80d471f2a74d2c5a560405160405180910390a280600760006101000a81548173ffffffffffffffffffffffffffffffffffffffff021916908373ffffffffffffffffffffffffffffffffffffffff1602179055506000600760146101000a81548160ff02191690836001811115610c9757610c966111b2565b5b021790555050565b60088281548110610caf57600080fd5b906000526020600020018181548110610cc757600080fd5b9060005260206000209060209182820401919006915091509054906101000a900460ff1681565b600060068281548110610d0457610d03611555565b5b9060005260206000209060020201600101549050919050565b600760009054906101000a900473ffffffffffffffffffffffffffffffffffffffff1673ffffffffffffffffffffffffffffffffffffffff163373ffffffffffffffffffffffffffffffffffffffff1614610d7757600080fd5b60068181548110610d8b57610d8a611555565b5b90600052602060002090600202016001016000815480929190610dad90611626565b919050555050565b60008060008590505b84811015610ef25760068181548110610dda57610dd9611555565b5b906000526020600020906002020160000160009054906101000a900460ff169250848114158015610e1157508160ff168360ff1614155b15610e5057600460008560ff1660068110610e2f57610e2e611555565b5b0160000160006101000a81548160ff021916908360ff160217905550610ef2565b600185610e5d9190611650565b81148015610e7057508160ff168360ff16145b15610eaa578260008560ff1660068110610e8d57610e8c611555565b5b0160000160006101000a81548160ff021916908360ff1602179055505b60068181548110610ebe57610ebd611555565b5b906000526020600020906002020160000160009054906101000a900460ff1691508080610eea906115dd565b915050610dbe565b505050505050565b6040518060400160405280600060ff168152602001600081525090565b6040518060c001604052806006905b610f2e610f44565b815260200190600190039081610f265790505090565b6040518060400160405280600060ff168152602001600060ff1681525090565b600081519050919050565b600082825260208201905092915050565b6000819050602082019050919050565b600060ff82169050919050565b610fa681610f90565b82525050565b6000819050919050565b610fbf81610fac565b82525050565b604082016000820151610fdb6000850182610f9d565b506020820151610fee6020850182610fb6565b50505050565b60006110008383610fc5565b60408301905092915050565b6000602082019050919050565b600061102482610f64565b61102e8185610f6f565b935061103983610f80565b8060005b8381101561106a5781516110518882610ff4565b975061105c8361100c565b92505060018101905061103d565b5085935050505092915050565b600060208201905081810360008301526110918184611019565b905092915050565b600080fd5b6110a781610fac565b81146110b257600080fd5b50565b6000813590506110c48161109e565b92915050565b6000602082840312156110e0576110df611099565b5b60006110ee848285016110b5565b91505092915050565b61110081610f90565b82525050565b600060208201905061111b60008301846110f7565b92915050565b61112a81610f90565b811461113557600080fd5b50565b60008135905061114781611121565b92915050565b60006020828403121561116357611162611099565b5b600061117184828501611138565b91505092915050565b61118381610fac565b82525050565b600060408201905061119e60008301856110f7565b6111ab602083018461117a565b9392505050565b7f4e487b7100000000000000000000000000000000000000000000000000000000600052602160045260246000fd5b600281106111f2576111f16111b2565b5b50565b6000819050611203826111e1565b919050565b6000611213826111f5565b9050919050565b61122381611208565b82525050565b600060208201905061123e600083018461121a565b92915050565b600060408201905061125960008301856110f7565b61126660208301846110f7565b9392505050565b600081519050919050565b600082825260208201905092915050565b6000819050602082019050919050565b60006112a58383610f9d565b60208301905092915050565b6000602082019050919050565b60006112c98261126d565b6112d38185611278565b93506112de83611289565b8060005b8381101561130f5781516112f68882611299565b9750611301836112b1565b9250506001810190506112e2565b5085935050505092915050565b6000602082019050818103600083015261133681846112be565b905092915050565b6040820160008201516113546000850182610f9d565b5060208201516113676020850182610fb6565b50505050565b6000604082019050611382600083018461133e565b92915050565b600060069050919050565b600081905092915050565b6000819050919050565b6040820160008201516113be6000850182610f9d565b5060208201516113d16020850182610f9d565b50505050565b60006113e383836113a8565b60408301905092915050565b6000602082019050919050565b61140581611388565b61140f8184611393565b925061141a8261139e565b8060005b8381101561144b57815161143287826113d7565b965061143d836113ef565b92505060018101905061141e565b505050505050565b60006101808201905061146960008301846113fc565b92915050565b600073ffffffffffffffffffffffffffffffffffffffff82169050919050565b600061149a8261146f565b9050919050565b6114aa8161148f565b81146114b557600080fd5b50565b6000813590506114c7816114a1565b92915050565b6000602082840312156114e3576114e2611099565b5b60006114f1848285016114b8565b91505092915050565b6000806040838503121561151157611510611099565b5b600061151f858286016110b5565b9250506020611530858286016110b5565b9150509250929050565b600060208201905061154f600083018461117a565b92915050565b7f4e487b7100000000000000000000000000000000000000000000000000000000600052603260045260246000fd5b7f4e487b7100000000000000000000000000000000000000000000000000000000600052601160045260246000fd5b60006115be82610f90565b915060ff8214156115d2576115d1611584565b5b600182019050919050565b60006115e882610fac565b91507fffffffffffffffffffffffffffffffffffffffffffffffffffffffffffffffff82141561161b5761161a611584565b5b600182019050919050565b600061163182610fac565b9150600082141561164557611644611584565b5b600182039050919050565b600061165b82610fac565b915061166683610fac565b92508282101561167957611678611584565b5b82820390509291505056fea2646970667358221220cbf04e7a3edd8be53aee2e50ccb511952db5a3bd82a4c6db0dc2c39377782c9a64736f6c63430008080033",
  "devdoc": {
    "kind": "dev",
    "methods": {},
    "version": 1
  },
  "userdoc": {
    "kind": "user",
    "methods": {},
    "version": 1
  },
  "storageLayout": {
    "storage": [
      {
        "astId": 938,
        "contract": "contracts/Data.sol:Data",
        "label": "s_continents",
        "offset": 0,
        "slot": "0",
        "type": "t_array(t_struct(Continent_Info)925_storage)6_storage"
      },
      {
        "astId": 942,
        "contract": "contracts/Data.sol:Data",
        "label": "s_territories",
        "offset": 0,
        "slot": "6",
        "type": "t_array(t_struct(Territory_Info)930_storage)dyn_storage"
      },
      {
        "astId": 944,
        "contract": "contracts/Data.sol:Data",
        "label": "controls_address",
        "offset": 0,
        "slot": "7",
        "type": "t_address"
      },
      {
        "astId": 947,
        "contract": "contracts/Data.sol:Data",
        "label": "s_controlsSet",
        "offset": 20,
        "slot": "7",
        "type": "t_enum(controlsAddressSent)933"
      },
      {
        "astId": 1246,
        "contract": "contracts/Data.sol:Data",
        "label": "s_neighbours",
        "offset": 0,
        "slot": "8",
        "type": "t_array(t_array(t_uint8)dyn_storage)dyn_storage"
      }
    ],
    "types": {
      "t_address": {
        "encoding": "inplace",
        "label": "address",
        "numberOfBytes": "20"
      },
      "t_array(t_array(t_uint8)dyn_storage)dyn_storage": {
        "base": "t_array(t_uint8)dyn_storage",
        "encoding": "dynamic_array",
        "label": "uint8[][]",
        "numberOfBytes": "32"
      },
      "t_array(t_struct(Continent_Info)925_storage)6_storage": {
        "base": "t_struct(Continent_Info)925_storage",
        "encoding": "inplace",
        "label": "struct Data.Continent_Info[6]",
        "numberOfBytes": "192"
      },
      "t_array(t_struct(Territory_Info)930_storage)dyn_storage": {
        "base": "t_struct(Territory_Info)930_storage",
        "encoding": "dynamic_array",
        "label": "struct Data.Territory_Info[]",
        "numberOfBytes": "32"
      },
      "t_array(t_uint8)dyn_storage": {
        "base": "t_uint8",
        "encoding": "dynamic_array",
        "label": "uint8[]",
        "numberOfBytes": "32"
      },
      "t_enum(controlsAddressSent)933": {
        "encoding": "inplace",
        "label": "enum Data.controlsAddressSent",
        "numberOfBytes": "1"
      },
      "t_struct(Continent_Info)925_storage": {
        "encoding": "inplace",
        "label": "struct Data.Continent_Info",
        "members": [
          {
            "astId": 922,
            "contract": "contracts/Data.sol:Data",
            "label": "owner",
            "offset": 0,
            "slot": "0",
            "type": "t_uint8"
          },
          {
            "astId": 924,
            "contract": "contracts/Data.sol:Data",
            "label": "troopBonus",
            "offset": 1,
            "slot": "0",
            "type": "t_uint8"
          }
        ],
        "numberOfBytes": "32"
      },
      "t_struct(Territory_Info)930_storage": {
        "encoding": "inplace",
        "label": "struct Data.Territory_Info",
        "members": [
          {
            "astId": 927,
            "contract": "contracts/Data.sol:Data",
            "label": "owner",
            "offset": 0,
            "slot": "0",
            "type": "t_uint8"
          },
          {
            "astId": 929,
            "contract": "contracts/Data.sol:Data",
            "label": "troops",
            "offset": 0,
            "slot": "1",
            "type": "t_uint256"
          }
        ],
        "numberOfBytes": "64"
      },
      "t_uint256": {
        "encoding": "inplace",
        "label": "uint256",
        "numberOfBytes": "32"
      },
      "t_uint8": {
        "encoding": "inplace",
        "label": "uint8",
        "numberOfBytes": "1"
      }
    }
  }
}