{
  "address": "0xe7f1725E7734CE288F8367e1Bb143E90bb3F0512",
  "abi": [
    {
      "inputs": [],
      "stateMutability": "nonpayable",
      "type": "constructor"
    },
    {
      "anonymous": false,
      "inputs": [
        {
          "indexed": true,
          "internalType": "address",
          "name": "controls",
          "type": "address"
        }
      ],
      "name": "ReceivedControls",
      "type": "event"
    },
    {
      "inputs": [
        {
          "internalType": "uint256",
          "name": "index",
          "type": "uint256"
        }
      ],
      "name": "addTroopToTerritory",
      "outputs": [],
      "stateMutability": "nonpayable",
      "type": "function"
    },
    {
      "inputs": [
        {
          "internalType": "uint256",
          "name": "territory",
          "type": "uint256"
        },
        {
          "internalType": "uint8",
          "name": "newOwner",
          "type": "uint8"
        }
      ],
      "name": "changeOwner",
      "outputs": [],
      "stateMutability": "nonpayable",
      "type": "function"
    },
    {
      "inputs": [],
      "name": "getAllTerritories",
      "outputs": [
        {
          "components": [
            {
              "internalType": "uint8",
              "name": "owner",
              "type": "uint8"
            },
            {
              "internalType": "uint256",
              "name": "troops",
              "type": "uint256"
            }
          ],
          "internalType": "struct Data.Territory_Info[]",
          "name": "",
          "type": "tuple[]"
        }
      ],
      "stateMutability": "view",
      "type": "function"
    },
    {
      "inputs": [
        {
          "internalType": "uint256",
          "name": "continent",
          "type": "uint256"
        }
      ],
      "name": "getContinentBonus",
      "outputs": [
        {
          "internalType": "uint8",
          "name": "",
          "type": "uint8"
        }
      ],
      "stateMutability": "view",
      "type": "function"
    },
    {
      "inputs": [],
      "name": "getContinentInfo",
      "outputs": [
        {
          "components": [
            {
              "internalType": "uint8",
              "name": "owner",
              "type": "uint8"
            },
            {
              "internalType": "uint8",
              "name": "troopBonus",
              "type": "uint8"
            }
          ],
          "internalType": "struct Data.Continent_Info[6]",
          "name": "",
          "type": "tuple[6]"
        }
      ],
      "stateMutability": "view",
      "type": "function"
    },
    {
      "inputs": [
        {
          "internalType": "uint256",
          "name": "continent",
          "type": "uint256"
        }
      ],
      "name": "getContinentOwner",
      "outputs": [
        {
          "internalType": "uint8",
          "name": "",
          "type": "uint8"
        }
      ],
      "stateMutability": "view",
      "type": "function"
    },
    {
      "inputs": [
        {
          "internalType": "uint256",
          "name": "territory",
          "type": "uint256"
        }
      ],
      "name": "getNeighbours",
      "outputs": [
        {
          "internalType": "uint8[]",
          "name": "",
          "type": "uint8[]"
        }
      ],
      "stateMutability": "view",
      "type": "function"
    },
    {
      "inputs": [
        {
          "internalType": "uint256",
          "name": "territoryId",
          "type": "uint256"
        }
      ],
      "name": "getTerritories",
      "outputs": [
        {
          "components": [
            {
              "internalType": "uint8",
              "name": "owner",
              "type": "uint8"
            },
            {
              "internalType": "uint256",
              "name": "troops",
              "type": "uint256"
            }
          ],
          "internalType": "struct Data.Territory_Info",
          "name": "",
          "type": "tuple"
        }
      ],
      "stateMutability": "view",
      "type": "function"
    },
    {
      "inputs": [
        {
          "internalType": "uint256",
          "name": "j",
          "type": "uint256"
        }
      ],
      "name": "getTerritoryOwner",
      "outputs": [
        {
          "internalType": "uint8",
          "name": "owner",
          "type": "uint8"
        }
      ],
      "stateMutability": "view",
      "type": "function"
    },
    {
      "inputs": [
        {
          "internalType": "uint256",
          "name": "territory",
          "type": "uint256"
        }
      ],
      "name": "getTroopCount",
      "outputs": [
        {
          "internalType": "uint256",
          "name": "",
          "type": "uint256"
        }
      ],
      "stateMutability": "view",
      "type": "function"
    },
    {
      "inputs": [],
      "name": "initializeContinents",
      "outputs": [],
      "stateMutability": "nonpayable",
      "type": "function"
    },
    {
      "inputs": [
        {
          "internalType": "uint8",
          "name": "playerAwarded",
          "type": "uint8"
        }
      ],
      "name": "pushToTerritories",
      "outputs": [],
      "stateMutability": "nonpayable",
      "type": "function"
    },
    {
      "inputs": [
        {
          "internalType": "uint256",
          "name": "index",
          "type": "uint256"
        }
      ],
      "name": "removeTroopFromTerritory",
      "outputs": [],
      "stateMutability": "nonpayable",
      "type": "function"
    },
    {
      "inputs": [],
      "name": "resetData",
      "outputs": [],
      "stateMutability": "nonpayable",
      "type": "function"
    },
    {
      "inputs": [
        {
          "internalType": "uint256",
          "name": "",
          "type": "uint256"
        }
      ],
      "name": "s_continents",
      "outputs": [
        {
          "internalType": "uint8",
          "name": "owner",
          "type": "uint8"
        },
        {
          "internalType": "uint8",
          "name": "troopBonus",
          "type": "uint8"
        }
      ],
      "stateMutability": "view",
      "type": "function"
    },
    {
      "inputs": [],
      "name": "s_controlsSet",
      "outputs": [
        {
          "internalType": "enum Data.controlsAddressSent",
          "name": "",
          "type": "uint8"
        }
      ],
      "stateMutability": "view",
      "type": "function"
    },
    {
      "inputs": [
        {
          "internalType": "uint256",
          "name": "",
          "type": "uint256"
        },
        {
          "internalType": "uint256",
          "name": "",
          "type": "uint256"
        }
      ],
      "name": "s_neighbours",
      "outputs": [
        {
          "internalType": "uint8",
          "name": "",
          "type": "uint8"
        }
      ],
      "stateMutability": "view",
      "type": "function"
    },
    {
      "inputs": [
        {
          "internalType": "uint256",
          "name": "",
          "type": "uint256"
        }
      ],
      "name": "s_territories",
      "outputs": [
        {
          "internalType": "uint8",
          "name": "owner",
          "type": "uint8"
        },
        {
          "internalType": "uint256",
          "name": "troops",
          "type": "uint256"
        }
      ],
      "stateMutability": "view",
      "type": "function"
    },
    {
      "inputs": [
        {
          "internalType": "address",
          "name": "controls",
          "type": "address"
        }
      ],
      "name": "setControlsAddress",
      "outputs": [],
      "stateMutability": "nonpayable",
      "type": "function"
    },
    {
      "inputs": [],
      "name": "updateContinents",
      "outputs": [],
      "stateMutability": "nonpayable",
      "type": "function"
    }
  ],
  "transactionHash": "0x0e9b1499168a8c3e2c9731dce2956b9faca7b4039bf93f9c401137deb2b7fb4c",
  "args": [],
  "numDeployments": 1,
  "solcInputHash": "1430445720dea0c3e4c447e7d95ee93f",
  "bytecode": "0x60806040526040518061054001604052806040518060c00160405280600160ff168152602001600360ff168152602001601d60ff168152602001606360ff168152602001606360ff168152602001606360ff1681525081526020016040518060c00160405280600060ff168152602001600360ff168152602001600460ff168152602001600260ff168152602001606360ff168152602001606360ff1681525081526020016040518060c00160405280600160ff168152602001600460ff168152602001600560ff168152602001600d60ff168152602001606360ff168152602001606360ff1681525081526020016040518060c00160405280600060ff168152602001600160ff168152602001600460ff168152602001600660ff168152602001606360ff168152602001606360ff1681525081526020016040518060c00160405280600160ff168152602001600260ff168152602001600360ff168152602001600560ff168152602001600660ff168152602001600760ff1681525081526020016040518060c00160405280600260ff168152602001600460ff168152602001600760ff168152602001606360ff168152602001606360ff168152602001606360ff1681525081526020016040518060c00160405280600360ff168152602001600460ff168152602001600760ff168152602001600860ff168152602001606360ff168152602001606360ff1681525081526020016040518060c00160405280600460ff168152602001600560ff168152602001600660ff168152602001600860ff168152602001606360ff168152602001606360ff1681525081526020016040518060c00160405280600660ff168152602001600760ff168152602001600960ff168152602001606360ff168152602001606360ff168152602001606360ff1681525081526020016040518060c00160405280600860ff168152602001600a60ff168152602001600b60ff168152602001606360ff168152602001606360ff168152602001606360ff1681525081526020016040518060c00160405280600960ff168152602001600b60ff168152602001600c60ff168152602001606360ff168152602001606360ff168152602001606360ff1681525081526020016040518060c00160405280600960ff168152602001600a60ff168152602001600c60ff168152602001601460ff168152602001606360ff168152602001606360ff1681525081526020016040518060c00160405280600a60ff168152602001600b60ff168152602001606360ff168152602001606360ff168152602001606360ff168152602001606360ff1681525081526020016040518060c00160405280600260ff168152602001600e60ff168152602001600f60ff168152602001606360ff168152602001606360ff168152602001606360ff1681525081526020016040518060c00160405280600d60ff168152602001600f60ff168152602001601060ff168152602001601160ff168152602001606360ff168152602001606360ff1681525081526020016040518060c00160405280600d60ff168152602001600e60ff168152602001601060ff168152602001601260ff168152602001606360ff168152602001606360ff1681525081526020016040518060c00160405280600e60ff168152602001600f60ff168152602001601160ff168152602001601260ff168152602001601360ff168152602001606360ff1681525081526020016040518060c00160405280600e60ff168152602001601060ff168152602001601360ff168152602001601a60ff168152602001602160ff168152602001602360ff1681525081526020016040518060c00160405280600f60ff168152602001601060ff168152602001601360ff168152602001601460ff168152602001606360ff168152602001606360ff1681525081526020016040518060c00160405280601060ff168152602001601160ff168152602001601260ff168152602001601460ff168152602001601560ff168152602001602360ff1681525081526020016040518060c00160405280600b60ff168152602001601260ff168152602001601360ff168152602001601560ff168152602001601660ff168152602001601760ff1681525081526020016040518060c00160405280601360ff168152602001601460ff168152602001601760ff168152602001602360ff168152602001606360ff168152602001606360ff1681525081526020016040518060c00160405280601460ff168152602001601560ff168152602001601760ff168152602001601860ff168152602001606360ff168152602001606360ff1681525081526020016040518060c00160405280601460ff168152602001601560ff168152602001601660ff168152602001601860ff168152602001601960ff168152602001602360ff1681525081526020016040518060c00160405280601660ff168152602001601760ff168152602001601960ff168152602001606360ff168152602001606360ff168152602001606360ff1681525081526020016040518060c00160405280601760ff168152602001601860ff168152602001606360ff168152602001606360ff168152602001606360ff168152602001606360ff1681525081526020016040518060c00160405280601160ff168152602001601b60ff168152602001602160ff168152602001602260ff168152602001606360ff168152602001606360ff1681525081526020016040518060c00160405280601a60ff168152602001601c60ff168152602001601e60ff168152602001601f60ff168152602001602260ff168152602001606360ff1681525081526020016040518060c00160405280601b60ff168152602001601e60ff168152602001601d60ff168152602001606360ff168152602001606360ff168152602001606360ff1681525081526020016040518060c00160405280601c60ff168152602001601e60ff168152602001601f60ff168152602001602060ff168152602001600060ff168152602001606360ff1681525081526020016040518060c00160405280601b60ff168152602001601c60ff168152602001601d60ff168152602001601f60ff168152602001606360ff168152602001606360ff1681525081526020016040518060c00160405280601d60ff168152602001601e60ff168152602001601b60ff168152602001602260ff168152602001602060ff168152602001606360ff1681525081526020016040518060c00160405280601d60ff168152602001601f60ff168152602001606360ff168152602001606360ff168152602001606360ff168152602001606360ff1681525081526020016040518060c00160405280601160ff168152602001601a60ff168152602001602260ff168152602001602460ff168152602001602360ff168152602001606360ff1681525081526020016040518060c00160405280601f60ff168152602001601b60ff168152602001601a60ff168152602001602160ff168152602001602460ff168152602001602560ff1681525081526020016040518060c00160405280601360ff168152602001601160ff168152602001602160ff168152602001602460ff168152602001601760ff168152602001601560ff1681525081526020016040518060c00160405280602360ff168152602001602160ff168152602001602260ff168152602001602560ff168152602001606360ff168152602001606360ff1681525081526020016040518060c00160405280602260ff168152602001602460ff168152602001602660ff168152602001606360ff168152602001606360ff168152602001606360ff1681525081526020016040518060c00160405280602560ff168152602001602760ff168152602001602860ff168152602001606360ff168152602001606360ff168152602001606360ff1681525081526020016040518060c00160405280602660ff168152602001602960ff168152602001602c60ff168152602001606360ff168152602001606360ff168152602001606360ff1681525081526020016040518060c00160405280602660ff168152602001602760ff168152602001602960ff168152602001606360ff168152602001606360ff168152602001606360ff1681525081526020016040518060c00160405280602860ff168152602001602760ff168152602001606360ff168152602001606360ff168152602001606360ff168152602001606360ff16815250815250600890602a62000c4492919062000c87565b5034801562000c5257600080fd5b506001600760146101000a81548160ff0219169083600181111562000c7c5762000c7b62000e08565b5b021790555062000e37565b82805482825590600052602060002090810192821562000cd6579160200282015b8281111562000cd55782518290600662000cc492919062000ce9565b509160200191906001019062000ca8565b5b50905062000ce5919062000d97565b5090565b82805482825590600052602060002090601f0160209004810192821562000d845791602002820160005b8382111562000d5357835183826101000a81548160ff021916908360ff160217905550926020019260010160208160000104928301926001030262000d13565b801562000d825782816101000a81549060ff021916905560010160208160000104928301926001030262000d53565b505b50905062000d93919062000dbf565b5090565b5b8082111562000dbb576000818162000db1919062000dde565b5060010162000d98565b5090565b5b8082111562000dda57600081600090555060010162000dc0565b5090565b50805460008255601f01602090049060005260206000209081019062000e05919062000dbf565b50565b7f4e487b7100000000000000000000000000000000000000000000000000000000600052602160045260246000fd5b6118938062000e476000396000f3fe608060405234801561001057600080fd5b506004361061012b5760003560e01c80637cea559e116100ad578063b087699511610071578063b087699514610332578063b66831e21461034e578063c21c58f81461036a578063d28859101461039a578063d86819d7146103ca5761012b565b80637cea559e1461026757806389290109146102985780638d068884146102c8578063906b1871146102f8578063a3f09a93146103165761012b565b806343a964cf116100f457806343a964cf146101d45780634423b78714610205578063478c4e0e1461023557806353964cc01461023f57806364b6667d1461025d5761012b565b8062371dc5146101305780630452338e1461014e5780631e8d6c3c1461017e57806321eb9dab146101ae5780633bee987f146101ca575b600080fd5b6101386103e6565b6040516101459190611210565b60405180910390f35b61016860048036038101906101639190611263565b61046c565b604051610175919061129f565b60405180910390f35b61019860048036038101906101939190611263565b61049a565b6040516101a5919061129f565b60405180910390f35b6101c860048036038101906101c391906112e6565b6104c8565b005b6101d2610596565b005b6101ee60048036038101906101e99190611263565b6107ef565b6040516101fc929190611322565b60405180910390f35b61021f600480360381019061021a9190611263565b610830565b60405161022c919061129f565b60405180910390f35b61023d61086c565b005b6102476108d6565b60405161025491906113c2565b60405180910390f35b6102656108e9565b005b610281600480360381019061027c9190611263565b610999565b60405161028f9291906113dd565b60405180910390f35b6102b260048036038101906102ad9190611263565b6109da565b6040516102bf91906114b5565b60405180910390f35b6102e260048036038101906102dd9190611263565b610ad0565b6040516102ef9190611506565b60405180910390f35b610300610b33565b60405161030d91906115ec565b60405180910390f35b610330600480360381019061032b9190611263565b610bbc565b005b61034c60048036038101906103479190611666565b610c54565b005b61036860048036038101906103639190611693565b610d45565b005b610384600480360381019061037f91906116d3565b610de1565b604051610391919061129f565b60405180910390f35b6103b460048036038101906103af9190611263565b610e30565b6040516103c19190611713565b60405180910390f35b6103e460048036038101906103df9190611263565b610e5f565b005b60606006805480602002602001604051908101604052809291908181526020016000905b8282101561046357838290600052602060002090600202016040518060400160405290816000820160009054906101000a900460ff1660ff1660ff1681526020016001820154815250508152602001906001019061040a565b50505050905090565b60008082600681106104815761048061172e565b5b0160000160009054906101000a900460ff169050919050565b60008082600681106104af576104ae61172e565b5b0160000160019054906101000a900460ff169050919050565b600760009054906101000a900473ffffffffffffffffffffffffffffffffffffffff1673ffffffffffffffffffffffffffffffffffffffff163373ffffffffffffffffffffffffffffffffffffffff161461052257600080fd5b600660405180604001604052808360ff1681526020016001815250908060018154018082558091505060019003906000526020600020906002020160009091909190915060008201518160000160006101000a81548160ff021916908360ff16021790555060208201518160010155505050565b600760009054906101000a900473ffffffffffffffffffffffffffffffffffffffff1673ffffffffffffffffffffffffffffffffffffffff163373ffffffffffffffffffffffffffffffffffffffff16146105f057600080fd5b60005b60068160ff1610156107ec57600460008260ff16600681106106185761061761172e565b5b0160000160006101000a81548160ff021916908360ff16021790555060008160ff16141561067a57600560008260ff16600681106106595761065861172e565b5b0160000160016101000a81548160ff021916908360ff1602179055506107d9565b60018160ff1614156106c057600260008260ff166006811061069f5761069e61172e565b5b0160000160016101000a81548160ff021916908360ff1602179055506107d8565b60028160ff16141561070657600560008260ff16600681106106e5576106e461172e565b5b0160000160016101000a81548160ff021916908360ff1602179055506107d7565b60038160ff16141561074c57600360008260ff166006811061072b5761072a61172e565b5b0160000160016101000a81548160ff021916908360ff1602179055506107d6565b60048160ff16141561079257600760008260ff16600681106107715761077061172e565b5b0160000160016101000a81548160ff021916908360ff1602179055506107d5565b60058160ff1614156107d457600260008260ff16600681106107b7576107b661172e565b5b0160000160016101000a81548160ff021916908360ff1602179055505b5b5b5b5b5b80806107e49061178c565b9150506105f3565b50565b600681815481106107ff57600080fd5b90600052602060002090600202016000915090508060000160009054906101000a900460ff16908060010154905082565b6000600682815481106108465761084561172e565b5b906000526020600020906002020160000160009054906101000a900460ff169050919050565b600760009054906101000a900473ffffffffffffffffffffffffffffffffffffffff1673ffffffffffffffffffffffffffffffffffffffff163373ffffffffffffffffffffffffffffffffffffffff16146108c657600080fd5b600660006108d4919061103c565b565b600760149054906101000a900460ff1681565b600760009054906101000a900473ffffffffffffffffffffffffffffffffffffffff1673ffffffffffffffffffffffffffffffffffffffff163373ffffffffffffffffffffffffffffffffffffffff161461094357600080fd5b610951600060096000610ef7565b61095f6009600d6001610ef7565b61096d600d60146002610ef7565b61097b6014601a6003610ef7565b610989601a60266004610ef7565b6109976026602a6005610ef7565b565b600081600681106109a957600080fd5b016000915090508060000160009054906101000a900460ff16908060000160019054906101000a900460ff16905082565b6060600760009054906101000a900473ffffffffffffffffffffffffffffffffffffffff1673ffffffffffffffffffffffffffffffffffffffff163373ffffffffffffffffffffffffffffffffffffffff1614610a3657600080fd5b60088281548110610a4a57610a4961172e565b5b90600052602060002001805480602002602001604051908101604052809291908181526020018280548015610ac457602002820191906000526020600020906000905b82829054906101000a900460ff1660ff1681526020019060010190602082600001049283019260010382029150808411610a8d5790505b50505050509050919050565b610ad8611060565b60068281548110610aec57610aeb61172e565b5b90600052602060002090600202016040518060400160405290816000820160009054906101000a900460ff1660ff1660ff1681526020016001820154815250509050919050565b610b3b61107d565b6000600680602002604051908101604052809291906000905b82821015610bb3578382016040518060400160405290816000820160009054906101000a900460ff1660ff1660ff1681526020016000820160019054906101000a900460ff1660ff1660ff168152505081526020019060010190610b54565b50505050905090565b600760009054906101000a900473ffffffffffffffffffffffffffffffffffffffff1673ffffffffffffffffffffffffffffffffffffffff163373ffffffffffffffffffffffffffffffffffffffff1614610c1657600080fd5b60068181548110610c2a57610c2961172e565b5b90600052602060002090600202016001016000815480929190610c4c906117b6565b919050555050565b600180811115610c6757610c6661134b565b5b600760149054906101000a900460ff166001811115610c8957610c8861134b565b5b14610c9357600080fd5b8073ffffffffffffffffffffffffffffffffffffffff167ff489abb24c0b02d87da58652d32937ca705601f4d9b20bf80d471f2a74d2c5a560405160405180910390a280600760006101000a81548173ffffffffffffffffffffffffffffffffffffffff021916908373ffffffffffffffffffffffffffffffffffffffff1602179055506000600760146101000a81548160ff02191690836001811115610d3d57610d3c61134b565b5b021790555050565b600760009054906101000a900473ffffffffffffffffffffffffffffffffffffffff1673ffffffffffffffffffffffffffffffffffffffff163373ffffffffffffffffffffffffffffffffffffffff1614610d9f57600080fd5b8060068381548110610db457610db361172e565b5b906000526020600020906002020160000160006101000a81548160ff021916908360ff1602179055505050565b60088281548110610df157600080fd5b906000526020600020018181548110610e0957600080fd5b9060005260206000209060209182820401919006915091509054906101000a900460ff1681565b600060068281548110610e4657610e4561172e565b5b9060005260206000209060020201600101549050919050565b600760009054906101000a900473ffffffffffffffffffffffffffffffffffffffff1673ffffffffffffffffffffffffffffffffffffffff163373ffffffffffffffffffffffffffffffffffffffff1614610eb957600080fd5b60068181548110610ecd57610ecc61172e565b5b90600052602060002090600202016001016000815480929190610eef906117ff565b919050555050565b60008060008590505b848110156110345760068181548110610f1c57610f1b61172e565b5b906000526020600020906002020160000160009054906101000a900460ff169250848114158015610f5357508160ff168360ff1614155b15610f9257600460008560ff1660068110610f7157610f7061172e565b5b0160000160006101000a81548160ff021916908360ff160217905550611034565b600185610f9f9190611829565b81148015610fb257508160ff168360ff16145b15610fec578260008560ff1660068110610fcf57610fce61172e565b5b0160000160006101000a81548160ff021916908360ff1602179055505b6006818154811061100057610fff61172e565b5b906000526020600020906002020160000160009054906101000a900460ff169150808061102c906117b6565b915050610f00565b505050505050565b508054600082556002029060005260206000209081019061105d91906110aa565b50565b6040518060400160405280600060ff168152602001600081525090565b6040518060c001604052806006905b6110946110dd565b81526020019060019003908161108c5790505090565b5b808211156110d957600080820160006101000a81549060ff02191690556001820160009055506002016110ab565b5090565b6040518060400160405280600060ff168152602001600060ff1681525090565b600081519050919050565b600082825260208201905092915050565b6000819050602082019050919050565b600060ff82169050919050565b61113f81611129565b82525050565b6000819050919050565b61115881611145565b82525050565b6040820160008201516111746000850182611136565b506020820151611187602085018261114f565b50505050565b6000611199838361115e565b60408301905092915050565b6000602082019050919050565b60006111bd826110fd565b6111c78185611108565b93506111d283611119565b8060005b838110156112035781516111ea888261118d565b97506111f5836111a5565b9250506001810190506111d6565b5085935050505092915050565b6000602082019050818103600083015261122a81846111b2565b905092915050565b600080fd5b61124081611145565b811461124b57600080fd5b50565b60008135905061125d81611237565b92915050565b60006020828403121561127957611278611232565b5b60006112878482850161124e565b91505092915050565b61129981611129565b82525050565b60006020820190506112b46000830184611290565b92915050565b6112c381611129565b81146112ce57600080fd5b50565b6000813590506112e0816112ba565b92915050565b6000602082840312156112fc576112fb611232565b5b600061130a848285016112d1565b91505092915050565b61131c81611145565b82525050565b60006040820190506113376000830185611290565b6113446020830184611313565b9392505050565b7f4e487b7100000000000000000000000000000000000000000000000000000000600052602160045260246000fd5b6002811061138b5761138a61134b565b5b50565b600081905061139c8261137a565b919050565b60006113ac8261138e565b9050919050565b6113bc816113a1565b82525050565b60006020820190506113d760008301846113b3565b92915050565b60006040820190506113f26000830185611290565b6113ff6020830184611290565b9392505050565b600081519050919050565b600082825260208201905092915050565b6000819050602082019050919050565b600061143e8383611136565b60208301905092915050565b6000602082019050919050565b600061146282611406565b61146c8185611411565b935061147783611422565b8060005b838110156114a857815161148f8882611432565b975061149a8361144a565b92505060018101905061147b565b5085935050505092915050565b600060208201905081810360008301526114cf8184611457565b905092915050565b6040820160008201516114ed6000850182611136565b506020820151611500602085018261114f565b50505050565b600060408201905061151b60008301846114d7565b92915050565b600060069050919050565b600081905092915050565b6000819050919050565b6040820160008201516115576000850182611136565b50602082015161156a6020850182611136565b50505050565b600061157c8383611541565b60408301905092915050565b6000602082019050919050565b61159e81611521565b6115a8818461152c565b92506115b382611537565b8060005b838110156115e45781516115cb8782611570565b96506115d683611588565b9250506001810190506115b7565b505050505050565b6000610180820190506116026000830184611595565b92915050565b600073ffffffffffffffffffffffffffffffffffffffff82169050919050565b600061163382611608565b9050919050565b61164381611628565b811461164e57600080fd5b50565b6000813590506116608161163a565b92915050565b60006020828403121561167c5761167b611232565b5b600061168a84828501611651565b91505092915050565b600080604083850312156116aa576116a9611232565b5b60006116b88582860161124e565b92505060206116c9858286016112d1565b9150509250929050565b600080604083850312156116ea576116e9611232565b5b60006116f88582860161124e565b92505060206117098582860161124e565b9150509250929050565b60006020820190506117286000830184611313565b92915050565b7f4e487b7100000000000000000000000000000000000000000000000000000000600052603260045260246000fd5b7f4e487b7100000000000000000000000000000000000000000000000000000000600052601160045260246000fd5b600061179782611129565b915060ff8214156117ab576117aa61175d565b5b600182019050919050565b60006117c182611145565b91507fffffffffffffffffffffffffffffffffffffffffffffffffffffffffffffffff8214156117f4576117f361175d565b5b600182019050919050565b600061180a82611145565b9150600082141561181e5761181d61175d565b5b600182039050919050565b600061183482611145565b915061183f83611145565b9250828210156118525761185161175d565b5b82820390509291505056fea2646970667358221220bfc584000c8e9e101d577f32035dafdebdf3cff96afb6291a6c3664e3249dfd964736f6c63430008080033",
  "devdoc": {
    "kind": "dev",
    "methods": {},
    "version": 1
  },
  "userdoc": {
    "kind": "user",
    "methods": {},
    "version": 1
  },
  "storageLayout": {
    "storage": [
      {
        "astId": 1805,
        "contract": "contracts/Data.sol:Data",
        "label": "s_continents",
        "offset": 0,
        "slot": "0",
        "type": "t_array(t_struct(Continent_Info)1792_storage)6_storage"
      },
      {
        "astId": 1809,
        "contract": "contracts/Data.sol:Data",
        "label": "s_territories",
        "offset": 0,
        "slot": "6",
        "type": "t_array(t_struct(Territory_Info)1797_storage)dyn_storage"
      },
      {
        "astId": 1811,
        "contract": "contracts/Data.sol:Data",
        "label": "controls_address",
        "offset": 0,
        "slot": "7",
        "type": "t_address"
      },
      {
        "astId": 1814,
        "contract": "contracts/Data.sol:Data",
        "label": "s_controlsSet",
        "offset": 20,
        "slot": "7",
        "type": "t_enum(controlsAddressSent)1800"
      },
      {
        "astId": 2113,
        "contract": "contracts/Data.sol:Data",
        "label": "s_neighbours",
        "offset": 0,
        "slot": "8",
        "type": "t_array(t_array(t_uint8)dyn_storage)dyn_storage"
      }
    ],
    "types": {
      "t_address": {
        "encoding": "inplace",
        "label": "address",
        "numberOfBytes": "20"
      },
      "t_array(t_array(t_uint8)dyn_storage)dyn_storage": {
        "base": "t_array(t_uint8)dyn_storage",
        "encoding": "dynamic_array",
        "label": "uint8[][]",
        "numberOfBytes": "32"
      },
      "t_array(t_struct(Continent_Info)1792_storage)6_storage": {
        "base": "t_struct(Continent_Info)1792_storage",
        "encoding": "inplace",
        "label": "struct Data.Continent_Info[6]",
        "numberOfBytes": "192"
      },
      "t_array(t_struct(Territory_Info)1797_storage)dyn_storage": {
        "base": "t_struct(Territory_Info)1797_storage",
        "encoding": "dynamic_array",
        "label": "struct Data.Territory_Info[]",
        "numberOfBytes": "32"
      },
      "t_array(t_uint8)dyn_storage": {
        "base": "t_uint8",
        "encoding": "dynamic_array",
        "label": "uint8[]",
        "numberOfBytes": "32"
      },
      "t_enum(controlsAddressSent)1800": {
        "encoding": "inplace",
        "label": "enum Data.controlsAddressSent",
        "numberOfBytes": "1"
      },
      "t_struct(Continent_Info)1792_storage": {
        "encoding": "inplace",
        "label": "struct Data.Continent_Info",
        "members": [
          {
            "astId": 1789,
            "contract": "contracts/Data.sol:Data",
            "label": "owner",
            "offset": 0,
            "slot": "0",
            "type": "t_uint8"
          },
          {
            "astId": 1791,
            "contract": "contracts/Data.sol:Data",
            "label": "troopBonus",
            "offset": 1,
            "slot": "0",
            "type": "t_uint8"
          }
        ],
        "numberOfBytes": "32"
      },
      "t_struct(Territory_Info)1797_storage": {
        "encoding": "inplace",
        "label": "struct Data.Territory_Info",
        "members": [
          {
            "astId": 1794,
            "contract": "contracts/Data.sol:Data",
            "label": "owner",
            "offset": 0,
            "slot": "0",
            "type": "t_uint8"
          },
          {
            "astId": 1796,
            "contract": "contracts/Data.sol:Data",
            "label": "troops",
            "offset": 0,
            "slot": "1",
            "type": "t_uint256"
          }
        ],
        "numberOfBytes": "64"
      },
      "t_uint256": {
        "encoding": "inplace",
        "label": "uint256",
        "numberOfBytes": "32"
      },
      "t_uint8": {
        "encoding": "inplace",
        "label": "uint8",
        "numberOfBytes": "1"
      }
    }
  }
}