{
  "address": "0xe7f1725E7734CE288F8367e1Bb143E90bb3F0512",
  "abi": [
    {
      "inputs": [],
      "stateMutability": "nonpayable",
      "type": "constructor"
    },
    {
      "anonymous": false,
      "inputs": [
        {
          "indexed": true,
          "internalType": "address",
          "name": "controls",
          "type": "address"
        }
      ],
      "name": "ReceivedControls",
      "type": "event"
    },
    {
      "inputs": [
        {
          "internalType": "uint256",
          "name": "index",
          "type": "uint256"
        }
      ],
      "name": "addTroopToTerritory",
      "outputs": [],
      "stateMutability": "nonpayable",
      "type": "function"
    },
    {
      "inputs": [
        {
          "internalType": "uint256",
          "name": "territory",
          "type": "uint256"
        },
        {
          "internalType": "uint8",
          "name": "newOwner",
          "type": "uint8"
        }
      ],
      "name": "changeOwner",
      "outputs": [],
      "stateMutability": "nonpayable",
      "type": "function"
    },
    {
      "inputs": [],
      "name": "getAllTerritories",
      "outputs": [
        {
          "components": [
            {
              "internalType": "uint8",
              "name": "owner",
              "type": "uint8"
            },
            {
              "internalType": "uint256",
              "name": "troops",
              "type": "uint256"
            }
          ],
          "internalType": "struct Data.Territory_Info[42]",
          "name": "",
          "type": "tuple[42]"
        }
      ],
      "stateMutability": "view",
      "type": "function"
    },
    {
      "inputs": [
        {
          "internalType": "uint256",
          "name": "continent",
          "type": "uint256"
        }
      ],
      "name": "getContinentBonus",
      "outputs": [
        {
          "internalType": "uint8",
          "name": "",
          "type": "uint8"
        }
      ],
      "stateMutability": "view",
      "type": "function"
    },
    {
      "inputs": [],
      "name": "getContinentInfo",
      "outputs": [
        {
          "components": [
            {
              "internalType": "uint8",
              "name": "owner",
              "type": "uint8"
            },
            {
              "internalType": "uint8",
              "name": "troopBonus",
              "type": "uint8"
            }
          ],
          "internalType": "struct Data.Continent_Info[6]",
          "name": "",
          "type": "tuple[6]"
        }
      ],
      "stateMutability": "view",
      "type": "function"
    },
    {
      "inputs": [
        {
          "internalType": "uint256",
          "name": "continent",
          "type": "uint256"
        }
      ],
      "name": "getContinentOwner",
      "outputs": [
        {
          "internalType": "uint8",
          "name": "",
          "type": "uint8"
        }
      ],
      "stateMutability": "view",
      "type": "function"
    },
    {
      "inputs": [
        {
          "internalType": "uint256",
          "name": "territory",
          "type": "uint256"
        }
      ],
      "name": "getNeighbours",
      "outputs": [
        {
          "internalType": "uint8[]",
          "name": "",
          "type": "uint8[]"
        }
      ],
      "stateMutability": "view",
      "type": "function"
    },
    {
      "inputs": [
        {
          "internalType": "uint256",
          "name": "territoryId",
          "type": "uint256"
        }
      ],
      "name": "getTerritories",
      "outputs": [
        {
          "components": [
            {
              "internalType": "uint8",
              "name": "owner",
              "type": "uint8"
            },
            {
              "internalType": "uint256",
              "name": "troops",
              "type": "uint256"
            }
          ],
          "internalType": "struct Data.Territory_Info",
          "name": "",
          "type": "tuple"
        }
      ],
      "stateMutability": "view",
      "type": "function"
    },
    {
      "inputs": [
        {
          "internalType": "uint256",
          "name": "j",
          "type": "uint256"
        }
      ],
      "name": "getTerritoryOwner",
      "outputs": [
        {
          "internalType": "uint8",
          "name": "owner",
          "type": "uint8"
        }
      ],
      "stateMutability": "view",
      "type": "function"
    },
    {
      "inputs": [
        {
          "internalType": "uint256",
          "name": "territory",
          "type": "uint256"
        }
      ],
      "name": "getTroopCount",
      "outputs": [
        {
          "internalType": "uint256",
          "name": "",
          "type": "uint256"
        }
      ],
      "stateMutability": "view",
      "type": "function"
    },
    {
      "inputs": [],
      "name": "initializeContinents",
      "outputs": [],
      "stateMutability": "nonpayable",
      "type": "function"
    },
    {
      "inputs": [
        {
          "internalType": "uint256",
          "name": "territory",
          "type": "uint256"
        },
        {
          "internalType": "uint8",
          "name": "playerAwarded",
          "type": "uint8"
        }
      ],
      "name": "pushToTerritories",
      "outputs": [],
      "stateMutability": "nonpayable",
      "type": "function"
    },
    {
      "inputs": [
        {
          "internalType": "uint256",
          "name": "index",
          "type": "uint256"
        }
      ],
      "name": "removeTroopFromTerritory",
      "outputs": [],
      "stateMutability": "nonpayable",
      "type": "function"
    },
    {
      "inputs": [],
      "name": "resetData",
      "outputs": [],
      "stateMutability": "nonpayable",
      "type": "function"
    },
    {
      "inputs": [
        {
          "internalType": "uint256",
          "name": "",
          "type": "uint256"
        }
      ],
      "name": "s_continents",
      "outputs": [
        {
          "internalType": "uint8",
          "name": "owner",
          "type": "uint8"
        },
        {
          "internalType": "uint8",
          "name": "troopBonus",
          "type": "uint8"
        }
      ],
      "stateMutability": "view",
      "type": "function"
    },
    {
      "inputs": [],
      "name": "s_controlsSet",
      "outputs": [
        {
          "internalType": "enum Data.controlsAddressSent",
          "name": "",
          "type": "uint8"
        }
      ],
      "stateMutability": "view",
      "type": "function"
    },
    {
      "inputs": [
        {
          "internalType": "uint256",
          "name": "",
          "type": "uint256"
        },
        {
          "internalType": "uint256",
          "name": "",
          "type": "uint256"
        }
      ],
      "name": "s_neighbours",
      "outputs": [
        {
          "internalType": "uint8",
          "name": "",
          "type": "uint8"
        }
      ],
      "stateMutability": "view",
      "type": "function"
    },
    {
      "inputs": [
        {
          "internalType": "uint256",
          "name": "",
          "type": "uint256"
        }
      ],
      "name": "s_territories",
      "outputs": [
        {
          "internalType": "uint8",
          "name": "owner",
          "type": "uint8"
        },
        {
          "internalType": "uint256",
          "name": "troops",
          "type": "uint256"
        }
      ],
      "stateMutability": "view",
      "type": "function"
    },
    {
      "inputs": [
        {
          "internalType": "address",
          "name": "controls",
          "type": "address"
        }
      ],
      "name": "setControlsAddress",
      "outputs": [],
      "stateMutability": "nonpayable",
      "type": "function"
    },
    {
      "inputs": [],
      "name": "updateContinents",
      "outputs": [],
      "stateMutability": "nonpayable",
      "type": "function"
    }
  ],
  "transactionHash": "0xe897b8a19f9cb55ae1ed98900b4ff6ed5ab608ebc32fd69cb6ce603e5353095d",
  "args": [],
  "numDeployments": 1,
  "solcInputHash": "66616a7f35cb90b0f4b8316a764eb033",
  "bytecode": "0x60806040526040518061054001604052806040518060c00160405280600160ff168152602001600360ff168152602001601d60ff168152602001606360ff168152602001606360ff168152602001606360ff1681525081526020016040518060c00160405280600060ff168152602001600360ff168152602001600460ff168152602001600260ff168152602001606360ff168152602001606360ff1681525081526020016040518060c00160405280600160ff168152602001600460ff168152602001600560ff168152602001600d60ff168152602001606360ff168152602001606360ff1681525081526020016040518060c00160405280600060ff168152602001600160ff168152602001600460ff168152602001600660ff168152602001606360ff168152602001606360ff1681525081526020016040518060c00160405280600160ff168152602001600260ff168152602001600360ff168152602001600560ff168152602001600660ff168152602001600760ff1681525081526020016040518060c00160405280600260ff168152602001600460ff168152602001600760ff168152602001606360ff168152602001606360ff168152602001606360ff1681525081526020016040518060c00160405280600360ff168152602001600460ff168152602001600760ff168152602001600860ff168152602001606360ff168152602001606360ff1681525081526020016040518060c00160405280600460ff168152602001600560ff168152602001600660ff168152602001600860ff168152602001606360ff168152602001606360ff1681525081526020016040518060c00160405280600660ff168152602001600760ff168152602001600960ff168152602001606360ff168152602001606360ff168152602001606360ff1681525081526020016040518060c00160405280600860ff168152602001600a60ff168152602001600b60ff168152602001606360ff168152602001606360ff168152602001606360ff1681525081526020016040518060c00160405280600960ff168152602001600b60ff168152602001600c60ff168152602001606360ff168152602001606360ff168152602001606360ff1681525081526020016040518060c00160405280600960ff168152602001600a60ff168152602001600c60ff168152602001601460ff168152602001606360ff168152602001606360ff1681525081526020016040518060c00160405280600a60ff168152602001600b60ff168152602001606360ff168152602001606360ff168152602001606360ff168152602001606360ff1681525081526020016040518060c00160405280600260ff168152602001600e60ff168152602001600f60ff168152602001606360ff168152602001606360ff168152602001606360ff1681525081526020016040518060c00160405280600d60ff168152602001600f60ff168152602001601060ff168152602001601160ff168152602001606360ff168152602001606360ff1681525081526020016040518060c00160405280600d60ff168152602001600e60ff168152602001601060ff168152602001601260ff168152602001606360ff168152602001606360ff1681525081526020016040518060c00160405280600e60ff168152602001600f60ff168152602001601160ff168152602001601260ff168152602001601360ff168152602001606360ff1681525081526020016040518060c00160405280600e60ff168152602001601060ff168152602001601360ff168152602001601a60ff168152602001602160ff168152602001602360ff1681525081526020016040518060c00160405280600f60ff168152602001601060ff168152602001601360ff168152602001601460ff168152602001606360ff168152602001606360ff1681525081526020016040518060c00160405280601060ff168152602001601160ff168152602001601260ff168152602001601460ff168152602001601560ff168152602001602360ff1681525081526020016040518060c00160405280600b60ff168152602001601260ff168152602001601360ff168152602001601560ff168152602001601660ff168152602001601760ff1681525081526020016040518060c00160405280601360ff168152602001601460ff168152602001601760ff168152602001602360ff168152602001606360ff168152602001606360ff1681525081526020016040518060c00160405280601460ff168152602001601560ff168152602001601760ff168152602001601860ff168152602001606360ff168152602001606360ff1681525081526020016040518060c00160405280601460ff168152602001601560ff168152602001601660ff168152602001601860ff168152602001601960ff168152602001602360ff1681525081526020016040518060c00160405280601660ff168152602001601760ff168152602001601960ff168152602001606360ff168152602001606360ff168152602001606360ff1681525081526020016040518060c00160405280601760ff168152602001601860ff168152602001606360ff168152602001606360ff168152602001606360ff168152602001606360ff1681525081526020016040518060c00160405280601160ff168152602001601b60ff168152602001602160ff168152602001602260ff168152602001606360ff168152602001606360ff1681525081526020016040518060c00160405280601a60ff168152602001601c60ff168152602001601e60ff168152602001601f60ff168152602001602260ff168152602001606360ff1681525081526020016040518060c00160405280601b60ff168152602001601e60ff168152602001601d60ff168152602001606360ff168152602001606360ff168152602001606360ff1681525081526020016040518060c00160405280601c60ff168152602001601e60ff168152602001601f60ff168152602001602060ff168152602001600060ff168152602001606360ff1681525081526020016040518060c00160405280601b60ff168152602001601c60ff168152602001601d60ff168152602001601f60ff168152602001606360ff168152602001606360ff1681525081526020016040518060c00160405280601d60ff168152602001601e60ff168152602001601b60ff168152602001602260ff168152602001602060ff168152602001606360ff1681525081526020016040518060c00160405280601d60ff168152602001601f60ff168152602001606360ff168152602001606360ff168152602001606360ff168152602001606360ff1681525081526020016040518060c00160405280601160ff168152602001601a60ff168152602001602260ff168152602001602460ff168152602001602360ff168152602001606360ff1681525081526020016040518060c00160405280601f60ff168152602001601b60ff168152602001601a60ff168152602001602160ff168152602001602460ff168152602001602560ff1681525081526020016040518060c00160405280601360ff168152602001601160ff168152602001602160ff168152602001602460ff168152602001601760ff168152602001601560ff1681525081526020016040518060c00160405280602360ff168152602001602160ff168152602001602260ff168152602001602560ff168152602001606360ff168152602001606360ff1681525081526020016040518060c00160405280602260ff168152602001602460ff168152602001602660ff168152602001606360ff168152602001606360ff168152602001606360ff1681525081526020016040518060c00160405280602560ff168152602001602760ff168152602001602860ff168152602001606360ff168152602001606360ff168152602001606360ff1681525081526020016040518060c00160405280602660ff168152602001602960ff168152602001602c60ff168152602001606360ff168152602001606360ff168152602001606360ff1681525081526020016040518060c00160405280602660ff168152602001602760ff168152602001602960ff168152602001606360ff168152602001606360ff168152602001606360ff1681525081526020016040518060c00160405280602860ff168152602001602760ff168152602001606360ff168152602001606360ff168152602001606360ff168152602001606360ff16815250815250605b90602a62000c4492919062000c87565b5034801562000c5257600080fd5b506001605a60146101000a81548160ff0219169083600181111562000c7c5762000c7b62000e08565b5b021790555062000e37565b82805482825590600052602060002090810192821562000cd6579160200282015b8281111562000cd55782518290600662000cc492919062000ce9565b509160200191906001019062000ca8565b5b50905062000ce5919062000d97565b5090565b82805482825590600052602060002090601f0160209004810192821562000d845791602002820160005b8382111562000d5357835183826101000a81548160ff021916908360ff160217905550926020019260010160208160000104928301926001030262000d13565b801562000d825782816101000a81549060ff021916905560010160208160000104928301926001030262000d53565b505b50905062000d93919062000dbf565b5090565b5b8082111562000dbb576000818162000db1919062000dde565b5060010162000d98565b5090565b5b8082111562000dda57600081600090555060010162000dc0565b5090565b50805460008255601f01602090049060005260206000209081019062000e05919062000dbf565b50565b7f4e487b7100000000000000000000000000000000000000000000000000000000600052602160045260246000fd5b6117e98062000e476000396000f3fe608060405234801561001057600080fd5b506004361061012b5760003560e01c80637cea559e116100ad578063b087699511610071578063b087699514610332578063b66831e21461034e578063c21c58f81461036a578063d28859101461039a578063d86819d7146103ca5761012b565b80637cea559e1461026757806389290109146102985780638d068884146102c8578063906b1871146102f8578063a3f09a93146103165761012b565b80634423b787116100f45780634423b787146101e9578063478c4e0e1461021957806353964cc01461022357806364b6667d146102415780637ce5c9691461024b5761012b565b8062371dc5146101305780630452338e1461014e5780631e8d6c3c1461017e5780633bee987f146101ae57806343a964cf146101b8575b600080fd5b6101386103e6565b6040516101459190611199565b60405180910390f35b610168600480360381019061016391906111e6565b61045f565b6040516101759190611222565b60405180910390f35b610198600480360381019061019391906111e6565b61048d565b6040516101a59190611222565b60405180910390f35b6101b66104bb565b005b6101d260048036038101906101cd91906111e6565b610714565b6040516101e092919061124c565b60405180910390f35b61020360048036038101906101fe91906111e6565b61074b565b6040516102109190611222565b60405180910390f35b61022161077d565b005b61022b6107e7565b60405161023891906112ec565b60405180910390f35b6102496107fa565b005b61026560048036038101906102609190611333565b6108aa565b005b610281600480360381019061027c91906111e6565b61095d565b60405161028f929190611373565b60405180910390f35b6102b260048036038101906102ad91906111e6565b61099e565b6040516102bf919061144b565b60405180910390f35b6102e260048036038101906102dd91906111e6565b610a94565b6040516102ef919061149c565b60405180910390f35b610300610aed565b60405161030d9190611582565b60405180910390f35b610330600480360381019061032b91906111e6565b610b76565b005b61034c600480360381019061034791906115fc565b610c02565b005b61036860048036038101906103639190611333565b610cf3565b005b610384600480360381019061037f9190611629565b610d85565b6040516103919190611222565b60405180910390f35b6103b460048036038101906103af91906111e6565b610dd4565b6040516103c19190611669565b60405180910390f35b6103e460048036038101906103df91906111e6565b610df9565b005b6103ee610fb8565b6006602a80602002604051908101604052809291906000905b82821015610456578382600202016040518060400160405290816000820160009054906101000a900460ff1660ff1660ff16815260200160018201548152505081526020019060010190610407565b50505050905090565b600080826006811061047457610473611684565b5b0160000160009054906101000a900460ff169050919050565b60008082600681106104a2576104a1611684565b5b0160000160019054906101000a900460ff169050919050565b605a60009054906101000a900473ffffffffffffffffffffffffffffffffffffffff1673ffffffffffffffffffffffffffffffffffffffff163373ffffffffffffffffffffffffffffffffffffffff161461051557600080fd5b60005b60068160ff16101561071157600460008260ff166006811061053d5761053c611684565b5b0160000160006101000a81548160ff021916908360ff16021790555060008160ff16141561059f57600560008260ff166006811061057e5761057d611684565b5b0160000160016101000a81548160ff021916908360ff1602179055506106fe565b60018160ff1614156105e557600260008260ff16600681106105c4576105c3611684565b5b0160000160016101000a81548160ff021916908360ff1602179055506106fd565b60028160ff16141561062b57600560008260ff166006811061060a57610609611684565b5b0160000160016101000a81548160ff021916908360ff1602179055506106fc565b60038160ff16141561067157600360008260ff16600681106106505761064f611684565b5b0160000160016101000a81548160ff021916908360ff1602179055506106fb565b60048160ff1614156106b757600760008260ff166006811061069657610695611684565b5b0160000160016101000a81548160ff021916908360ff1602179055506106fa565b60058160ff1614156106f957600260008260ff16600681106106dc576106db611684565b5b0160000160016101000a81548160ff021916908360ff1602179055505b5b5b5b5b5b8080610709906116e2565b915050610518565b50565b600681602a811061072457600080fd5b600202016000915090508060000160009054906101000a900460ff16908060010154905082565b6000600682602a811061076157610760611684565b5b6002020160000160009054906101000a900460ff169050919050565b605a60009054906101000a900473ffffffffffffffffffffffffffffffffffffffff1673ffffffffffffffffffffffffffffffffffffffff163373ffffffffffffffffffffffffffffffffffffffff16146107d757600080fd5b600660006107e59190610fe6565b565b605a60149054906101000a900460ff1681565b605a60009054906101000a900473ffffffffffffffffffffffffffffffffffffffff1673ffffffffffffffffffffffffffffffffffffffff163373ffffffffffffffffffffffffffffffffffffffff161461085457600080fd5b610862600060096000610e87565b6108706009600d6001610e87565b61087e600d60146002610e87565b61088c6014601a6003610e87565b61089a601a60266004610e87565b6108a86026602a6005610e87565b565b605a60009054906101000a900473ffffffffffffffffffffffffffffffffffffffff1673ffffffffffffffffffffffffffffffffffffffff163373ffffffffffffffffffffffffffffffffffffffff161461090457600080fd5b80600683602a811061091957610918611684565b5b6002020160000160006101000a81548160ff021916908360ff1602179055506001600683602a811061094e5761094d611684565b5b60020201600101819055505050565b6000816006811061096d57600080fd5b016000915090508060000160009054906101000a900460ff16908060000160019054906101000a900460ff16905082565b6060605a60009054906101000a900473ffffffffffffffffffffffffffffffffffffffff1673ffffffffffffffffffffffffffffffffffffffff163373ffffffffffffffffffffffffffffffffffffffff16146109fa57600080fd5b605b8281548110610a0e57610a0d611684565b5b90600052602060002001805480602002602001604051908101604052809291908181526020018280548015610a8857602002820191906000526020600020906000905b82829054906101000a900460ff1660ff1681526020019060010190602082600001049283019260010382029150808411610a515790505b50505050509050919050565b610a9c610ffc565b600682602a8110610ab057610aaf611684565b5b600202016040518060400160405290816000820160009054906101000a900460ff1660ff1660ff1681526020016001820154815250509050919050565b610af5611019565b6000600680602002604051908101604052809291906000905b82821015610b6d578382016040518060400160405290816000820160009054906101000a900460ff1660ff1660ff1681526020016000820160019054906101000a900460ff1660ff1660ff168152505081526020019060010190610b0e565b50505050905090565b605a60009054906101000a900473ffffffffffffffffffffffffffffffffffffffff1673ffffffffffffffffffffffffffffffffffffffff163373ffffffffffffffffffffffffffffffffffffffff1614610bd057600080fd5b600681602a8110610be457610be3611684565b5b6002020160010160008154610bf89061170c565b9190508190555050565b600180811115610c1557610c14611275565b5b605a60149054906101000a900460ff166001811115610c3757610c36611275565b5b14610c4157600080fd5b8073ffffffffffffffffffffffffffffffffffffffff167ff489abb24c0b02d87da58652d32937ca705601f4d9b20bf80d471f2a74d2c5a560405160405180910390a280605a60006101000a81548173ffffffffffffffffffffffffffffffffffffffff021916908373ffffffffffffffffffffffffffffffffffffffff1602179055506000605a60146101000a81548160ff02191690836001811115610ceb57610cea611275565b5b021790555050565b605a60009054906101000a900473ffffffffffffffffffffffffffffffffffffffff1673ffffffffffffffffffffffffffffffffffffffff163373ffffffffffffffffffffffffffffffffffffffff1614610d4d57600080fd5b80600683602a8110610d6257610d61611684565b5b6002020160000160006101000a81548160ff021916908360ff1602179055505050565b605b8281548110610d9557600080fd5b906000526020600020018181548110610dad57600080fd5b9060005260206000209060209182820401919006915091509054906101000a900460ff1681565b6000600682602a8110610dea57610de9611684565b5b60020201600101549050919050565b605a60009054906101000a900473ffffffffffffffffffffffffffffffffffffffff1673ffffffffffffffffffffffffffffffffffffffff163373ffffffffffffffffffffffffffffffffffffffff1614610e5357600080fd5b600681602a8110610e6757610e66611684565b5b600202016001016000815480929190610e7f90611755565b919050555050565b60008060008590505b84811015610fb057600681602a8110610eac57610eab611684565b5b6002020160000160009054906101000a900460ff169250848114158015610ed957508160ff168360ff1614155b15610f1857600460008560ff1660068110610ef757610ef6611684565b5b0160000160006101000a81548160ff021916908360ff160217905550610fb0565b600185610f25919061177f565b81148015610f3857508160ff168360ff16145b15610f72578260008560ff1660068110610f5557610f54611684565b5b0160000160006101000a81548160ff021916908360ff1602179055505b600681602a8110610f8657610f85611684565b5b6002020160000160009054906101000a900460ff1691508080610fa89061170c565b915050610e90565b505050505050565b604051806105400160405280602a905b610fd0610ffc565b815260200190600190039081610fc85790505090565b5080602a6002020190610ff99190611046565b50565b6040518060400160405280600060ff168152602001600081525090565b6040518060c001604052806006905b611030611079565b8152602001906001900390816110285790505090565b5b8082111561107557600080820160006101000a81549060ff0219169055600182016000905550600201611047565b5090565b6040518060400160405280600060ff168152602001600060ff1681525090565b6000602a9050919050565b600081905092915050565b6000819050919050565b600060ff82169050919050565b6110cf816110b9565b82525050565b6000819050919050565b6110e8816110d5565b82525050565b60408201600082015161110460008501826110c6565b50602082015161111760208501826110df565b50505050565b600061112983836110ee565b60408301905092915050565b6000602082019050919050565b61114b81611099565b61115581846110a4565b9250611160826110af565b8060005b83811015611191578151611178878261111d565b965061118383611135565b925050600181019050611164565b505050505050565b6000610a80820190506111af6000830184611142565b92915050565b600080fd5b6111c3816110d5565b81146111ce57600080fd5b50565b6000813590506111e0816111ba565b92915050565b6000602082840312156111fc576111fb6111b5565b5b600061120a848285016111d1565b91505092915050565b61121c816110b9565b82525050565b60006020820190506112376000830184611213565b92915050565b611246816110d5565b82525050565b60006040820190506112616000830185611213565b61126e602083018461123d565b9392505050565b7f4e487b7100000000000000000000000000000000000000000000000000000000600052602160045260246000fd5b600281106112b5576112b4611275565b5b50565b60008190506112c6826112a4565b919050565b60006112d6826112b8565b9050919050565b6112e6816112cb565b82525050565b600060208201905061130160008301846112dd565b92915050565b611310816110b9565b811461131b57600080fd5b50565b60008135905061132d81611307565b92915050565b6000806040838503121561134a576113496111b5565b5b6000611358858286016111d1565b92505060206113698582860161131e565b9150509250929050565b60006040820190506113886000830185611213565b6113956020830184611213565b9392505050565b600081519050919050565b600082825260208201905092915050565b6000819050602082019050919050565b60006113d483836110c6565b60208301905092915050565b6000602082019050919050565b60006113f88261139c565b61140281856113a7565b935061140d836113b8565b8060005b8381101561143e57815161142588826113c8565b9750611430836113e0565b925050600181019050611411565b5085935050505092915050565b6000602082019050818103600083015261146581846113ed565b905092915050565b60408201600082015161148360008501826110c6565b50602082015161149660208501826110df565b50505050565b60006040820190506114b1600083018461146d565b92915050565b600060069050919050565b600081905092915050565b6000819050919050565b6040820160008201516114ed60008501826110c6565b50602082015161150060208501826110c6565b50505050565b600061151283836114d7565b60408301905092915050565b6000602082019050919050565b611534816114b7565b61153e81846114c2565b9250611549826114cd565b8060005b8381101561157a5781516115618782611506565b965061156c8361151e565b92505060018101905061154d565b505050505050565b600061018082019050611598600083018461152b565b92915050565b600073ffffffffffffffffffffffffffffffffffffffff82169050919050565b60006115c98261159e565b9050919050565b6115d9816115be565b81146115e457600080fd5b50565b6000813590506115f6816115d0565b92915050565b600060208284031215611612576116116111b5565b5b6000611620848285016115e7565b91505092915050565b600080604083850312156116405761163f6111b5565b5b600061164e858286016111d1565b925050602061165f858286016111d1565b9150509250929050565b600060208201905061167e600083018461123d565b92915050565b7f4e487b7100000000000000000000000000000000000000000000000000000000600052603260045260246000fd5b7f4e487b7100000000000000000000000000000000000000000000000000000000600052601160045260246000fd5b60006116ed826110b9565b915060ff821415611701576117006116b3565b5b600182019050919050565b6000611717826110d5565b91507fffffffffffffffffffffffffffffffffffffffffffffffffffffffffffffffff82141561174a576117496116b3565b5b600182019050919050565b6000611760826110d5565b91506000821415611774576117736116b3565b5b600182039050919050565b600061178a826110d5565b9150611795836110d5565b9250828210156117a8576117a76116b3565b5b82820390509291505056fea2646970667358221220ebe2236d08c57e9330c7031edef0da7c06a31be8eccefea8121b42b0c56aad4d64736f6c63430008080033",
  "devdoc": {
    "kind": "dev",
    "methods": {},
    "version": 1
  },
  "userdoc": {
    "kind": "user",
    "methods": {},
    "version": 1
  },
  "storageLayout": {
    "storage": [
      {
        "astId": 1809,
        "contract": "contracts/Data.sol:Data",
        "label": "s_continents",
        "offset": 0,
        "slot": "0",
        "type": "t_array(t_struct(Continent_Info)1796_storage)6_storage"
      },
      {
        "astId": 1814,
        "contract": "contracts/Data.sol:Data",
        "label": "s_territories",
        "offset": 0,
        "slot": "6",
        "type": "t_array(t_struct(Territory_Info)1801_storage)42_storage"
      },
      {
        "astId": 1816,
        "contract": "contracts/Data.sol:Data",
        "label": "controls_address",
        "offset": 0,
        "slot": "90",
        "type": "t_address"
      },
      {
        "astId": 1819,
        "contract": "contracts/Data.sol:Data",
        "label": "s_controlsSet",
        "offset": 20,
        "slot": "90",
        "type": "t_enum(controlsAddressSent)1804"
      },
      {
        "astId": 2118,
        "contract": "contracts/Data.sol:Data",
        "label": "s_neighbours",
        "offset": 0,
        "slot": "91",
        "type": "t_array(t_array(t_uint8)dyn_storage)dyn_storage"
      }
    ],
    "types": {
      "t_address": {
        "encoding": "inplace",
        "label": "address",
        "numberOfBytes": "20"
      },
      "t_array(t_array(t_uint8)dyn_storage)dyn_storage": {
        "base": "t_array(t_uint8)dyn_storage",
        "encoding": "dynamic_array",
        "label": "uint8[][]",
        "numberOfBytes": "32"
      },
      "t_array(t_struct(Continent_Info)1796_storage)6_storage": {
        "base": "t_struct(Continent_Info)1796_storage",
        "encoding": "inplace",
        "label": "struct Data.Continent_Info[6]",
        "numberOfBytes": "192"
      },
      "t_array(t_struct(Territory_Info)1801_storage)42_storage": {
        "base": "t_struct(Territory_Info)1801_storage",
        "encoding": "inplace",
        "label": "struct Data.Territory_Info[42]",
        "numberOfBytes": "2688"
      },
      "t_array(t_uint8)dyn_storage": {
        "base": "t_uint8",
        "encoding": "dynamic_array",
        "label": "uint8[]",
        "numberOfBytes": "32"
      },
      "t_enum(controlsAddressSent)1804": {
        "encoding": "inplace",
        "label": "enum Data.controlsAddressSent",
        "numberOfBytes": "1"
      },
      "t_struct(Continent_Info)1796_storage": {
        "encoding": "inplace",
        "label": "struct Data.Continent_Info",
        "members": [
          {
            "astId": 1793,
            "contract": "contracts/Data.sol:Data",
            "label": "owner",
            "offset": 0,
            "slot": "0",
            "type": "t_uint8"
          },
          {
            "astId": 1795,
            "contract": "contracts/Data.sol:Data",
            "label": "troopBonus",
            "offset": 1,
            "slot": "0",
            "type": "t_uint8"
          }
        ],
        "numberOfBytes": "32"
      },
      "t_struct(Territory_Info)1801_storage": {
        "encoding": "inplace",
        "label": "struct Data.Territory_Info",
        "members": [
          {
            "astId": 1798,
            "contract": "contracts/Data.sol:Data",
            "label": "owner",
            "offset": 0,
            "slot": "0",
            "type": "t_uint8"
          },
          {
            "astId": 1800,
            "contract": "contracts/Data.sol:Data",
            "label": "troops",
            "offset": 0,
            "slot": "1",
            "type": "t_uint256"
          }
        ],
        "numberOfBytes": "64"
      },
      "t_uint256": {
        "encoding": "inplace",
        "label": "uint256",
        "numberOfBytes": "32"
      },
      "t_uint8": {
        "encoding": "inplace",
        "label": "uint8",
        "numberOfBytes": "1"
      }
    }
  }
}