{
  "address": "0xa513E6E4b8f2a923D98304ec87F64353C4D5C853",
  "abi": [
    {
      "inputs": [
        {
          "internalType": "address",
          "name": "vrfCoordinatorV2",
          "type": "address"
        },
        {
          "internalType": "uint64",
          "name": "subscriptionId",
          "type": "uint64"
        },
        {
          "internalType": "bytes32",
          "name": "gasLane",
          "type": "bytes32"
        },
        {
          "internalType": "uint32",
          "name": "callbackGasLimit",
          "type": "uint32"
        },
        {
          "internalType": "uint256",
          "name": "entranceFee",
          "type": "uint256"
        },
        {
          "internalType": "address",
          "name": "controls",
          "type": "address"
        },
        {
          "internalType": "address",
          "name": "data",
          "type": "address"
        }
      ],
      "stateMutability": "nonpayable",
      "type": "constructor"
    },
    {
      "inputs": [
        {
          "internalType": "address",
          "name": "have",
          "type": "address"
        },
        {
          "internalType": "address",
          "name": "want",
          "type": "address"
        }
      ],
      "name": "OnlyCoordinatorCanFulfill",
      "type": "error"
    },
    {
      "inputs": [],
      "name": "Transfer___Failed",
      "type": "error"
    },
    {
      "anonymous": false,
      "inputs": [],
      "name": "GameSetupComplete",
      "type": "event"
    },
    {
      "anonymous": false,
      "inputs": [],
      "name": "GameStarting",
      "type": "event"
    },
    {
      "anonymous": false,
      "inputs": [],
      "name": "MainReset",
      "type": "event"
    },
    {
      "anonymous": false,
      "inputs": [
        {
          "indexed": true,
          "internalType": "address",
          "name": "player",
          "type": "address"
        }
      ],
      "name": "PlayerJoinedLobby",
      "type": "event"
    },
    {
      "anonymous": false,
      "inputs": [],
      "name": "ReceivedRandomWords",
      "type": "event"
    },
    {
      "anonymous": false,
      "inputs": [
        {
          "indexed": true,
          "internalType": "uint256",
          "name": "requestId",
          "type": "uint256"
        }
      ],
      "name": "RequestedTerritoryRandomness",
      "type": "event"
    },
    {
      "anonymous": false,
      "inputs": [
        {
          "indexed": true,
          "internalType": "uint256",
          "name": "requestId",
          "type": "uint256"
        }
      ],
      "name": "RequestedTroopRandomness",
      "type": "event"
    },
    {
      "anonymous": false,
      "inputs": [
        {
          "indexed": true,
          "internalType": "address",
          "name": "player",
          "type": "address"
        }
      ],
      "name": "WinnerSentFunds",
      "type": "event"
    },
    {
      "inputs": [
        {
          "internalType": "uint8",
          "name": "territoryOwned",
          "type": "uint8"
        },
        {
          "internalType": "uint8",
          "name": "territoryAttacking",
          "type": "uint8"
        },
        {
          "internalType": "uint256",
          "name": "troopQuantity",
          "type": "uint256"
        }
      ],
      "name": "attack",
      "outputs": [],
      "stateMutability": "nonpayable",
      "type": "function"
    },
    {
      "inputs": [
        {
          "internalType": "uint8",
          "name": "amountToDeploy",
          "type": "uint8"
        },
        {
          "internalType": "uint8",
          "name": "location",
          "type": "uint8"
        }
      ],
      "name": "deploy",
      "outputs": [],
      "stateMutability": "nonpayable",
      "type": "function"
    },
    {
      "inputs": [
        {
          "internalType": "address",
          "name": "",
          "type": "address"
        }
      ],
      "name": "duplicateAddresses",
      "outputs": [
        {
          "internalType": "bool",
          "name": "",
          "type": "bool"
        }
      ],
      "stateMutability": "view",
      "type": "function"
    },
    {
      "inputs": [],
      "name": "enterLobby",
      "outputs": [],
      "stateMutability": "payable",
      "type": "function"
    },
    {
      "inputs": [],
      "name": "finishAttack",
      "outputs": [],
      "stateMutability": "nonpayable",
      "type": "function"
    },
    {
      "inputs": [
        {
          "internalType": "uint8",
          "name": "territoryMovingFrom",
          "type": "uint8"
        },
        {
          "internalType": "uint8",
          "name": "territoryMovingTo",
          "type": "uint8"
        },
        {
          "internalType": "uint256",
          "name": "troopsMoving",
          "type": "uint256"
        }
      ],
      "name": "fortify",
      "outputs": [],
      "stateMutability": "nonpayable",
      "type": "function"
    },
    {
      "inputs": [],
      "name": "getCallbackGasLimit",
      "outputs": [
        {
          "internalType": "uint32",
          "name": "",
          "type": "uint32"
        }
      ],
      "stateMutability": "view",
      "type": "function"
    },
    {
      "inputs": [],
      "name": "getEntranceFee",
      "outputs": [
        {
          "internalType": "uint256",
          "name": "",
          "type": "uint256"
        }
      ],
      "stateMutability": "view",
      "type": "function"
    },
    {
      "inputs": [],
      "name": "getGasLane",
      "outputs": [
        {
          "internalType": "bytes32",
          "name": "",
          "type": "bytes32"
        }
      ],
      "stateMutability": "view",
      "type": "function"
    },
    {
      "inputs": [],
      "name": "getLobbyState",
      "outputs": [
        {
          "internalType": "enum Main.LobbyState",
          "name": "",
          "type": "uint8"
        }
      ],
      "stateMutability": "view",
      "type": "function"
    },
    {
      "inputs": [],
      "name": "getNumberOfPlayers",
      "outputs": [
        {
          "internalType": "uint256",
          "name": "",
          "type": "uint256"
        }
      ],
      "stateMutability": "view",
      "type": "function"
    },
    {
      "inputs": [
        {
          "internalType": "uint256",
          "name": "index",
          "type": "uint256"
        }
      ],
      "name": "getPlayer",
      "outputs": [
        {
          "internalType": "address",
          "name": "",
          "type": "address"
        }
      ],
      "stateMutability": "view",
      "type": "function"
    },
    {
      "inputs": [],
      "name": "getRandomWordsArray",
      "outputs": [
        {
          "internalType": "uint256[]",
          "name": "",
          "type": "uint256[]"
        }
      ],
      "stateMutability": "view",
      "type": "function"
    },
    {
      "inputs": [
        {
          "internalType": "uint256",
          "name": "index",
          "type": "uint256"
        }
      ],
      "name": "getRandomWordsArrayIndex",
      "outputs": [
        {
          "internalType": "uint256",
          "name": "",
          "type": "uint256"
        }
      ],
      "stateMutability": "view",
      "type": "function"
    },
    {
      "inputs": [],
      "name": "getRequestConfirmations",
      "outputs": [
        {
          "internalType": "uint256",
          "name": "",
          "type": "uint256"
        }
      ],
      "stateMutability": "pure",
      "type": "function"
    },
    {
      "inputs": [],
      "name": "getSubscriptionId",
      "outputs": [
        {
          "internalType": "uint64",
          "name": "",
          "type": "uint64"
        }
      ],
      "stateMutability": "view",
      "type": "function"
    },
    {
      "inputs": [],
      "name": "getTerritoryState",
      "outputs": [
        {
          "internalType": "enum Main.TerritoryState",
          "name": "",
          "type": "uint8"
        }
      ],
      "stateMutability": "view",
      "type": "function"
    },
    {
      "inputs": [
        {
          "internalType": "address",
          "name": "winner",
          "type": "address"
        }
      ],
      "name": "payWinner",
      "outputs": [
        {
          "internalType": "bool",
          "name": "",
          "type": "bool"
        }
      ],
      "stateMutability": "nonpayable",
      "type": "function"
    },
    {
      "inputs": [],
      "name": "player_turn",
      "outputs": [
        {
          "internalType": "address",
          "name": "",
          "type": "address"
        }
      ],
      "stateMutability": "view",
      "type": "function"
    },
    {
      "inputs": [
        {
          "internalType": "uint256",
          "name": "requestId",
          "type": "uint256"
        },
        {
          "internalType": "uint256[]",
          "name": "randomWords",
          "type": "uint256[]"
        }
      ],
      "name": "rawFulfillRandomWords",
      "outputs": [],
      "stateMutability": "nonpayable",
      "type": "function"
    },
    {
      "inputs": [],
      "name": "s_gameState",
      "outputs": [
        {
          "internalType": "enum Main.GameState",
          "name": "",
          "type": "uint8"
        }
      ],
      "stateMutability": "view",
      "type": "function"
    },
    {
      "inputs": [
        {
          "internalType": "uint256",
          "name": "",
          "type": "uint256"
        }
      ],
      "name": "s_lobbyEntrants",
      "outputs": [
        {
          "internalType": "address payable",
          "name": "",
          "type": "address"
        }
      ],
      "stateMutability": "view",
      "type": "function"
    },
    {
      "inputs": [],
      "name": "s_lobbyState",
      "outputs": [
        {
          "internalType": "enum Main.LobbyState",
          "name": "",
          "type": "uint8"
        }
      ],
      "stateMutability": "view",
      "type": "function"
    },
    {
      "inputs": [],
      "name": "s_mainSet",
      "outputs": [
        {
          "internalType": "enum Main.mainAddressSent",
          "name": "",
          "type": "uint8"
        }
      ],
      "stateMutability": "view",
      "type": "function"
    },
    {
      "inputs": [
        {
          "internalType": "uint256",
          "name": "",
          "type": "uint256"
        }
      ],
      "name": "s_players",
      "outputs": [
        {
          "internalType": "address payable",
          "name": "",
          "type": "address"
        }
      ],
      "stateMutability": "view",
      "type": "function"
    },
    {
      "inputs": [
        {
          "internalType": "uint256",
          "name": "",
          "type": "uint256"
        }
      ],
      "name": "s_randomTerritories",
      "outputs": [
        {
          "internalType": "uint256",
          "name": "",
          "type": "uint256"
        }
      ],
      "stateMutability": "view",
      "type": "function"
    },
    {
      "inputs": [
        {
          "internalType": "uint256",
          "name": "",
          "type": "uint256"
        }
      ],
      "name": "s_randomTroops",
      "outputs": [
        {
          "internalType": "uint256",
          "name": "",
          "type": "uint256"
        }
      ],
      "stateMutability": "view",
      "type": "function"
    },
    {
      "inputs": [
        {
          "internalType": "uint256",
          "name": "",
          "type": "uint256"
        }
      ],
      "name": "s_randomWordsArray",
      "outputs": [
        {
          "internalType": "uint256",
          "name": "",
          "type": "uint256"
        }
      ],
      "stateMutability": "view",
      "type": "function"
    },
    {
      "inputs": [],
      "name": "s_territoryState",
      "outputs": [
        {
          "internalType": "enum Main.TerritoryState",
          "name": "",
          "type": "uint8"
        }
      ],
      "stateMutability": "view",
      "type": "function"
    },
    {
      "inputs": [],
      "name": "setMainAddress",
      "outputs": [],
      "stateMutability": "nonpayable",
      "type": "function"
    }
  ],
  "transactionHash": "0xc8234f89bdda8a1adb1278afcc8fc3a86536f2b50ea8ac918edd7dead3733090",
  "args": [
    "0x5FbDB2315678afecb367f032d93F642f64180aa3",
    "2",
    "0x79d3d8832d904592c0bf9818b621522c988bb8b0c05cdc3b15aea1b6e8db0c15",
    "3000000",
    "100000000000000000",
    "0xDc64a140Aa3E981100a9becA4E685f962f0cF6C9",
    "0xe7f1725E7734CE288F8367e1Bb143E90bb3F0512"
  ],
  "numDeployments": 1,
  "solcInputHash": "e923d518e1330dc1fb960d90aaf4e3a5",
  "bytecode": "0x6101806040526040518060800160405280600060ff168152602001600060ff168152602001600060ff168152602001600060ff1681525060009060046200004892919062000243565b503480156200005657600080fd5b5060405162003cc038038062003cc083398181016040528101906200007c919062000469565b868073ffffffffffffffffffffffffffffffffffffffff1660808173ffffffffffffffffffffffffffffffffffffffff1660601b81525050508673ffffffffffffffffffffffffffffffffffffffff1660a08173ffffffffffffffffffffffffffffffffffffffff1660601b815250508567ffffffffffffffff1660c08167ffffffffffffffff1660c01b815250508460e081815250508363ffffffff166101008163ffffffff1660e01b815250508261012081815250506000600560016101000a81548160ff021916908360018111156200015d576200015c6200051c565b5b02179055506003600560006101000a81548160ff021916908360038111156200018b576200018a6200051c565b5b02179055506001600760146101000a81548160ff02191690836001811115620001b957620001b86200051c565b5b02179055508173ffffffffffffffffffffffffffffffffffffffff166101408173ffffffffffffffffffffffffffffffffffffffff1660601b815250508073ffffffffffffffffffffffffffffffffffffffff166101608173ffffffffffffffffffffffffffffffffffffffff1660601b815250506000600481905550505050505050506200054b565b826004601f01602090048101928215620002d15791602002820160005b83821115620002a057835183826101000a81548160ff021916908360ff160217905550926020019260010160208160000104928301926001030262000260565b8015620002cf5782816101000a81549060ff0219169055600101602081600001049283019260010302620002a0565b505b509050620002e09190620002e4565b5090565b5b80821115620002ff576000816000905550600101620002e5565b5090565b600080fd5b600073ffffffffffffffffffffffffffffffffffffffff82169050919050565b6000620003358262000308565b9050919050565b620003478162000328565b81146200035357600080fd5b50565b60008151905062000367816200033c565b92915050565b600067ffffffffffffffff82169050919050565b6200038c816200036d565b81146200039857600080fd5b50565b600081519050620003ac8162000381565b92915050565b6000819050919050565b620003c781620003b2565b8114620003d357600080fd5b50565b600081519050620003e781620003bc565b92915050565b600063ffffffff82169050919050565b6200040881620003ed565b81146200041457600080fd5b50565b6000815190506200042881620003fd565b92915050565b6000819050919050565b62000443816200042e565b81146200044f57600080fd5b50565b600081519050620004638162000438565b92915050565b600080600080600080600060e0888a0312156200048b576200048a62000303565b5b60006200049b8a828b0162000356565b9750506020620004ae8a828b016200039b565b9650506040620004c18a828b01620003d6565b9550506060620004d48a828b0162000417565b9450506080620004e78a828b0162000452565b93505060a0620004fa8a828b0162000356565b92505060c06200050d8a828b0162000356565b91505092959891949750929550565b7f4e487b7100000000000000000000000000000000000000000000000000000000600052602160045260246000fd5b60805160601c60a05160601c60c05160c01c60e0516101005160e01c610120516101405160601c6101605160601c6136896200063760003960005050600081816107810152818161085a0152818161097a01528181610a3001528181610c3f01528181610d8e01528181610ed5015281816110200152818161110801528181611219015281816112f20152818161151501526121e00152600081816107440152611686015260008181611a000152611ee40152600081816116210152611ea00152600081816119d80152611ec101526000611e64015260008181610b7f0152610bd301526136896000f3fe6080604052600436106101cd5760003560e01c806372e08a61116100f7578063d4e94c4611610095578063de8be8e711610064578063de8be8e71461065d578063e55ae4e814610688578063e83463eb146106c5578063fd6673f514610702576101cd565b8063d4e94c46146105c0578063d9eb8a44146105fd578063da4701cd14610607578063de3d9fb714610632576101cd565b806399c914fb116100d157806399c914fb14610516578063a6ac3b101461052d578063ae771f6b14610558578063c19dd76b14610595576101cd565b806372e08a611461047157806389da6b02146104ae5780638d2ed997146104eb576101cd565b80633691770a1161016f578063505e53ab1161013e578063505e53ab146103d95780635229134a146103f05780635ad964ae1461041b5780635f1b0fd814610446576101cd565b80633691770a1461031f5780633b63601e146103485780633d777d9514610373578063424b3e321461039c576101cd565b806314b1f907116101ab57806314b1f907146102535780631664bb631461027c57806319b09f9b146102b95780631fe543e3146102f6576101cd565b806304889afb146101d257806309bc33a7146101fd5780630fb081df14610228575b600080fd5b3480156101de57600080fd5b506101e761072d565b6040516101f49190612562565b60405180910390f35b34801561020957600080fd5b50610212610740565b60405161021f9190612596565b60405180910390f35b34801561023457600080fd5b5061023d610768565b60405161024a9190612562565b60405180910390f35b34801561025f57600080fd5b5061027a6004803603810190610275919061262a565b61077f565b005b34801561028857600080fd5b506102a3600480360381019061029e91906126db565b610a0c565b6040516102b09190612723565b60405180910390f35b3480156102c557600080fd5b506102e060048036038101906102db91906126db565b610a2c565b6040516102ed9190612723565b60405180910390f35b34801561030257600080fd5b5061031d60048036038101906103189190612897565b610b7d565b005b34801561032b57600080fd5b506103466004803603810190610341919061262a565b610c3d565b005b34801561035457600080fd5b5061035d610ead565b60405161036a9190612902565b60405180910390f35b34801561037f57600080fd5b5061039a6004803603810190610395919061291d565b610ed3565b005b3480156103a857600080fd5b506103c360048036038101906103be919061295d565b6111f3565b6040516103d09190612596565b60405180910390f35b3480156103e557600080fd5b506103ee611217565b005b3480156103fc57600080fd5b506104056113c7565b6040516104129190612a48565b60405180910390f35b34801561042757600080fd5b5061043061141f565b60405161043d9190612ab2565b60405180910390f35b34801561045257600080fd5b5061045b611436565b6040516104689190612596565b60405180910390f35b34801561047d57600080fd5b506104986004803603810190610493919061295d565b611443565b6040516104a59190612596565b60405180910390f35b3480156104ba57600080fd5b506104d560048036038101906104d0919061295d565b611467565b6040516104e29190612596565b60405180910390f35b3480156104f757600080fd5b5061050061148b565b60405161050d9190612b15565b60405180910390f35b34801561052257600080fd5b5061052b61149e565b005b34801561053957600080fd5b506105426115cb565b60405161054f9190612b78565b60405180910390f35b34801561056457600080fd5b5061057f600480360381019061057a919061295d565b6115de565b60405161058c9190612bb4565b60405180910390f35b3480156105a157600080fd5b506105aa61161d565b6040516105b79190612be8565b60405180910390f35b3480156105cc57600080fd5b506105e760048036038101906105e2919061295d565b611645565b6040516105f49190612bb4565b60405180910390f35b610605611684565b005b34801561061357600080fd5b5061061c6119c1565b6040516106299190612ab2565b60405180910390f35b34801561063e57600080fd5b506106476119d4565b6040516106549190612c26565b60405180910390f35b34801561066957600080fd5b506106726119fc565b60405161067f9190612c60565b60405180910390f35b34801561069457600080fd5b506106af60048036038101906106aa919061295d565b611a24565b6040516106bc9190612902565b60405180910390f35b3480156106d157600080fd5b506106ec60048036038101906106e7919061295d565b611a6c565b6040516106f99190612596565b60405180910390f35b34801561070e57600080fd5b50610717611a94565b6040516107249190612596565b60405180910390f35b600560019054906101000a900460ff1681565b60007f0000000000000000000000000000000000000000000000000000000000000000905090565b6000600560019054906101000a900460ff16905090565b7f000000000000000000000000000000000000000000000000000000000000000073ffffffffffffffffffffffffffffffffffffffff16632572cd6e6040518163ffffffff1660e01b815260040160206040518083038186803b1580156107e557600080fd5b505afa1580156107f9573d6000803e3d6000fd5b505050506040513d601f19601f8201168201806040525081019061081d9190612c90565b73ffffffffffffffffffffffffffffffffffffffff163373ffffffffffffffffffffffffffffffffffffffff161461085457600080fd5b600015157f000000000000000000000000000000000000000000000000000000000000000073ffffffffffffffffffffffffffffffffffffffff1663af0b94d46040518163ffffffff1660e01b815260040160206040518083038186803b1580156108be57600080fd5b505afa1580156108d2573d6000803e3d6000fd5b505050506040513d601f19601f820116820180604052508101906108f69190612ce9565b15151461090257600080fd5b60016003811115610916576109156124eb565b5b600560009054906101000a900460ff166003811115610938576109376124eb565b5b14610978576040517f08c379a000000000000000000000000000000000000000000000000000000000815260040161096f90612d99565b60405180910390fd5b7f000000000000000000000000000000000000000000000000000000000000000073ffffffffffffffffffffffffffffffffffffffff1663be85fc768484846040518463ffffffff1660e01b81526004016109d593929190612dc8565b600060405180830381600087803b1580156109ef57600080fd5b505af1158015610a03573d6000803e3d6000fd5b50505050505050565b60086020528060005260406000206000915054906101000a900460ff1681565b60007f000000000000000000000000000000000000000000000000000000000000000073ffffffffffffffffffffffffffffffffffffffff163373ffffffffffffffffffffffffffffffffffffffff1614610a8657600080fd5b60008273ffffffffffffffffffffffffffffffffffffffff1647604051610aac90612e30565b60006040518083038185875af1925050503d8060008114610ae9576040519150601f19603f3d011682016040523d82523d6000602084013e610aee565b606091505b5050905080610b29576040517faad40e9700000000000000000000000000000000000000000000000000000000815260040160405180910390fd5b8273ffffffffffffffffffffffffffffffffffffffff167f6484268da2aca55c67beef4127a9a4f83ec74ff7fa3d896a9b23c86e12427e7b60405160405180910390a2610b74611aa1565b80915050919050565b7f000000000000000000000000000000000000000000000000000000000000000073ffffffffffffffffffffffffffffffffffffffff163373ffffffffffffffffffffffffffffffffffffffff1614610c2f57337f00000000000000000000000000000000000000000000000000000000000000006040517f1cf993f4000000000000000000000000000000000000000000000000000000008152600401610c26929190612e45565b60405180910390fd5b610c398282611c81565b5050565b7f000000000000000000000000000000000000000000000000000000000000000073ffffffffffffffffffffffffffffffffffffffff16632572cd6e6040518163ffffffff1660e01b815260040160206040518083038186803b158015610ca357600080fd5b505afa158015610cb7573d6000803e3d6000fd5b505050506040513d601f19601f82011682018060405250810190610cdb9190612c90565b73ffffffffffffffffffffffffffffffffffffffff163373ffffffffffffffffffffffffffffffffffffffff1614610d1257600080fd5b60026003811115610d2657610d256124eb565b5b600560009054906101000a900460ff166003811115610d4857610d476124eb565b5b14610d88576040517f08c379a0000000000000000000000000000000000000000000000000000000008152600401610d7f90612ee0565b60405180910390fd5b600115157f000000000000000000000000000000000000000000000000000000000000000073ffffffffffffffffffffffffffffffffffffffff1663ada2c7a88585856040518463ffffffff1660e01b8152600401610de993929190612dc8565b602060405180830381600087803b158015610e0357600080fd5b505af1158015610e17573d6000803e3d6000fd5b505050506040513d601f19601f82011682018060405250810190610e3b9190612ce9565b151514610e7d576040517f08c379a0000000000000000000000000000000000000000000000000000000008152600401610e7490612f72565b60405180910390fd5b6000600560006101000a81548160ff02191690836003811115610ea357610ea26124eb565b5b0217905550505050565b600760009054906101000a900473ffffffffffffffffffffffffffffffffffffffff1681565b7f000000000000000000000000000000000000000000000000000000000000000073ffffffffffffffffffffffffffffffffffffffff16632572cd6e6040518163ffffffff1660e01b815260040160206040518083038186803b158015610f3957600080fd5b505afa158015610f4d573d6000803e3d6000fd5b505050506040513d601f19601f82011682018060405250810190610f719190612c90565b73ffffffffffffffffffffffffffffffffffffffff163373ffffffffffffffffffffffffffffffffffffffff1614610fa857600080fd5b60006003811115610fbc57610fbb6124eb565b5b600560009054906101000a900460ff166003811115610fde57610fdd6124eb565b5b1461101e576040517f08c379a000000000000000000000000000000000000000000000000000000000815260040161101590613004565b60405180910390fd5b7f000000000000000000000000000000000000000000000000000000000000000073ffffffffffffffffffffffffffffffffffffffff1663b6d5bc6f6040518163ffffffff1660e01b815260040160206040518083038186803b15801561108457600080fd5b505afa158015611098573d6000803e3d6000fd5b505050506040513d601f19601f820116820180604052508101906110bc9190613039565b60ff168260ff161115611104576040517f08c379a00000000000000000000000000000000000000000000000000000000081526004016110fb906130d8565b60405180910390fd5b60007f000000000000000000000000000000000000000000000000000000000000000073ffffffffffffffffffffffffffffffffffffffff1663041dcfcc84846040518363ffffffff1660e01b81526004016111619291906130f8565b602060405180830381600087803b15801561117b57600080fd5b505af115801561118f573d6000803e3d6000fd5b505050506040513d601f19601f820116820180604052508101906111b39190612ce9565b90506000151581151514156111ee576001600560006101000a81548160ff021916908360038111156111e8576111e76124eb565b5b02179055505b505050565b600a818154811061120357600080fd5b906000526020600020016000915090505481565b7f000000000000000000000000000000000000000000000000000000000000000073ffffffffffffffffffffffffffffffffffffffff16632572cd6e6040518163ffffffff1660e01b815260040160206040518083038186803b15801561127d57600080fd5b505afa158015611291573d6000803e3d6000fd5b505050506040513d601f19601f820116820180604052508101906112b59190612c90565b73ffffffffffffffffffffffffffffffffffffffff163373ffffffffffffffffffffffffffffffffffffffff16146112ec57600080fd5b600015157f000000000000000000000000000000000000000000000000000000000000000073ffffffffffffffffffffffffffffffffffffffff1663af0b94d46040518163ffffffff1660e01b815260040160206040518083038186803b15801561135657600080fd5b505afa15801561136a573d6000803e3d6000fd5b505050506040513d601f19601f8201168201806040525081019061138e9190612ce9565b15151461139a57600080fd5b6002600560006101000a81548160ff021916908360038111156113c0576113bf6124eb565b5b0217905550565b6060600180548060200260200160405190810160405280929190818152602001828054801561141557602002820191906000526020600020905b815481526020019060010190808311611401575b5050505050905090565b6000600260009054906101000a900460ff16905090565b6000600361ffff16905090565b6001818154811061145357600080fd5b906000526020600020016000915090505481565b600b818154811061147757600080fd5b906000526020600020016000915090505481565b600760149054906101000a900460ff1681565b6001808111156114b1576114b06124eb565b5b600760149054906101000a900460ff1660018111156114d3576114d26124eb565b5b14611513576040517f08c379a000000000000000000000000000000000000000000000000000000000815260040161150a90613193565b60405180910390fd5b7f000000000000000000000000000000000000000000000000000000000000000073ffffffffffffffffffffffffffffffffffffffff166305ca49b0306040518263ffffffff1660e01b815260040161156c9190612902565b600060405180830381600087803b15801561158657600080fd5b505af115801561159a573d6000803e3d6000fd5b505050506000600760146101000a81548160ff021916908360018111156115c4576115c36124eb565b5b0217905550565b600560009054906101000a900460ff1681565b600681815481106115ee57600080fd5b906000526020600020016000915054906101000a900473ffffffffffffffffffffffffffffffffffffffff1681565b60007f0000000000000000000000000000000000000000000000000000000000000000905090565b6009818154811061165557600080fd5b906000526020600020016000915054906101000a900473ffffffffffffffffffffffffffffffffffffffff1681565b7f00000000000000000000000000000000000000000000000000000000000000003410156116e7576040517f08c379a00000000000000000000000000000000000000000000000000000000081526004016116de906131ff565b60405180910390fd5b600060018111156116fb576116fa6124eb565b5b600560019054906101000a900460ff16600181111561171d5761171c6124eb565b5b1461175d576040517f08c379a00000000000000000000000000000000000000000000000000000000081526004016117549061326b565b60405180910390fd5b60001515600860003373ffffffffffffffffffffffffffffffffffffffff1673ffffffffffffffffffffffffffffffffffffffff16815260200190815260200160002060009054906101000a900460ff161515146117f0576040517f08c379a00000000000000000000000000000000000000000000000000000000081526004016117e7906132d7565b60405180910390fd5b6006339080600181540180825580915050600190039060005260206000200160009091909190916101000a81548173ffffffffffffffffffffffffffffffffffffffff021916908373ffffffffffffffffffffffffffffffffffffffff1602179055506009339080600181540180825580915050600190039060005260206000200160009091909190916101000a81548173ffffffffffffffffffffffffffffffffffffffff021916908373ffffffffffffffffffffffffffffffffffffffff1602179055503373ffffffffffffffffffffffffffffffffffffffff167fa0df676a3a1d8a4dc693c144ac79c01945b4464a07bccdbf66c068127c32cfd760405160405180910390a26001600860003373ffffffffffffffffffffffffffffffffffffffff1673ffffffffffffffffffffffffffffffffffffffff16815260200190815260200160002060006101000a81548160ff021916908315150217905550600460068054905014156119bf576001600560016101000a81548160ff02191690836001811115611985576119846124eb565b5b02179055507f095744e432dd463fbf0fa4a256e21ddb462dbc9cc4e27248ebd5a28d759cc9e560405160405180910390a16119be611e60565b5b565b600260009054906101000a900460ff1681565b60007f0000000000000000000000000000000000000000000000000000000000000000905090565b60007f0000000000000000000000000000000000000000000000000000000000000000905090565b600060068281548110611a3a57611a396132f7565b5b9060005260206000200160009054906101000a900473ffffffffffffffffffffffffffffffffffffffff169050919050565b600060018281548110611a8257611a816132f7565b5b90600052602060002001549050919050565b6000600680549050905090565b6000600560016101000a81548160ff02191690836001811115611ac757611ac66124eb565b5b0217905550600067ffffffffffffffff811115611ae757611ae6612754565b5b604051908082528060200260200182016040528015611b155781602001602082028036833780820191505090505b5060069080519060200190611b2b9291906123aa565b506003600560006101000a81548160ff02191690836003811115611b5257611b516124eb565b5b02179055506040518060800160405280600060ff168152602001600060ff168152602001600060ff168152602001600060ff168152506000906004611b98929190612434565b5060005b600980549050811015611c525760006008600060098481548110611bc357611bc26132f7565b5b9060005260206000200160009054906101000a900473ffffffffffffffffffffffffffffffffffffffff1673ffffffffffffffffffffffffffffffffffffffff1673ffffffffffffffffffffffffffffffffffffffff16815260200190815260200160002060006101000a81548160ff0219169083151502179055508080611c4a90613355565b915050611b9c565b507fddf25b659ac34302a47d8558d65f7af2579a28dd349a418009a1754bd599928460405160405180910390a1565b7f1d8f6997ec77a160b10f1131c09af88a6a895ea5f542c5fbca36ce69a9f5424860405160405180910390a160006001811115611cc157611cc06124eb565b5b600260009054906101000a900460ff166001811115611ce357611ce26124eb565b5b1415611e5c57611cf4600454612017565b60005b6006811015611d9457600b828281518110611d1557611d146132f7565b5b60200260200101519080600181540180825580915050600190039060005260206000200160009091909190915055611d816040518060400160405280600781526020017f70757368696e67000000000000000000000000000000000000000000000000008152506120b0565b8080611d8c90613355565b915050611cf7565b50600160046000828254611da8919061339e565b9250508190555060066004541015611e0557611dc2611e60565b611e006040518060400160405280601081526020017f72657175657374696e6720616761696e000000000000000000000000000000008152506120b0565b611e5b565b611e0e81612149565b611e4c6040518060400160405280601181526020017f6e6f206d6f72652061737369676e696e670000000000000000000000000000008152506120b0565b611e5a600b80549050612017565b5b5b5050565b60007f000000000000000000000000000000000000000000000000000000000000000073ffffffffffffffffffffffffffffffffffffffff16635d3b1d307f00000000000000000000000000000000000000000000000000000000000000007f000000000000000000000000000000000000000000000000000000000000000060037f000000000000000000000000000000000000000000000000000000000000000060066040518663ffffffff1660e01b8152600401611f25959493929190613456565b602060405180830381600087803b158015611f3f57600080fd5b505af1158015611f53573d6000803e3d6000fd5b505050506040513d601f19601f82011682018060405250810190611f7791906134be565b9050600180811115611f8c57611f8b6124eb565b5b600260009054906101000a900460ff166001811115611fae57611fad6124eb565b5b1415611fe657807f6dd9490da71258343c2f0b9c99ec9c283c04748dc6f9ca43c8b9c88ebef7640060405160405180910390a2612014565b807f14811023daed30f0f57d7f3d94dc3026647731787a9dec5abe13aa62f4a2f0dd60405160405180910390a25b50565b6120ad8160405160240161202b9190612596565b6040516020818303038152906040527ff82c50f1000000000000000000000000000000000000000000000000000000007bffffffffffffffffffffffffffffffffffffffffffffffffffffffff19166020820180517bffffffffffffffffffffffffffffffffffffffffffffffffffffffff8381831617835250505050612381565b50565b612146816040516024016120c49190613562565b6040516020818303038152906040527f41304fac000000000000000000000000000000000000000000000000000000007bffffffffffffffffffffffffffffffffffffffffffffffffffffffff19166020820180517bffffffffffffffffffffffffffffffffffffffffffffffffffffffff8381831617835250505050612381565b50565b60006040518060800160405280600060ff168152602001600160ff168152602001600260ff168152602001600360ff1681525090506000600a905060006004905060008060005b865181101561234d578360ff168782815181106121b0576121af6132f7565b5b60200260200101516121c291906135b3565b92508583600481106121d7576121d66132f7565b5b602002015191507f000000000000000000000000000000000000000000000000000000000000000073ffffffffffffffffffffffffffffffffffffffff1663aa181e85836040518263ffffffff1660e01b815260040161223791906135e4565b600060405180830381600087803b15801561225157600080fd5b505af1158015612265573d6000803e3d6000fd5b5050505060008260ff16600481106122805761227f6132f7565b5b6020918282040191900681819054906101000a900460ff16809291906122a5906135ff565b91906101000a81548160ff021916908360ff160217905550508460ff1660008360ff16600481106122d9576122d86132f7565b5b602091828204019190069054906101000a900460ff1660ff16141561233a57858260ff166004811061230e5761230d6132f7565b5b60200201600060ff16815250838061232590613629565b94505060028460ff16141561233957600b94505b5b808061234590613355565b915050612190565b506001600260006101000a81548160ff02191690836001811115612374576123736124eb565b5b0217905550505050505050565b60008151905060006a636f6e736f6c652e6c6f679050602083016000808483855afa5050505050565b828054828255906000526020600020908101928215612423579160200282015b828111156124225782518260006101000a81548173ffffffffffffffffffffffffffffffffffffffff021916908373ffffffffffffffffffffffffffffffffffffffff160217905550916020019190600101906123ca565b5b50905061243091906124ce565b5090565b826004601f016020900481019282156124bd5791602002820160005b8382111561248e57835183826101000a81548160ff021916908360ff1602179055509260200192600101602081600001049283019260010302612450565b80156124bb5782816101000a81549060ff021916905560010160208160000104928301926001030261248e565b505b5090506124ca91906124ce565b5090565b5b808211156124e75760008160009055506001016124cf565b5090565b7f4e487b7100000000000000000000000000000000000000000000000000000000600052602160045260246000fd5b6002811061252b5761252a6124eb565b5b50565b600081905061253c8261251a565b919050565b600061254c8261252e565b9050919050565b61255c81612541565b82525050565b60006020820190506125776000830184612553565b92915050565b6000819050919050565b6125908161257d565b82525050565b60006020820190506125ab6000830184612587565b92915050565b6000604051905090565b600080fd5b600080fd5b600060ff82169050919050565b6125db816125c5565b81146125e657600080fd5b50565b6000813590506125f8816125d2565b92915050565b6126078161257d565b811461261257600080fd5b50565b600081359050612624816125fe565b92915050565b600080600060608486031215612643576126426125bb565b5b6000612651868287016125e9565b9350506020612662868287016125e9565b925050604061267386828701612615565b9150509250925092565b600073ffffffffffffffffffffffffffffffffffffffff82169050919050565b60006126a88261267d565b9050919050565b6126b88161269d565b81146126c357600080fd5b50565b6000813590506126d5816126af565b92915050565b6000602082840312156126f1576126f06125bb565b5b60006126ff848285016126c6565b91505092915050565b60008115159050919050565b61271d81612708565b82525050565b60006020820190506127386000830184612714565b92915050565b600080fd5b6000601f19601f8301169050919050565b7f4e487b7100000000000000000000000000000000000000000000000000000000600052604160045260246000fd5b61278c82612743565b810181811067ffffffffffffffff821117156127ab576127aa612754565b5b80604052505050565b60006127be6125b1565b90506127ca8282612783565b919050565b600067ffffffffffffffff8211156127ea576127e9612754565b5b602082029050602081019050919050565b600080fd5b600061281361280e846127cf565b6127b4565b90508083825260208201905060208402830185811115612836576128356127fb565b5b835b8181101561285f578061284b8882612615565b845260208401935050602081019050612838565b5050509392505050565b600082601f83011261287e5761287d61273e565b5b813561288e848260208601612800565b91505092915050565b600080604083850312156128ae576128ad6125bb565b5b60006128bc85828601612615565b925050602083013567ffffffffffffffff8111156128dd576128dc6125c0565b5b6128e985828601612869565b9150509250929050565b6128fc8161269d565b82525050565b600060208201905061291760008301846128f3565b92915050565b60008060408385031215612934576129336125bb565b5b6000612942858286016125e9565b9250506020612953858286016125e9565b9150509250929050565b600060208284031215612973576129726125bb565b5b600061298184828501612615565b91505092915050565b600081519050919050565b600082825260208201905092915050565b6000819050602082019050919050565b6129bf8161257d565b82525050565b60006129d183836129b6565b60208301905092915050565b6000602082019050919050565b60006129f58261298a565b6129ff8185612995565b9350612a0a836129a6565b8060005b83811015612a3b578151612a2288826129c5565b9750612a2d836129dd565b925050600181019050612a0e565b5085935050505092915050565b60006020820190508181036000830152612a6281846129ea565b905092915050565b60028110612a7b57612a7a6124eb565b5b50565b6000819050612a8c82612a6a565b919050565b6000612a9c82612a7e565b9050919050565b612aac81612a91565b82525050565b6000602082019050612ac76000830184612aa3565b92915050565b60028110612ade57612add6124eb565b5b50565b6000819050612aef82612acd565b919050565b6000612aff82612ae1565b9050919050565b612b0f81612af4565b82525050565b6000602082019050612b2a6000830184612b06565b92915050565b60048110612b4157612b406124eb565b5b50565b6000819050612b5282612b30565b919050565b6000612b6282612b44565b9050919050565b612b7281612b57565b82525050565b6000602082019050612b8d6000830184612b69565b92915050565b6000612b9e8261267d565b9050919050565b612bae81612b93565b82525050565b6000602082019050612bc96000830184612ba5565b92915050565b6000819050919050565b612be281612bcf565b82525050565b6000602082019050612bfd6000830184612bd9565b92915050565b600067ffffffffffffffff82169050919050565b612c2081612c03565b82525050565b6000602082019050612c3b6000830184612c17565b92915050565b600063ffffffff82169050919050565b612c5a81612c41565b82525050565b6000602082019050612c756000830184612c51565b92915050565b600081519050612c8a816126af565b92915050565b600060208284031215612ca657612ca56125bb565b5b6000612cb484828501612c7b565b91505092915050565b612cc681612708565b8114612cd157600080fd5b50565b600081519050612ce381612cbd565b92915050565b600060208284031215612cff57612cfe6125bb565b5b6000612d0d84828501612cd4565b91505092915050565b600082825260208201905092915050565b7f49742069732063757272656e746c79206e6f742061747461636b20706861736560008201527f2100000000000000000000000000000000000000000000000000000000000000602082015250565b6000612d83602183612d16565b9150612d8e82612d27565b604082019050919050565b60006020820190508181036000830152612db281612d76565b9050919050565b612dc2816125c5565b82525050565b6000606082019050612ddd6000830186612db9565b612dea6020830185612db9565b612df76040830184612587565b949350505050565b600081905092915050565b50565b6000612e1a600083612dff565b9150612e2582612e0a565b600082019050919050565b6000612e3b82612e0d565b9150819050919050565b6000604082019050612e5a60008301856128f3565b612e6760208301846128f3565b9392505050565b7f49742069732063757272656e746c79206e6f7420666f7274696679207068617360008201527f6521000000000000000000000000000000000000000000000000000000000000602082015250565b6000612eca602283612d16565b9150612ed582612e6e565b604082019050919050565b60006020820190508181036000830152612ef981612ebd565b9050919050565b7f596f757220666f7274696669636174696f6e20617474656d7074206661696c6560008201527f6400000000000000000000000000000000000000000000000000000000000000602082015250565b6000612f5c602183612d16565b9150612f6782612f00565b604082019050919050565b60006020820190508181036000830152612f8b81612f4f565b9050919050565b7f49742069732063757272656e746c79206e6f74206465706c6f7920706861736560008201527f2100000000000000000000000000000000000000000000000000000000000000602082015250565b6000612fee602183612d16565b9150612ff982612f92565b604082019050919050565b6000602082019050818103600083015261301d81612fe1565b9050919050565b600081519050613033816125d2565b92915050565b60006020828403121561304f5761304e6125bb565b5b600061305d84828501613024565b91505092915050565b7f596f7520646f206e6f7420686176652074686174206d616e792074726f6f707360008201527f20746f206465706c6f7921000000000000000000000000000000000000000000602082015250565b60006130c2602b83612d16565b91506130cd82613066565b604082019050919050565b600060208201905081810360008301526130f1816130b5565b9050919050565b600060408201905061310d6000830185612db9565b61311a6020830184612db9565b9392505050565b7f436f6e74726f6c7320636f6e74726163742068617320616c726561647920726560008201527f636569766564204d61696e206164647265737300000000000000000000000000602082015250565b600061317d603383612d16565b915061318882613121565b604082019050919050565b600060208201905081810360008301526131ac81613170565b9050919050565b7f53656e64204d6f726520746f20456e746572204c6f6262790000000000000000600082015250565b60006131e9601883612d16565b91506131f4826131b3565b602082019050919050565b60006020820190508181036000830152613218816131dc565b9050919050565b7f4c6f6262792069732066756c6c00000000000000000000000000000000000000600082015250565b6000613255600d83612d16565b91506132608261321f565b602082019050919050565b6000602082019050818103600083015261328481613248565b9050919050565b7f596f7527766520616c726561647920656e7465726564207468652067616d6521600082015250565b60006132c1602083612d16565b91506132cc8261328b565b602082019050919050565b600060208201905081810360008301526132f0816132b4565b9050919050565b7f4e487b7100000000000000000000000000000000000000000000000000000000600052603260045260246000fd5b7f4e487b7100000000000000000000000000000000000000000000000000000000600052601160045260246000fd5b60006133608261257d565b91507fffffffffffffffffffffffffffffffffffffffffffffffffffffffffffffffff82141561339357613392613326565b5b600182019050919050565b60006133a98261257d565b91506133b48361257d565b9250827fffffffffffffffffffffffffffffffffffffffffffffffffffffffffffffffff038211156133e9576133e8613326565b5b828201905092915050565b600061ffff82169050919050565b61340b816133f4565b82525050565b6000819050919050565b6000819050919050565b600061344061343b61343684613411565b61341b565b612c41565b9050919050565b61345081613425565b82525050565b600060a08201905061346b6000830188612bd9565b6134786020830187612c17565b6134856040830186613402565b6134926060830185612c51565b61349f6080830184613447565b9695505050505050565b6000815190506134b8816125fe565b92915050565b6000602082840312156134d4576134d36125bb565b5b60006134e2848285016134a9565b91505092915050565b600081519050919050565b60005b838110156135145780820151818401526020810190506134f9565b83811115613523576000848401525b50505050565b6000613534826134eb565b61353e8185612d16565b935061354e8185602086016134f6565b61355781612743565b840191505092915050565b6000602082019050818103600083015261357c8184613529565b905092915050565b7f4e487b7100000000000000000000000000000000000000000000000000000000600052601260045260246000fd5b60006135be8261257d565b91506135c98361257d565b9250826135d9576135d8613584565b5b828206905092915050565b60006020820190506135f96000830184612db9565b92915050565b600061360a826125c5565b915060ff82141561361e5761361d613326565b5b600182019050919050565b6000613634826125c5565b9150600082141561364857613647613326565b5b60018203905091905056fea2646970667358221220560b80c1551ace1ce158ebb7303ce941e82dc0c8bde440c4fc15f4fcef70177d64736f6c63430008080033",
  "devdoc": {
    "kind": "dev",
    "methods": {},
    "version": 1
  },
  "userdoc": {
    "kind": "user",
    "methods": {
      "getRandomWordsArray()": {
        "notice": "Getter Functions "
      }
    },
    "version": 1
  },
  "storageLayout": {
    "storage": [
      {
        "astId": 2565,
        "contract": "contracts/Main.sol:Main",
        "label": "territoriesAssigned",
        "offset": 0,
        "slot": "0",
        "type": "t_array(t_uint8)4_storage"
      },
      {
        "astId": 2568,
        "contract": "contracts/Main.sol:Main",
        "label": "s_randomWordsArray",
        "offset": 0,
        "slot": "1",
        "type": "t_array(t_uint256)dyn_storage"
      },
      {
        "astId": 2571,
        "contract": "contracts/Main.sol:Main",
        "label": "s_territoryState",
        "offset": 0,
        "slot": "2",
        "type": "t_enum(TerritoryState)2527"
      },
      {
        "astId": 2573,
        "contract": "contracts/Main.sol:Main",
        "label": "s_num_words",
        "offset": 0,
        "slot": "3",
        "type": "t_uint256"
      },
      {
        "astId": 2575,
        "contract": "contracts/Main.sol:Main",
        "label": "s_count",
        "offset": 0,
        "slot": "4",
        "type": "t_uint256"
      },
      {
        "astId": 2578,
        "contract": "contracts/Main.sol:Main",
        "label": "s_gameState",
        "offset": 0,
        "slot": "5",
        "type": "t_enum(GameState)2535"
      },
      {
        "astId": 2581,
        "contract": "contracts/Main.sol:Main",
        "label": "s_lobbyState",
        "offset": 1,
        "slot": "5",
        "type": "t_enum(LobbyState)2530"
      },
      {
        "astId": 2584,
        "contract": "contracts/Main.sol:Main",
        "label": "s_players",
        "offset": 0,
        "slot": "6",
        "type": "t_array(t_address_payable)dyn_storage"
      },
      {
        "astId": 2586,
        "contract": "contracts/Main.sol:Main",
        "label": "player_turn",
        "offset": 0,
        "slot": "7",
        "type": "t_address"
      },
      {
        "astId": 2589,
        "contract": "contracts/Main.sol:Main",
        "label": "s_mainSet",
        "offset": 20,
        "slot": "7",
        "type": "t_enum(mainAddressSent)2538"
      },
      {
        "astId": 2593,
        "contract": "contracts/Main.sol:Main",
        "label": "duplicateAddresses",
        "offset": 0,
        "slot": "8",
        "type": "t_mapping(t_address,t_bool)"
      },
      {
        "astId": 2596,
        "contract": "contracts/Main.sol:Main",
        "label": "s_lobbyEntrants",
        "offset": 0,
        "slot": "9",
        "type": "t_array(t_address_payable)dyn_storage"
      },
      {
        "astId": 2599,
        "contract": "contracts/Main.sol:Main",
        "label": "s_randomTroops",
        "offset": 0,
        "slot": "10",
        "type": "t_array(t_uint256)dyn_storage"
      },
      {
        "astId": 2602,
        "contract": "contracts/Main.sol:Main",
        "label": "s_randomTerritories",
        "offset": 0,
        "slot": "11",
        "type": "t_array(t_uint256)dyn_storage"
      }
    ],
    "types": {
      "t_address": {
        "encoding": "inplace",
        "label": "address",
        "numberOfBytes": "20"
      },
      "t_address_payable": {
        "encoding": "inplace",
        "label": "address payable",
        "numberOfBytes": "20"
      },
      "t_array(t_address_payable)dyn_storage": {
        "base": "t_address_payable",
        "encoding": "dynamic_array",
        "label": "address payable[]",
        "numberOfBytes": "32"
      },
      "t_array(t_uint256)dyn_storage": {
        "base": "t_uint256",
        "encoding": "dynamic_array",
        "label": "uint256[]",
        "numberOfBytes": "32"
      },
      "t_array(t_uint8)4_storage": {
        "base": "t_uint8",
        "encoding": "inplace",
        "label": "uint8[4]",
        "numberOfBytes": "32"
      },
      "t_bool": {
        "encoding": "inplace",
        "label": "bool",
        "numberOfBytes": "1"
      },
      "t_enum(GameState)2535": {
        "encoding": "inplace",
        "label": "enum Main.GameState",
        "numberOfBytes": "1"
      },
      "t_enum(LobbyState)2530": {
        "encoding": "inplace",
        "label": "enum Main.LobbyState",
        "numberOfBytes": "1"
      },
      "t_enum(TerritoryState)2527": {
        "encoding": "inplace",
        "label": "enum Main.TerritoryState",
        "numberOfBytes": "1"
      },
      "t_enum(mainAddressSent)2538": {
        "encoding": "inplace",
        "label": "enum Main.mainAddressSent",
        "numberOfBytes": "1"
      },
      "t_mapping(t_address,t_bool)": {
        "encoding": "mapping",
        "key": "t_address",
        "label": "mapping(address => bool)",
        "numberOfBytes": "32",
        "value": "t_bool"
      },
      "t_uint256": {
        "encoding": "inplace",
        "label": "uint256",
        "numberOfBytes": "32"
      },
      "t_uint8": {
        "encoding": "inplace",
        "label": "uint8",
        "numberOfBytes": "1"
      }
    }
  }
}