{
  "address": "0xa513E6E4b8f2a923D98304ec87F64353C4D5C853",
  "abi": [
    {
      "inputs": [
        {
          "internalType": "address",
          "name": "vrfCoordinatorV2",
          "type": "address"
        },
        {
          "internalType": "uint64",
          "name": "subscriptionId",
          "type": "uint64"
        },
        {
          "internalType": "bytes32",
          "name": "gasLane",
          "type": "bytes32"
        },
        {
          "internalType": "uint32",
          "name": "callbackGasLimit",
          "type": "uint32"
        },
        {
          "internalType": "uint256",
          "name": "entranceFee",
          "type": "uint256"
        },
        {
          "internalType": "address",
          "name": "controls",
          "type": "address"
        },
        {
          "internalType": "address",
          "name": "data",
          "type": "address"
        }
      ],
      "stateMutability": "nonpayable",
      "type": "constructor"
    },
    {
      "inputs": [
        {
          "internalType": "address",
          "name": "have",
          "type": "address"
        },
        {
          "internalType": "address",
          "name": "want",
          "type": "address"
        }
      ],
      "name": "OnlyCoordinatorCanFulfill",
      "type": "error"
    },
    {
      "inputs": [],
      "name": "Transfer___Failed",
      "type": "error"
    },
    {
      "anonymous": false,
      "inputs": [],
      "name": "GameSetupComplete",
      "type": "event"
    },
    {
      "anonymous": false,
      "inputs": [],
      "name": "GameStarting",
      "type": "event"
    },
    {
      "anonymous": false,
      "inputs": [],
      "name": "MainReset",
      "type": "event"
    },
    {
      "anonymous": false,
      "inputs": [
        {
          "indexed": true,
          "internalType": "address",
          "name": "player",
          "type": "address"
        }
      ],
      "name": "PlayerJoinedLobby",
      "type": "event"
    },
    {
      "anonymous": false,
      "inputs": [],
      "name": "ReceivedRandomWords",
      "type": "event"
    },
    {
      "anonymous": false,
      "inputs": [
        {
          "indexed": true,
          "internalType": "uint256",
          "name": "requestId",
          "type": "uint256"
        }
      ],
      "name": "RequestedTerritoryRandomness",
      "type": "event"
    },
    {
      "anonymous": false,
      "inputs": [
        {
          "indexed": true,
          "internalType": "uint256",
          "name": "requestId",
          "type": "uint256"
        }
      ],
      "name": "RequestedTroopRandomness",
      "type": "event"
    },
    {
      "anonymous": false,
      "inputs": [
        {
          "indexed": true,
          "internalType": "address",
          "name": "player",
          "type": "address"
        }
      ],
      "name": "WinnerSentFunds",
      "type": "event"
    },
    {
      "inputs": [
        {
          "internalType": "uint8",
          "name": "territoryOwned",
          "type": "uint8"
        },
        {
          "internalType": "uint8",
          "name": "territoryAttacking",
          "type": "uint8"
        },
        {
          "internalType": "uint256",
          "name": "troopQuantity",
          "type": "uint256"
        }
      ],
      "name": "attack",
      "outputs": [],
      "stateMutability": "nonpayable",
      "type": "function"
    },
    {
      "inputs": [
        {
          "internalType": "uint8",
          "name": "amountToDeploy",
          "type": "uint8"
        },
        {
          "internalType": "uint8",
          "name": "location",
          "type": "uint8"
        }
      ],
      "name": "deploy",
      "outputs": [],
      "stateMutability": "nonpayable",
      "type": "function"
    },
    {
      "inputs": [
        {
          "internalType": "address",
          "name": "",
          "type": "address"
        }
      ],
      "name": "duplicateAddresses",
      "outputs": [
        {
          "internalType": "bool",
          "name": "",
          "type": "bool"
        }
      ],
      "stateMutability": "view",
      "type": "function"
    },
    {
      "inputs": [],
      "name": "enterLobby",
      "outputs": [],
      "stateMutability": "payable",
      "type": "function"
    },
    {
      "inputs": [],
      "name": "finishAttack",
      "outputs": [],
      "stateMutability": "nonpayable",
      "type": "function"
    },
    {
      "inputs": [
        {
          "internalType": "uint8",
          "name": "territoryMovingFrom",
          "type": "uint8"
        },
        {
          "internalType": "uint8",
          "name": "territoryMovingTo",
          "type": "uint8"
        },
        {
          "internalType": "uint256",
          "name": "troopsMoving",
          "type": "uint256"
        }
      ],
      "name": "fortify",
      "outputs": [],
      "stateMutability": "nonpayable",
      "type": "function"
    },
    {
      "inputs": [],
      "name": "getCallbackGasLimit",
      "outputs": [
        {
          "internalType": "uint32",
          "name": "",
          "type": "uint32"
        }
      ],
      "stateMutability": "view",
      "type": "function"
    },
    {
      "inputs": [],
      "name": "getEntranceFee",
      "outputs": [
        {
          "internalType": "uint256",
          "name": "",
          "type": "uint256"
        }
      ],
      "stateMutability": "view",
      "type": "function"
    },
    {
      "inputs": [],
      "name": "getGasLane",
      "outputs": [
        {
          "internalType": "bytes32",
          "name": "",
          "type": "bytes32"
        }
      ],
      "stateMutability": "view",
      "type": "function"
    },
    {
      "inputs": [],
      "name": "getLobbyState",
      "outputs": [
        {
          "internalType": "enum Main.LobbyState",
          "name": "",
          "type": "uint8"
        }
      ],
      "stateMutability": "view",
      "type": "function"
    },
    {
      "inputs": [],
      "name": "getNumberOfPlayers",
      "outputs": [
        {
          "internalType": "uint256",
          "name": "",
          "type": "uint256"
        }
      ],
      "stateMutability": "view",
      "type": "function"
    },
    {
      "inputs": [
        {
          "internalType": "uint256",
          "name": "index",
          "type": "uint256"
        }
      ],
      "name": "getPlayer",
      "outputs": [
        {
          "internalType": "address",
          "name": "",
          "type": "address"
        }
      ],
      "stateMutability": "view",
      "type": "function"
    },
    {
      "inputs": [],
      "name": "getRandomWordsArray",
      "outputs": [
        {
          "internalType": "uint256[]",
          "name": "",
          "type": "uint256[]"
        }
      ],
      "stateMutability": "view",
      "type": "function"
    },
    {
      "inputs": [
        {
          "internalType": "uint256",
          "name": "index",
          "type": "uint256"
        }
      ],
      "name": "getRandomWordsArrayIndex",
      "outputs": [
        {
          "internalType": "uint256",
          "name": "",
          "type": "uint256"
        }
      ],
      "stateMutability": "view",
      "type": "function"
    },
    {
      "inputs": [],
      "name": "getRequestConfirmations",
      "outputs": [
        {
          "internalType": "uint256",
          "name": "",
          "type": "uint256"
        }
      ],
      "stateMutability": "pure",
      "type": "function"
    },
    {
      "inputs": [],
      "name": "getSubscriptionId",
      "outputs": [
        {
          "internalType": "uint64",
          "name": "",
          "type": "uint64"
        }
      ],
      "stateMutability": "view",
      "type": "function"
    },
    {
      "inputs": [],
      "name": "getTerritoryState",
      "outputs": [
        {
          "internalType": "enum Main.TerritoryState",
          "name": "",
          "type": "uint8"
        }
      ],
      "stateMutability": "view",
      "type": "function"
    },
    {
      "inputs": [
        {
          "internalType": "address",
          "name": "winner",
          "type": "address"
        }
      ],
      "name": "payWinner",
      "outputs": [
        {
          "internalType": "bool",
          "name": "",
          "type": "bool"
        }
      ],
      "stateMutability": "nonpayable",
      "type": "function"
    },
    {
      "inputs": [],
      "name": "player_turn",
      "outputs": [
        {
          "internalType": "address",
          "name": "",
          "type": "address"
        }
      ],
      "stateMutability": "view",
      "type": "function"
    },
    {
      "inputs": [
        {
          "internalType": "uint256",
          "name": "requestId",
          "type": "uint256"
        },
        {
          "internalType": "uint256[]",
          "name": "randomWords",
          "type": "uint256[]"
        }
      ],
      "name": "rawFulfillRandomWords",
      "outputs": [],
      "stateMutability": "nonpayable",
      "type": "function"
    },
    {
      "inputs": [],
      "name": "s_gameState",
      "outputs": [
        {
          "internalType": "enum Main.GameState",
          "name": "",
          "type": "uint8"
        }
      ],
      "stateMutability": "view",
      "type": "function"
    },
    {
      "inputs": [
        {
          "internalType": "uint256",
          "name": "",
          "type": "uint256"
        }
      ],
      "name": "s_lobbyEntrants",
      "outputs": [
        {
          "internalType": "address payable",
          "name": "",
          "type": "address"
        }
      ],
      "stateMutability": "view",
      "type": "function"
    },
    {
      "inputs": [],
      "name": "s_lobbyState",
      "outputs": [
        {
          "internalType": "enum Main.LobbyState",
          "name": "",
          "type": "uint8"
        }
      ],
      "stateMutability": "view",
      "type": "function"
    },
    {
      "inputs": [],
      "name": "s_mainSet",
      "outputs": [
        {
          "internalType": "enum Main.mainAddressSent",
          "name": "",
          "type": "uint8"
        }
      ],
      "stateMutability": "view",
      "type": "function"
    },
    {
      "inputs": [
        {
          "internalType": "uint256",
          "name": "",
          "type": "uint256"
        }
      ],
      "name": "s_players",
      "outputs": [
        {
          "internalType": "address payable",
          "name": "",
          "type": "address"
        }
      ],
      "stateMutability": "view",
      "type": "function"
    },
    {
      "inputs": [],
      "name": "s_territoryState",
      "outputs": [
        {
          "internalType": "enum Main.TerritoryState",
          "name": "",
          "type": "uint8"
        }
      ],
      "stateMutability": "view",
      "type": "function"
    },
    {
      "inputs": [],
      "name": "setMainAddress",
      "outputs": [],
      "stateMutability": "nonpayable",
      "type": "function"
    }
  ],
  "transactionHash": "0x2791f436402bcd52a37d4f6a74130b02ed400130629b463cfd2474be3fdd2d3b",
  "args": [
    "0x5FbDB2315678afecb367f032d93F642f64180aa3",
    "2",
    "0x79d3d8832d904592c0bf9818b621522c988bb8b0c05cdc3b15aea1b6e8db0c15",
    "3000000",
    "100000000000000000",
    "0xDc64a140Aa3E981100a9becA4E685f962f0cF6C9",
    "0xe7f1725E7734CE288F8367e1Bb143E90bb3F0512"
  ],
  "numDeployments": 1,
  "solcInputHash": "d03bf5f7b97425200d8b46b2cf3105d4",
  "bytecode": "0x6101806040526040518060800160405280600060ff168152602001600060ff168152602001600060ff168152602001600060ff168152506000906004620000489291906200023a565b503480156200005657600080fd5b50604051620044763803806200447683398181016040528101906200007c919062000460565b868073ffffffffffffffffffffffffffffffffffffffff1660808173ffffffffffffffffffffffffffffffffffffffff1660601b81525050508673ffffffffffffffffffffffffffffffffffffffff1660a08173ffffffffffffffffffffffffffffffffffffffff1660601b815250508567ffffffffffffffff1660c08167ffffffffffffffff1660c01b815250508460e081815250508363ffffffff166101008163ffffffff1660e01b8152505082610120818152505060006002806101000a81548160ff021916908360018111156200015c576200015b62000513565b5b02179055506003600260016101000a81548160ff021916908360038111156200018a576200018962000513565b5b02179055506001600460146101000a81548160ff02191690836001811115620001b857620001b762000513565b5b02179055508173ffffffffffffffffffffffffffffffffffffffff166101408173ffffffffffffffffffffffffffffffffffffffff1660601b815250508073ffffffffffffffffffffffffffffffffffffffff166101608173ffffffffffffffffffffffffffffffffffffffff1660601b815250505050505050505062000542565b826004601f01602090048101928215620002c85791602002820160005b838211156200029757835183826101000a81548160ff021916908360ff160217905550926020019260010160208160000104928301926001030262000257565b8015620002c65782816101000a81549060ff021916905560010160208160000104928301926001030262000297565b505b509050620002d79190620002db565b5090565b5b80821115620002f6576000816000905550600101620002dc565b5090565b600080fd5b600073ffffffffffffffffffffffffffffffffffffffff82169050919050565b60006200032c82620002ff565b9050919050565b6200033e816200031f565b81146200034a57600080fd5b50565b6000815190506200035e8162000333565b92915050565b600067ffffffffffffffff82169050919050565b620003838162000364565b81146200038f57600080fd5b50565b600081519050620003a38162000378565b92915050565b6000819050919050565b620003be81620003a9565b8114620003ca57600080fd5b50565b600081519050620003de81620003b3565b92915050565b600063ffffffff82169050919050565b620003ff81620003e4565b81146200040b57600080fd5b50565b6000815190506200041f81620003f4565b92915050565b6000819050919050565b6200043a8162000425565b81146200044657600080fd5b50565b6000815190506200045a816200042f565b92915050565b600080600080600080600060e0888a031215620004825762000481620002fa565b5b6000620004928a828b016200034d565b9750506020620004a58a828b0162000392565b9650506040620004b88a828b01620003cd565b9550506060620004cb8a828b016200040e565b9450506080620004de8a828b0162000449565b93505060a0620004f18a828b016200034d565b92505060c0620005048a828b016200034d565b91505092959891949750929550565b7f4e487b7100000000000000000000000000000000000000000000000000000000600052602160045260246000fd5b60805160601c60a05160601c60c05160c01c60e0516101005160e01c610120516101405160601c6101605160601c613e176200065f6000396000505060008181610695015281816107a30152818161084a0152818161096a01528181610a2001528181610c2f01528181610d3d01528181610ed60152818161101d0152818161112b015281816112c0015281816113e6015281816115110152818161161f015281816116c6015281816118a0015281816124510152818161269101528181612827015261294e01526000818161065a0152611a11015260008181611d8a015261225e0152600081816119ac015261221a015260008181611d62015261223b015260006121de015260008181610b6f0152610bc30152613e176000f3fe60806040526004361061019c5760003560e01c80635f1b0fd8116100ec578063d9eb8a441161008a578063de8be8e711610064578063de8be8e714610575578063e55ae4e8146105a0578063e83463eb146105dd578063fd6673f51461061a5761019c565b8063d9eb8a4414610515578063da4701cd1461051f578063de3d9fb71461054a5761019c565b8063a6ac3b10116100c6578063a6ac3b1014610445578063ae771f6b14610470578063c19dd76b146104ad578063d4e94c46146104d85761019c565b80635f1b0fd8146103d85780638d2ed9971461040357806399c914fb1461042e5761019c565b80631fe543e3116101595780633d777d95116101335780633d777d9514610342578063505e53ab1461036b5780635229134a146103825780635ad964ae146103ad5761019c565b80631fe543e3146102c55780633691770a146102ee5780633b63601e146103175761019c565b806304889afb146101a157806309bc33a7146101cc5780630fb081df146101f757806314b1f907146102225780631664bb631461024b57806319b09f9b14610288575b600080fd5b3480156101ad57600080fd5b506101b6610645565b6040516101c39190612be1565b60405180910390f35b3480156101d857600080fd5b506101e1610656565b6040516101ee9190612c15565b60405180910390f35b34801561020357600080fd5b5061020c61067e565b6040516102199190612be1565b60405180910390f35b34801561022e57600080fd5b5061024960048036038101906102449190612ca9565b610693565b005b34801561025757600080fd5b50610272600480360381019061026d9190612d5a565b6109fc565b60405161027f9190612da2565b60405180910390f35b34801561029457600080fd5b506102af60048036038101906102aa9190612d5a565b610a1c565b6040516102bc9190612da2565b60405180910390f35b3480156102d157600080fd5b506102ec60048036038101906102e79190612f16565b610b6d565b005b3480156102fa57600080fd5b5061031560048036038101906103109190612ca9565b610c2d565b005b34801561032357600080fd5b5061032c610ff5565b6040516103399190612f81565b60405180910390f35b34801561034e57600080fd5b5061036960048036038101906103649190612f9c565b61101b565b005b34801561037757600080fd5b5061038061150f565b005b34801561038e57600080fd5b5061039761179a565b6040516103a4919061309a565b60405180910390f35b3480156103b957600080fd5b506103c26117f2565b6040516103cf9190613104565b60405180910390f35b3480156103e457600080fd5b506103ed611809565b6040516103fa9190612c15565b60405180910390f35b34801561040f57600080fd5b50610418611816565b6040516104259190613167565b60405180910390f35b34801561043a57600080fd5b50610443611829565b005b34801561045157600080fd5b5061045a611956565b60405161046791906131ca565b60405180910390f35b34801561047c57600080fd5b50610497600480360381019061049291906131e5565b611969565b6040516104a49190613233565b60405180910390f35b3480156104b957600080fd5b506104c26119a8565b6040516104cf9190613267565b60405180910390f35b3480156104e457600080fd5b506104ff60048036038101906104fa91906131e5565b6119d0565b60405161050c9190613233565b60405180910390f35b61051d611a0f565b005b34801561052b57600080fd5b50610534611d4b565b6040516105419190613104565b60405180910390f35b34801561055657600080fd5b5061055f611d5e565b60405161056c91906132a5565b60405180910390f35b34801561058157600080fd5b5061058a611d86565b60405161059791906132df565b60405180910390f35b3480156105ac57600080fd5b506105c760048036038101906105c291906131e5565b611dae565b6040516105d49190612f81565b60405180910390f35b3480156105e957600080fd5b5061060460048036038101906105ff91906131e5565b611df6565b6040516106119190612c15565b60405180910390f35b34801561062657600080fd5b5061062f611e1e565b60405161063c9190612c15565b60405180910390f35b60028054906101000a900460ff1681565b60007f0000000000000000000000000000000000000000000000000000000000000000905090565b600060028054906101000a900460ff16905090565b7f000000000000000000000000000000000000000000000000000000000000000073ffffffffffffffffffffffffffffffffffffffff16632572cd6e6040518163ffffffff1660e01b815260040160206040518083038186803b1580156106f957600080fd5b505afa15801561070d573d6000803e3d6000fd5b505050506040513d601f19601f82011682018060405250810190610731919061330f565b73ffffffffffffffffffffffffffffffffffffffff163373ffffffffffffffffffffffffffffffffffffffff161461076857600080fd5b6108446040518060400160405280600b81526020017f706c617965725f7475726e0000000000000000000000000000000000000000008152507f000000000000000000000000000000000000000000000000000000000000000073ffffffffffffffffffffffffffffffffffffffff16632572cd6e6040518163ffffffff1660e01b815260040160206040518083038186803b15801561080757600080fd5b505afa15801561081b573d6000803e3d6000fd5b505050506040513d601f19601f8201168201806040525081019061083f919061330f565b611e2b565b600015157f000000000000000000000000000000000000000000000000000000000000000073ffffffffffffffffffffffffffffffffffffffff1663af0b94d46040518163ffffffff1660e01b815260040160206040518083038186803b1580156108ae57600080fd5b505afa1580156108c2573d6000803e3d6000fd5b505050506040513d601f19601f820116820180604052508101906108e69190613368565b1515146108f257600080fd5b6001600381111561090657610905612b6a565b5b600260019054906101000a900460ff16600381111561092857610927612b6a565b5b14610968576040517f08c379a000000000000000000000000000000000000000000000000000000000815260040161095f90613418565b60405180910390fd5b7f000000000000000000000000000000000000000000000000000000000000000073ffffffffffffffffffffffffffffffffffffffff1663be85fc768484846040518463ffffffff1660e01b81526004016109c593929190613447565b600060405180830381600087803b1580156109df57600080fd5b505af11580156109f3573d6000803e3d6000fd5b50505050505050565b60056020528060005260406000206000915054906101000a900460ff1681565b60007f000000000000000000000000000000000000000000000000000000000000000073ffffffffffffffffffffffffffffffffffffffff163373ffffffffffffffffffffffffffffffffffffffff1614610a7657600080fd5b60008273ffffffffffffffffffffffffffffffffffffffff1647604051610a9c906134af565b60006040518083038185875af1925050503d8060008114610ad9576040519150601f19603f3d011682016040523d82523d6000602084013e610ade565b606091505b5050905080610b19576040517faad40e9700000000000000000000000000000000000000000000000000000000815260040160405180910390fd5b8273ffffffffffffffffffffffffffffffffffffffff167f6484268da2aca55c67beef4127a9a4f83ec74ff7fa3d896a9b23c86e12427e7b60405160405180910390a2610b64611ec7565b80915050919050565b7f000000000000000000000000000000000000000000000000000000000000000073ffffffffffffffffffffffffffffffffffffffff163373ffffffffffffffffffffffffffffffffffffffff1614610c1f57337f00000000000000000000000000000000000000000000000000000000000000006040517f1cf993f4000000000000000000000000000000000000000000000000000000008152600401610c169291906134c4565b60405180910390fd5b610c2982826120a6565b5050565b7f000000000000000000000000000000000000000000000000000000000000000073ffffffffffffffffffffffffffffffffffffffff16632572cd6e6040518163ffffffff1660e01b815260040160206040518083038186803b158015610c9357600080fd5b505afa158015610ca7573d6000803e3d6000fd5b505050506040513d601f19601f82011682018060405250810190610ccb919061330f565b73ffffffffffffffffffffffffffffffffffffffff163373ffffffffffffffffffffffffffffffffffffffff1614610d0257600080fd5b610dde6040518060400160405280600b81526020017f706c617965725f7475726e0000000000000000000000000000000000000000008152507f000000000000000000000000000000000000000000000000000000000000000073ffffffffffffffffffffffffffffffffffffffff16632572cd6e6040518163ffffffff1660e01b815260040160206040518083038186803b158015610da157600080fd5b505afa158015610db5573d6000803e3d6000fd5b505050506040513d601f19601f82011682018060405250810190610dd9919061330f565b611e2b565b610e1c6040518060400160405280600b81526020017f696e73696465206d61696e000000000000000000000000000000000000000000815250612141565b60026003811115610e3057610e2f612b6a565b5b600260019054906101000a900460ff166003811115610e5257610e51612b6a565b5b14610e92576040517f08c379a0000000000000000000000000000000000000000000000000000000008152600401610e899061355f565b60405180910390fd5b610ed06040518060400160405280600481526020017f6865726500000000000000000000000000000000000000000000000000000000815250612141565b600115157f000000000000000000000000000000000000000000000000000000000000000073ffffffffffffffffffffffffffffffffffffffff1663ada2c7a88585856040518463ffffffff1660e01b8152600401610f3193929190613447565b602060405180830381600087803b158015610f4b57600080fd5b505af1158015610f5f573d6000803e3d6000fd5b505050506040513d601f19601f82011682018060405250810190610f839190613368565b151514610fc5576040517f08c379a0000000000000000000000000000000000000000000000000000000008152600401610fbc906135f1565b60405180910390fd5b6000600260016101000a81548160ff02191690836003811115610feb57610fea612b6a565b5b0217905550505050565b600460009054906101000a900473ffffffffffffffffffffffffffffffffffffffff1681565b7f000000000000000000000000000000000000000000000000000000000000000073ffffffffffffffffffffffffffffffffffffffff16632572cd6e6040518163ffffffff1660e01b815260040160206040518083038186803b15801561108157600080fd5b505afa158015611095573d6000803e3d6000fd5b505050506040513d601f19601f820116820180604052508101906110b9919061330f565b73ffffffffffffffffffffffffffffffffffffffff163373ffffffffffffffffffffffffffffffffffffffff16146110f057600080fd5b6111cc6040518060400160405280600b81526020017f706c617965725f7475726e0000000000000000000000000000000000000000008152507f000000000000000000000000000000000000000000000000000000000000000073ffffffffffffffffffffffffffffffffffffffff16632572cd6e6040518163ffffffff1660e01b815260040160206040518083038186803b15801561118f57600080fd5b505afa1580156111a3573d6000803e3d6000fd5b505050506040513d601f19601f820116820180604052508101906111c7919061330f565b611e2b565b61120a6040518060400160405280600981526020017f6465706c6f79696e670000000000000000000000000000000000000000000000815250612141565b6000600381111561121e5761121d612b6a565b5b600260019054906101000a900460ff1660038111156112405761123f612b6a565b5b14611280576040517f08c379a000000000000000000000000000000000000000000000000000000000815260040161127790613683565b60405180910390fd5b6112be6040518060400160405280601981526020017f617420656e64206f66206465706c6f792066756e6374696f6e00000000000000815250612141565b7f000000000000000000000000000000000000000000000000000000000000000073ffffffffffffffffffffffffffffffffffffffff1663b6d5bc6f6040518163ffffffff1660e01b815260040160206040518083038186803b15801561132457600080fd5b505afa158015611338573d6000803e3d6000fd5b505050506040513d601f19601f8201168201806040525081019061135c91906136b8565b60ff168260ff1611156113a4576040517f08c379a000000000000000000000000000000000000000000000000000000000815260040161139b90613757565b60405180910390fd5b6113e26040518060400160405280601981526020017f617420656e64206f66206465706c6f792066756e6374696f6e00000000000000815250612141565b60007f000000000000000000000000000000000000000000000000000000000000000073ffffffffffffffffffffffffffffffffffffffff1663041dcfcc84846040518363ffffffff1660e01b815260040161143f929190613777565b602060405180830381600087803b15801561145957600080fd5b505af115801561146d573d6000803e3d6000fd5b505050506040513d601f19601f820116820180604052508101906114919190613368565b90506114d16040518060400160405280601981526020017f617420656e64206f66206465706c6f792066756e6374696f6e00000000000000815250612141565b60001515811515141561150a576001600260016101000a81548160ff0219169083600381111561150457611503612b6a565b5b02179055505b505050565b7f000000000000000000000000000000000000000000000000000000000000000073ffffffffffffffffffffffffffffffffffffffff16632572cd6e6040518163ffffffff1660e01b815260040160206040518083038186803b15801561157557600080fd5b505afa158015611589573d6000803e3d6000fd5b505050506040513d601f19601f820116820180604052508101906115ad919061330f565b73ffffffffffffffffffffffffffffffffffffffff163373ffffffffffffffffffffffffffffffffffffffff16146115e457600080fd5b6116c06040518060400160405280600b81526020017f706c617965725f7475726e0000000000000000000000000000000000000000008152507f000000000000000000000000000000000000000000000000000000000000000073ffffffffffffffffffffffffffffffffffffffff16632572cd6e6040518163ffffffff1660e01b815260040160206040518083038186803b15801561168357600080fd5b505afa158015611697573d6000803e3d6000fd5b505050506040513d601f19601f820116820180604052508101906116bb919061330f565b611e2b565b600015157f000000000000000000000000000000000000000000000000000000000000000073ffffffffffffffffffffffffffffffffffffffff1663af0b94d46040518163ffffffff1660e01b815260040160206040518083038186803b15801561172a57600080fd5b505afa15801561173e573d6000803e3d6000fd5b505050506040513d601f19601f820116820180604052508101906117629190613368565b15151461176e57600080fd5b60028060016101000a81548160ff0219169083600381111561179357611792612b6a565b5b0217905550565b606060018054806020026020016040519081016040528092919081815260200182805480156117e857602002820191906000526020600020905b8154815260200190600101908083116117d4575b5050505050905090565b6000600260009054906101000a900460ff16905090565b6000600361ffff16905090565b600460149054906101000a900460ff1681565b60018081111561183c5761183b612b6a565b5b600460149054906101000a900460ff16600181111561185e5761185d612b6a565b5b1461189e576040517f08c379a000000000000000000000000000000000000000000000000000000000815260040161189590613812565b60405180910390fd5b7f000000000000000000000000000000000000000000000000000000000000000073ffffffffffffffffffffffffffffffffffffffff166305ca49b0306040518263ffffffff1660e01b81526004016118f79190612f81565b600060405180830381600087803b15801561191157600080fd5b505af1158015611925573d6000803e3d6000fd5b505050506000600460146101000a81548160ff0219169083600181111561194f5761194e612b6a565b5b0217905550565b600260019054906101000a900460ff1681565b6003818154811061197957600080fd5b906000526020600020016000915054906101000a900473ffffffffffffffffffffffffffffffffffffffff1681565b60007f0000000000000000000000000000000000000000000000000000000000000000905090565b600681815481106119e057600080fd5b906000526020600020016000915054906101000a900473ffffffffffffffffffffffffffffffffffffffff1681565b7f0000000000000000000000000000000000000000000000000000000000000000341015611a72576040517f08c379a0000000000000000000000000000000000000000000000000000000008152600401611a699061387e565b60405180910390fd5b60006001811115611a8657611a85612b6a565b5b60028054906101000a900460ff166001811115611aa657611aa5612b6a565b5b14611ae6576040517f08c379a0000000000000000000000000000000000000000000000000000000008152600401611add906138ea565b60405180910390fd5b60001515600560003373ffffffffffffffffffffffffffffffffffffffff1673ffffffffffffffffffffffffffffffffffffffff16815260200190815260200160002060009054906101000a900460ff16151514611b79576040517f08c379a0000000000000000000000000000000000000000000000000000000008152600401611b7090613956565b60405180910390fd5b6003339080600181540180825580915050600190039060005260206000200160009091909190916101000a81548173ffffffffffffffffffffffffffffffffffffffff021916908373ffffffffffffffffffffffffffffffffffffffff1602179055506006339080600181540180825580915050600190039060005260206000200160009091909190916101000a81548173ffffffffffffffffffffffffffffffffffffffff021916908373ffffffffffffffffffffffffffffffffffffffff1602179055503373ffffffffffffffffffffffffffffffffffffffff167fa0df676a3a1d8a4dc693c144ac79c01945b4464a07bccdbf66c068127c32cfd760405160405180910390a26001600560003373ffffffffffffffffffffffffffffffffffffffff1673ffffffffffffffffffffffffffffffffffffffff16815260200190815260200160002060006101000a81548160ff02191690831515021790555060046003805490501415611d495760016002806101000a81548160ff02191690836001811115611d0d57611d0c612b6a565b5b02179055507f095744e432dd463fbf0fa4a256e21ddb462dbc9cc4e27248ebd5a28d759cc9e560405160405180910390a1611d48602a6121da565b5b565b600260009054906101000a900460ff1681565b60007f0000000000000000000000000000000000000000000000000000000000000000905090565b60007f0000000000000000000000000000000000000000000000000000000000000000905090565b600060038281548110611dc457611dc3613976565b5b9060005260206000200160009054906101000a900473ffffffffffffffffffffffffffffffffffffffff169050919050565b600060018281548110611e0c57611e0b613976565b5b90600052602060002001549050919050565b6000600380549050905090565b611ec38282604051602401611e41929190613a1c565b6040516020818303038152906040527f319af333000000000000000000000000000000000000000000000000000000007bffffffffffffffffffffffffffffffffffffffffffffffffffffffff19166020820180517bffffffffffffffffffffffffffffffffffffffffffffffffffffffff8381831617835250505050612391565b5050565b60006002806101000a81548160ff02191690836001811115611eec57611eeb612b6a565b5b0217905550600067ffffffffffffffff811115611f0c57611f0b612dd3565b5b604051908082528060200260200182016040528015611f3a5781602001602082028036833780820191505090505b5060039080519060200190611f509291906129dc565b506003600260016101000a81548160ff02191690836003811115611f7757611f76612b6a565b5b02179055506040518060800160405280600060ff168152602001600060ff168152602001600060ff168152602001600060ff168152506000906004611fbd929190612a66565b5060005b6006805490508110156120775760006005600060068481548110611fe857611fe7613976565b5b9060005260206000200160009054906101000a900473ffffffffffffffffffffffffffffffffffffffff1673ffffffffffffffffffffffffffffffffffffffff1673ffffffffffffffffffffffffffffffffffffffff16815260200190815260200160002060006101000a81548160ff021916908315150217905550808061206f90613a7b565b915050611fc1565b507fddf25b659ac34302a47d8558d65f7af2579a28dd349a418009a1754bd599928460405160405180910390a1565b80600190805190602001906120bc929190612b00565b507f1d8f6997ec77a160b10f1131c09af88a6a895ea5f542c5fbca36ce69a9f5424860405160405180910390a1600060018111156120fd576120fc612b6a565b5b600260009054906101000a900460ff16600181111561211f5761211e612b6a565b5b14156121335761212e816123ba565b61213d565b61213c816125fc565b5b5050565b6121d7816040516024016121559190613ac4565b6040516020818303038152906040527f41304fac000000000000000000000000000000000000000000000000000000007bffffffffffffffffffffffffffffffffffffffffffffffffffffffff19166020820180517bffffffffffffffffffffffffffffffffffffffffffffffffffffffff8381831617835250505050612391565b50565b60007f000000000000000000000000000000000000000000000000000000000000000073ffffffffffffffffffffffffffffffffffffffff16635d3b1d307f00000000000000000000000000000000000000000000000000000000000000007f000000000000000000000000000000000000000000000000000000000000000060037f0000000000000000000000000000000000000000000000000000000000000000876040518663ffffffff1660e01b815260040161229e959493929190613b03565b602060405180830381600087803b1580156122b857600080fd5b505af11580156122cc573d6000803e3d6000fd5b505050506040513d601f19601f820116820180604052508101906122f09190613b6b565b905060018081111561230557612304612b6a565b5b600260009054906101000a900460ff16600181111561232757612326612b6a565b5b141561235f57807f6dd9490da71258343c2f0b9c99ec9c283c04748dc6f9ca43c8b9c88ebef7640060405160405180910390a261238d565b807f14811023daed30f0f57d7f3d94dc3026647731787a9dec5abe13aa62f4a2f0dd60405160405180910390a25b5050565b60008151905060006a636f6e736f6c652e6c6f679050602083016000808483855afa5050505050565b60006040518060800160405280600060ff168152602001600160ff168152602001600260ff168152602001600360ff1681525090506000600a905060006004905060008060005b86518110156125be578360ff1687828151811061242157612420613976565b5b60200260200101516124339190613bc7565b925085836004811061244857612447613976565b5b602002015191507f000000000000000000000000000000000000000000000000000000000000000073ffffffffffffffffffffffffffffffffffffffff1663aa181e85836040518263ffffffff1660e01b81526004016124a89190613bf8565b600060405180830381600087803b1580156124c257600080fd5b505af11580156124d6573d6000803e3d6000fd5b5050505060008260ff16600481106124f1576124f0613976565b5b6020918282040191900681819054906101000a900460ff168092919061251690613c13565b91906101000a81548160ff021916908360ff160217905550508460ff1660008360ff166004811061254a57612549613976565b5b602091828204019190069054906101000a900460ff1660ff1614156125ab57858260ff166004811061257f5761257e613976565b5b60200201600060ff16815250838061259690613c3d565b94505060028460ff1614156125aa57600b94505b5b80806125b690613a7b565b915050612401565b506001600260006101000a81548160ff021916908360018111156125e5576125e4612b6a565b5b02179055506125f4604e6121da565b505050505050565b6000805b60048110156128f457600080826004811061261e5761261d613976565b5b602091828204019190069054906101000a900460ff1660ff1667ffffffffffffffff8111156126505761264f612dd3565b5b60405190808252806020026020018201604052801561267e5781602001602082028036833780820191505090505b5090506000805b602a81101561278057837f000000000000000000000000000000000000000000000000000000000000000073ffffffffffffffffffffffffffffffffffffffff1663780b5bf9836040518263ffffffff1660e01b81526004016126e89190612c15565b602060405180830381600087803b15801561270257600080fd5b505af1158015612716573d6000803e3d6000fd5b505050506040513d601f19601f8201168201806040525081019061273a9190613b6b565b141561276d578083838061274d90613a7b565b9450815181106127605761275f613976565b5b6020026020010181815250505b808061277890613a7b565b915050612685565b5060005b6000846004811061279857612797613976565b5b602091828204019190069054906101000a900460ff16601e6127ba9190613c67565b60ff168110156128de5760008085600481106127d9576127d8613976565b5b602091828204019190069054906101000a900460ff1660ff168787806127fe90613a7b565b98508151811061281157612810613976565b5b60200260200101516128239190613bc7565b90507f000000000000000000000000000000000000000000000000000000000000000073ffffffffffffffffffffffffffffffffffffffff16635a1095f385838151811061287457612873613976565b5b60200260200101516040518263ffffffff1660e01b81526004016128989190612c15565b600060405180830381600087803b1580156128b257600080fd5b505af11580156128c6573d6000803e3d6000fd5b505050505080806128d690613a7b565b915050612784565b50505080806128ec90613a7b565b915050612600565b507fcda6b16767f05ec2f16325d372b235b450091ed813db76d6c3d98a26e52078a560405160405180910390a16000600260016101000a81548160ff0219169083600381111561294757612946612b6a565b5b02179055507f000000000000000000000000000000000000000000000000000000000000000073ffffffffffffffffffffffffffffffffffffffff1663c758c12660036040518263ffffffff1660e01b81526004016129a69190613dbf565b600060405180830381600087803b1580156129c057600080fd5b505af11580156129d4573d6000803e3d6000fd5b505050505050565b828054828255906000526020600020908101928215612a55579160200282015b82811115612a545782518260006101000a81548173ffffffffffffffffffffffffffffffffffffffff021916908373ffffffffffffffffffffffffffffffffffffffff160217905550916020019190600101906129fc565b5b509050612a629190612b4d565b5090565b826004601f01602090048101928215612aef5791602002820160005b83821115612ac057835183826101000a81548160ff021916908360ff1602179055509260200192600101602081600001049283019260010302612a82565b8015612aed5782816101000a81549060ff0219169055600101602081600001049283019260010302612ac0565b505b509050612afc9190612b4d565b5090565b828054828255906000526020600020908101928215612b3c579160200282015b82811115612b3b578251825591602001919060010190612b20565b5b509050612b499190612b4d565b5090565b5b80821115612b66576000816000905550600101612b4e565b5090565b7f4e487b7100000000000000000000000000000000000000000000000000000000600052602160045260246000fd5b60028110612baa57612ba9612b6a565b5b50565b6000819050612bbb82612b99565b919050565b6000612bcb82612bad565b9050919050565b612bdb81612bc0565b82525050565b6000602082019050612bf66000830184612bd2565b92915050565b6000819050919050565b612c0f81612bfc565b82525050565b6000602082019050612c2a6000830184612c06565b92915050565b6000604051905090565b600080fd5b600080fd5b600060ff82169050919050565b612c5a81612c44565b8114612c6557600080fd5b50565b600081359050612c7781612c51565b92915050565b612c8681612bfc565b8114612c9157600080fd5b50565b600081359050612ca381612c7d565b92915050565b600080600060608486031215612cc257612cc1612c3a565b5b6000612cd086828701612c68565b9350506020612ce186828701612c68565b9250506040612cf286828701612c94565b9150509250925092565b600073ffffffffffffffffffffffffffffffffffffffff82169050919050565b6000612d2782612cfc565b9050919050565b612d3781612d1c565b8114612d4257600080fd5b50565b600081359050612d5481612d2e565b92915050565b600060208284031215612d7057612d6f612c3a565b5b6000612d7e84828501612d45565b91505092915050565b60008115159050919050565b612d9c81612d87565b82525050565b6000602082019050612db76000830184612d93565b92915050565b600080fd5b6000601f19601f8301169050919050565b7f4e487b7100000000000000000000000000000000000000000000000000000000600052604160045260246000fd5b612e0b82612dc2565b810181811067ffffffffffffffff82111715612e2a57612e29612dd3565b5b80604052505050565b6000612e3d612c30565b9050612e498282612e02565b919050565b600067ffffffffffffffff821115612e6957612e68612dd3565b5b602082029050602081019050919050565b600080fd5b6000612e92612e8d84612e4e565b612e33565b90508083825260208201905060208402830185811115612eb557612eb4612e7a565b5b835b81811015612ede5780612eca8882612c94565b845260208401935050602081019050612eb7565b5050509392505050565b600082601f830112612efd57612efc612dbd565b5b8135612f0d848260208601612e7f565b91505092915050565b60008060408385031215612f2d57612f2c612c3a565b5b6000612f3b85828601612c94565b925050602083013567ffffffffffffffff811115612f5c57612f5b612c3f565b5b612f6885828601612ee8565b9150509250929050565b612f7b81612d1c565b82525050565b6000602082019050612f966000830184612f72565b92915050565b60008060408385031215612fb357612fb2612c3a565b5b6000612fc185828601612c68565b9250506020612fd285828601612c68565b9150509250929050565b600081519050919050565b600082825260208201905092915050565b6000819050602082019050919050565b61301181612bfc565b82525050565b60006130238383613008565b60208301905092915050565b6000602082019050919050565b600061304782612fdc565b6130518185612fe7565b935061305c83612ff8565b8060005b8381101561308d5781516130748882613017565b975061307f8361302f565b925050600181019050613060565b5085935050505092915050565b600060208201905081810360008301526130b4818461303c565b905092915050565b600281106130cd576130cc612b6a565b5b50565b60008190506130de826130bc565b919050565b60006130ee826130d0565b9050919050565b6130fe816130e3565b82525050565b600060208201905061311960008301846130f5565b92915050565b600281106131305761312f612b6a565b5b50565b60008190506131418261311f565b919050565b600061315182613133565b9050919050565b61316181613146565b82525050565b600060208201905061317c6000830184613158565b92915050565b6004811061319357613192612b6a565b5b50565b60008190506131a482613182565b919050565b60006131b482613196565b9050919050565b6131c4816131a9565b82525050565b60006020820190506131df60008301846131bb565b92915050565b6000602082840312156131fb576131fa612c3a565b5b600061320984828501612c94565b91505092915050565b600061321d82612cfc565b9050919050565b61322d81613212565b82525050565b60006020820190506132486000830184613224565b92915050565b6000819050919050565b6132618161324e565b82525050565b600060208201905061327c6000830184613258565b92915050565b600067ffffffffffffffff82169050919050565b61329f81613282565b82525050565b60006020820190506132ba6000830184613296565b92915050565b600063ffffffff82169050919050565b6132d9816132c0565b82525050565b60006020820190506132f460008301846132d0565b92915050565b60008151905061330981612d2e565b92915050565b60006020828403121561332557613324612c3a565b5b6000613333848285016132fa565b91505092915050565b61334581612d87565b811461335057600080fd5b50565b6000815190506133628161333c565b92915050565b60006020828403121561337e5761337d612c3a565b5b600061338c84828501613353565b91505092915050565b600082825260208201905092915050565b7f49742069732063757272656e746c79206e6f742061747461636b20706861736560008201527f2100000000000000000000000000000000000000000000000000000000000000602082015250565b6000613402602183613395565b915061340d826133a6565b604082019050919050565b60006020820190508181036000830152613431816133f5565b9050919050565b61344181612c44565b82525050565b600060608201905061345c6000830186613438565b6134696020830185613438565b6134766040830184612c06565b949350505050565b600081905092915050565b50565b600061349960008361347e565b91506134a482613489565b600082019050919050565b60006134ba8261348c565b9150819050919050565b60006040820190506134d96000830185612f72565b6134e66020830184612f72565b9392505050565b7f49742069732063757272656e746c79206e6f7420666f7274696679207068617360008201527f6521000000000000000000000000000000000000000000000000000000000000602082015250565b6000613549602283613395565b9150613554826134ed565b604082019050919050565b600060208201905081810360008301526135788161353c565b9050919050565b7f596f757220666f7274696669636174696f6e20617474656d7074206661696c6560008201527f6400000000000000000000000000000000000000000000000000000000000000602082015250565b60006135db602183613395565b91506135e68261357f565b604082019050919050565b6000602082019050818103600083015261360a816135ce565b9050919050565b7f49742069732063757272656e746c79206e6f74206465706c6f7920706861736560008201527f2100000000000000000000000000000000000000000000000000000000000000602082015250565b600061366d602183613395565b915061367882613611565b604082019050919050565b6000602082019050818103600083015261369c81613660565b9050919050565b6000815190506136b281612c51565b92915050565b6000602082840312156136ce576136cd612c3a565b5b60006136dc848285016136a3565b91505092915050565b7f596f7520646f206e6f7420686176652074686174206d616e792074726f6f707360008201527f20746f206465706c6f7921000000000000000000000000000000000000000000602082015250565b6000613741602b83613395565b915061374c826136e5565b604082019050919050565b6000602082019050818103600083015261377081613734565b9050919050565b600060408201905061378c6000830185613438565b6137996020830184613438565b9392505050565b7f436f6e74726f6c7320636f6e74726163742068617320616c726561647920726560008201527f636569766564204d61696e206164647265737300000000000000000000000000602082015250565b60006137fc603383613395565b9150613807826137a0565b604082019050919050565b6000602082019050818103600083015261382b816137ef565b9050919050565b7f53656e64204d6f726520746f20456e746572204c6f6262790000000000000000600082015250565b6000613868601883613395565b915061387382613832565b602082019050919050565b600060208201905081810360008301526138978161385b565b9050919050565b7f4c6f6262792069732066756c6c00000000000000000000000000000000000000600082015250565b60006138d4600d83613395565b91506138df8261389e565b602082019050919050565b60006020820190508181036000830152613903816138c7565b9050919050565b7f596f7527766520616c726561647920656e7465726564207468652067616d6521600082015250565b6000613940602083613395565b915061394b8261390a565b602082019050919050565b6000602082019050818103600083015261396f81613933565b9050919050565b7f4e487b7100000000000000000000000000000000000000000000000000000000600052603260045260246000fd5b600081519050919050565b60005b838110156139ce5780820151818401526020810190506139b3565b838111156139dd576000848401525b50505050565b60006139ee826139a5565b6139f88185613395565b9350613a088185602086016139b0565b613a1181612dc2565b840191505092915050565b60006040820190508181036000830152613a3681856139e3565b9050613a456020830184612f72565b9392505050565b7f4e487b7100000000000000000000000000000000000000000000000000000000600052601160045260246000fd5b6000613a8682612bfc565b91507fffffffffffffffffffffffffffffffffffffffffffffffffffffffffffffffff821415613ab957613ab8613a4c565b5b600182019050919050565b60006020820190508181036000830152613ade81846139e3565b905092915050565b600061ffff82169050919050565b613afd81613ae6565b82525050565b600060a082019050613b186000830188613258565b613b256020830187613296565b613b326040830186613af4565b613b3f60608301856132d0565b613b4c60808301846132d0565b9695505050505050565b600081519050613b6581612c7d565b92915050565b600060208284031215613b8157613b80612c3a565b5b6000613b8f84828501613b56565b91505092915050565b7f4e487b7100000000000000000000000000000000000000000000000000000000600052601260045260246000fd5b6000613bd282612bfc565b9150613bdd83612bfc565b925082613bed57613bec613b98565b5b828206905092915050565b6000602082019050613c0d6000830184613438565b92915050565b6000613c1e82612c44565b915060ff821415613c3257613c31613a4c565b5b600182019050919050565b6000613c4882612c44565b91506000821415613c5c57613c5b613a4c565b5b600182039050919050565b6000613c7282612c44565b9150613c7d83612c44565b925082821015613c9057613c8f613a4c565b5b828203905092915050565b600081549050919050565b600082825260208201905092915050565b60008190508160005260206000209050919050565b613cd581613212565b82525050565b6000613ce78383613ccc565b60208301905092915050565b60008160001c9050919050565b600073ffffffffffffffffffffffffffffffffffffffff82169050919050565b6000613d33613d2e83613cf3565b613d00565b9050919050565b6000613d468254613d20565b9050919050565b6000600182019050919050565b6000613d6582613c9b565b613d6f8185613ca6565b9350613d7a83613cb7565b8060005b83811015613db257613d8f82613d3a565b613d998882613cdb565b9750613da483613d4d565b925050600181019050613d7e565b5085935050505092915050565b60006020820190508181036000830152613dd98184613d5a565b90509291505056fea2646970667358221220bef8be098dd61c6f01818d9ece2e3aa8bb5de89a2829f45f4f2a6b47fe964a8a64736f6c63430008080033",
  "devdoc": {
    "kind": "dev",
    "methods": {},
    "version": 1
  },
  "userdoc": {
    "kind": "user",
    "methods": {
      "getRandomWordsArray()": {
        "notice": "Getter Functions "
      }
    },
    "version": 1
  },
  "storageLayout": {
    "storage": [
      {
        "astId": 2684,
        "contract": "contracts/Main.sol:Main",
        "label": "territoriesAssigned",
        "offset": 0,
        "slot": "0",
        "type": "t_array(t_uint8)4_storage"
      },
      {
        "astId": 2687,
        "contract": "contracts/Main.sol:Main",
        "label": "s_randomWordsArray",
        "offset": 0,
        "slot": "1",
        "type": "t_array(t_uint256)dyn_storage"
      },
      {
        "astId": 2690,
        "contract": "contracts/Main.sol:Main",
        "label": "s_territoryState",
        "offset": 0,
        "slot": "2",
        "type": "t_enum(TerritoryState)2646"
      },
      {
        "astId": 2693,
        "contract": "contracts/Main.sol:Main",
        "label": "s_gameState",
        "offset": 1,
        "slot": "2",
        "type": "t_enum(GameState)2654"
      },
      {
        "astId": 2696,
        "contract": "contracts/Main.sol:Main",
        "label": "s_lobbyState",
        "offset": 2,
        "slot": "2",
        "type": "t_enum(LobbyState)2649"
      },
      {
        "astId": 2699,
        "contract": "contracts/Main.sol:Main",
        "label": "s_players",
        "offset": 0,
        "slot": "3",
        "type": "t_array(t_address_payable)dyn_storage"
      },
      {
        "astId": 2701,
        "contract": "contracts/Main.sol:Main",
        "label": "player_turn",
        "offset": 0,
        "slot": "4",
        "type": "t_address"
      },
      {
        "astId": 2704,
        "contract": "contracts/Main.sol:Main",
        "label": "s_mainSet",
        "offset": 20,
        "slot": "4",
        "type": "t_enum(mainAddressSent)2657"
      },
      {
        "astId": 2708,
        "contract": "contracts/Main.sol:Main",
        "label": "duplicateAddresses",
        "offset": 0,
        "slot": "5",
        "type": "t_mapping(t_address,t_bool)"
      },
      {
        "astId": 2711,
        "contract": "contracts/Main.sol:Main",
        "label": "s_lobbyEntrants",
        "offset": 0,
        "slot": "6",
        "type": "t_array(t_address_payable)dyn_storage"
      }
    ],
    "types": {
      "t_address": {
        "encoding": "inplace",
        "label": "address",
        "numberOfBytes": "20"
      },
      "t_address_payable": {
        "encoding": "inplace",
        "label": "address payable",
        "numberOfBytes": "20"
      },
      "t_array(t_address_payable)dyn_storage": {
        "base": "t_address_payable",
        "encoding": "dynamic_array",
        "label": "address payable[]",
        "numberOfBytes": "32"
      },
      "t_array(t_uint256)dyn_storage": {
        "base": "t_uint256",
        "encoding": "dynamic_array",
        "label": "uint256[]",
        "numberOfBytes": "32"
      },
      "t_array(t_uint8)4_storage": {
        "base": "t_uint8",
        "encoding": "inplace",
        "label": "uint8[4]",
        "numberOfBytes": "32"
      },
      "t_bool": {
        "encoding": "inplace",
        "label": "bool",
        "numberOfBytes": "1"
      },
      "t_enum(GameState)2654": {
        "encoding": "inplace",
        "label": "enum Main.GameState",
        "numberOfBytes": "1"
      },
      "t_enum(LobbyState)2649": {
        "encoding": "inplace",
        "label": "enum Main.LobbyState",
        "numberOfBytes": "1"
      },
      "t_enum(TerritoryState)2646": {
        "encoding": "inplace",
        "label": "enum Main.TerritoryState",
        "numberOfBytes": "1"
      },
      "t_enum(mainAddressSent)2657": {
        "encoding": "inplace",
        "label": "enum Main.mainAddressSent",
        "numberOfBytes": "1"
      },
      "t_mapping(t_address,t_bool)": {
        "encoding": "mapping",
        "key": "t_address",
        "label": "mapping(address => bool)",
        "numberOfBytes": "32",
        "value": "t_bool"
      },
      "t_uint256": {
        "encoding": "inplace",
        "label": "uint256",
        "numberOfBytes": "32"
      },
      "t_uint8": {
        "encoding": "inplace",
        "label": "uint8",
        "numberOfBytes": "1"
      }
    }
  }
}