{
  "address": "0x2279B7A0a67DB372996a5FaB50D91eAA73d2eBe6",
  "abi": [
    {
      "inputs": [
        {
          "internalType": "address",
          "name": "vrfCoordinatorV2",
          "type": "address"
        },
        {
          "internalType": "uint64",
          "name": "subscriptionId",
          "type": "uint64"
        },
        {
          "internalType": "bytes32",
          "name": "gasLane",
          "type": "bytes32"
        },
        {
          "internalType": "uint32",
          "name": "callbackGasLimit",
          "type": "uint32"
        },
        {
          "internalType": "uint256",
          "name": "entranceFee",
          "type": "uint256"
        },
        {
          "internalType": "address",
          "name": "controls",
          "type": "address"
        },
        {
          "internalType": "address",
          "name": "data",
          "type": "address"
        }
      ],
      "stateMutability": "nonpayable",
      "type": "constructor"
    },
    {
      "inputs": [
        {
          "internalType": "address",
          "name": "have",
          "type": "address"
        },
        {
          "internalType": "address",
          "name": "want",
          "type": "address"
        }
      ],
      "name": "OnlyCoordinatorCanFulfill",
      "type": "error"
    },
    {
      "inputs": [],
      "name": "Transfer___Failed",
      "type": "error"
    },
    {
      "anonymous": false,
      "inputs": [],
      "name": "GameSetupComplete",
      "type": "event"
    },
    {
      "anonymous": false,
      "inputs": [],
      "name": "GameStarting",
      "type": "event"
    },
    {
      "anonymous": false,
      "inputs": [],
      "name": "MainReset",
      "type": "event"
    },
    {
      "anonymous": false,
      "inputs": [
        {
          "indexed": true,
          "internalType": "address",
          "name": "player",
          "type": "address"
        }
      ],
      "name": "PlayerJoinedLobby",
      "type": "event"
    },
    {
      "anonymous": false,
      "inputs": [
        {
          "indexed": true,
          "internalType": "uint256",
          "name": "requestId",
          "type": "uint256"
        }
      ],
      "name": "RequestedRandomness",
      "type": "event"
    },
    {
      "anonymous": false,
      "inputs": [
        {
          "indexed": true,
          "internalType": "address",
          "name": "player",
          "type": "address"
        }
      ],
      "name": "WinnerSentFunds",
      "type": "event"
    },
    {
      "anonymous": false,
      "inputs": [],
      "name": "gotRandomness",
      "type": "event"
    },
    {
      "inputs": [
        {
          "internalType": "uint8",
          "name": "useThisTerritory",
          "type": "uint8"
        },
        {
          "internalType": "uint8",
          "name": "toAttackThisTerritory",
          "type": "uint8"
        },
        {
          "internalType": "uint256",
          "name": "withTroopQuantity",
          "type": "uint256"
        }
      ],
      "name": "attack",
      "outputs": [],
      "stateMutability": "nonpayable",
      "type": "function"
    },
    {
      "inputs": [
        {
          "internalType": "bytes",
          "name": "",
          "type": "bytes"
        }
      ],
      "name": "checkUpkeep",
      "outputs": [
        {
          "internalType": "bool",
          "name": "upkeepNeeded",
          "type": "bool"
        },
        {
          "internalType": "bytes",
          "name": "",
          "type": "bytes"
        }
      ],
      "stateMutability": "view",
      "type": "function"
    },
    {
      "inputs": [
        {
          "internalType": "uint8",
          "name": "amountToDeploy",
          "type": "uint8"
        },
        {
          "internalType": "uint8",
          "name": "location",
          "type": "uint8"
        }
      ],
      "name": "deploy",
      "outputs": [],
      "stateMutability": "nonpayable",
      "type": "function"
    },
    {
      "inputs": [
        {
          "internalType": "address",
          "name": "",
          "type": "address"
        }
      ],
      "name": "duplicateAddresses",
      "outputs": [
        {
          "internalType": "bool",
          "name": "",
          "type": "bool"
        }
      ],
      "stateMutability": "view",
      "type": "function"
    },
    {
      "inputs": [],
      "name": "enterLobby",
      "outputs": [],
      "stateMutability": "payable",
      "type": "function"
    },
    {
      "inputs": [],
      "name": "finishAttack",
      "outputs": [],
      "stateMutability": "nonpayable",
      "type": "function"
    },
    {
      "inputs": [
        {
          "internalType": "uint8",
          "name": "territoryMovingFrom",
          "type": "uint8"
        },
        {
          "internalType": "uint8",
          "name": "territoryMovingTo",
          "type": "uint8"
        },
        {
          "internalType": "uint256",
          "name": "troopsMoving",
          "type": "uint256"
        }
      ],
      "name": "fortify",
      "outputs": [],
      "stateMutability": "nonpayable",
      "type": "function"
    },
    {
      "inputs": [],
      "name": "getCallbackGasLimit",
      "outputs": [
        {
          "internalType": "uint32",
          "name": "",
          "type": "uint32"
        }
      ],
      "stateMutability": "view",
      "type": "function"
    },
    {
      "inputs": [
        {
          "internalType": "uint256",
          "name": "n",
          "type": "uint256"
        },
        {
          "internalType": "uint256",
          "name": "index",
          "type": "uint256"
        }
      ],
      "name": "getDigitAtIndex",
      "outputs": [
        {
          "internalType": "uint256",
          "name": "",
          "type": "uint256"
        }
      ],
      "stateMutability": "pure",
      "type": "function"
    },
    {
      "inputs": [],
      "name": "getEntranceFee",
      "outputs": [
        {
          "internalType": "uint256",
          "name": "",
          "type": "uint256"
        }
      ],
      "stateMutability": "view",
      "type": "function"
    },
    {
      "inputs": [],
      "name": "getGasLane",
      "outputs": [
        {
          "internalType": "bytes32",
          "name": "",
          "type": "bytes32"
        }
      ],
      "stateMutability": "view",
      "type": "function"
    },
    {
      "inputs": [],
      "name": "getLobbyState",
      "outputs": [
        {
          "internalType": "enum Main.LobbyState",
          "name": "",
          "type": "uint8"
        }
      ],
      "stateMutability": "view",
      "type": "function"
    },
    {
      "inputs": [],
      "name": "getNumberOfPlayers",
      "outputs": [
        {
          "internalType": "uint256",
          "name": "",
          "type": "uint256"
        }
      ],
      "stateMutability": "view",
      "type": "function"
    },
    {
      "inputs": [
        {
          "internalType": "uint256",
          "name": "index",
          "type": "uint256"
        }
      ],
      "name": "getPlayer",
      "outputs": [
        {
          "internalType": "address",
          "name": "",
          "type": "address"
        }
      ],
      "stateMutability": "view",
      "type": "function"
    },
    {
      "inputs": [],
      "name": "getRequestConfirmations",
      "outputs": [
        {
          "internalType": "uint256",
          "name": "",
          "type": "uint256"
        }
      ],
      "stateMutability": "pure",
      "type": "function"
    },
    {
      "inputs": [],
      "name": "getSubscriptionId",
      "outputs": [
        {
          "internalType": "uint64",
          "name": "",
          "type": "uint64"
        }
      ],
      "stateMutability": "view",
      "type": "function"
    },
    {
      "inputs": [
        {
          "internalType": "uint256",
          "name": "number",
          "type": "uint256"
        }
      ],
      "name": "numDigits",
      "outputs": [
        {
          "internalType": "uint256",
          "name": "",
          "type": "uint256"
        }
      ],
      "stateMutability": "pure",
      "type": "function"
    },
    {
      "inputs": [
        {
          "internalType": "address",
          "name": "winner",
          "type": "address"
        }
      ],
      "name": "payWinner",
      "outputs": [
        {
          "internalType": "bool",
          "name": "",
          "type": "bool"
        }
      ],
      "stateMutability": "nonpayable",
      "type": "function"
    },
    {
      "inputs": [
        {
          "internalType": "bytes",
          "name": "",
          "type": "bytes"
        }
      ],
      "name": "performUpkeep",
      "outputs": [],
      "stateMutability": "nonpayable",
      "type": "function"
    },
    {
      "inputs": [],
      "name": "player_turn",
      "outputs": [
        {
          "internalType": "address",
          "name": "",
          "type": "address"
        }
      ],
      "stateMutability": "view",
      "type": "function"
    },
    {
      "inputs": [
        {
          "internalType": "uint256",
          "name": "requestId",
          "type": "uint256"
        },
        {
          "internalType": "uint256[]",
          "name": "randomWords",
          "type": "uint256[]"
        }
      ],
      "name": "rawFulfillRandomWords",
      "outputs": [],
      "stateMutability": "nonpayable",
      "type": "function"
    },
    {
      "inputs": [],
      "name": "s_gameState",
      "outputs": [
        {
          "internalType": "enum Main.GameState",
          "name": "",
          "type": "uint8"
        }
      ],
      "stateMutability": "view",
      "type": "function"
    },
    {
      "inputs": [],
      "name": "s_hasRandomWords",
      "outputs": [
        {
          "internalType": "enum Main.RandomState",
          "name": "",
          "type": "uint8"
        }
      ],
      "stateMutability": "view",
      "type": "function"
    },
    {
      "inputs": [
        {
          "internalType": "uint256",
          "name": "",
          "type": "uint256"
        }
      ],
      "name": "s_lobbyEntrants",
      "outputs": [
        {
          "internalType": "address payable",
          "name": "",
          "type": "address"
        }
      ],
      "stateMutability": "view",
      "type": "function"
    },
    {
      "inputs": [],
      "name": "s_lobbyState",
      "outputs": [
        {
          "internalType": "enum Main.LobbyState",
          "name": "",
          "type": "uint8"
        }
      ],
      "stateMutability": "view",
      "type": "function"
    },
    {
      "inputs": [],
      "name": "s_mainSet",
      "outputs": [
        {
          "internalType": "enum Main.mainAddressSent",
          "name": "",
          "type": "uint8"
        }
      ],
      "stateMutability": "view",
      "type": "function"
    },
    {
      "inputs": [
        {
          "internalType": "uint256",
          "name": "",
          "type": "uint256"
        }
      ],
      "name": "s_players",
      "outputs": [
        {
          "internalType": "address payable",
          "name": "",
          "type": "address"
        }
      ],
      "stateMutability": "view",
      "type": "function"
    },
    {
      "inputs": [],
      "name": "setMainAddress",
      "outputs": [],
      "stateMutability": "nonpayable",
      "type": "function"
    }
  ],
  "transactionHash": "0xb954e28b64ffa745db07a059e93aa0d1af37e2722c2731810fdb3b2a9427c9fa",
  "args": [
    "0x5FbDB2315678afecb367f032d93F642f64180aa3",
    "2",
    "0x79d3d8832d904592c0bf9818b621522c988bb8b0c05cdc3b15aea1b6e8db0c15",
    "30000000",
    "100000000000000000",
    "0xDc64a140Aa3E981100a9becA4E685f962f0cF6C9",
    "0xe7f1725E7734CE288F8367e1Bb143E90bb3F0512"
  ],
  "numDeployments": 1,
  "solcInputHash": "66616a7f35cb90b0f4b8316a764eb033",
  "bytecode": "0x6101806040523480156200001257600080fd5b5060405162004b2e38038062004b2e83398181016040528101906200003891906200035b565b868073ffffffffffffffffffffffffffffffffffffffff1660808173ffffffffffffffffffffffffffffffffffffffff1660601b81525050508673ffffffffffffffffffffffffffffffffffffffff1660a08173ffffffffffffffffffffffffffffffffffffffff1660601b815250508567ffffffffffffffff1660c08167ffffffffffffffff1660c01b815250508460e081815250508363ffffffff166101008163ffffffff1660e01b8152505082610120818152505060008060016101000a81548160ff021916908360018111156200011857620001176200040e565b5b021790555060036000806101000a81548160ff021916908360038111156200014557620001446200040e565b5b02179055506001600260146101000a81548160ff021916908360018111156200017357620001726200040e565b5b02179055508173ffffffffffffffffffffffffffffffffffffffff166101408173ffffffffffffffffffffffffffffffffffffffff1660601b815250508073ffffffffffffffffffffffffffffffffffffffff166101608173ffffffffffffffffffffffffffffffffffffffff1660601b81525050505050505050506200043d565b600080fd5b600073ffffffffffffffffffffffffffffffffffffffff82169050919050565b60006200022782620001fa565b9050919050565b62000239816200021a565b81146200024557600080fd5b50565b60008151905062000259816200022e565b92915050565b600067ffffffffffffffff82169050919050565b6200027e816200025f565b81146200028a57600080fd5b50565b6000815190506200029e8162000273565b92915050565b6000819050919050565b620002b981620002a4565b8114620002c557600080fd5b50565b600081519050620002d981620002ae565b92915050565b600063ffffffff82169050919050565b620002fa81620002df565b81146200030657600080fd5b50565b6000815190506200031a81620002ef565b92915050565b6000819050919050565b620003358162000320565b81146200034157600080fd5b50565b60008151905062000355816200032a565b92915050565b600080600080600080600060e0888a0312156200037d576200037c620001f5565b5b60006200038d8a828b0162000248565b9750506020620003a08a828b016200028d565b9650506040620003b38a828b01620002c8565b9550506060620003c68a828b0162000309565b9450506080620003d98a828b0162000344565b93505060a0620003ec8a828b0162000248565b92505060c0620003ff8a828b0162000248565b91505092959891949750929550565b7f4e487b7100000000000000000000000000000000000000000000000000000000600052602160045260246000fd5b60805160601c60a05160601c60c05160c01c60e0516101005160e01c610120516101405160601c6101605160601c6145aa620005846000396000505060008181610701015281816107da015281816108f8015281816109ae01528181610bbd01528181610d0a01528181610e5001528181610f9901528181611081015281816111cb0152818161125b01528181611334015281816115650152818161202c0152818161236001528181612444015281816125280152818161260c0152818161277b015281816128460152818161295b01528181612a2601528181612b3b01528181612c0601528181612d270152612df20152600081816106c501526116d4015260008181611a700152611ec801526000818161166f0152611e84015260008181611a480152611ea501526000611e48015260008181610afd0152610b5101526145aa6000f3fe6080604052600436106101b75760003560e01c806371e6c842116100ec578063d9eb8a441161008a578063de8be8e711610064578063de8be8e7146105de578063e55ae4e814610609578063ef00ebb314610646578063fd6673f514610683576101b7565b8063d9eb8a441461056c578063db9d28d514610576578063de3d9fb7146105b3576101b7565b8063a6ac3b10116100c6578063a6ac3b101461049c578063ae771f6b146104c7578063c19dd76b14610504578063d4e94c461461052f576101b7565b806371e6c8421461042f5780638d2ed9971461045a57806399c914fb14610485576101b7565b80633691770a116101595780634585e33b116101335780634585e33b14610386578063505e53ab146103af5780635f1b0fd8146103c65780636e04ff0d146103f1576101b7565b80633691770a146103095780633b63601e146103325780633d777d951461035d576101b7565b806314b1f9071161019557806314b1f9071461023d5780631664bb631461026657806319b09f9b146102a35780631fe543e3146102e0576101b7565b806304889afb146101bc57806309bc33a7146101e75780630fb081df14610212575b600080fd5b3480156101c857600080fd5b506101d16106ae565b6040516101de9190612ff7565b60405180910390f35b3480156101f357600080fd5b506101fc6106c1565b604051610209919061302b565b60405180910390f35b34801561021e57600080fd5b506102276106e9565b6040516102349190612ff7565b60405180910390f35b34801561024957600080fd5b50610264600480360381019061025f91906130bf565b6106ff565b005b34801561027257600080fd5b5061028d60048036038101906102889190613170565b61098a565b60405161029a91906131b8565b60405180910390f35b3480156102af57600080fd5b506102ca60048036038101906102c59190613170565b6109aa565b6040516102d791906131b8565b60405180910390f35b3480156102ec57600080fd5b506103076004803603810190610302919061332c565b610afb565b005b34801561031557600080fd5b50610330600480360381019061032b91906130bf565b610bbb565b005b34801561033e57600080fd5b50610347610e28565b6040516103549190613397565b60405180910390f35b34801561036957600080fd5b50610384600480360381019061037f91906133b2565b610e4e565b005b34801561039257600080fd5b506103ad60048036038101906103a8919061344d565b61116b565b005b3480156103bb57600080fd5b506103c4611259565b005b3480156103d257600080fd5b506103db611408565b6040516103e8919061302b565b60405180910390f35b3480156103fd57600080fd5b506104186004803603810190610413919061354f565b611415565b604051610426929190613620565b60405180910390f35b34801561043b57600080fd5b506104446114c8565b6040516104519190613698565b60405180910390f35b34801561046657600080fd5b5061046f6114db565b60405161047c91906136fb565b60405180910390f35b34801561049157600080fd5b5061049a6114ee565b005b3480156104a857600080fd5b506104b161161b565b6040516104be919061375e565b60405180910390f35b3480156104d357600080fd5b506104ee60048036038101906104e99190613779565b61162c565b6040516104fb91906137c7565b60405180910390f35b34801561051057600080fd5b5061051961166b565b60405161052691906137fb565b60405180910390f35b34801561053b57600080fd5b5061055660048036038101906105519190613779565b611693565b60405161056391906137c7565b60405180910390f35b6105746116d2565b005b34801561058257600080fd5b5061059d60048036038101906105989190613779565b611a0f565b6040516105aa919061302b565b60405180910390f35b3480156105bf57600080fd5b506105c8611a44565b6040516105d59190613839565b60405180910390f35b3480156105ea57600080fd5b506105f3611a6c565b6040516106009190613873565b60405180910390f35b34801561061557600080fd5b50610630600480360381019061062b9190613779565b611a94565b60405161063d9190613397565b60405180910390f35b34801561065257600080fd5b5061066d6004803603810190610668919061388e565b611adc565b60405161067a919061302b565b60405180910390f35b34801561068f57600080fd5b50610698611b0a565b6040516106a5919061302b565b60405180910390f35b600060019054906101000a900460ff1681565b60007f0000000000000000000000000000000000000000000000000000000000000000905090565b60008060019054906101000a900460ff16905090565b7f000000000000000000000000000000000000000000000000000000000000000073ffffffffffffffffffffffffffffffffffffffff16632572cd6e6040518163ffffffff1660e01b815260040160206040518083038186803b15801561076557600080fd5b505afa158015610779573d6000803e3d6000fd5b505050506040513d601f19601f8201168201806040525081019061079d91906138e3565b73ffffffffffffffffffffffffffffffffffffffff163373ffffffffffffffffffffffffffffffffffffffff16146107d457600080fd5b600015157f000000000000000000000000000000000000000000000000000000000000000073ffffffffffffffffffffffffffffffffffffffff1663af0b94d46040518163ffffffff1660e01b815260040160206040518083038186803b15801561083e57600080fd5b505afa158015610852573d6000803e3d6000fd5b505050506040513d601f19601f82011682018060405250810190610876919061393c565b15151461088257600080fd5b6001600381111561089657610895612f80565b5b60008054906101000a900460ff1660038111156108b6576108b5612f80565b5b146108f6576040517f08c379a00000000000000000000000000000000000000000000000000000000081526004016108ed906139ec565b60405180910390fd5b7f000000000000000000000000000000000000000000000000000000000000000073ffffffffffffffffffffffffffffffffffffffff1663be85fc768484846040518463ffffffff1660e01b815260040161095393929190613a1b565b600060405180830381600087803b15801561096d57600080fd5b505af1158015610981573d6000803e3d6000fd5b50505050505050565b60036020528060005260406000206000915054906101000a900460ff1681565b60007f000000000000000000000000000000000000000000000000000000000000000073ffffffffffffffffffffffffffffffffffffffff163373ffffffffffffffffffffffffffffffffffffffff1614610a0457600080fd5b60008273ffffffffffffffffffffffffffffffffffffffff1647604051610a2a90613a83565b60006040518083038185875af1925050503d8060008114610a67576040519150601f19603f3d011682016040523d82523d6000602084013e610a6c565b606091505b5050905080610aa7576040517faad40e9700000000000000000000000000000000000000000000000000000000815260040160405180910390fd5b8273ffffffffffffffffffffffffffffffffffffffff167f6484268da2aca55c67beef4127a9a4f83ec74ff7fa3d896a9b23c86e12427e7b60405160405180910390a2610af2611b17565b80915050919050565b7f000000000000000000000000000000000000000000000000000000000000000073ffffffffffffffffffffffffffffffffffffffff163373ffffffffffffffffffffffffffffffffffffffff1614610bad57337f00000000000000000000000000000000000000000000000000000000000000006040517f1cf993f4000000000000000000000000000000000000000000000000000000008152600401610ba4929190613a98565b60405180910390fd5b610bb78282611cb1565b5050565b7f000000000000000000000000000000000000000000000000000000000000000073ffffffffffffffffffffffffffffffffffffffff16632572cd6e6040518163ffffffff1660e01b815260040160206040518083038186803b158015610c2157600080fd5b505afa158015610c35573d6000803e3d6000fd5b505050506040513d601f19601f82011682018060405250810190610c5991906138e3565b73ffffffffffffffffffffffffffffffffffffffff163373ffffffffffffffffffffffffffffffffffffffff1614610c9057600080fd5b60026003811115610ca457610ca3612f80565b5b60008054906101000a900460ff166003811115610cc457610cc3612f80565b5b14610d04576040517f08c379a0000000000000000000000000000000000000000000000000000000008152600401610cfb90613b33565b60405180910390fd5b600115157f000000000000000000000000000000000000000000000000000000000000000073ffffffffffffffffffffffffffffffffffffffff1663ada2c7a88585856040518463ffffffff1660e01b8152600401610d6593929190613a1b565b602060405180830381600087803b158015610d7f57600080fd5b505af1158015610d93573d6000803e3d6000fd5b505050506040513d601f19601f82011682018060405250810190610db7919061393c565b151514610df9576040517f08c379a0000000000000000000000000000000000000000000000000000000008152600401610df090613bc5565b60405180910390fd5b60008060006101000a81548160ff02191690836003811115610e1e57610e1d612f80565b5b0217905550505050565b600260009054906101000a900473ffffffffffffffffffffffffffffffffffffffff1681565b7f000000000000000000000000000000000000000000000000000000000000000073ffffffffffffffffffffffffffffffffffffffff16632572cd6e6040518163ffffffff1660e01b815260040160206040518083038186803b158015610eb457600080fd5b505afa158015610ec8573d6000803e3d6000fd5b505050506040513d601f19601f82011682018060405250810190610eec91906138e3565b73ffffffffffffffffffffffffffffffffffffffff163373ffffffffffffffffffffffffffffffffffffffff1614610f2357600080fd5b60006003811115610f3757610f36612f80565b5b60008054906101000a900460ff166003811115610f5757610f56612f80565b5b14610f97576040517f08c379a0000000000000000000000000000000000000000000000000000000008152600401610f8e90613c57565b60405180910390fd5b7f000000000000000000000000000000000000000000000000000000000000000073ffffffffffffffffffffffffffffffffffffffff1663b6d5bc6f6040518163ffffffff1660e01b815260040160206040518083038186803b158015610ffd57600080fd5b505afa158015611011573d6000803e3d6000fd5b505050506040513d601f19601f820116820180604052508101906110359190613c8c565b60ff168260ff16111561107d576040517f08c379a000000000000000000000000000000000000000000000000000000000815260040161107490613d2b565b60405180910390fd5b60007f000000000000000000000000000000000000000000000000000000000000000073ffffffffffffffffffffffffffffffffffffffff1663041dcfcc84846040518363ffffffff1660e01b81526004016110da929190613d4b565b602060405180830381600087803b1580156110f457600080fd5b505af1158015611108573d6000803e3d6000fd5b505050506040513d601f19601f8201168201806040525081019061112c919061393c565b90506000151581151514156111665760016000806101000a81548160ff021916908360038111156111605761115f612f80565b5b02179055505b505050565b611173611d03565b7fcda6b16767f05ec2f16325d372b235b450091ed813db76d6c3d98a26e52078a560405160405180910390a160008060006101000a81548160ff021916908360038111156111c4576111c3612f80565b5b02179055507f000000000000000000000000000000000000000000000000000000000000000073ffffffffffffffffffffffffffffffffffffffff1663c758c12660016040518263ffffffff1660e01b81526004016112239190613e98565b600060405180830381600087803b15801561123d57600080fd5b505af1158015611251573d6000803e3d6000fd5b505050505050565b7f000000000000000000000000000000000000000000000000000000000000000073ffffffffffffffffffffffffffffffffffffffff16632572cd6e6040518163ffffffff1660e01b815260040160206040518083038186803b1580156112bf57600080fd5b505afa1580156112d3573d6000803e3d6000fd5b505050506040513d601f19601f820116820180604052508101906112f791906138e3565b73ffffffffffffffffffffffffffffffffffffffff163373ffffffffffffffffffffffffffffffffffffffff161461132e57600080fd5b600015157f000000000000000000000000000000000000000000000000000000000000000073ffffffffffffffffffffffffffffffffffffffff1663af0b94d46040518163ffffffff1660e01b815260040160206040518083038186803b15801561139857600080fd5b505afa1580156113ac573d6000803e3d6000fd5b505050506040513d601f19601f820116820180604052508101906113d0919061393c565b1515146113dc57600080fd5b60026000806101000a81548160ff0219169083600381111561140157611400612f80565b5b0217905550565b6000600361ffff16905090565b60006060600060018081111561142e5761142d612f80565b5b600060019054906101000a900460ff1660018111156114505761144f612f80565b5b1490506000600460018054905014905060008047119050600080600181111561147c5761147b612f80565b5b600060029054906101000a900460ff16600181111561149e5761149d612f80565b5b1490508380156114ab5750825b80156114b45750815b80156114bd5750805b955050505050915091565b600060029054906101000a900460ff1681565b600260149054906101000a900460ff1681565b60018081111561150157611500612f80565b5b600260149054906101000a900460ff16600181111561152357611522612f80565b5b14611563576040517f08c379a000000000000000000000000000000000000000000000000000000000815260040161155a90613f2c565b60405180910390fd5b7f000000000000000000000000000000000000000000000000000000000000000073ffffffffffffffffffffffffffffffffffffffff166305ca49b0306040518263ffffffff1660e01b81526004016115bc9190613397565b600060405180830381600087803b1580156115d657600080fd5b505af11580156115ea573d6000803e3d6000fd5b505050506000600260146101000a81548160ff0219169083600181111561161457611613612f80565b5b0217905550565b60008054906101000a900460ff1681565b6001818154811061163c57600080fd5b906000526020600020016000915054906101000a900473ffffffffffffffffffffffffffffffffffffffff1681565b60007f0000000000000000000000000000000000000000000000000000000000000000905090565b600481815481106116a357600080fd5b906000526020600020016000915054906101000a900473ffffffffffffffffffffffffffffffffffffffff1681565b7f0000000000000000000000000000000000000000000000000000000000000000341015611735576040517f08c379a000000000000000000000000000000000000000000000000000000000815260040161172c90613f98565b60405180910390fd5b6000600181111561174957611748612f80565b5b600060019054906101000a900460ff16600181111561176b5761176a612f80565b5b146117ab576040517f08c379a00000000000000000000000000000000000000000000000000000000081526004016117a290614004565b60405180910390fd5b60001515600360003373ffffffffffffffffffffffffffffffffffffffff1673ffffffffffffffffffffffffffffffffffffffff16815260200190815260200160002060009054906101000a900460ff1615151461183e576040517f08c379a000000000000000000000000000000000000000000000000000000000815260040161183590614070565b60405180910390fd5b6001339080600181540180825580915050600190039060005260206000200160009091909190916101000a81548173ffffffffffffffffffffffffffffffffffffffff021916908373ffffffffffffffffffffffffffffffffffffffff1602179055506004339080600181540180825580915050600190039060005260206000200160009091909190916101000a81548173ffffffffffffffffffffffffffffffffffffffff021916908373ffffffffffffffffffffffffffffffffffffffff1602179055503373ffffffffffffffffffffffffffffffffffffffff167fa0df676a3a1d8a4dc693c144ac79c01945b4464a07bccdbf66c068127c32cfd760405160405180910390a26001600360003373ffffffffffffffffffffffffffffffffffffffff1673ffffffffffffffffffffffffffffffffffffffff16815260200190815260200160002060006101000a81548160ff02191690831515021790555060046001805490501415611a0d576001600060016101000a81548160ff021916908360018111156119d3576119d2612f80565b5b02179055507f095744e432dd463fbf0fa4a256e21ddb462dbc9cc4e27248ebd5a28d759cc9e560405160405180910390a1611a0c611e44565b5b565b6000805b60008314611a3b57600a83611a2891906140ee565b925080611a349061411f565b9050611a13565b80915050919050565b60007f0000000000000000000000000000000000000000000000000000000000000000905090565b60007f0000000000000000000000000000000000000000000000000000000000000000905090565b600060018281548110611aaa57611aa9614168565b5b9060005260206000200160009054906101000a900473ffffffffffffffffffffffffffffffffffffffff169050919050565b6000600a82600a611aed91906142ca565b84611af891906140ee565b611b029190614315565b905092915050565b6000600180549050905090565b60008060016101000a81548160ff02191690836001811115611b3c57611b3b612f80565b5b0217905550600067ffffffffffffffff811115611b5c57611b5b6131e9565b5b604051908082528060200260200182016040528015611b8a5781602001602082028036833780820191505090505b5060019080519060200190611ba0929190612eb7565b5060036000806101000a81548160ff02191690836003811115611bc657611bc5612f80565b5b021790555060005b600480549050811015611c825760006003600060048481548110611bf557611bf4614168565b5b9060005260206000200160009054906101000a900473ffffffffffffffffffffffffffffffffffffffff1673ffffffffffffffffffffffffffffffffffffffff1673ffffffffffffffffffffffffffffffffffffffff16815260200190815260200160002060006101000a81548160ff02191690831515021790555080611c7b9061411f565b9050611bce565b507fddf25b659ac34302a47d8558d65f7af2579a28dd349a418009a1754bd599928460405160405180910390a1565b7ffbb70d2846767293cb82ce688c3768de4b71a06d5f547369d2987abd387c2aba60405160405180910390a180600081518110611cf157611cf0614168565b5b60200260200101516005819055505050565b6000602a67ffffffffffffffff811115611d2057611d1f6131e9565b5b604051908082528060200260200182016040528015611d4e5781602001602082028036833780820191505090505b5090506000611d5e600554611a0f565b905060008060005b602a811015611e3457600a80600184611d7f9190614346565b600a611d8b91906142ca565b600554611d9891906140ee565b611da29190614315565b611dac919061439c565b600a83600a611dbb91906142ca565b600554611dc891906140ee565b611dd29190614315565b611ddc9190614346565b925082858281518110611df257611df1614168565b5b60200260200101818152505080611e089061411f565b9050600284611e1791906143f6565b821415611e2357600091505b81611e2d9061411f565b9150611d66565b611e3d85611f8d565b5050505050565b60007f000000000000000000000000000000000000000000000000000000000000000073ffffffffffffffffffffffffffffffffffffffff16635d3b1d307f00000000000000000000000000000000000000000000000000000000000000007f000000000000000000000000000000000000000000000000000000000000000060037f000000000000000000000000000000000000000000000000000000000000000060016040518663ffffffff1660e01b8152600401611f0995949392919061448c565b602060405180830381600087803b158015611f2357600080fd5b505af1158015611f37573d6000803e3d6000fd5b505050506040513d601f19601f82011682018060405250810190611f5b91906144f4565b9050807f5d7d0431c4991fcc9f63f03ad0ead4128b866a8ed115a818b6d87a3afedb726460405160405180910390a250565b611f95612f41565b60006040518060800160405280600060ff168152602001600160ff168152602001600260ff168152602001600360ff1681525090506000600a905060006004905060008060005b602a81101561219e578360ff16888281518110611ffc57611ffb614168565b5b602002602001015161200e9190614315565b925085836004811061202357612022614168565b5b602002015191507f000000000000000000000000000000000000000000000000000000000000000073ffffffffffffffffffffffffffffffffffffffff16630698b7e082846040518363ffffffff1660e01b8152600401612085929190614521565b600060405180830381600087803b15801561209f57600080fd5b505af11580156120b3573d6000803e3d6000fd5b50505050868260ff16600481106120cd576120cc614168565b5b6020020180516120dc9061411f565b9081815250508460ff16878360ff16600481106120fc576120fb614168565b5b6020020151141561218d5785836004811061211a57612119614168565b5b60200201600060ff16815250856001600461213591906143f6565b6004811061214657612145614168565b5b602002015186846004811061215e5761215d614168565b5b602002019060ff16908160ff1681525050836121799061454a565b935060028460ff16141561218c57600b94505b5b806121979061411f565b9050611fdc565b506121a987876121b2565b50505050505050565b600080600090506000836000600481106121cf576121ce614168565b5b602002015167ffffffffffffffff8111156121ed576121ec6131e9565b5b60405190808252806020026020018201604052801561221b5781602001602082028036833780820191505090505b5090506000808560016004811061223557612234614168565b5b602002015167ffffffffffffffff811115612253576122526131e9565b5b6040519080825280602002602001820160405280156122815781602001602082028036833780820191505090505b5090506000808760026004811061229b5761229a614168565b5b602002015167ffffffffffffffff8111156122b9576122b86131e9565b5b6040519080825280602002602001820160405280156122e75781602001602082028036833780820191505090505b5090506000808960036004811061230157612300614168565b5b602002015167ffffffffffffffff81111561231f5761231e6131e9565b5b60405190808252806020026020018201604052801561234d5781602001602082028036833780820191505090505b50905060005b602a8110156126fc5760007f000000000000000000000000000000000000000000000000000000000000000073ffffffffffffffffffffffffffffffffffffffff1663780b5bf9836040518263ffffffff1660e01b81526004016123b7919061302b565b602060405180830381600087803b1580156123d157600080fd5b505af11580156123e5573d6000803e3d6000fd5b505050506040513d601f19601f8201168201806040525081019061240991906144f4565b14156124405780888a8061241c9061411f565b9b508151811061242f5761242e614168565b5b6020026020010181815250506126eb565b60017f000000000000000000000000000000000000000000000000000000000000000073ffffffffffffffffffffffffffffffffffffffff1663780b5bf9836040518263ffffffff1660e01b815260040161249b919061302b565b602060405180830381600087803b1580156124b557600080fd5b505af11580156124c9573d6000803e3d6000fd5b505050506040513d601f19601f820116820180604052508101906124ed91906144f4565b141561252457808688806125009061411f565b99508151811061251357612512614168565b5b6020026020010181815250506126ea565b60027f000000000000000000000000000000000000000000000000000000000000000073ffffffffffffffffffffffffffffffffffffffff1663780b5bf9836040518263ffffffff1660e01b815260040161257f919061302b565b602060405180830381600087803b15801561259957600080fd5b505af11580156125ad573d6000803e3d6000fd5b505050506040513d601f19601f820116820180604052508101906125d191906144f4565b141561260857808486806125e49061411f565b9750815181106125f7576125f6614168565b5b6020026020010181815250506126e9565b60037f000000000000000000000000000000000000000000000000000000000000000073ffffffffffffffffffffffffffffffffffffffff1663780b5bf9836040518263ffffffff1660e01b8152600401612663919061302b565b602060405180830381600087803b15801561267d57600080fd5b505af1158015612691573d6000803e3d6000fd5b505050506040513d601f19601f820116820180604052508101906126b591906144f4565b14156126e857808284806126c89061411f565b9550815181106126db576126da614168565b5b6020026020010181815250505b5b5b5b806126f59061411f565b9050612353565b5060005b6014811015612ea95760008b60006004811061271f5761271e614168565b5b60200201518d8c8151811061273757612736614168565b5b60200260200101516127499190614315565b9050600b8c60006004811061276157612760614168565b5b6020020151148015612774575060138214155b15612823577f000000000000000000000000000000000000000000000000000000000000000073ffffffffffffffffffffffffffffffffffffffff16635a1095f38a83815181106127c8576127c7614168565b5b60200260200101516040518263ffffffff1660e01b81526004016127ec919061302b565b600060405180830381600087803b15801561280657600080fd5b505af115801561281a573d6000803e3d6000fd5b505050506128eb565b600a8c60006004811061283957612838614168565b5b602002015114156128ea577f000000000000000000000000000000000000000000000000000000000000000073ffffffffffffffffffffffffffffffffffffffff16635a1095f38a838151811061289357612892614168565b5b60200260200101516040518263ffffffff1660e01b81526004016128b7919061302b565b600060405180830381600087803b1580156128d157600080fd5b505af11580156128e5573d6000803e3d6000fd5b505050505b5b8b6001600481106128ff576128fe614168565b5b60200201518d8c8151811061291757612916614168565b5b60200260200101516129299190614315565b9050600b8c60016004811061294157612940614168565b5b6020020151148015612954575060138214155b15612a03577f000000000000000000000000000000000000000000000000000000000000000073ffffffffffffffffffffffffffffffffffffffff16635a1095f38883815181106129a8576129a7614168565b5b60200260200101516040518263ffffffff1660e01b81526004016129cc919061302b565b600060405180830381600087803b1580156129e657600080fd5b505af11580156129fa573d6000803e3d6000fd5b50505050612acb565b600a8c600160048110612a1957612a18614168565b5b60200201511415612aca577f000000000000000000000000000000000000000000000000000000000000000073ffffffffffffffffffffffffffffffffffffffff16635a1095f3888381518110612a7357612a72614168565b5b60200260200101516040518263ffffffff1660e01b8152600401612a97919061302b565b600060405180830381600087803b158015612ab157600080fd5b505af1158015612ac5573d6000803e3d6000fd5b505050505b5b8b600260048110612adf57612ade614168565b5b60200201518d8c81518110612af757612af6614168565b5b6020026020010151612b099190614315565b9050600b8c600260048110612b2157612b20614168565b5b6020020151148015612b34575060138214155b15612be3577f000000000000000000000000000000000000000000000000000000000000000073ffffffffffffffffffffffffffffffffffffffff16635a1095f3868381518110612b8857612b87614168565b5b60200260200101516040518263ffffffff1660e01b8152600401612bac919061302b565b600060405180830381600087803b158015612bc657600080fd5b505af1158015612bda573d6000803e3d6000fd5b50505050612cab565b600a8c600260048110612bf957612bf8614168565b5b60200201511415612caa577f000000000000000000000000000000000000000000000000000000000000000073ffffffffffffffffffffffffffffffffffffffff16635a1095f3868381518110612c5357612c52614168565b5b60200260200101516040518263ffffffff1660e01b8152600401612c77919061302b565b600060405180830381600087803b158015612c9157600080fd5b505af1158015612ca5573d6000803e3d6000fd5b505050505b5b8b600360048110612cbf57612cbe614168565b5b60200201518d8c80612cd09061411f565b9d5081518110612ce357612ce2614168565b5b6020026020010151612cf59190614315565b9050600b8c600360048110612d0d57612d0c614168565b5b6020020151148015612d20575060138214155b15612dcf577f000000000000000000000000000000000000000000000000000000000000000073ffffffffffffffffffffffffffffffffffffffff16635a1095f3848381518110612d7457612d73614168565b5b60200260200101516040518263ffffffff1660e01b8152600401612d98919061302b565b600060405180830381600087803b158015612db257600080fd5b505af1158015612dc6573d6000803e3d6000fd5b50505050612e97565b600a8c600360048110612de557612de4614168565b5b60200201511415612e96577f000000000000000000000000000000000000000000000000000000000000000073ffffffffffffffffffffffffffffffffffffffff16635a1095f3848381518110612e3f57612e3e614168565b5b60200260200101516040518263ffffffff1660e01b8152600401612e63919061302b565b600060405180830381600087803b158015612e7d57600080fd5b505af1158015612e91573d6000803e3d6000fd5b505050505b5b5080612ea29061411f565b9050612700565b505050505050505050505050565b828054828255906000526020600020908101928215612f30579160200282015b82811115612f2f5782518260006101000a81548173ffffffffffffffffffffffffffffffffffffffff021916908373ffffffffffffffffffffffffffffffffffffffff16021790555091602001919060010190612ed7565b5b509050612f3d9190612f63565b5090565b6040518060800160405280600490602082028036833780820191505090505090565b5b80821115612f7c576000816000905550600101612f64565b5090565b7f4e487b7100000000000000000000000000000000000000000000000000000000600052602160045260246000fd5b60028110612fc057612fbf612f80565b5b50565b6000819050612fd182612faf565b919050565b6000612fe182612fc3565b9050919050565b612ff181612fd6565b82525050565b600060208201905061300c6000830184612fe8565b92915050565b6000819050919050565b61302581613012565b82525050565b6000602082019050613040600083018461301c565b92915050565b6000604051905090565b600080fd5b600080fd5b600060ff82169050919050565b6130708161305a565b811461307b57600080fd5b50565b60008135905061308d81613067565b92915050565b61309c81613012565b81146130a757600080fd5b50565b6000813590506130b981613093565b92915050565b6000806000606084860312156130d8576130d7613050565b5b60006130e68682870161307e565b93505060206130f78682870161307e565b9250506040613108868287016130aa565b9150509250925092565b600073ffffffffffffffffffffffffffffffffffffffff82169050919050565b600061313d82613112565b9050919050565b61314d81613132565b811461315857600080fd5b50565b60008135905061316a81613144565b92915050565b60006020828403121561318657613185613050565b5b60006131948482850161315b565b91505092915050565b60008115159050919050565b6131b28161319d565b82525050565b60006020820190506131cd60008301846131a9565b92915050565b600080fd5b6000601f19601f8301169050919050565b7f4e487b7100000000000000000000000000000000000000000000000000000000600052604160045260246000fd5b613221826131d8565b810181811067ffffffffffffffff821117156132405761323f6131e9565b5b80604052505050565b6000613253613046565b905061325f8282613218565b919050565b600067ffffffffffffffff82111561327f5761327e6131e9565b5b602082029050602081019050919050565b600080fd5b60006132a86132a384613264565b613249565b905080838252602082019050602084028301858111156132cb576132ca613290565b5b835b818110156132f457806132e088826130aa565b8452602084019350506020810190506132cd565b5050509392505050565b600082601f830112613313576133126131d3565b5b8135613323848260208601613295565b91505092915050565b6000806040838503121561334357613342613050565b5b6000613351858286016130aa565b925050602083013567ffffffffffffffff81111561337257613371613055565b5b61337e858286016132fe565b9150509250929050565b61339181613132565b82525050565b60006020820190506133ac6000830184613388565b92915050565b600080604083850312156133c9576133c8613050565b5b60006133d78582860161307e565b92505060206133e88582860161307e565b9150509250929050565b600080fd5b60008083601f84011261340d5761340c6131d3565b5b8235905067ffffffffffffffff81111561342a576134296133f2565b5b60208301915083600182028301111561344657613445613290565b5b9250929050565b6000806020838503121561346457613463613050565b5b600083013567ffffffffffffffff81111561348257613481613055565b5b61348e858286016133f7565b92509250509250929050565b600080fd5b600067ffffffffffffffff8211156134ba576134b96131e9565b5b6134c3826131d8565b9050602081019050919050565b82818337600083830152505050565b60006134f26134ed8461349f565b613249565b90508281526020810184848401111561350e5761350d61349a565b5b6135198482856134d0565b509392505050565b600082601f830112613536576135356131d3565b5b81356135468482602086016134df565b91505092915050565b60006020828403121561356557613564613050565b5b600082013567ffffffffffffffff81111561358357613582613055565b5b61358f84828501613521565b91505092915050565b600081519050919050565b600082825260208201905092915050565b60005b838110156135d25780820151818401526020810190506135b7565b838111156135e1576000848401525b50505050565b60006135f282613598565b6135fc81856135a3565b935061360c8185602086016135b4565b613615816131d8565b840191505092915050565b600060408201905061363560008301856131a9565b818103602083015261364781846135e7565b90509392505050565b6002811061366157613660612f80565b5b50565b600081905061367282613650565b919050565b600061368282613664565b9050919050565b61369281613677565b82525050565b60006020820190506136ad6000830184613689565b92915050565b600281106136c4576136c3612f80565b5b50565b60008190506136d5826136b3565b919050565b60006136e5826136c7565b9050919050565b6136f5816136da565b82525050565b600060208201905061371060008301846136ec565b92915050565b6004811061372757613726612f80565b5b50565b600081905061373882613716565b919050565b60006137488261372a565b9050919050565b6137588161373d565b82525050565b6000602082019050613773600083018461374f565b92915050565b60006020828403121561378f5761378e613050565b5b600061379d848285016130aa565b91505092915050565b60006137b182613112565b9050919050565b6137c1816137a6565b82525050565b60006020820190506137dc60008301846137b8565b92915050565b6000819050919050565b6137f5816137e2565b82525050565b600060208201905061381060008301846137ec565b92915050565b600067ffffffffffffffff82169050919050565b61383381613816565b82525050565b600060208201905061384e600083018461382a565b92915050565b600063ffffffff82169050919050565b61386d81613854565b82525050565b60006020820190506138886000830184613864565b92915050565b600080604083850312156138a5576138a4613050565b5b60006138b3858286016130aa565b92505060206138c4858286016130aa565b9150509250929050565b6000815190506138dd81613144565b92915050565b6000602082840312156138f9576138f8613050565b5b6000613907848285016138ce565b91505092915050565b6139198161319d565b811461392457600080fd5b50565b60008151905061393681613910565b92915050565b60006020828403121561395257613951613050565b5b600061396084828501613927565b91505092915050565b600082825260208201905092915050565b7f49742069732063757272656e746c79206e6f742061747461636b20706861736560008201527f2100000000000000000000000000000000000000000000000000000000000000602082015250565b60006139d6602183613969565b91506139e18261397a565b604082019050919050565b60006020820190508181036000830152613a05816139c9565b9050919050565b613a158161305a565b82525050565b6000606082019050613a306000830186613a0c565b613a3d6020830185613a0c565b613a4a604083018461301c565b949350505050565b600081905092915050565b50565b6000613a6d600083613a52565b9150613a7882613a5d565b600082019050919050565b6000613a8e82613a60565b9150819050919050565b6000604082019050613aad6000830185613388565b613aba6020830184613388565b9392505050565b7f49742069732063757272656e746c79206e6f7420666f7274696679207068617360008201527f6521000000000000000000000000000000000000000000000000000000000000602082015250565b6000613b1d602283613969565b9150613b2882613ac1565b604082019050919050565b60006020820190508181036000830152613b4c81613b10565b9050919050565b7f596f757220666f7274696669636174696f6e20617474656d7074206661696c6560008201527f6400000000000000000000000000000000000000000000000000000000000000602082015250565b6000613baf602183613969565b9150613bba82613b53565b604082019050919050565b60006020820190508181036000830152613bde81613ba2565b9050919050565b7f49742069732063757272656e746c79206e6f74206465706c6f7920706861736560008201527f2100000000000000000000000000000000000000000000000000000000000000602082015250565b6000613c41602183613969565b9150613c4c82613be5565b604082019050919050565b60006020820190508181036000830152613c7081613c34565b9050919050565b600081519050613c8681613067565b92915050565b600060208284031215613ca257613ca1613050565b5b6000613cb084828501613c77565b91505092915050565b7f596f7520646f206e6f7420686176652074686174206d616e792074726f6f707360008201527f20746f206465706c6f7921000000000000000000000000000000000000000000602082015250565b6000613d15602b83613969565b9150613d2082613cb9565b604082019050919050565b60006020820190508181036000830152613d4481613d08565b9050919050565b6000604082019050613d606000830185613a0c565b613d6d6020830184613a0c565b9392505050565b600081549050919050565b600082825260208201905092915050565b60008190508160005260206000209050919050565b613dae816137a6565b82525050565b6000613dc08383613da5565b60208301905092915050565b60008160001c9050919050565b600073ffffffffffffffffffffffffffffffffffffffff82169050919050565b6000613e0c613e0783613dcc565b613dd9565b9050919050565b6000613e1f8254613df9565b9050919050565b6000600182019050919050565b6000613e3e82613d74565b613e488185613d7f565b9350613e5383613d90565b8060005b83811015613e8b57613e6882613e13565b613e728882613db4565b9750613e7d83613e26565b925050600181019050613e57565b5085935050505092915050565b60006020820190508181036000830152613eb28184613e33565b905092915050565b7f436f6e74726f6c7320636f6e74726163742068617320616c726561647920726560008201527f636569766564204d61696e206164647265737300000000000000000000000000602082015250565b6000613f16603383613969565b9150613f2182613eba565b604082019050919050565b60006020820190508181036000830152613f4581613f09565b9050919050565b7f53656e64204d6f726520746f20456e746572204c6f6262790000000000000000600082015250565b6000613f82601883613969565b9150613f8d82613f4c565b602082019050919050565b60006020820190508181036000830152613fb181613f75565b9050919050565b7f4c6f6262792069732066756c6c00000000000000000000000000000000000000600082015250565b6000613fee600d83613969565b9150613ff982613fb8565b602082019050919050565b6000602082019050818103600083015261401d81613fe1565b9050919050565b7f596f7527766520616c726561647920656e7465726564207468652067616d6521600082015250565b600061405a602083613969565b915061406582614024565b602082019050919050565b600060208201905081810360008301526140898161404d565b9050919050565b7f4e487b7100000000000000000000000000000000000000000000000000000000600052601260045260246000fd5b7f4e487b7100000000000000000000000000000000000000000000000000000000600052601160045260246000fd5b60006140f982613012565b915061410483613012565b92508261411457614113614090565b5b828204905092915050565b600061412a82613012565b91507fffffffffffffffffffffffffffffffffffffffffffffffffffffffffffffffff82141561415d5761415c6140bf565b5b600182019050919050565b7f4e487b7100000000000000000000000000000000000000000000000000000000600052603260045260246000fd5b60008160011c9050919050565b6000808291508390505b60018511156141ee578086048111156141ca576141c96140bf565b5b60018516156141d95780820291505b80810290506141e785614197565b94506141ae565b94509492505050565b60008261420757600190506142c3565b8161421557600090506142c3565b816001811461422b576002811461423557614264565b60019150506142c3565b60ff841115614247576142466140bf565b5b8360020a91508482111561425e5761425d6140bf565b5b506142c3565b5060208310610133831016604e8410600b84101617156142995782820a905083811115614294576142936140bf565b5b6142c3565b6142a684848460016141a4565b925090508184048111156142bd576142bc6140bf565b5b81810290505b9392505050565b60006142d582613012565b91506142e083613012565b925061430d7fffffffffffffffffffffffffffffffffffffffffffffffffffffffffffffffff84846141f7565b905092915050565b600061432082613012565b915061432b83613012565b92508261433b5761433a614090565b5b828206905092915050565b600061435182613012565b915061435c83613012565b9250827fffffffffffffffffffffffffffffffffffffffffffffffffffffffffffffffff03821115614391576143906140bf565b5b828201905092915050565b60006143a782613012565b91506143b283613012565b9250817fffffffffffffffffffffffffffffffffffffffffffffffffffffffffffffffff04831182151516156143eb576143ea6140bf565b5b828202905092915050565b600061440182613012565b915061440c83613012565b92508282101561441f5761441e6140bf565b5b828203905092915050565b600061ffff82169050919050565b6144418161442a565b82525050565b6000819050919050565b6000819050919050565b600061447661447161446c84614447565b614451565b613854565b9050919050565b6144868161445b565b82525050565b600060a0820190506144a160008301886137ec565b6144ae602083018761382a565b6144bb6040830186614438565b6144c86060830185613864565b6144d5608083018461447d565b9695505050505050565b6000815190506144ee81613093565b92915050565b60006020828403121561450a57614509613050565b5b6000614518848285016144df565b91505092915050565b6000604082019050614536600083018561301c565b6145436020830184613a0c565b9392505050565b60006145558261305a565b91506000821415614569576145686140bf565b5b60018203905091905056fea26469706673582212204ef35bc1f83e7978b592ac7bdef5d8275351fa13f95411f87ece327a3f7031f564736f6c63430008080033",
  "devdoc": {
    "kind": "dev",
    "methods": {},
    "version": 1
  },
  "userdoc": {
    "kind": "user",
    "methods": {
      "getSubscriptionId()": {
        "notice": "Getter Functions "
      },
      "numDigits(uint256)": {
        "notice": "Pure Functions "
      }
    },
    "version": 1
  },
  "storageLayout": {
    "storage": [
      {
        "astId": 2694,
        "contract": "contracts/Main.sol:Main",
        "label": "s_gameState",
        "offset": 0,
        "slot": "0",
        "type": "t_enum(GameState)2667"
      },
      {
        "astId": 2697,
        "contract": "contracts/Main.sol:Main",
        "label": "s_lobbyState",
        "offset": 1,
        "slot": "0",
        "type": "t_enum(LobbyState)2662"
      },
      {
        "astId": 2700,
        "contract": "contracts/Main.sol:Main",
        "label": "s_hasRandomWords",
        "offset": 2,
        "slot": "0",
        "type": "t_enum(RandomState)2670"
      },
      {
        "astId": 2703,
        "contract": "contracts/Main.sol:Main",
        "label": "s_players",
        "offset": 0,
        "slot": "1",
        "type": "t_array(t_address_payable)dyn_storage"
      },
      {
        "astId": 2705,
        "contract": "contracts/Main.sol:Main",
        "label": "player_turn",
        "offset": 0,
        "slot": "2",
        "type": "t_address"
      },
      {
        "astId": 2708,
        "contract": "contracts/Main.sol:Main",
        "label": "s_mainSet",
        "offset": 20,
        "slot": "2",
        "type": "t_enum(mainAddressSent)2673"
      },
      {
        "astId": 2712,
        "contract": "contracts/Main.sol:Main",
        "label": "duplicateAddresses",
        "offset": 0,
        "slot": "3",
        "type": "t_mapping(t_address,t_bool)"
      },
      {
        "astId": 2715,
        "contract": "contracts/Main.sol:Main",
        "label": "s_lobbyEntrants",
        "offset": 0,
        "slot": "4",
        "type": "t_array(t_address_payable)dyn_storage"
      },
      {
        "astId": 2717,
        "contract": "contracts/Main.sol:Main",
        "label": "randomWord",
        "offset": 0,
        "slot": "5",
        "type": "t_uint256"
      }
    ],
    "types": {
      "t_address": {
        "encoding": "inplace",
        "label": "address",
        "numberOfBytes": "20"
      },
      "t_address_payable": {
        "encoding": "inplace",
        "label": "address payable",
        "numberOfBytes": "20"
      },
      "t_array(t_address_payable)dyn_storage": {
        "base": "t_address_payable",
        "encoding": "dynamic_array",
        "label": "address payable[]",
        "numberOfBytes": "32"
      },
      "t_bool": {
        "encoding": "inplace",
        "label": "bool",
        "numberOfBytes": "1"
      },
      "t_enum(GameState)2667": {
        "encoding": "inplace",
        "label": "enum Main.GameState",
        "numberOfBytes": "1"
      },
      "t_enum(LobbyState)2662": {
        "encoding": "inplace",
        "label": "enum Main.LobbyState",
        "numberOfBytes": "1"
      },
      "t_enum(RandomState)2670": {
        "encoding": "inplace",
        "label": "enum Main.RandomState",
        "numberOfBytes": "1"
      },
      "t_enum(mainAddressSent)2673": {
        "encoding": "inplace",
        "label": "enum Main.mainAddressSent",
        "numberOfBytes": "1"
      },
      "t_mapping(t_address,t_bool)": {
        "encoding": "mapping",
        "key": "t_address",
        "label": "mapping(address => bool)",
        "numberOfBytes": "32",
        "value": "t_bool"
      },
      "t_uint256": {
        "encoding": "inplace",
        "label": "uint256",
        "numberOfBytes": "32"
      }
    }
  }
}