{
  "address": "0xa513E6E4b8f2a923D98304ec87F64353C4D5C853",
  "abi": [
    {
      "inputs": [
        {
          "internalType": "address",
          "name": "vrfCoordinatorV2",
          "type": "address"
        },
        {
          "internalType": "uint64",
          "name": "subscriptionId",
          "type": "uint64"
        },
        {
          "internalType": "bytes32",
          "name": "gasLane",
          "type": "bytes32"
        },
        {
          "internalType": "uint32",
          "name": "callbackGasLimit",
          "type": "uint32"
        },
        {
          "internalType": "uint256",
          "name": "entranceFee",
          "type": "uint256"
        },
        {
          "internalType": "address",
          "name": "controls",
          "type": "address"
        },
        {
          "internalType": "address",
          "name": "data",
          "type": "address"
        }
      ],
      "stateMutability": "nonpayable",
      "type": "constructor"
    },
    {
      "inputs": [
        {
          "internalType": "address",
          "name": "have",
          "type": "address"
        },
        {
          "internalType": "address",
          "name": "want",
          "type": "address"
        }
      ],
      "name": "OnlyCoordinatorCanFulfill",
      "type": "error"
    },
    {
      "anonymous": false,
      "inputs": [],
      "name": "GameSetupComplete",
      "type": "event"
    },
    {
      "anonymous": false,
      "inputs": [],
      "name": "GameStarting",
      "type": "event"
    },
    {
      "anonymous": false,
      "inputs": [
        {
          "indexed": true,
          "internalType": "address",
          "name": "player",
          "type": "address"
        }
      ],
      "name": "PlayerJoinedLobby",
      "type": "event"
    },
    {
      "anonymous": false,
      "inputs": [],
      "name": "ReceivedRandomWords",
      "type": "event"
    },
    {
      "anonymous": false,
      "inputs": [
        {
          "indexed": true,
          "internalType": "uint256",
          "name": "requestId",
          "type": "uint256"
        }
      ],
      "name": "RequestedTerritoryRandomness",
      "type": "event"
    },
    {
      "anonymous": false,
      "inputs": [
        {
          "indexed": true,
          "internalType": "uint256",
          "name": "requestId",
          "type": "uint256"
        }
      ],
      "name": "RequestedTroopRandomness",
      "type": "event"
    },
    {
      "inputs": [
        {
          "internalType": "uint8",
          "name": "territoryOwned",
          "type": "uint8"
        },
        {
          "internalType": "uint8",
          "name": "territoryAttacking",
          "type": "uint8"
        },
        {
          "internalType": "uint256",
          "name": "troopQuantity",
          "type": "uint256"
        }
      ],
      "name": "attack",
      "outputs": [],
      "stateMutability": "nonpayable",
      "type": "function"
    },
    {
      "inputs": [
        {
          "internalType": "uint8",
          "name": "amountToDeploy",
          "type": "uint8"
        },
        {
          "internalType": "uint8",
          "name": "location",
          "type": "uint8"
        }
      ],
      "name": "deploy",
      "outputs": [],
      "stateMutability": "nonpayable",
      "type": "function"
    },
    {
      "inputs": [],
      "name": "enterLobby",
      "outputs": [],
      "stateMutability": "payable",
      "type": "function"
    },
    {
      "inputs": [],
      "name": "fortify",
      "outputs": [],
      "stateMutability": "nonpayable",
      "type": "function"
    },
    {
      "inputs": [],
      "name": "getCallbackGasLimit",
      "outputs": [
        {
          "internalType": "uint32",
          "name": "",
          "type": "uint32"
        }
      ],
      "stateMutability": "view",
      "type": "function"
    },
    {
      "inputs": [],
      "name": "getEntranceFee",
      "outputs": [
        {
          "internalType": "uint256",
          "name": "",
          "type": "uint256"
        }
      ],
      "stateMutability": "view",
      "type": "function"
    },
    {
      "inputs": [],
      "name": "getGasLane",
      "outputs": [
        {
          "internalType": "bytes32",
          "name": "",
          "type": "bytes32"
        }
      ],
      "stateMutability": "view",
      "type": "function"
    },
    {
      "inputs": [],
      "name": "getLobbyState",
      "outputs": [
        {
          "internalType": "enum Main.LobbyState",
          "name": "",
          "type": "uint8"
        }
      ],
      "stateMutability": "view",
      "type": "function"
    },
    {
      "inputs": [],
      "name": "getNumberOfPlayers",
      "outputs": [
        {
          "internalType": "uint256",
          "name": "",
          "type": "uint256"
        }
      ],
      "stateMutability": "view",
      "type": "function"
    },
    {
      "inputs": [
        {
          "internalType": "uint256",
          "name": "index",
          "type": "uint256"
        }
      ],
      "name": "getPlayer",
      "outputs": [
        {
          "internalType": "address",
          "name": "",
          "type": "address"
        }
      ],
      "stateMutability": "view",
      "type": "function"
    },
    {
      "inputs": [],
      "name": "getRandomWordsArray",
      "outputs": [
        {
          "internalType": "uint256[]",
          "name": "",
          "type": "uint256[]"
        }
      ],
      "stateMutability": "view",
      "type": "function"
    },
    {
      "inputs": [
        {
          "internalType": "uint256",
          "name": "index",
          "type": "uint256"
        }
      ],
      "name": "getRandomWordsArrayIndex",
      "outputs": [
        {
          "internalType": "uint256",
          "name": "",
          "type": "uint256"
        }
      ],
      "stateMutability": "view",
      "type": "function"
    },
    {
      "inputs": [],
      "name": "getRequestConfirmations",
      "outputs": [
        {
          "internalType": "uint256",
          "name": "",
          "type": "uint256"
        }
      ],
      "stateMutability": "pure",
      "type": "function"
    },
    {
      "inputs": [],
      "name": "getSubscriptionId",
      "outputs": [
        {
          "internalType": "uint64",
          "name": "",
          "type": "uint64"
        }
      ],
      "stateMutability": "view",
      "type": "function"
    },
    {
      "inputs": [],
      "name": "getTerritoryState",
      "outputs": [
        {
          "internalType": "enum Main.TerritoryState",
          "name": "",
          "type": "uint8"
        }
      ],
      "stateMutability": "view",
      "type": "function"
    },
    {
      "inputs": [],
      "name": "player_turn",
      "outputs": [
        {
          "internalType": "address",
          "name": "",
          "type": "address"
        }
      ],
      "stateMutability": "view",
      "type": "function"
    },
    {
      "inputs": [
        {
          "internalType": "uint256",
          "name": "requestId",
          "type": "uint256"
        },
        {
          "internalType": "uint256[]",
          "name": "randomWords",
          "type": "uint256[]"
        }
      ],
      "name": "rawFulfillRandomWords",
      "outputs": [],
      "stateMutability": "nonpayable",
      "type": "function"
    },
    {
      "inputs": [],
      "name": "s_gameState",
      "outputs": [
        {
          "internalType": "enum Main.GameState",
          "name": "",
          "type": "uint8"
        }
      ],
      "stateMutability": "view",
      "type": "function"
    },
    {
      "inputs": [],
      "name": "s_lobbyState",
      "outputs": [
        {
          "internalType": "enum Main.LobbyState",
          "name": "",
          "type": "uint8"
        }
      ],
      "stateMutability": "view",
      "type": "function"
    },
    {
      "inputs": [],
      "name": "s_mainSet",
      "outputs": [
        {
          "internalType": "enum Main.mainAddressSent",
          "name": "",
          "type": "uint8"
        }
      ],
      "stateMutability": "view",
      "type": "function"
    },
    {
      "inputs": [
        {
          "internalType": "uint256",
          "name": "",
          "type": "uint256"
        }
      ],
      "name": "s_players",
      "outputs": [
        {
          "internalType": "address payable",
          "name": "",
          "type": "address"
        }
      ],
      "stateMutability": "view",
      "type": "function"
    },
    {
      "inputs": [],
      "name": "s_territoryState",
      "outputs": [
        {
          "internalType": "enum Main.TerritoryState",
          "name": "",
          "type": "uint8"
        }
      ],
      "stateMutability": "view",
      "type": "function"
    },
    {
      "inputs": [],
      "name": "setMainAddress",
      "outputs": [],
      "stateMutability": "nonpayable",
      "type": "function"
    }
  ],
  "transactionHash": "0x7909993852807e62e07b09e6567e5f0ff5b1a1a87858f55016f7d3f558f8ad4c",
  "args": [
    "0x5FbDB2315678afecb367f032d93F642f64180aa3",
    "2",
    "0x79d3d8832d904592c0bf9818b621522c988bb8b0c05cdc3b15aea1b6e8db0c15",
    "3000000",
    "100000000000000000",
    "0xDc64a140Aa3E981100a9becA4E685f962f0cF6C9",
    "0xe7f1725E7734CE288F8367e1Bb143E90bb3F0512"
  ],
  "numDeployments": 1,
  "solcInputHash": "1d536c4438b40d01692f4115f3266f8e",
  "bytecode": "0x6101806040526040518060800160405280600060ff168152602001600060ff168152602001600060ff168152602001600060ff168152506000906004620000489291906200023a565b503480156200005657600080fd5b50604051620031683803806200316883398181016040528101906200007c919062000460565b868073ffffffffffffffffffffffffffffffffffffffff1660808173ffffffffffffffffffffffffffffffffffffffff1660601b81525050508673ffffffffffffffffffffffffffffffffffffffff1660a08173ffffffffffffffffffffffffffffffffffffffff1660601b815250508567ffffffffffffffff1660c08167ffffffffffffffff1660c01b815250508460e081815250508363ffffffff166101008163ffffffff1660e01b8152505082610120818152505060006002806101000a81548160ff021916908360018111156200015c576200015b62000513565b5b02179055506003600260016101000a81548160ff021916908360038111156200018a576200018962000513565b5b02179055506001600460146101000a81548160ff02191690836001811115620001b857620001b762000513565b5b02179055508173ffffffffffffffffffffffffffffffffffffffff166101408173ffffffffffffffffffffffffffffffffffffffff1660601b815250508073ffffffffffffffffffffffffffffffffffffffff166101608173ffffffffffffffffffffffffffffffffffffffff1660601b815250505050505050505062000542565b826004601f01602090048101928215620002c85791602002820160005b838211156200029757835183826101000a81548160ff021916908360ff160217905550926020019260010160208160000104928301926001030262000257565b8015620002c65782816101000a81549060ff021916905560010160208160000104928301926001030262000297565b505b509050620002d79190620002db565b5090565b5b80821115620002f6576000816000905550600101620002dc565b5090565b600080fd5b600073ffffffffffffffffffffffffffffffffffffffff82169050919050565b60006200032c82620002ff565b9050919050565b6200033e816200031f565b81146200034a57600080fd5b50565b6000815190506200035e8162000333565b92915050565b600067ffffffffffffffff82169050919050565b620003838162000364565b81146200038f57600080fd5b50565b600081519050620003a38162000378565b92915050565b6000819050919050565b620003be81620003a9565b8114620003ca57600080fd5b50565b600081519050620003de81620003b3565b92915050565b600063ffffffff82169050919050565b620003ff81620003e4565b81146200040b57600080fd5b50565b6000815190506200041f81620003f4565b92915050565b6000819050919050565b6200043a8162000425565b81146200044657600080fd5b50565b6000815190506200045a816200042f565b92915050565b600080600080600080600060e0888a031215620004825762000481620002fa565b5b6000620004928a828b016200034d565b9750506020620004a58a828b0162000392565b9650506040620004b88a828b01620003cd565b9550506060620004cb8a828b016200040e565b9450506080620004de8a828b0162000449565b93505060a0620004f18a828b016200034d565b92505060c0620005048a828b016200034d565b91505092959891949750929550565b7f4e487b7100000000000000000000000000000000000000000000000000000000600052602160045260246000fd5b60805160601c60a05160601c60c05160c01c60e0516101005160e01c610120516101405160601c6101605160601c612b41620006276000396000505060008181610559015281816106a4015281816107510152818161089c01528181610a4001528181610b8b01528181610c7101528181610e570152818161153e0152818161177e015281816119140152611a3b01526000818161051e0152610f890152600081816111b40152611374015260008181610f63015261133001526000818161118c0152611351015260006112f401526000818161095a01526109ae0152612b416000f3fe6080604052600436106101405760003560e01c80638d2ed997116100b6578063da4701cd1161006f578063da4701cd146103e3578063de3d9fb71461040e578063de8be8e714610439578063e55ae4e814610464578063e83463eb146104a1578063fd6673f5146104de57610140565b80638d2ed9971461030457806399c914fb1461032f578063a6ac3b1014610346578063ae771f6b14610371578063c19dd76b146103ae578063d9eb8a44146103d957610140565b80631fe543e3116101085780631fe543e3146102065780633b63601e1461022f5780633d777d951461025a5780635229134a146102835780635ad964ae146102ae5780635f1b0fd8146102d957610140565b806304889afb1461014557806309bc33a7146101705780630fb081df1461019b578063132f91ab146101c657806314b1f907146101dd575b600080fd5b34801561015157600080fd5b5061015a610509565b6040516101679190611baa565b60405180910390f35b34801561017c57600080fd5b5061018561051a565b6040516101929190611bde565b60405180910390f35b3480156101a757600080fd5b506101b0610542565b6040516101bd9190611baa565b60405180910390f35b3480156101d257600080fd5b506101db610557565b005b3480156101e957600080fd5b5061020460048036038101906101ff9190611c72565b61074f565b005b34801561021257600080fd5b5061022d60048036038101906102289190611e1e565b610958565b005b34801561023b57600080fd5b50610244610a18565b6040516102519190611ebb565b60405180910390f35b34801561026657600080fd5b50610281600480360381019061027c9190611ed6565b610a3e565b005b34801561028f57600080fd5b50610298610d51565b6040516102a59190611fd4565b60405180910390f35b3480156102ba57600080fd5b506102c3610da9565b6040516102d0919061203e565b60405180910390f35b3480156102e557600080fd5b506102ee610dc0565b6040516102fb9190611bde565b60405180910390f35b34801561031057600080fd5b50610319610dcd565b60405161032691906120a1565b60405180910390f35b34801561033b57600080fd5b50610344610de0565b005b34801561035257600080fd5b5061035b610f0d565b6040516103689190612104565b60405180910390f35b34801561037d57600080fd5b506103986004803603810190610393919061211f565b610f20565b6040516103a5919061216d565b60405180910390f35b3480156103ba57600080fd5b506103c3610f5f565b6040516103d091906121a1565b60405180910390f35b6103e1610f87565b005b3480156103ef57600080fd5b506103f8611175565b604051610405919061203e565b60405180910390f35b34801561041a57600080fd5b50610423611188565b60405161043091906121df565b60405180910390f35b34801561044557600080fd5b5061044e6111b0565b60405161045b9190612219565b60405180910390f35b34801561047057600080fd5b5061048b6004803603810190610486919061211f565b6111d8565b6040516104989190611ebb565b60405180910390f35b3480156104ad57600080fd5b506104c860048036038101906104c3919061211f565b611220565b6040516104d59190611bde565b60405180910390f35b3480156104ea57600080fd5b506104f3611248565b6040516105009190611bde565b60405180910390f35b60028054906101000a900460ff1681565b60007f0000000000000000000000000000000000000000000000000000000000000000905090565b600060028054906101000a900460ff16905090565b7f000000000000000000000000000000000000000000000000000000000000000073ffffffffffffffffffffffffffffffffffffffff16632572cd6e6040518163ffffffff1660e01b815260040160206040518083038186803b1580156105bd57600080fd5b505afa1580156105d1573d6000803e3d6000fd5b505050506040513d601f19601f820116820180604052508101906105f59190612260565b73ffffffffffffffffffffffffffffffffffffffff163373ffffffffffffffffffffffffffffffffffffffff161461062c57600080fd5b600260038111156106405761063f611b33565b5b600260019054906101000a900460ff16600381111561066257610661611b33565b5b146106a2576040517f08c379a000000000000000000000000000000000000000000000000000000000815260040161069990612310565b60405180910390fd5b7f000000000000000000000000000000000000000000000000000000000000000073ffffffffffffffffffffffffffffffffffffffff1663d695558c6040518163ffffffff1660e01b8152600401600060405180830381600087803b15801561070a57600080fd5b505af115801561071e573d6000803e3d6000fd5b505050506000600260016101000a81548160ff0219169083600381111561074857610747611b33565b5b0217905550565b7f000000000000000000000000000000000000000000000000000000000000000073ffffffffffffffffffffffffffffffffffffffff16632572cd6e6040518163ffffffff1660e01b815260040160206040518083038186803b1580156107b557600080fd5b505afa1580156107c9573d6000803e3d6000fd5b505050506040513d601f19601f820116820180604052508101906107ed9190612260565b73ffffffffffffffffffffffffffffffffffffffff163373ffffffffffffffffffffffffffffffffffffffff161461082457600080fd5b6001600381111561083857610837611b33565b5b600260019054906101000a900460ff16600381111561085a57610859611b33565b5b1461089a576040517f08c379a0000000000000000000000000000000000000000000000000000000008152600401610891906123a2565b60405180910390fd5b7f000000000000000000000000000000000000000000000000000000000000000073ffffffffffffffffffffffffffffffffffffffff1663be85fc768484846040518463ffffffff1660e01b81526004016108f7939291906123d1565b600060405180830381600087803b15801561091157600080fd5b505af1158015610925573d6000803e3d6000fd5b5050505060028060016101000a81548160ff0219169083600381111561094e5761094d611b33565b5b0217905550505050565b7f000000000000000000000000000000000000000000000000000000000000000073ffffffffffffffffffffffffffffffffffffffff163373ffffffffffffffffffffffffffffffffffffffff1614610a0a57337f00000000000000000000000000000000000000000000000000000000000000006040517f1cf993f4000000000000000000000000000000000000000000000000000000008152600401610a01929190612408565b60405180910390fd5b610a148282611255565b5050565b600460009054906101000a900473ffffffffffffffffffffffffffffffffffffffff1681565b7f000000000000000000000000000000000000000000000000000000000000000073ffffffffffffffffffffffffffffffffffffffff16632572cd6e6040518163ffffffff1660e01b815260040160206040518083038186803b158015610aa457600080fd5b505afa158015610ab8573d6000803e3d6000fd5b505050506040513d601f19601f82011682018060405250810190610adc9190612260565b73ffffffffffffffffffffffffffffffffffffffff163373ffffffffffffffffffffffffffffffffffffffff1614610b1357600080fd5b60006003811115610b2757610b26611b33565b5b600260019054906101000a900460ff166003811115610b4957610b48611b33565b5b14610b89576040517f08c379a0000000000000000000000000000000000000000000000000000000008152600401610b80906124a3565b60405180910390fd5b7f000000000000000000000000000000000000000000000000000000000000000073ffffffffffffffffffffffffffffffffffffffff1663b6d5bc6f6040518163ffffffff1660e01b815260040160206040518083038186803b158015610bef57600080fd5b505afa158015610c03573d6000803e3d6000fd5b505050506040513d601f19601f82011682018060405250810190610c2791906124d8565b60ff168260ff161115610c6f576040517f08c379a0000000000000000000000000000000000000000000000000000000008152600401610c6690612551565b60405180910390fd5b7f000000000000000000000000000000000000000000000000000000000000000073ffffffffffffffffffffffffffffffffffffffff1663041dcfcc83836040518363ffffffff1660e01b8152600401610cca929190612571565b602060405180830381600087803b158015610ce457600080fd5b505af1158015610cf8573d6000803e3d6000fd5b505050506040513d601f19601f82011682018060405250810190610d1c91906125d2565b15610d4d576001600260016101000a81548160ff02191690836003811115610d4757610d46611b33565b5b02179055505b5050565b60606001805480602002602001604051908101604052809291908181526020018280548015610d9f57602002820191906000526020600020905b815481526020019060010190808311610d8b575b5050505050905090565b6000600260009054906101000a900460ff16905090565b6000600361ffff16905090565b600460149054906101000a900460ff1681565b600180811115610df357610df2611b33565b5b600460149054906101000a900460ff166001811115610e1557610e14611b33565b5b14610e55576040517f08c379a0000000000000000000000000000000000000000000000000000000008152600401610e4c90612671565b60405180910390fd5b7f000000000000000000000000000000000000000000000000000000000000000073ffffffffffffffffffffffffffffffffffffffff166305ca49b0306040518263ffffffff1660e01b8152600401610eae9190611ebb565b600060405180830381600087803b158015610ec857600080fd5b505af1158015610edc573d6000803e3d6000fd5b505050506000600460146101000a81548160ff02191690836001811115610f0657610f05611b33565b5b0217905550565b600260019054906101000a900460ff1681565b60038181548110610f3057600080fd5b906000526020600020016000915054906101000a900473ffffffffffffffffffffffffffffffffffffffff1681565b60007f0000000000000000000000000000000000000000000000000000000000000000905090565b7f0000000000000000000000000000000000000000000000000000000000000000341015610fea576040517f08c379a0000000000000000000000000000000000000000000000000000000008152600401610fe1906126dd565b60405180910390fd5b60006001811115610ffe57610ffd611b33565b5b60028054906101000a900460ff16600181111561101e5761101d611b33565b5b1461105e576040517f08c379a000000000000000000000000000000000000000000000000000000000815260040161105590612749565b60405180910390fd5b6003339080600181540180825580915050600190039060005260206000200160009091909190916101000a81548173ffffffffffffffffffffffffffffffffffffffff021916908373ffffffffffffffffffffffffffffffffffffffff1602179055503373ffffffffffffffffffffffffffffffffffffffff167fa0df676a3a1d8a4dc693c144ac79c01945b4464a07bccdbf66c068127c32cfd760405160405180910390a2600460038054905014156111735760016002806101000a81548160ff0219169083600181111561113757611136611b33565b5b02179055507f095744e432dd463fbf0fa4a256e21ddb462dbc9cc4e27248ebd5a28d759cc9e560405160405180910390a1611172602a6112f0565b5b565b600260009054906101000a900460ff1681565b60007f0000000000000000000000000000000000000000000000000000000000000000905090565b60007f0000000000000000000000000000000000000000000000000000000000000000905090565b6000600382815481106111ee576111ed612769565b5b9060005260206000200160009054906101000a900473ffffffffffffffffffffffffffffffffffffffff169050919050565b60006001828154811061123657611235612769565b5b90600052602060002001549050919050565b6000600380549050905090565b806001908051906020019061126b929190611ac9565b507f1d8f6997ec77a160b10f1131c09af88a6a895ea5f542c5fbca36ce69a9f5424860405160405180910390a1600060018111156112ac576112ab611b33565b5b600260009054906101000a900460ff1660018111156112ce576112cd611b33565b5b14156112e2576112dd816114a7565b6112ec565b6112eb816116e9565b5b5050565b60007f000000000000000000000000000000000000000000000000000000000000000073ffffffffffffffffffffffffffffffffffffffff16635d3b1d307f00000000000000000000000000000000000000000000000000000000000000007f000000000000000000000000000000000000000000000000000000000000000060037f0000000000000000000000000000000000000000000000000000000000000000876040518663ffffffff1660e01b81526004016113b49594939291906127b5565b602060405180830381600087803b1580156113ce57600080fd5b505af11580156113e2573d6000803e3d6000fd5b505050506040513d601f19601f82011682018060405250810190611406919061281d565b905060018081111561141b5761141a611b33565b5b600260009054906101000a900460ff16600181111561143d5761143c611b33565b5b141561147557807f6dd9490da71258343c2f0b9c99ec9c283c04748dc6f9ca43c8b9c88ebef7640060405160405180910390a26114a3565b807f14811023daed30f0f57d7f3d94dc3026647731787a9dec5abe13aa62f4a2f0dd60405160405180910390a25b5050565b60006040518060800160405280600060ff168152602001600160ff168152602001600260ff168152602001600360ff1681525090506000600a905060006004905060008060005b86518110156116ab578360ff1687828151811061150e5761150d612769565b5b60200260200101516115209190612879565b925085836004811061153557611534612769565b5b602002015191507f000000000000000000000000000000000000000000000000000000000000000073ffffffffffffffffffffffffffffffffffffffff1663aa181e85836040518263ffffffff1660e01b815260040161159591906128aa565b600060405180830381600087803b1580156115af57600080fd5b505af11580156115c3573d6000803e3d6000fd5b5050505060008260ff16600481106115de576115dd612769565b5b6020918282040191900681819054906101000a900460ff1680929190611603906128f4565b91906101000a81548160ff021916908360ff160217905550508460ff1660008360ff166004811061163757611636612769565b5b602091828204019190069054906101000a900460ff1660ff16141561169857858260ff166004811061166c5761166b612769565b5b60200201600060ff1681525083806116839061291e565b94505060028460ff16141561169757600b94505b5b80806116a390612948565b9150506114ee565b506001600260006101000a81548160ff021916908360018111156116d2576116d1611b33565b5b02179055506116e1604e6112f0565b505050505050565b6000805b60048110156119e157600080826004811061170b5761170a612769565b5b602091828204019190069054906101000a900460ff1660ff1667ffffffffffffffff81111561173d5761173c611cdb565b5b60405190808252806020026020018201604052801561176b5781602001602082028036833780820191505090505b5090506000805b602a81101561186d57837f000000000000000000000000000000000000000000000000000000000000000073ffffffffffffffffffffffffffffffffffffffff1663780b5bf9836040518263ffffffff1660e01b81526004016117d59190611bde565b602060405180830381600087803b1580156117ef57600080fd5b505af1158015611803573d6000803e3d6000fd5b505050506040513d601f19601f82011682018060405250810190611827919061281d565b141561185a578083838061183a90612948565b94508151811061184d5761184c612769565b5b6020026020010181815250505b808061186590612948565b915050611772565b5060005b6000846004811061188557611884612769565b5b602091828204019190069054906101000a900460ff16601e6118a79190612991565b60ff168110156119cb5760008085600481106118c6576118c5612769565b5b602091828204019190069054906101000a900460ff1660ff168787806118eb90612948565b9850815181106118fe576118fd612769565b5b60200260200101516119109190612879565b90507f000000000000000000000000000000000000000000000000000000000000000073ffffffffffffffffffffffffffffffffffffffff16635a1095f385838151811061196157611960612769565b5b60200260200101516040518263ffffffff1660e01b81526004016119859190611bde565b600060405180830381600087803b15801561199f57600080fd5b505af11580156119b3573d6000803e3d6000fd5b505050505080806119c390612948565b915050611871565b50505080806119d990612948565b9150506116ed565b507fcda6b16767f05ec2f16325d372b235b450091ed813db76d6c3d98a26e52078a560405160405180910390a16000600260016101000a81548160ff02191690836003811115611a3457611a33611b33565b5b02179055507f000000000000000000000000000000000000000000000000000000000000000073ffffffffffffffffffffffffffffffffffffffff1663c758c12660036040518263ffffffff1660e01b8152600401611a939190612ae9565b600060405180830381600087803b158015611aad57600080fd5b505af1158015611ac1573d6000803e3d6000fd5b505050505050565b828054828255906000526020600020908101928215611b05579160200282015b82811115611b04578251825591602001919060010190611ae9565b5b509050611b129190611b16565b5090565b5b80821115611b2f576000816000905550600101611b17565b5090565b7f4e487b7100000000000000000000000000000000000000000000000000000000600052602160045260246000fd5b60028110611b7357611b72611b33565b5b50565b6000819050611b8482611b62565b919050565b6000611b9482611b76565b9050919050565b611ba481611b89565b82525050565b6000602082019050611bbf6000830184611b9b565b92915050565b6000819050919050565b611bd881611bc5565b82525050565b6000602082019050611bf36000830184611bcf565b92915050565b6000604051905090565b600080fd5b600080fd5b600060ff82169050919050565b611c2381611c0d565b8114611c2e57600080fd5b50565b600081359050611c4081611c1a565b92915050565b611c4f81611bc5565b8114611c5a57600080fd5b50565b600081359050611c6c81611c46565b92915050565b600080600060608486031215611c8b57611c8a611c03565b5b6000611c9986828701611c31565b9350506020611caa86828701611c31565b9250506040611cbb86828701611c5d565b9150509250925092565b600080fd5b6000601f19601f8301169050919050565b7f4e487b7100000000000000000000000000000000000000000000000000000000600052604160045260246000fd5b611d1382611cca565b810181811067ffffffffffffffff82111715611d3257611d31611cdb565b5b80604052505050565b6000611d45611bf9565b9050611d518282611d0a565b919050565b600067ffffffffffffffff821115611d7157611d70611cdb565b5b602082029050602081019050919050565b600080fd5b6000611d9a611d9584611d56565b611d3b565b90508083825260208201905060208402830185811115611dbd57611dbc611d82565b5b835b81811015611de65780611dd28882611c5d565b845260208401935050602081019050611dbf565b5050509392505050565b600082601f830112611e0557611e04611cc5565b5b8135611e15848260208601611d87565b91505092915050565b60008060408385031215611e3557611e34611c03565b5b6000611e4385828601611c5d565b925050602083013567ffffffffffffffff811115611e6457611e63611c08565b5b611e7085828601611df0565b9150509250929050565b600073ffffffffffffffffffffffffffffffffffffffff82169050919050565b6000611ea582611e7a565b9050919050565b611eb581611e9a565b82525050565b6000602082019050611ed06000830184611eac565b92915050565b60008060408385031215611eed57611eec611c03565b5b6000611efb85828601611c31565b9250506020611f0c85828601611c31565b9150509250929050565b600081519050919050565b600082825260208201905092915050565b6000819050602082019050919050565b611f4b81611bc5565b82525050565b6000611f5d8383611f42565b60208301905092915050565b6000602082019050919050565b6000611f8182611f16565b611f8b8185611f21565b9350611f9683611f32565b8060005b83811015611fc7578151611fae8882611f51565b9750611fb983611f69565b925050600181019050611f9a565b5085935050505092915050565b60006020820190508181036000830152611fee8184611f76565b905092915050565b6002811061200757612006611b33565b5b50565b600081905061201882611ff6565b919050565b60006120288261200a565b9050919050565b6120388161201d565b82525050565b6000602082019050612053600083018461202f565b92915050565b6002811061206a57612069611b33565b5b50565b600081905061207b82612059565b919050565b600061208b8261206d565b9050919050565b61209b81612080565b82525050565b60006020820190506120b66000830184612092565b92915050565b600481106120cd576120cc611b33565b5b50565b60008190506120de826120bc565b919050565b60006120ee826120d0565b9050919050565b6120fe816120e3565b82525050565b600060208201905061211960008301846120f5565b92915050565b60006020828403121561213557612134611c03565b5b600061214384828501611c5d565b91505092915050565b600061215782611e7a565b9050919050565b6121678161214c565b82525050565b6000602082019050612182600083018461215e565b92915050565b6000819050919050565b61219b81612188565b82525050565b60006020820190506121b66000830184612192565b92915050565b600067ffffffffffffffff82169050919050565b6121d9816121bc565b82525050565b60006020820190506121f460008301846121d0565b92915050565b600063ffffffff82169050919050565b612213816121fa565b82525050565b600060208201905061222e600083018461220a565b92915050565b61223d81611e9a565b811461224857600080fd5b50565b60008151905061225a81612234565b92915050565b60006020828403121561227657612275611c03565b5b60006122848482850161224b565b91505092915050565b600082825260208201905092915050565b7f49742069732063757272656e746c79206e6f7420666f7274696679207068617360008201527f652e000000000000000000000000000000000000000000000000000000000000602082015250565b60006122fa60228361228d565b91506123058261229e565b604082019050919050565b60006020820190508181036000830152612329816122ed565b9050919050565b7f49742069732063757272656e746c79206e6f742061747461636b20706861736560008201527f2e00000000000000000000000000000000000000000000000000000000000000602082015250565b600061238c60218361228d565b915061239782612330565b604082019050919050565b600060208201905081810360008301526123bb8161237f565b9050919050565b6123cb81611c0d565b82525050565b60006060820190506123e660008301866123c2565b6123f360208301856123c2565b6124006040830184611bcf565b949350505050565b600060408201905061241d6000830185611eac565b61242a6020830184611eac565b9392505050565b7f49742069732063757272656e746c79206e6f74206465706c6f7920706861736560008201527f2100000000000000000000000000000000000000000000000000000000000000602082015250565b600061248d60218361228d565b915061249882612431565b604082019050919050565b600060208201905081810360008301526124bc81612480565b9050919050565b6000815190506124d281611c1a565b92915050565b6000602082840312156124ee576124ed611c03565b5b60006124fc848285016124c3565b91505092915050565b7f596f7520646f206e6f74206861766520656e6f7567682074726f6f7073210000600082015250565b600061253b601e8361228d565b915061254682612505565b602082019050919050565b6000602082019050818103600083015261256a8161252e565b9050919050565b600060408201905061258660008301856123c2565b61259360208301846123c2565b9392505050565b60008115159050919050565b6125af8161259a565b81146125ba57600080fd5b50565b6000815190506125cc816125a6565b92915050565b6000602082840312156125e8576125e7611c03565b5b60006125f6848285016125bd565b91505092915050565b7f436f6e74726f6c7320636f6e74726163742068617320616c726561647920726560008201527f636569766564204d61696e206164647265737300000000000000000000000000602082015250565b600061265b60338361228d565b9150612666826125ff565b604082019050919050565b6000602082019050818103600083015261268a8161264e565b9050919050565b7f53656e64204d6f726520746f20456e746572204c6f6262790000000000000000600082015250565b60006126c760188361228d565b91506126d282612691565b602082019050919050565b600060208201905081810360008301526126f6816126ba565b9050919050565b7f4c6f6262792069732066756c6c00000000000000000000000000000000000000600082015250565b6000612733600d8361228d565b915061273e826126fd565b602082019050919050565b6000602082019050818103600083015261276281612726565b9050919050565b7f4e487b7100000000000000000000000000000000000000000000000000000000600052603260045260246000fd5b600061ffff82169050919050565b6127af81612798565b82525050565b600060a0820190506127ca6000830188612192565b6127d760208301876121d0565b6127e460408301866127a6565b6127f1606083018561220a565b6127fe608083018461220a565b9695505050505050565b60008151905061281781611c46565b92915050565b60006020828403121561283357612832611c03565b5b600061284184828501612808565b91505092915050565b7f4e487b7100000000000000000000000000000000000000000000000000000000600052601260045260246000fd5b600061288482611bc5565b915061288f83611bc5565b92508261289f5761289e61284a565b5b828206905092915050565b60006020820190506128bf60008301846123c2565b92915050565b7f4e487b7100000000000000000000000000000000000000000000000000000000600052601160045260246000fd5b60006128ff82611c0d565b915060ff821415612913576129126128c5565b5b600182019050919050565b600061292982611c0d565b9150600082141561293d5761293c6128c5565b5b600182039050919050565b600061295382611bc5565b91507fffffffffffffffffffffffffffffffffffffffffffffffffffffffffffffffff821415612986576129856128c5565b5b600182019050919050565b600061299c82611c0d565b91506129a783611c0d565b9250828210156129ba576129b96128c5565b5b828203905092915050565b600081549050919050565b600082825260208201905092915050565b60008190508160005260206000209050919050565b6129ff8161214c565b82525050565b6000612a1183836129f6565b60208301905092915050565b60008160001c9050919050565b600073ffffffffffffffffffffffffffffffffffffffff82169050919050565b6000612a5d612a5883612a1d565b612a2a565b9050919050565b6000612a708254612a4a565b9050919050565b6000600182019050919050565b6000612a8f826129c5565b612a9981856129d0565b9350612aa4836129e1565b8060005b83811015612adc57612ab982612a64565b612ac38882612a05565b9750612ace83612a77565b925050600181019050612aa8565b5085935050505092915050565b60006020820190508181036000830152612b038184612a84565b90509291505056fea2646970667358221220b6ab2694beafb02542d9e17eb965488c0c30940029bbdadad37845517e1350e964736f6c63430008080033",
  "devdoc": {
    "kind": "dev",
    "methods": {},
    "version": 1
  },
  "userdoc": {
    "kind": "user",
    "methods": {
      "getRandomWordsArray()": {
        "notice": "Getter Functions "
      }
    },
    "version": 1
  },
  "storageLayout": {
    "storage": [
      {
        "astId": 1764,
        "contract": "contracts/Main.sol:Main",
        "label": "territoriesAssigned",
        "offset": 0,
        "slot": "0",
        "type": "t_array(t_uint8)4_storage"
      },
      {
        "astId": 1767,
        "contract": "contracts/Main.sol:Main",
        "label": "s_randomWordsArray",
        "offset": 0,
        "slot": "1",
        "type": "t_array(t_uint256)dyn_storage"
      },
      {
        "astId": 1770,
        "contract": "contracts/Main.sol:Main",
        "label": "s_territoryState",
        "offset": 0,
        "slot": "2",
        "type": "t_enum(TerritoryState)1726"
      },
      {
        "astId": 1773,
        "contract": "contracts/Main.sol:Main",
        "label": "s_gameState",
        "offset": 1,
        "slot": "2",
        "type": "t_enum(GameState)1734"
      },
      {
        "astId": 1776,
        "contract": "contracts/Main.sol:Main",
        "label": "s_lobbyState",
        "offset": 2,
        "slot": "2",
        "type": "t_enum(LobbyState)1729"
      },
      {
        "astId": 1779,
        "contract": "contracts/Main.sol:Main",
        "label": "s_players",
        "offset": 0,
        "slot": "3",
        "type": "t_array(t_address_payable)dyn_storage"
      },
      {
        "astId": 1781,
        "contract": "contracts/Main.sol:Main",
        "label": "player_turn",
        "offset": 0,
        "slot": "4",
        "type": "t_address"
      },
      {
        "astId": 1784,
        "contract": "contracts/Main.sol:Main",
        "label": "s_mainSet",
        "offset": 20,
        "slot": "4",
        "type": "t_enum(mainAddressSent)1737"
      }
    ],
    "types": {
      "t_address": {
        "encoding": "inplace",
        "label": "address",
        "numberOfBytes": "20"
      },
      "t_address_payable": {
        "encoding": "inplace",
        "label": "address payable",
        "numberOfBytes": "20"
      },
      "t_array(t_address_payable)dyn_storage": {
        "base": "t_address_payable",
        "encoding": "dynamic_array",
        "label": "address payable[]",
        "numberOfBytes": "32"
      },
      "t_array(t_uint256)dyn_storage": {
        "base": "t_uint256",
        "encoding": "dynamic_array",
        "label": "uint256[]",
        "numberOfBytes": "32"
      },
      "t_array(t_uint8)4_storage": {
        "base": "t_uint8",
        "encoding": "inplace",
        "label": "uint8[4]",
        "numberOfBytes": "32"
      },
      "t_enum(GameState)1734": {
        "encoding": "inplace",
        "label": "enum Main.GameState",
        "numberOfBytes": "1"
      },
      "t_enum(LobbyState)1729": {
        "encoding": "inplace",
        "label": "enum Main.LobbyState",
        "numberOfBytes": "1"
      },
      "t_enum(TerritoryState)1726": {
        "encoding": "inplace",
        "label": "enum Main.TerritoryState",
        "numberOfBytes": "1"
      },
      "t_enum(mainAddressSent)1737": {
        "encoding": "inplace",
        "label": "enum Main.mainAddressSent",
        "numberOfBytes": "1"
      },
      "t_uint256": {
        "encoding": "inplace",
        "label": "uint256",
        "numberOfBytes": "32"
      },
      "t_uint8": {
        "encoding": "inplace",
        "label": "uint8",
        "numberOfBytes": "1"
      }
    }
  }
}