{
  "address": "0x2279B7A0a67DB372996a5FaB50D91eAA73d2eBe6",
  "abi": [
    {
      "inputs": [
        {
          "internalType": "address",
          "name": "vrfCoordinatorV2",
          "type": "address"
        },
        {
          "internalType": "uint64",
          "name": "subscriptionId",
          "type": "uint64"
        },
        {
          "internalType": "bytes32",
          "name": "gasLane",
          "type": "bytes32"
        },
        {
          "internalType": "uint32",
          "name": "callbackGasLimit",
          "type": "uint32"
        },
        {
          "internalType": "uint256",
          "name": "entranceFee",
          "type": "uint256"
        },
        {
          "internalType": "address",
          "name": "controls",
          "type": "address"
        },
        {
          "internalType": "address",
          "name": "data",
          "type": "address"
        }
      ],
      "stateMutability": "nonpayable",
      "type": "constructor"
    },
    {
      "inputs": [
        {
          "internalType": "address",
          "name": "have",
          "type": "address"
        },
        {
          "internalType": "address",
          "name": "want",
          "type": "address"
        }
      ],
      "name": "OnlyCoordinatorCanFulfill",
      "type": "error"
    },
    {
      "inputs": [],
      "name": "Transfer___Failed",
      "type": "error"
    },
    {
      "anonymous": false,
      "inputs": [],
      "name": "GameSetupComplete",
      "type": "event"
    },
    {
      "anonymous": false,
      "inputs": [],
      "name": "GameStarting",
      "type": "event"
    },
    {
      "anonymous": false,
      "inputs": [],
      "name": "MainReset",
      "type": "event"
    },
    {
      "anonymous": false,
      "inputs": [
        {
          "indexed": true,
          "internalType": "address",
          "name": "player",
          "type": "address"
        }
      ],
      "name": "PlayerJoinedLobby",
      "type": "event"
    },
    {
      "anonymous": false,
      "inputs": [
        {
          "indexed": true,
          "internalType": "uint256",
          "name": "requestId",
          "type": "uint256"
        }
      ],
      "name": "RequestedRandomness",
      "type": "event"
    },
    {
      "anonymous": false,
      "inputs": [
        {
          "indexed": true,
          "internalType": "address",
          "name": "player",
          "type": "address"
        }
      ],
      "name": "WinnerSentFunds",
      "type": "event"
    },
    {
      "anonymous": false,
      "inputs": [],
      "name": "gotRandomness",
      "type": "event"
    },
    {
      "inputs": [
        {
          "internalType": "uint8",
          "name": "useThisTerritory",
          "type": "uint8"
        },
        {
          "internalType": "uint8",
          "name": "toAttackThisTerritory",
          "type": "uint8"
        },
        {
          "internalType": "uint256",
          "name": "withTroopQuantity",
          "type": "uint256"
        }
      ],
      "name": "attack",
      "outputs": [],
      "stateMutability": "nonpayable",
      "type": "function"
    },
    {
      "inputs": [
        {
          "internalType": "bytes",
          "name": "",
          "type": "bytes"
        }
      ],
      "name": "checkUpkeep",
      "outputs": [
        {
          "internalType": "bool",
          "name": "upkeepNeeded",
          "type": "bool"
        },
        {
          "internalType": "bytes",
          "name": "",
          "type": "bytes"
        }
      ],
      "stateMutability": "nonpayable",
      "type": "function"
    },
    {
      "inputs": [
        {
          "internalType": "uint8",
          "name": "amountToDeploy",
          "type": "uint8"
        },
        {
          "internalType": "uint8",
          "name": "location",
          "type": "uint8"
        }
      ],
      "name": "deploy",
      "outputs": [],
      "stateMutability": "nonpayable",
      "type": "function"
    },
    {
      "inputs": [
        {
          "internalType": "address",
          "name": "",
          "type": "address"
        }
      ],
      "name": "duplicateAddresses",
      "outputs": [
        {
          "internalType": "bool",
          "name": "",
          "type": "bool"
        }
      ],
      "stateMutability": "view",
      "type": "function"
    },
    {
      "inputs": [],
      "name": "enterLobby",
      "outputs": [],
      "stateMutability": "payable",
      "type": "function"
    },
    {
      "inputs": [],
      "name": "finishAttack",
      "outputs": [],
      "stateMutability": "nonpayable",
      "type": "function"
    },
    {
      "inputs": [
        {
          "internalType": "uint8",
          "name": "territoryMovingFrom",
          "type": "uint8"
        },
        {
          "internalType": "uint8",
          "name": "territoryMovingTo",
          "type": "uint8"
        },
        {
          "internalType": "uint256",
          "name": "troopsMoving",
          "type": "uint256"
        }
      ],
      "name": "fortify",
      "outputs": [],
      "stateMutability": "nonpayable",
      "type": "function"
    },
    {
      "inputs": [],
      "name": "getCallbackGasLimit",
      "outputs": [
        {
          "internalType": "uint32",
          "name": "",
          "type": "uint32"
        }
      ],
      "stateMutability": "view",
      "type": "function"
    },
    {
      "inputs": [
        {
          "internalType": "uint256",
          "name": "n",
          "type": "uint256"
        },
        {
          "internalType": "uint8",
          "name": "index",
          "type": "uint8"
        }
      ],
      "name": "getDigitAtIndex",
      "outputs": [
        {
          "internalType": "uint256",
          "name": "",
          "type": "uint256"
        }
      ],
      "stateMutability": "pure",
      "type": "function"
    },
    {
      "inputs": [],
      "name": "getEntranceFee",
      "outputs": [
        {
          "internalType": "uint256",
          "name": "",
          "type": "uint256"
        }
      ],
      "stateMutability": "view",
      "type": "function"
    },
    {
      "inputs": [],
      "name": "getGasLane",
      "outputs": [
        {
          "internalType": "bytes32",
          "name": "",
          "type": "bytes32"
        }
      ],
      "stateMutability": "view",
      "type": "function"
    },
    {
      "inputs": [],
      "name": "getLobbyState",
      "outputs": [
        {
          "internalType": "enum Main.LobbyState",
          "name": "",
          "type": "uint8"
        }
      ],
      "stateMutability": "view",
      "type": "function"
    },
    {
      "inputs": [],
      "name": "getNumberOfPlayers",
      "outputs": [
        {
          "internalType": "uint256",
          "name": "",
          "type": "uint256"
        }
      ],
      "stateMutability": "view",
      "type": "function"
    },
    {
      "inputs": [
        {
          "internalType": "uint256",
          "name": "index",
          "type": "uint256"
        }
      ],
      "name": "getPlayer",
      "outputs": [
        {
          "internalType": "address",
          "name": "",
          "type": "address"
        }
      ],
      "stateMutability": "view",
      "type": "function"
    },
    {
      "inputs": [
        {
          "internalType": "uint256",
          "name": "index",
          "type": "uint256"
        }
      ],
      "name": "getRandomWordsArrayIndexTerritories",
      "outputs": [
        {
          "internalType": "uint256",
          "name": "",
          "type": "uint256"
        }
      ],
      "stateMutability": "view",
      "type": "function"
    },
    {
      "inputs": [
        {
          "internalType": "uint256",
          "name": "index",
          "type": "uint256"
        }
      ],
      "name": "getRandomWordsArrayIndexTroops",
      "outputs": [
        {
          "internalType": "uint256",
          "name": "",
          "type": "uint256"
        }
      ],
      "stateMutability": "view",
      "type": "function"
    },
    {
      "inputs": [],
      "name": "getRandomWordsArrayTerritories",
      "outputs": [
        {
          "internalType": "uint256[]",
          "name": "",
          "type": "uint256[]"
        }
      ],
      "stateMutability": "view",
      "type": "function"
    },
    {
      "inputs": [],
      "name": "getRandomWordsArrayTroops",
      "outputs": [
        {
          "internalType": "uint256[]",
          "name": "",
          "type": "uint256[]"
        }
      ],
      "stateMutability": "view",
      "type": "function"
    },
    {
      "inputs": [],
      "name": "getRequestConfirmations",
      "outputs": [
        {
          "internalType": "uint256",
          "name": "",
          "type": "uint256"
        }
      ],
      "stateMutability": "pure",
      "type": "function"
    },
    {
      "inputs": [],
      "name": "getSubscriptionId",
      "outputs": [
        {
          "internalType": "uint64",
          "name": "",
          "type": "uint64"
        }
      ],
      "stateMutability": "view",
      "type": "function"
    },
    {
      "inputs": [
        {
          "internalType": "uint256",
          "name": "number",
          "type": "uint256"
        }
      ],
      "name": "numDigits",
      "outputs": [
        {
          "internalType": "uint256",
          "name": "",
          "type": "uint256"
        }
      ],
      "stateMutability": "pure",
      "type": "function"
    },
    {
      "inputs": [
        {
          "internalType": "address",
          "name": "winner",
          "type": "address"
        }
      ],
      "name": "payWinner",
      "outputs": [
        {
          "internalType": "bool",
          "name": "",
          "type": "bool"
        }
      ],
      "stateMutability": "nonpayable",
      "type": "function"
    },
    {
      "inputs": [
        {
          "internalType": "bytes",
          "name": "",
          "type": "bytes"
        }
      ],
      "name": "performUpkeep",
      "outputs": [],
      "stateMutability": "nonpayable",
      "type": "function"
    },
    {
      "inputs": [],
      "name": "player_turn",
      "outputs": [
        {
          "internalType": "address",
          "name": "",
          "type": "address"
        }
      ],
      "stateMutability": "view",
      "type": "function"
    },
    {
      "inputs": [
        {
          "internalType": "uint256",
          "name": "requestId",
          "type": "uint256"
        },
        {
          "internalType": "uint256[]",
          "name": "randomWords",
          "type": "uint256[]"
        }
      ],
      "name": "rawFulfillRandomWords",
      "outputs": [],
      "stateMutability": "nonpayable",
      "type": "function"
    },
    {
      "inputs": [
        {
          "internalType": "uint256",
          "name": "index",
          "type": "uint256"
        }
      ],
      "name": "remove",
      "outputs": [],
      "stateMutability": "nonpayable",
      "type": "function"
    },
    {
      "inputs": [],
      "name": "s_gameState",
      "outputs": [
        {
          "internalType": "enum Main.GameState",
          "name": "",
          "type": "uint8"
        }
      ],
      "stateMutability": "view",
      "type": "function"
    },
    {
      "inputs": [],
      "name": "s_hasRandomWords",
      "outputs": [
        {
          "internalType": "enum Main.RandomState",
          "name": "",
          "type": "uint8"
        }
      ],
      "stateMutability": "view",
      "type": "function"
    },
    {
      "inputs": [
        {
          "internalType": "uint256",
          "name": "",
          "type": "uint256"
        }
      ],
      "name": "s_lobbyEntrants",
      "outputs": [
        {
          "internalType": "address payable",
          "name": "",
          "type": "address"
        }
      ],
      "stateMutability": "view",
      "type": "function"
    },
    {
      "inputs": [],
      "name": "s_lobbyState",
      "outputs": [
        {
          "internalType": "enum Main.LobbyState",
          "name": "",
          "type": "uint8"
        }
      ],
      "stateMutability": "view",
      "type": "function"
    },
    {
      "inputs": [],
      "name": "s_mainSet",
      "outputs": [
        {
          "internalType": "enum Main.mainAddressSent",
          "name": "",
          "type": "uint8"
        }
      ],
      "stateMutability": "view",
      "type": "function"
    },
    {
      "inputs": [
        {
          "internalType": "uint256",
          "name": "",
          "type": "uint256"
        }
      ],
      "name": "s_players",
      "outputs": [
        {
          "internalType": "address payable",
          "name": "",
          "type": "address"
        }
      ],
      "stateMutability": "view",
      "type": "function"
    },
    {
      "inputs": [],
      "name": "setMainAddress",
      "outputs": [],
      "stateMutability": "nonpayable",
      "type": "function"
    }
  ],
  "transactionHash": "0x194c1528f8c557b42d78c39f64772db6ba01742e515e822375158e034590cc2a",
  "args": [
    "0x5FbDB2315678afecb367f032d93F642f64180aa3",
    "2",
    "0x79d3d8832d904592c0bf9818b621522c988bb8b0c05cdc3b15aea1b6e8db0c15",
    "30000000",
    "100000000000000000",
    "0xDc64a140Aa3E981100a9becA4E685f962f0cF6C9",
    "0xe7f1725E7734CE288F8367e1Bb143E90bb3F0512"
  ],
  "numDeployments": 1,
  "solcInputHash": "1430445720dea0c3e4c447e7d95ee93f",
  "bytecode": "0x6101806040526040518060800160405280600060ff168152602001600160ff168152602001600260ff168152602001600360ff168152506000906004620000489291906200027f565b506040518060800160405280600060ff168152602001600060ff168152602001600060ff168152602001600060ff1681525060019060046200008c9291906200032d565b503480156200009a57600080fd5b506040516200418a3803806200418a8339818101604052810190620000c0919062000553565b868073ffffffffffffffffffffffffffffffffffffffff1660808173ffffffffffffffffffffffffffffffffffffffff1660601b81525050508673ffffffffffffffffffffffffffffffffffffffff1660a08173ffffffffffffffffffffffffffffffffffffffff1660601b815250508567ffffffffffffffff1660c08167ffffffffffffffff1660c01b815250508460e081815250508363ffffffff166101008163ffffffff1660e01b815250508261012081815250506000600260016101000a81548160ff02191690836001811115620001a157620001a062000606565b5b02179055506003600260006101000a81548160ff02191690836003811115620001cf57620001ce62000606565b5b02179055506001600460146101000a81548160ff02191690836001811115620001fd57620001fc62000606565b5b02179055508173ffffffffffffffffffffffffffffffffffffffff166101408173ffffffffffffffffffffffffffffffffffffffff1660601b815250508073ffffffffffffffffffffffffffffffffffffffff166101608173ffffffffffffffffffffffffffffffffffffffff1660601b815250505050505050505062000635565b82805482825590600052602060002090601f016020900481019282156200031a5791602002820160005b83821115620002e957835183826101000a81548160ff021916908360ff1602179055509260200192600101602081600001049283019260010302620002a9565b8015620003185782816101000a81549060ff0219169055600101602081600001049283019260010302620002e9565b505b509050620003299190620003ce565b5090565b826004601f01602090048101928215620003bb5791602002820160005b838211156200038a57835183826101000a81548160ff021916908360ff16021790555092602001926001016020816000010492830192600103026200034a565b8015620003b95782816101000a81549060ff02191690556001016020816000010492830192600103026200038a565b505b509050620003ca9190620003ce565b5090565b5b80821115620003e9576000816000905550600101620003cf565b5090565b600080fd5b600073ffffffffffffffffffffffffffffffffffffffff82169050919050565b60006200041f82620003f2565b9050919050565b620004318162000412565b81146200043d57600080fd5b50565b600081519050620004518162000426565b92915050565b600067ffffffffffffffff82169050919050565b620004768162000457565b81146200048257600080fd5b50565b60008151905062000496816200046b565b92915050565b6000819050919050565b620004b1816200049c565b8114620004bd57600080fd5b50565b600081519050620004d181620004a6565b92915050565b600063ffffffff82169050919050565b620004f281620004d7565b8114620004fe57600080fd5b50565b6000815190506200051281620004e7565b92915050565b6000819050919050565b6200052d8162000518565b81146200053957600080fd5b50565b6000815190506200054d8162000522565b92915050565b600080600080600080600060e0888a031215620005755762000574620003ed565b5b6000620005858a828b0162000440565b9750506020620005988a828b0162000485565b9650506040620005ab8a828b01620004c0565b9550506060620005be8a828b0162000501565b9450506080620005d18a828b016200053c565b93505060a0620005e48a828b0162000440565b92505060c0620005f78a828b0162000440565b91505092959891949750929550565b7f4e487b7100000000000000000000000000000000000000000000000000000000600052602160045260246000fd5b60805160601c60a05160601c60c05160c01c60e0516101005160e01c610120516101405160601c6101605160601c613a696200072160003960005050600081816108320152818161090b01528181610a2b01528181610ae101528181610d1e01528181610e6d01528181610fb4015281816110ff015281816111e7015281816113a20152818161147b015281816116a801526122400152600081816107f50152611919015260008181611cb501526120fd01526000818161185c01526120b9015260008181611c8d01526120da0152600061207d015260008181610c300152610c840152613a696000f3fe6080604052600436106101ee5760003560e01c806371e6c8421161010d578063c19dd76b116100a0578063db9d28d51161006f578063db9d28d5146106e3578063de3d9fb714610720578063de8be8e71461074b578063e55ae4e814610776578063fd6673f5146107b3576101ee565b8063c19dd76b14610646578063cec7360a14610671578063d4e94c461461069c578063d9eb8a44146106d9576101ee565b8063a6ac3b10116100dc578063a6ac3b1014610576578063ae771f6b146105a1578063bdaa07df146105de578063c03462401461061b576101ee565b806371e6c842146104cc5780638d2ed997146104f757806399c914fb146105225780639f4c884714610539576101ee565b80633691770a116101855780634cc82215116101545780634cc8221514610423578063505e53ab1461044c5780635f1b0fd8146104635780636e04ff0d1461048e576101ee565b80633691770a1461037d5780633b63601e146103a65780633d777d95146103d15780634585e33b146103fa576101ee565b80631664bb63116101c15780631664bb631461029d57806319b09f9b146102da5780631fe543e3146103175780632eb9a3b514610340576101ee565b806304889afb146101f357806309bc33a71461021e5780630fb081df1461024957806314b1f90714610274575b600080fd5b3480156101ff57600080fd5b506102086107de565b6040516102159190612581565b60405180910390f35b34801561022a57600080fd5b506102336107f1565b60405161024091906125b5565b60405180910390f35b34801561025557600080fd5b5061025e610819565b60405161026b9190612581565b60405180910390f35b34801561028057600080fd5b5061029b60048036038101906102969190612649565b610830565b005b3480156102a957600080fd5b506102c460048036038101906102bf91906126fa565b610abd565b6040516102d19190612742565b60405180910390f35b3480156102e657600080fd5b5061030160048036038101906102fc91906126fa565b610add565b60405161030e9190612742565b60405180910390f35b34801561032357600080fd5b5061033e600480360381019061033991906128b6565b610c2e565b005b34801561034c57600080fd5b5061036760048036038101906103629190612912565b610cee565b60405161037491906125b5565b60405180910390f35b34801561038957600080fd5b506103a4600480360381019061039f9190612649565b610d1c565b005b3480156103b257600080fd5b506103bb610f8c565b6040516103c89190612961565b60405180910390f35b3480156103dd57600080fd5b506103f860048036038101906103f3919061297c565b610fb2565b005b34801561040657600080fd5b50610421600480360381019061041c9190612a17565b6112d2565b005b34801561042f57600080fd5b5061044a60048036038101906104459190612a64565b6112de565b005b34801561045857600080fd5b506104616113a0565b005b34801561046f57600080fd5b5061047861154f565b60405161048591906125b5565b60405180910390f35b34801561049a57600080fd5b506104b560048036038101906104b09190612b46565b61155c565b6040516104c3929190612c17565b60405180910390f35b3480156104d857600080fd5b506104e161160d565b6040516104ee9190612c8f565b60405180910390f35b34801561050357600080fd5b5061050c61161e565b6040516105199190612cf2565b60405180910390f35b34801561052e57600080fd5b50610537611631565b005b34801561054557600080fd5b50610560600480360381019061055b9190612a64565b61175e565b60405161056d91906125b5565b60405180910390f35b34801561058257600080fd5b5061058b611786565b6040516105989190612d55565b60405180910390f35b3480156105ad57600080fd5b506105c860048036038101906105c39190612a64565b611799565b6040516105d59190612d91565b60405180910390f35b3480156105ea57600080fd5b5061060560048036038101906106009190612a64565b6117d8565b60405161061291906125b5565b60405180910390f35b34801561062757600080fd5b50610630611800565b60405161063d9190612e6a565b60405180910390f35b34801561065257600080fd5b5061065b611858565b6040516106689190612ea5565b60405180910390f35b34801561067d57600080fd5b50610686611880565b6040516106939190612e6a565b60405180910390f35b3480156106a857600080fd5b506106c360048036038101906106be9190612a64565b6118d8565b6040516106d09190612d91565b60405180910390f35b6106e1611917565b005b3480156106ef57600080fd5b5061070a60048036038101906107059190612a64565b611c54565b60405161071791906125b5565b60405180910390f35b34801561072c57600080fd5b50610735611c89565b6040516107429190612ee3565b60405180910390f35b34801561075757600080fd5b50610760611cb1565b60405161076d9190612f1d565b60405180910390f35b34801561078257600080fd5b5061079d60048036038101906107989190612a64565b611cd9565b6040516107aa9190612961565b60405180910390f35b3480156107bf57600080fd5b506107c8611d21565b6040516107d591906125b5565b60405180910390f35b600260019054906101000a900460ff1681565b60007f0000000000000000000000000000000000000000000000000000000000000000905090565b6000600260019054906101000a900460ff16905090565b7f000000000000000000000000000000000000000000000000000000000000000073ffffffffffffffffffffffffffffffffffffffff16632572cd6e6040518163ffffffff1660e01b815260040160206040518083038186803b15801561089657600080fd5b505afa1580156108aa573d6000803e3d6000fd5b505050506040513d601f19601f820116820180604052508101906108ce9190612f4d565b73ffffffffffffffffffffffffffffffffffffffff163373ffffffffffffffffffffffffffffffffffffffff161461090557600080fd5b600015157f000000000000000000000000000000000000000000000000000000000000000073ffffffffffffffffffffffffffffffffffffffff1663af0b94d46040518163ffffffff1660e01b815260040160206040518083038186803b15801561096f57600080fd5b505afa158015610983573d6000803e3d6000fd5b505050506040513d601f19601f820116820180604052508101906109a79190612fa6565b1515146109b357600080fd5b600160038111156109c7576109c661250a565b5b600260009054906101000a900460ff1660038111156109e9576109e861250a565b5b14610a29576040517f08c379a0000000000000000000000000000000000000000000000000000000008152600401610a2090613056565b60405180910390fd5b7f000000000000000000000000000000000000000000000000000000000000000073ffffffffffffffffffffffffffffffffffffffff1663be85fc768484846040518463ffffffff1660e01b8152600401610a8693929190613085565b600060405180830381600087803b158015610aa057600080fd5b505af1158015610ab4573d6000803e3d6000fd5b50505050505050565b60056020528060005260406000206000915054906101000a900460ff1681565b60007f000000000000000000000000000000000000000000000000000000000000000073ffffffffffffffffffffffffffffffffffffffff163373ffffffffffffffffffffffffffffffffffffffff1614610b3757600080fd5b60008273ffffffffffffffffffffffffffffffffffffffff1647604051610b5d906130ed565b60006040518083038185875af1925050503d8060008114610b9a576040519150601f19603f3d011682016040523d82523d6000602084013e610b9f565b606091505b5050905080610bda576040517faad40e9700000000000000000000000000000000000000000000000000000000815260040160405180910390fd5b8273ffffffffffffffffffffffffffffffffffffffff167f6484268da2aca55c67beef4127a9a4f83ec74ff7fa3d896a9b23c86e12427e7b60405160405180910390a2610c25611d2e565b80915050919050565b7f000000000000000000000000000000000000000000000000000000000000000073ffffffffffffffffffffffffffffffffffffffff163373ffffffffffffffffffffffffffffffffffffffff1614610ce057337f00000000000000000000000000000000000000000000000000000000000000006040517f1cf993f4000000000000000000000000000000000000000000000000000000008152600401610cd7929190613102565b60405180910390fd5b610cea8282611f0c565b5050565b6000600a82600a610cff919061328d565b84610d0a9190613307565b610d149190613338565b905092915050565b7f000000000000000000000000000000000000000000000000000000000000000073ffffffffffffffffffffffffffffffffffffffff16632572cd6e6040518163ffffffff1660e01b815260040160206040518083038186803b158015610d8257600080fd5b505afa158015610d96573d6000803e3d6000fd5b505050506040513d601f19601f82011682018060405250810190610dba9190612f4d565b73ffffffffffffffffffffffffffffffffffffffff163373ffffffffffffffffffffffffffffffffffffffff1614610df157600080fd5b60026003811115610e0557610e0461250a565b5b600260009054906101000a900460ff166003811115610e2757610e2661250a565b5b14610e67576040517f08c379a0000000000000000000000000000000000000000000000000000000008152600401610e5e906133db565b60405180910390fd5b600115157f000000000000000000000000000000000000000000000000000000000000000073ffffffffffffffffffffffffffffffffffffffff1663ada2c7a88585856040518463ffffffff1660e01b8152600401610ec893929190613085565b602060405180830381600087803b158015610ee257600080fd5b505af1158015610ef6573d6000803e3d6000fd5b505050506040513d601f19601f82011682018060405250810190610f1a9190612fa6565b151514610f5c576040517f08c379a0000000000000000000000000000000000000000000000000000000008152600401610f539061346d565b60405180910390fd5b6000600260006101000a81548160ff02191690836003811115610f8257610f8161250a565b5b0217905550505050565b600460009054906101000a900473ffffffffffffffffffffffffffffffffffffffff1681565b7f000000000000000000000000000000000000000000000000000000000000000073ffffffffffffffffffffffffffffffffffffffff16632572cd6e6040518163ffffffff1660e01b815260040160206040518083038186803b15801561101857600080fd5b505afa15801561102c573d6000803e3d6000fd5b505050506040513d601f19601f820116820180604052508101906110509190612f4d565b73ffffffffffffffffffffffffffffffffffffffff163373ffffffffffffffffffffffffffffffffffffffff161461108757600080fd5b6000600381111561109b5761109a61250a565b5b600260009054906101000a900460ff1660038111156110bd576110bc61250a565b5b146110fd576040517f08c379a00000000000000000000000000000000000000000000000000000000081526004016110f4906134ff565b60405180910390fd5b7f000000000000000000000000000000000000000000000000000000000000000073ffffffffffffffffffffffffffffffffffffffff1663b6d5bc6f6040518163ffffffff1660e01b815260040160206040518083038186803b15801561116357600080fd5b505afa158015611177573d6000803e3d6000fd5b505050506040513d601f19601f8201168201806040525081019061119b9190613534565b60ff168260ff1611156111e3576040517f08c379a00000000000000000000000000000000000000000000000000000000081526004016111da906135d3565b60405180910390fd5b60007f000000000000000000000000000000000000000000000000000000000000000073ffffffffffffffffffffffffffffffffffffffff1663041dcfcc84846040518363ffffffff1660e01b81526004016112409291906135f3565b602060405180830381600087803b15801561125a57600080fd5b505af115801561126e573d6000803e3d6000fd5b505050506040513d601f19601f820116820180604052508101906112929190612fa6565b90506000151581151514156112cd576001600260006101000a81548160ff021916908360038111156112c7576112c661250a565b5b02179055505b505050565b6112da611f80565b5050565b600060016000805490506112f2919061361c565b8154811061130357611302613650565b5b90600052602060002090602091828204019190069054906101000a900460ff166000828154811061133757611336613650565b5b90600052602060002090602091828204019190066101000a81548160ff021916908360ff16021790555060008054806113735761137261367f565b5b60019003818190600052602060002090602091828204019190066101000a81549060ff0219169055905550565b7f000000000000000000000000000000000000000000000000000000000000000073ffffffffffffffffffffffffffffffffffffffff16632572cd6e6040518163ffffffff1660e01b815260040160206040518083038186803b15801561140657600080fd5b505afa15801561141a573d6000803e3d6000fd5b505050506040513d601f19601f8201168201806040525081019061143e9190612f4d565b73ffffffffffffffffffffffffffffffffffffffff163373ffffffffffffffffffffffffffffffffffffffff161461147557600080fd5b600015157f000000000000000000000000000000000000000000000000000000000000000073ffffffffffffffffffffffffffffffffffffffff1663af0b94d46040518163ffffffff1660e01b815260040160206040518083038186803b1580156114df57600080fd5b505afa1580156114f3573d6000803e3d6000fd5b505050506040513d601f19601f820116820180604052508101906115179190612fa6565b15151461152357600080fd5b60028060006101000a81548160ff021916908360038111156115485761154761250a565b5b0217905550565b6000600361ffff16905090565b6000606060006001808111156115755761157461250a565b5b600260019054906101000a900460ff1660018111156115975761159661250a565b5b149050600060046003805490501490506000804711905060008060018111156115c3576115c261250a565b5b60028054906101000a900460ff1660018111156115e3576115e261250a565b5b1490508380156115f05750825b80156115f95750815b80156116025750805b955050505050915091565b60028054906101000a900460ff1681565b600460149054906101000a900460ff1681565b6001808111156116445761164361250a565b5b600460149054906101000a900460ff1660018111156116665761166561250a565b5b146116a6576040517f08c379a000000000000000000000000000000000000000000000000000000000815260040161169d90613720565b60405180910390fd5b7f000000000000000000000000000000000000000000000000000000000000000073ffffffffffffffffffffffffffffffffffffffff166305ca49b0306040518263ffffffff1660e01b81526004016116ff9190612961565b600060405180830381600087803b15801561171957600080fd5b505af115801561172d573d6000803e3d6000fd5b505050506000600460146101000a81548160ff021916908360018111156117575761175661250a565b5b0217905550565b6000600a828154811061177457611773613650565b5b90600052602060002001549050919050565b600260009054906101000a900460ff1681565b600381815481106117a957600080fd5b906000526020600020016000915054906101000a900473ffffffffffffffffffffffffffffffffffffffff1681565b6000600982815481106117ee576117ed613650565b5b90600052602060002001549050919050565b6060600a80548060200260200160405190810160405280929190818152602001828054801561184e57602002820191906000526020600020905b81548152602001906001019080831161183a575b5050505050905090565b60007f0000000000000000000000000000000000000000000000000000000000000000905090565b606060098054806020026020016040519081016040528092919081815260200182805480156118ce57602002820191906000526020600020905b8154815260200190600101908083116118ba575b5050505050905090565b600681815481106118e857600080fd5b906000526020600020016000915054906101000a900473ffffffffffffffffffffffffffffffffffffffff1681565b7f000000000000000000000000000000000000000000000000000000000000000034101561197a576040517f08c379a00000000000000000000000000000000000000000000000000000000081526004016119719061378c565b60405180910390fd5b6000600181111561198e5761198d61250a565b5b600260019054906101000a900460ff1660018111156119b0576119af61250a565b5b146119f0576040517f08c379a00000000000000000000000000000000000000000000000000000000081526004016119e7906137f8565b60405180910390fd5b60001515600560003373ffffffffffffffffffffffffffffffffffffffff1673ffffffffffffffffffffffffffffffffffffffff16815260200190815260200160002060009054906101000a900460ff16151514611a83576040517f08c379a0000000000000000000000000000000000000000000000000000000008152600401611a7a90613864565b60405180910390fd5b6003339080600181540180825580915050600190039060005260206000200160009091909190916101000a81548173ffffffffffffffffffffffffffffffffffffffff021916908373ffffffffffffffffffffffffffffffffffffffff1602179055506006339080600181540180825580915050600190039060005260206000200160009091909190916101000a81548173ffffffffffffffffffffffffffffffffffffffff021916908373ffffffffffffffffffffffffffffffffffffffff1602179055503373ffffffffffffffffffffffffffffffffffffffff167fa0df676a3a1d8a4dc693c144ac79c01945b4464a07bccdbf66c068127c32cfd760405160405180910390a26001600560003373ffffffffffffffffffffffffffffffffffffffff1673ffffffffffffffffffffffffffffffffffffffff16815260200190815260200160002060006101000a81548160ff02191690831515021790555060046003805490501415611c52576001600260016101000a81548160ff02191690836001811115611c1857611c1761250a565b5b02179055507f095744e432dd463fbf0fa4a256e21ddb462dbc9cc4e27248ebd5a28d759cc9e560405160405180910390a1611c51612079565b5b565b6000805b60008314611c8057600a83611c6d9190613307565b925080611c7990613884565b9050611c58565b80915050919050565b60007f0000000000000000000000000000000000000000000000000000000000000000905090565b60007f0000000000000000000000000000000000000000000000000000000000000000905090565b600060038281548110611cef57611cee613650565b5b9060005260206000200160009054906101000a900473ffffffffffffffffffffffffffffffffffffffff169050919050565b6000600380549050905090565b6000600260016101000a81548160ff02191690836001811115611d5457611d5361250a565b5b0217905550600067ffffffffffffffff811115611d7457611d73612773565b5b604051908082528060200260200182016040528015611da25781602001602082028036833780820191505090505b5060039080519060200190611db89291906123c9565b506003600260006101000a81548160ff02191690836003811115611ddf57611dde61250a565b5b02179055506040518060800160405280600060ff168152602001600060ff168152602001600060ff168152602001600060ff168152506001906004611e25929190612453565b5060005b600680549050811015611edd5760006005600060068481548110611e5057611e4f613650565b5b9060005260206000200160009054906101000a900473ffffffffffffffffffffffffffffffffffffffff1673ffffffffffffffffffffffffffffffffffffffff1673ffffffffffffffffffffffffffffffffffffffff16815260200190815260200160002060006101000a81548160ff02191690831515021790555080611ed690613884565b9050611e29565b507fddf25b659ac34302a47d8558d65f7af2579a28dd349a418009a1754bd599928460405160405180910390a1565b7ffbb70d2846767293cb82ce688c3768de4b71a06d5f547369d2987abd387c2aba60405160405180910390a180600081518110611f4c57611f4b613650565b5b602002602001015160078190555080600181518110611f6e57611f6d613650565b5b60200260200101516008819055505050565b6000602a67ffffffffffffffff811115611f9d57611f9c612773565b5b604051908082528060200260200182016040528015611fcb5781602001602082028036833780820191505090505b5090506000611fdb600754611c54565b905060008060005b602a81101561206957611ff860075483610cee565b9250600883101561203c576004836120109190613338565b85828151811061202357612022613650565b5b6020026020010181815250508061203990613884565b90505b600184612049919061361c565b8260ff16141561205857600091505b81612062906138cd565b9150611fe3565b612072856121c2565b5050505050565b60007f000000000000000000000000000000000000000000000000000000000000000073ffffffffffffffffffffffffffffffffffffffff16635d3b1d307f00000000000000000000000000000000000000000000000000000000000000007f000000000000000000000000000000000000000000000000000000000000000060037f000000000000000000000000000000000000000000000000000000000000000060026040518663ffffffff1660e01b815260040161213e959493929190613959565b602060405180830381600087803b15801561215857600080fd5b505af115801561216c573d6000803e3d6000fd5b505050506040513d601f19601f8201168201806040525081019061219091906139c1565b9050807f5d7d0431c4991fcc9f63f03ad0ead4128b866a8ed115a818b6d87a3afedb726460405160405180910390a250565b6000600a905060006004905060008060005b85518110156123c1578360ff168682815181106121f4576121f3613650565b5b60200260200101516122069190613338565b92506000838154811061221c5761221b613650565b5b90600052602060002090602091828204019190069054906101000a900460ff1691507f000000000000000000000000000000000000000000000000000000000000000073ffffffffffffffffffffffffffffffffffffffff1663aa181e85836040518263ffffffff1660e01b815260040161229791906139ee565b600060405180830381600087803b1580156122b157600080fd5b505af11580156122c5573d6000803e3d6000fd5b5050505060018260ff16600481106122e0576122df613650565b5b6020918282040191900681819054906101000a900460ff16612301906138cd565b91906101000a81548160ff021916908360ff1602179055508460ff1660018360ff166004811061233457612333613650565b5b602091828204019190069054906101000a900460ff1660ff1614156123b0576000838154811061236757612366613650565b5b90600052602060002090602091828204019190066101000a81549060ff0219169055612392836112de565b8361239c90613a09565b935060028460ff1614156123af57600b94505b5b806123ba90613884565b90506121d4565b505050505050565b828054828255906000526020600020908101928215612442579160200282015b828111156124415782518260006101000a81548173ffffffffffffffffffffffffffffffffffffffff021916908373ffffffffffffffffffffffffffffffffffffffff160217905550916020019190600101906123e9565b5b50905061244f91906124ed565b5090565b826004601f016020900481019282156124dc5791602002820160005b838211156124ad57835183826101000a81548160ff021916908360ff160217905550926020019260010160208160000104928301926001030261246f565b80156124da5782816101000a81549060ff02191690556001016020816000010492830192600103026124ad565b505b5090506124e991906124ed565b5090565b5b808211156125065760008160009055506001016124ee565b5090565b7f4e487b7100000000000000000000000000000000000000000000000000000000600052602160045260246000fd5b6002811061254a5761254961250a565b5b50565b600081905061255b82612539565b919050565b600061256b8261254d565b9050919050565b61257b81612560565b82525050565b60006020820190506125966000830184612572565b92915050565b6000819050919050565b6125af8161259c565b82525050565b60006020820190506125ca60008301846125a6565b92915050565b6000604051905090565b600080fd5b600080fd5b600060ff82169050919050565b6125fa816125e4565b811461260557600080fd5b50565b600081359050612617816125f1565b92915050565b6126268161259c565b811461263157600080fd5b50565b6000813590506126438161261d565b92915050565b600080600060608486031215612662576126616125da565b5b600061267086828701612608565b935050602061268186828701612608565b925050604061269286828701612634565b9150509250925092565b600073ffffffffffffffffffffffffffffffffffffffff82169050919050565b60006126c78261269c565b9050919050565b6126d7816126bc565b81146126e257600080fd5b50565b6000813590506126f4816126ce565b92915050565b6000602082840312156127105761270f6125da565b5b600061271e848285016126e5565b91505092915050565b60008115159050919050565b61273c81612727565b82525050565b60006020820190506127576000830184612733565b92915050565b600080fd5b6000601f19601f8301169050919050565b7f4e487b7100000000000000000000000000000000000000000000000000000000600052604160045260246000fd5b6127ab82612762565b810181811067ffffffffffffffff821117156127ca576127c9612773565b5b80604052505050565b60006127dd6125d0565b90506127e982826127a2565b919050565b600067ffffffffffffffff82111561280957612808612773565b5b602082029050602081019050919050565b600080fd5b600061283261282d846127ee565b6127d3565b905080838252602082019050602084028301858111156128555761285461281a565b5b835b8181101561287e578061286a8882612634565b845260208401935050602081019050612857565b5050509392505050565b600082601f83011261289d5761289c61275d565b5b81356128ad84826020860161281f565b91505092915050565b600080604083850312156128cd576128cc6125da565b5b60006128db85828601612634565b925050602083013567ffffffffffffffff8111156128fc576128fb6125df565b5b61290885828601612888565b9150509250929050565b60008060408385031215612929576129286125da565b5b600061293785828601612634565b925050602061294885828601612608565b9150509250929050565b61295b816126bc565b82525050565b60006020820190506129766000830184612952565b92915050565b60008060408385031215612993576129926125da565b5b60006129a185828601612608565b92505060206129b285828601612608565b9150509250929050565b600080fd5b60008083601f8401126129d7576129d661275d565b5b8235905067ffffffffffffffff8111156129f4576129f36129bc565b5b602083019150836001820283011115612a1057612a0f61281a565b5b9250929050565b60008060208385031215612a2e57612a2d6125da565b5b600083013567ffffffffffffffff811115612a4c57612a4b6125df565b5b612a58858286016129c1565b92509250509250929050565b600060208284031215612a7a57612a796125da565b5b6000612a8884828501612634565b91505092915050565b600080fd5b600067ffffffffffffffff821115612ab157612ab0612773565b5b612aba82612762565b9050602081019050919050565b82818337600083830152505050565b6000612ae9612ae484612a96565b6127d3565b905082815260208101848484011115612b0557612b04612a91565b5b612b10848285612ac7565b509392505050565b600082601f830112612b2d57612b2c61275d565b5b8135612b3d848260208601612ad6565b91505092915050565b600060208284031215612b5c57612b5b6125da565b5b600082013567ffffffffffffffff811115612b7a57612b796125df565b5b612b8684828501612b18565b91505092915050565b600081519050919050565b600082825260208201905092915050565b60005b83811015612bc9578082015181840152602081019050612bae565b83811115612bd8576000848401525b50505050565b6000612be982612b8f565b612bf38185612b9a565b9350612c03818560208601612bab565b612c0c81612762565b840191505092915050565b6000604082019050612c2c6000830185612733565b8181036020830152612c3e8184612bde565b90509392505050565b60028110612c5857612c5761250a565b5b50565b6000819050612c6982612c47565b919050565b6000612c7982612c5b565b9050919050565b612c8981612c6e565b82525050565b6000602082019050612ca46000830184612c80565b92915050565b60028110612cbb57612cba61250a565b5b50565b6000819050612ccc82612caa565b919050565b6000612cdc82612cbe565b9050919050565b612cec81612cd1565b82525050565b6000602082019050612d076000830184612ce3565b92915050565b60048110612d1e57612d1d61250a565b5b50565b6000819050612d2f82612d0d565b919050565b6000612d3f82612d21565b9050919050565b612d4f81612d34565b82525050565b6000602082019050612d6a6000830184612d46565b92915050565b6000612d7b8261269c565b9050919050565b612d8b81612d70565b82525050565b6000602082019050612da66000830184612d82565b92915050565b600081519050919050565b600082825260208201905092915050565b6000819050602082019050919050565b612de18161259c565b82525050565b6000612df38383612dd8565b60208301905092915050565b6000602082019050919050565b6000612e1782612dac565b612e218185612db7565b9350612e2c83612dc8565b8060005b83811015612e5d578151612e448882612de7565b9750612e4f83612dff565b925050600181019050612e30565b5085935050505092915050565b60006020820190508181036000830152612e848184612e0c565b905092915050565b6000819050919050565b612e9f81612e8c565b82525050565b6000602082019050612eba6000830184612e96565b92915050565b600067ffffffffffffffff82169050919050565b612edd81612ec0565b82525050565b6000602082019050612ef86000830184612ed4565b92915050565b600063ffffffff82169050919050565b612f1781612efe565b82525050565b6000602082019050612f326000830184612f0e565b92915050565b600081519050612f47816126ce565b92915050565b600060208284031215612f6357612f626125da565b5b6000612f7184828501612f38565b91505092915050565b612f8381612727565b8114612f8e57600080fd5b50565b600081519050612fa081612f7a565b92915050565b600060208284031215612fbc57612fbb6125da565b5b6000612fca84828501612f91565b91505092915050565b600082825260208201905092915050565b7f49742069732063757272656e746c79206e6f742061747461636b20706861736560008201527f2100000000000000000000000000000000000000000000000000000000000000602082015250565b6000613040602183612fd3565b915061304b82612fe4565b604082019050919050565b6000602082019050818103600083015261306f81613033565b9050919050565b61307f816125e4565b82525050565b600060608201905061309a6000830186613076565b6130a76020830185613076565b6130b460408301846125a6565b949350505050565b600081905092915050565b50565b60006130d76000836130bc565b91506130e2826130c7565b600082019050919050565b60006130f8826130ca565b9150819050919050565b60006040820190506131176000830185612952565b6131246020830184612952565b9392505050565b7f4e487b7100000000000000000000000000000000000000000000000000000000600052601160045260246000fd5b60008160011c9050919050565b6000808291508390505b60018511156131b15780860481111561318d5761318c61312b565b5b600185161561319c5780820291505b80810290506131aa8561315a565b9450613171565b94509492505050565b6000826131ca5760019050613286565b816131d85760009050613286565b81600181146131ee57600281146131f857613227565b6001915050613286565b60ff84111561320a5761320961312b565b5b8360020a9150848211156132215761322061312b565b5b50613286565b5060208310610133831016604e8410600b841016171561325c5782820a9050838111156132575761325661312b565b5b613286565b6132698484846001613167565b925090508184048111156132805761327f61312b565b5b81810290505b9392505050565b60006132988261259c565b91506132a3836125e4565b92506132d07fffffffffffffffffffffffffffffffffffffffffffffffffffffffffffffffff84846131ba565b905092915050565b7f4e487b7100000000000000000000000000000000000000000000000000000000600052601260045260246000fd5b60006133128261259c565b915061331d8361259c565b92508261332d5761332c6132d8565b5b828204905092915050565b60006133438261259c565b915061334e8361259c565b92508261335e5761335d6132d8565b5b828206905092915050565b7f49742069732063757272656e746c79206e6f7420666f7274696679207068617360008201527f6521000000000000000000000000000000000000000000000000000000000000602082015250565b60006133c5602283612fd3565b91506133d082613369565b604082019050919050565b600060208201905081810360008301526133f4816133b8565b9050919050565b7f596f757220666f7274696669636174696f6e20617474656d7074206661696c6560008201527f6400000000000000000000000000000000000000000000000000000000000000602082015250565b6000613457602183612fd3565b9150613462826133fb565b604082019050919050565b600060208201905081810360008301526134868161344a565b9050919050565b7f49742069732063757272656e746c79206e6f74206465706c6f7920706861736560008201527f2100000000000000000000000000000000000000000000000000000000000000602082015250565b60006134e9602183612fd3565b91506134f48261348d565b604082019050919050565b60006020820190508181036000830152613518816134dc565b9050919050565b60008151905061352e816125f1565b92915050565b60006020828403121561354a576135496125da565b5b60006135588482850161351f565b91505092915050565b7f596f7520646f206e6f7420686176652074686174206d616e792074726f6f707360008201527f20746f206465706c6f7921000000000000000000000000000000000000000000602082015250565b60006135bd602b83612fd3565b91506135c882613561565b604082019050919050565b600060208201905081810360008301526135ec816135b0565b9050919050565b60006040820190506136086000830185613076565b6136156020830184613076565b9392505050565b60006136278261259c565b91506136328361259c565b9250828210156136455761364461312b565b5b828203905092915050565b7f4e487b7100000000000000000000000000000000000000000000000000000000600052603260045260246000fd5b7f4e487b7100000000000000000000000000000000000000000000000000000000600052603160045260246000fd5b7f436f6e74726f6c7320636f6e74726163742068617320616c726561647920726560008201527f636569766564204d61696e206164647265737300000000000000000000000000602082015250565b600061370a603383612fd3565b9150613715826136ae565b604082019050919050565b60006020820190508181036000830152613739816136fd565b9050919050565b7f53656e64204d6f726520746f20456e746572204c6f6262790000000000000000600082015250565b6000613776601883612fd3565b915061378182613740565b602082019050919050565b600060208201905081810360008301526137a581613769565b9050919050565b7f4c6f6262792069732066756c6c00000000000000000000000000000000000000600082015250565b60006137e2600d83612fd3565b91506137ed826137ac565b602082019050919050565b60006020820190508181036000830152613811816137d5565b9050919050565b7f596f7527766520616c726561647920656e7465726564207468652067616d6521600082015250565b600061384e602083612fd3565b915061385982613818565b602082019050919050565b6000602082019050818103600083015261387d81613841565b9050919050565b600061388f8261259c565b91507fffffffffffffffffffffffffffffffffffffffffffffffffffffffffffffffff8214156138c2576138c161312b565b5b600182019050919050565b60006138d8826125e4565b915060ff8214156138ec576138eb61312b565b5b600182019050919050565b600061ffff82169050919050565b61390e816138f7565b82525050565b6000819050919050565b6000819050919050565b600061394361393e61393984613914565b61391e565b612efe565b9050919050565b61395381613928565b82525050565b600060a08201905061396e6000830188612e96565b61397b6020830187612ed4565b6139886040830186613905565b6139956060830185612f0e565b6139a2608083018461394a565b9695505050505050565b6000815190506139bb8161261d565b92915050565b6000602082840312156139d7576139d66125da565b5b60006139e5848285016139ac565b91505092915050565b6000602082019050613a036000830184613076565b92915050565b6000613a14826125e4565b91506000821415613a2857613a2761312b565b5b60018203905091905056fea2646970667358221220efaaa2f17396e513fdf025fa2cd322ccfcb0b1e706cac0726107bc2ca5af456864736f6c63430008080033",
  "devdoc": {
    "kind": "dev",
    "methods": {},
    "version": 1
  },
  "userdoc": {
    "kind": "user",
    "methods": {
      "getRandomWordsArrayTerritories()": {
        "notice": "Getter Functions "
      },
      "numDigits(uint256)": {
        "notice": "Pure Functions "
      }
    },
    "version": 1
  },
  "storageLayout": {
    "storage": [
      {
        "astId": 2685,
        "contract": "contracts/Main.sol:Main",
        "label": "playerSelection",
        "offset": 0,
        "slot": "0",
        "type": "t_array(t_uint8)dyn_storage"
      },
      {
        "astId": 2694,
        "contract": "contracts/Main.sol:Main",
        "label": "territoriesAssigned",
        "offset": 0,
        "slot": "1",
        "type": "t_array(t_uint8)4_storage"
      },
      {
        "astId": 2697,
        "contract": "contracts/Main.sol:Main",
        "label": "s_gameState",
        "offset": 0,
        "slot": "2",
        "type": "t_enum(GameState)2653"
      },
      {
        "astId": 2700,
        "contract": "contracts/Main.sol:Main",
        "label": "s_lobbyState",
        "offset": 1,
        "slot": "2",
        "type": "t_enum(LobbyState)2648"
      },
      {
        "astId": 2703,
        "contract": "contracts/Main.sol:Main",
        "label": "s_hasRandomWords",
        "offset": 2,
        "slot": "2",
        "type": "t_enum(RandomState)2656"
      },
      {
        "astId": 2706,
        "contract": "contracts/Main.sol:Main",
        "label": "s_players",
        "offset": 0,
        "slot": "3",
        "type": "t_array(t_address_payable)dyn_storage"
      },
      {
        "astId": 2708,
        "contract": "contracts/Main.sol:Main",
        "label": "player_turn",
        "offset": 0,
        "slot": "4",
        "type": "t_address"
      },
      {
        "astId": 2711,
        "contract": "contracts/Main.sol:Main",
        "label": "s_mainSet",
        "offset": 20,
        "slot": "4",
        "type": "t_enum(mainAddressSent)2659"
      },
      {
        "astId": 2715,
        "contract": "contracts/Main.sol:Main",
        "label": "duplicateAddresses",
        "offset": 0,
        "slot": "5",
        "type": "t_mapping(t_address,t_bool)"
      },
      {
        "astId": 2718,
        "contract": "contracts/Main.sol:Main",
        "label": "s_lobbyEntrants",
        "offset": 0,
        "slot": "6",
        "type": "t_array(t_address_payable)dyn_storage"
      },
      {
        "astId": 2720,
        "contract": "contracts/Main.sol:Main",
        "label": "randomWordTerritories",
        "offset": 0,
        "slot": "7",
        "type": "t_uint256"
      },
      {
        "astId": 2722,
        "contract": "contracts/Main.sol:Main",
        "label": "randomWordTroops",
        "offset": 0,
        "slot": "8",
        "type": "t_uint256"
      },
      {
        "astId": 2725,
        "contract": "contracts/Main.sol:Main",
        "label": "s_randomWordsArrayTerritories",
        "offset": 0,
        "slot": "9",
        "type": "t_array(t_uint256)dyn_storage"
      },
      {
        "astId": 2728,
        "contract": "contracts/Main.sol:Main",
        "label": "s_randomWordsArrayTroops",
        "offset": 0,
        "slot": "10",
        "type": "t_array(t_uint256)dyn_storage"
      }
    ],
    "types": {
      "t_address": {
        "encoding": "inplace",
        "label": "address",
        "numberOfBytes": "20"
      },
      "t_address_payable": {
        "encoding": "inplace",
        "label": "address payable",
        "numberOfBytes": "20"
      },
      "t_array(t_address_payable)dyn_storage": {
        "base": "t_address_payable",
        "encoding": "dynamic_array",
        "label": "address payable[]",
        "numberOfBytes": "32"
      },
      "t_array(t_uint256)dyn_storage": {
        "base": "t_uint256",
        "encoding": "dynamic_array",
        "label": "uint256[]",
        "numberOfBytes": "32"
      },
      "t_array(t_uint8)4_storage": {
        "base": "t_uint8",
        "encoding": "inplace",
        "label": "uint8[4]",
        "numberOfBytes": "32"
      },
      "t_array(t_uint8)dyn_storage": {
        "base": "t_uint8",
        "encoding": "dynamic_array",
        "label": "uint8[]",
        "numberOfBytes": "32"
      },
      "t_bool": {
        "encoding": "inplace",
        "label": "bool",
        "numberOfBytes": "1"
      },
      "t_enum(GameState)2653": {
        "encoding": "inplace",
        "label": "enum Main.GameState",
        "numberOfBytes": "1"
      },
      "t_enum(LobbyState)2648": {
        "encoding": "inplace",
        "label": "enum Main.LobbyState",
        "numberOfBytes": "1"
      },
      "t_enum(RandomState)2656": {
        "encoding": "inplace",
        "label": "enum Main.RandomState",
        "numberOfBytes": "1"
      },
      "t_enum(mainAddressSent)2659": {
        "encoding": "inplace",
        "label": "enum Main.mainAddressSent",
        "numberOfBytes": "1"
      },
      "t_mapping(t_address,t_bool)": {
        "encoding": "mapping",
        "key": "t_address",
        "label": "mapping(address => bool)",
        "numberOfBytes": "32",
        "value": "t_bool"
      },
      "t_uint256": {
        "encoding": "inplace",
        "label": "uint256",
        "numberOfBytes": "32"
      },
      "t_uint8": {
        "encoding": "inplace",
        "label": "uint8",
        "numberOfBytes": "1"
      }
    }
  }
}