{
  "address": "0x2279B7A0a67DB372996a5FaB50D91eAA73d2eBe6",
  "abi": [
    {
      "inputs": [
        {
          "internalType": "address",
          "name": "vrfCoordinatorV2",
          "type": "address"
        },
        {
          "internalType": "uint64",
          "name": "subscriptionId",
          "type": "uint64"
        },
        {
          "internalType": "bytes32",
          "name": "gasLane",
          "type": "bytes32"
        },
        {
          "internalType": "uint32",
          "name": "callbackGasLimit",
          "type": "uint32"
        },
        {
          "internalType": "uint256",
          "name": "entranceFee",
          "type": "uint256"
        },
        {
          "internalType": "address",
          "name": "controls",
          "type": "address"
        },
        {
          "internalType": "address",
          "name": "data",
          "type": "address"
        }
      ],
      "stateMutability": "nonpayable",
      "type": "constructor"
    },
    {
      "inputs": [
        {
          "internalType": "address",
          "name": "have",
          "type": "address"
        },
        {
          "internalType": "address",
          "name": "want",
          "type": "address"
        }
      ],
      "name": "OnlyCoordinatorCanFulfill",
      "type": "error"
    },
    {
      "inputs": [],
      "name": "Transfer___Failed",
      "type": "error"
    },
    {
      "anonymous": false,
      "inputs": [],
      "name": "GameSetupComplete",
      "type": "event"
    },
    {
      "anonymous": false,
      "inputs": [],
      "name": "GameStarting",
      "type": "event"
    },
    {
      "anonymous": false,
      "inputs": [],
      "name": "MainReset",
      "type": "event"
    },
    {
      "anonymous": false,
      "inputs": [
        {
          "indexed": true,
          "internalType": "address",
          "name": "player",
          "type": "address"
        }
      ],
      "name": "PlayerJoinedLobby",
      "type": "event"
    },
    {
      "anonymous": false,
      "inputs": [
        {
          "indexed": true,
          "internalType": "uint256",
          "name": "requestId",
          "type": "uint256"
        }
      ],
      "name": "RequestedRandomness",
      "type": "event"
    },
    {
      "anonymous": false,
      "inputs": [
        {
          "indexed": true,
          "internalType": "address",
          "name": "player",
          "type": "address"
        }
      ],
      "name": "WinnerSentFunds",
      "type": "event"
    },
    {
      "anonymous": false,
      "inputs": [],
      "name": "gotRandomness",
      "type": "event"
    },
    {
      "inputs": [
        {
          "internalType": "uint8",
          "name": "useThisTerritory",
          "type": "uint8"
        },
        {
          "internalType": "uint8",
          "name": "toAttackThisTerritory",
          "type": "uint8"
        },
        {
          "internalType": "uint16",
          "name": "withTroopQuantity",
          "type": "uint16"
        }
      ],
      "name": "attack",
      "outputs": [],
      "stateMutability": "nonpayable",
      "type": "function"
    },
    {
      "inputs": [
        {
          "internalType": "bytes",
          "name": "",
          "type": "bytes"
        }
      ],
      "name": "checkUpkeep",
      "outputs": [
        {
          "internalType": "bool",
          "name": "upkeepNeeded",
          "type": "bool"
        },
        {
          "internalType": "bytes",
          "name": "",
          "type": "bytes"
        }
      ],
      "stateMutability": "view",
      "type": "function"
    },
    {
      "inputs": [
        {
          "internalType": "uint8",
          "name": "amountToDeploy",
          "type": "uint8"
        },
        {
          "internalType": "uint8",
          "name": "location",
          "type": "uint8"
        }
      ],
      "name": "deploy",
      "outputs": [],
      "stateMutability": "nonpayable",
      "type": "function"
    },
    {
      "inputs": [
        {
          "internalType": "address",
          "name": "",
          "type": "address"
        }
      ],
      "name": "duplicateAddresses",
      "outputs": [
        {
          "internalType": "bool",
          "name": "",
          "type": "bool"
        }
      ],
      "stateMutability": "view",
      "type": "function"
    },
    {
      "inputs": [],
      "name": "enterLobby",
      "outputs": [],
      "stateMutability": "payable",
      "type": "function"
    },
    {
      "inputs": [],
      "name": "finishAttack",
      "outputs": [],
      "stateMutability": "nonpayable",
      "type": "function"
    },
    {
      "inputs": [
        {
          "internalType": "uint8",
          "name": "territoryMovingFrom",
          "type": "uint8"
        },
        {
          "internalType": "uint8",
          "name": "territoryMovingTo",
          "type": "uint8"
        },
        {
          "internalType": "uint256",
          "name": "troopsMoving",
          "type": "uint256"
        }
      ],
      "name": "fortify",
      "outputs": [],
      "stateMutability": "nonpayable",
      "type": "function"
    },
    {
      "inputs": [],
      "name": "generateTerritoryAndTroops",
      "outputs": [],
      "stateMutability": "payable",
      "type": "function"
    },
    {
      "inputs": [],
      "name": "getCallbackGasLimit",
      "outputs": [
        {
          "internalType": "uint32",
          "name": "",
          "type": "uint32"
        }
      ],
      "stateMutability": "view",
      "type": "function"
    },
    {
      "inputs": [
        {
          "internalType": "uint256",
          "name": "n",
          "type": "uint256"
        },
        {
          "internalType": "uint256",
          "name": "index",
          "type": "uint256"
        }
      ],
      "name": "getDigitAtIndex",
      "outputs": [
        {
          "internalType": "uint256",
          "name": "",
          "type": "uint256"
        }
      ],
      "stateMutability": "pure",
      "type": "function"
    },
    {
      "inputs": [],
      "name": "getEntranceFee",
      "outputs": [
        {
          "internalType": "uint256",
          "name": "",
          "type": "uint256"
        }
      ],
      "stateMutability": "view",
      "type": "function"
    },
    {
      "inputs": [],
      "name": "getGasLane",
      "outputs": [
        {
          "internalType": "bytes32",
          "name": "",
          "type": "bytes32"
        }
      ],
      "stateMutability": "view",
      "type": "function"
    },
    {
      "inputs": [],
      "name": "getLobbyState",
      "outputs": [
        {
          "internalType": "enum Main.LobbyState",
          "name": "",
          "type": "uint8"
        }
      ],
      "stateMutability": "view",
      "type": "function"
    },
    {
      "inputs": [],
      "name": "getNumberOfPlayers",
      "outputs": [
        {
          "internalType": "uint256",
          "name": "",
          "type": "uint256"
        }
      ],
      "stateMutability": "view",
      "type": "function"
    },
    {
      "inputs": [
        {
          "internalType": "uint256",
          "name": "index",
          "type": "uint256"
        }
      ],
      "name": "getPlayer",
      "outputs": [
        {
          "internalType": "address",
          "name": "",
          "type": "address"
        }
      ],
      "stateMutability": "view",
      "type": "function"
    },
    {
      "inputs": [],
      "name": "getRandomNumber",
      "outputs": [],
      "stateMutability": "payable",
      "type": "function"
    },
    {
      "inputs": [],
      "name": "getRandomWord",
      "outputs": [
        {
          "internalType": "uint256",
          "name": "",
          "type": "uint256"
        }
      ],
      "stateMutability": "view",
      "type": "function"
    },
    {
      "inputs": [],
      "name": "getRequestConfirmations",
      "outputs": [
        {
          "internalType": "uint256",
          "name": "",
          "type": "uint256"
        }
      ],
      "stateMutability": "pure",
      "type": "function"
    },
    {
      "inputs": [],
      "name": "getSubscriptionId",
      "outputs": [
        {
          "internalType": "uint64",
          "name": "",
          "type": "uint64"
        }
      ],
      "stateMutability": "view",
      "type": "function"
    },
    {
      "inputs": [
        {
          "internalType": "uint256",
          "name": "number",
          "type": "uint256"
        }
      ],
      "name": "numDigits",
      "outputs": [
        {
          "internalType": "uint256",
          "name": "",
          "type": "uint256"
        }
      ],
      "stateMutability": "pure",
      "type": "function"
    },
    {
      "inputs": [
        {
          "internalType": "address",
          "name": "winner",
          "type": "address"
        }
      ],
      "name": "payWinner",
      "outputs": [
        {
          "internalType": "bool",
          "name": "",
          "type": "bool"
        }
      ],
      "stateMutability": "nonpayable",
      "type": "function"
    },
    {
      "inputs": [
        {
          "internalType": "bytes",
          "name": "",
          "type": "bytes"
        }
      ],
      "name": "performUpkeep",
      "outputs": [],
      "stateMutability": "nonpayable",
      "type": "function"
    },
    {
      "inputs": [],
      "name": "player_turn",
      "outputs": [
        {
          "internalType": "address",
          "name": "",
          "type": "address"
        }
      ],
      "stateMutability": "view",
      "type": "function"
    },
    {
      "inputs": [
        {
          "internalType": "uint256",
          "name": "requestId",
          "type": "uint256"
        },
        {
          "internalType": "uint256[]",
          "name": "randomWords",
          "type": "uint256[]"
        }
      ],
      "name": "rawFulfillRandomWords",
      "outputs": [],
      "stateMutability": "nonpayable",
      "type": "function"
    },
    {
      "inputs": [],
      "name": "s_gameState",
      "outputs": [
        {
          "internalType": "enum Main.GameState",
          "name": "",
          "type": "uint8"
        }
      ],
      "stateMutability": "view",
      "type": "function"
    },
    {
      "inputs": [],
      "name": "s_hasRandomWords",
      "outputs": [
        {
          "internalType": "enum Main.RandomState",
          "name": "",
          "type": "uint8"
        }
      ],
      "stateMutability": "view",
      "type": "function"
    },
    {
      "inputs": [
        {
          "internalType": "uint256",
          "name": "",
          "type": "uint256"
        }
      ],
      "name": "s_lobbyEntrants",
      "outputs": [
        {
          "internalType": "address payable",
          "name": "",
          "type": "address"
        }
      ],
      "stateMutability": "view",
      "type": "function"
    },
    {
      "inputs": [],
      "name": "s_lobbyState",
      "outputs": [
        {
          "internalType": "enum Main.LobbyState",
          "name": "",
          "type": "uint8"
        }
      ],
      "stateMutability": "view",
      "type": "function"
    },
    {
      "inputs": [],
      "name": "s_mainSet",
      "outputs": [
        {
          "internalType": "enum Main.mainAddressSent",
          "name": "",
          "type": "uint8"
        }
      ],
      "stateMutability": "view",
      "type": "function"
    },
    {
      "inputs": [
        {
          "internalType": "uint256",
          "name": "",
          "type": "uint256"
        }
      ],
      "name": "s_players",
      "outputs": [
        {
          "internalType": "address payable",
          "name": "",
          "type": "address"
        }
      ],
      "stateMutability": "view",
      "type": "function"
    },
    {
      "inputs": [],
      "name": "setMainAddress",
      "outputs": [],
      "stateMutability": "nonpayable",
      "type": "function"
    },
    {
      "inputs": [],
      "name": "testKeeper",
      "outputs": [],
      "stateMutability": "nonpayable",
      "type": "function"
    }
  ],
  "transactionHash": "0xf331eeedef55f60762a1ec381d3cb75c341ab19545369dce2107ee7da7e87deb",
  "args": [
    "0x5FbDB2315678afecb367f032d93F642f64180aa3",
    "2",
    "0x79d3d8832d904592c0bf9818b621522c988bb8b0c05cdc3b15aea1b6e8db0c15",
    "30000000",
    "100000000000000000",
    "0xDc64a140Aa3E981100a9becA4E685f962f0cF6C9",
    "0xe7f1725E7734CE288F8367e1Bb143E90bb3F0512"
  ],
  "numDeployments": 1,
  "solcInputHash": "c25ae4566a1e22895c4b2d1e7fc9304e",
  "bytecode": "0x6101806040523480156200001257600080fd5b5060405162004ea138038062004ea183398181016040528101906200003891906200035b565b868073ffffffffffffffffffffffffffffffffffffffff1660808173ffffffffffffffffffffffffffffffffffffffff1660601b81525050508673ffffffffffffffffffffffffffffffffffffffff1660a08173ffffffffffffffffffffffffffffffffffffffff1660601b815250508567ffffffffffffffff1660c08167ffffffffffffffff1660c01b815250508460e081815250508363ffffffff166101008163ffffffff1660e01b8152505082610120818152505060008060016101000a81548160ff021916908360018111156200011857620001176200040e565b5b021790555060036000806101000a81548160ff021916908360038111156200014557620001446200040e565b5b02179055506001600260146101000a81548160ff021916908360018111156200017357620001726200040e565b5b02179055508173ffffffffffffffffffffffffffffffffffffffff166101408173ffffffffffffffffffffffffffffffffffffffff1660601b815250508073ffffffffffffffffffffffffffffffffffffffff166101608173ffffffffffffffffffffffffffffffffffffffff1660601b81525050505050505050506200043d565b600080fd5b600073ffffffffffffffffffffffffffffffffffffffff82169050919050565b60006200022782620001fa565b9050919050565b62000239816200021a565b81146200024557600080fd5b50565b60008151905062000259816200022e565b92915050565b600067ffffffffffffffff82169050919050565b6200027e816200025f565b81146200028a57600080fd5b50565b6000815190506200029e8162000273565b92915050565b6000819050919050565b620002b981620002a4565b8114620002c557600080fd5b50565b600081519050620002d981620002ae565b92915050565b600063ffffffff82169050919050565b620002fa81620002df565b81146200030657600080fd5b50565b6000815190506200031a81620002ef565b92915050565b6000819050919050565b620003358162000320565b81146200034157600080fd5b50565b60008151905062000355816200032a565b92915050565b600080600080600080600060e0888a0312156200037d576200037c620001f5565b5b60006200038d8a828b0162000248565b9750506020620003a08a828b016200028d565b9650506040620003b38a828b01620002c8565b9550506060620003c68a828b0162000309565b9450506080620003d98a828b0162000344565b93505060a0620003ec8a828b0162000248565b92505060c0620003ff8a828b0162000248565b91505092959891949750929550565b7f4e487b7100000000000000000000000000000000000000000000000000000000600052602160045260246000fd5b60805160601c60a05160601c60c05160c01c60e0516101005160e01c610120516101405160601c6101605160601c6149166200058b60003960005050600081816107a5015281816109b401528181610b0101528181610c4701528181610d2001528181610e3e01528181610ed20152818161101b015281816111030152818161124d015281816112dd015281816113b6015281816115f101528181611761015281816123180152818161255f01528181612643015281816127270152818161280b0152818161297a01528181612a4501528181612b5a01528181612c2501528181612d3a01528181612e0501528181612f260152612ff10152600081816107470152611856015260008181611bf401526120560152600081816117f10152612012015260008181611bcc015261203301526000611fd60152600081816108f4015261094801526149166000f3fe6080604052600436106101e35760003560e01c80638d2ed99711610102578063d9eb8a4411610095578063de8be8e711610064578063de8be8e714610660578063e55ae4e81461068b578063ef00ebb3146106c8578063fd6673f514610705576101e3565b8063d9eb8a44146105e4578063db9d28d5146105ee578063dbdff2c11461062b578063de3d9fb714610635576101e3565b8063ae771f6b116100d1578063ae771f6b14610528578063b6ec89e014610565578063c19dd76b1461057c578063d4e94c46146105a7576101e3565b80638d2ed9971461049057806399c914fb146104bb578063a6ac3b10146104d2578063a75454f4146104fd576101e3565b80633bbbed131161017a5780635f1b0fd8116101495780635f1b0fd8146103f25780636e04ff0d1461041d57806371e6c8421461045b5780638486292114610486576101e3565b80633bbbed13146103605780633d777d95146103895780634585e33b146103b2578063505e53ab146103db576101e3565b806319b09f9b116101b657806319b09f9b146102a65780631fe543e3146102e35780633691770a1461030c5780633b63601e14610335576101e3565b806304889afb146101e857806309bc33a7146102135780630fb081df1461023e5780631664bb6314610269575b600080fd5b3480156101f457600080fd5b506101fd610730565b60405161020a91906131f6565b60405180910390f35b34801561021f57600080fd5b50610228610743565b604051610235919061322a565b60405180910390f35b34801561024a57600080fd5b5061025361076b565b60405161026091906131f6565b60405180910390f35b34801561027557600080fd5b50610290600480360381019061028b91906132b7565b610781565b60405161029d91906132ff565b60405180910390f35b3480156102b257600080fd5b506102cd60048036038101906102c891906132b7565b6107a1565b6040516102da91906132ff565b60405180910390f35b3480156102ef57600080fd5b5061030a6004803603810190610305919061349f565b6108f2565b005b34801561031857600080fd5b50610333600480360381019061032e9190613534565b6109b2565b005b34801561034157600080fd5b5061034a610c1f565b6040516103579190613596565b60405180910390f35b34801561036c57600080fd5b50610387600480360381019061038291906135eb565b610c45565b005b34801561039557600080fd5b506103b060048036038101906103ab919061363e565b610ed0565b005b3480156103be57600080fd5b506103d960048036038101906103d491906136d9565b6111ed565b005b3480156103e757600080fd5b506103f06112db565b005b3480156103fe57600080fd5b5061040761148a565b604051610414919061322a565b60405180910390f35b34801561042957600080fd5b50610444600480360381019061043f91906137db565b611497565b6040516104529291906138ac565b60405180910390f35b34801561046757600080fd5b5061047061154a565b60405161047d9190613924565b60405180910390f35b61048e61155d565b005b34801561049c57600080fd5b506104a5611567565b6040516104b29190613987565b60405180910390f35b3480156104c757600080fd5b506104d061157a565b005b3480156104de57600080fd5b506104e76116a7565b6040516104f491906139ea565b60405180910390f35b34801561050957600080fd5b506105126116b8565b60405161051f919061322a565b60405180910390f35b34801561053457600080fd5b5061054f600480360381019061054a9190613a05565b6116c2565b60405161055c9190613a53565b60405180910390f35b34801561057157600080fd5b5061057a611701565b005b34801561058857600080fd5b506105916117ed565b60405161059e9190613a87565b60405180910390f35b3480156105b357600080fd5b506105ce60048036038101906105c99190613a05565b611815565b6040516105db9190613a53565b60405180910390f35b6105ec611854565b005b3480156105fa57600080fd5b5061061560048036038101906106109190613a05565b611b89565b604051610622919061322a565b60405180910390f35b610633611bbe565b005b34801561064157600080fd5b5061064a611bc8565b6040516106579190613ac5565b60405180910390f35b34801561066c57600080fd5b50610675611bf0565b6040516106829190613aff565b60405180910390f35b34801561069757600080fd5b506106b260048036038101906106ad9190613a05565b611c18565b6040516106bf9190613596565b60405180910390f35b3480156106d457600080fd5b506106ef60048036038101906106ea9190613b1a565b611c60565b6040516106fc919061322a565b60405180910390f35b34801561071157600080fd5b5061071a611c8e565b604051610727919061322a565b60405180910390f35b600060019054906101000a900460ff1681565b60007f0000000000000000000000000000000000000000000000000000000000000000905090565b60008060019054906101000a900460ff16905090565b60036020528060005260406000206000915054906101000a900460ff1681565b60007f000000000000000000000000000000000000000000000000000000000000000073ffffffffffffffffffffffffffffffffffffffff163373ffffffffffffffffffffffffffffffffffffffff16146107fb57600080fd5b60008273ffffffffffffffffffffffffffffffffffffffff164760405161082190613b8b565b60006040518083038185875af1925050503d806000811461085e576040519150601f19603f3d011682016040523d82523d6000602084013e610863565b606091505b505090508061089e576040517faad40e9700000000000000000000000000000000000000000000000000000000815260040160405180910390fd5b8273ffffffffffffffffffffffffffffffffffffffff167f6484268da2aca55c67beef4127a9a4f83ec74ff7fa3d896a9b23c86e12427e7b60405160405180910390a26108e9611c9b565b80915050919050565b7f000000000000000000000000000000000000000000000000000000000000000073ffffffffffffffffffffffffffffffffffffffff163373ffffffffffffffffffffffffffffffffffffffff16146109a457337f00000000000000000000000000000000000000000000000000000000000000006040517f1cf993f400000000000000000000000000000000000000000000000000000000815260040161099b929190613ba0565b60405180910390fd5b6109ae8282611e35565b5050565b7f000000000000000000000000000000000000000000000000000000000000000073ffffffffffffffffffffffffffffffffffffffff16632572cd6e6040518163ffffffff1660e01b815260040160206040518083038186803b158015610a1857600080fd5b505afa158015610a2c573d6000803e3d6000fd5b505050506040513d601f19601f82011682018060405250810190610a509190613bde565b73ffffffffffffffffffffffffffffffffffffffff163373ffffffffffffffffffffffffffffffffffffffff1614610a8757600080fd5b60026003811115610a9b57610a9a61317f565b5b60008054906101000a900460ff166003811115610abb57610aba61317f565b5b14610afb576040517f08c379a0000000000000000000000000000000000000000000000000000000008152600401610af290613c8e565b60405180910390fd5b600115157f000000000000000000000000000000000000000000000000000000000000000073ffffffffffffffffffffffffffffffffffffffff1663ada2c7a88585856040518463ffffffff1660e01b8152600401610b5c93929190613cbd565b602060405180830381600087803b158015610b7657600080fd5b505af1158015610b8a573d6000803e3d6000fd5b505050506040513d601f19601f82011682018060405250810190610bae9190613d20565b151514610bf0576040517f08c379a0000000000000000000000000000000000000000000000000000000008152600401610be790613dbf565b60405180910390fd5b60008060006101000a81548160ff02191690836003811115610c1557610c1461317f565b5b0217905550505050565b600260009054906101000a900473ffffffffffffffffffffffffffffffffffffffff1681565b7f000000000000000000000000000000000000000000000000000000000000000073ffffffffffffffffffffffffffffffffffffffff16632572cd6e6040518163ffffffff1660e01b815260040160206040518083038186803b158015610cab57600080fd5b505afa158015610cbf573d6000803e3d6000fd5b505050506040513d601f19601f82011682018060405250810190610ce39190613bde565b73ffffffffffffffffffffffffffffffffffffffff163373ffffffffffffffffffffffffffffffffffffffff1614610d1a57600080fd5b600015157f000000000000000000000000000000000000000000000000000000000000000073ffffffffffffffffffffffffffffffffffffffff1663af0b94d46040518163ffffffff1660e01b815260040160206040518083038186803b158015610d8457600080fd5b505afa158015610d98573d6000803e3d6000fd5b505050506040513d601f19601f82011682018060405250810190610dbc9190613d20565b151514610dc857600080fd5b60016003811115610ddc57610ddb61317f565b5b60008054906101000a900460ff166003811115610dfc57610dfb61317f565b5b14610e3c576040517f08c379a0000000000000000000000000000000000000000000000000000000008152600401610e3390613e51565b60405180910390fd5b7f000000000000000000000000000000000000000000000000000000000000000073ffffffffffffffffffffffffffffffffffffffff1663975e815c8484846040518463ffffffff1660e01b8152600401610e9993929190613e80565b600060405180830381600087803b158015610eb357600080fd5b505af1158015610ec7573d6000803e3d6000fd5b50505050505050565b7f000000000000000000000000000000000000000000000000000000000000000073ffffffffffffffffffffffffffffffffffffffff16632572cd6e6040518163ffffffff1660e01b815260040160206040518083038186803b158015610f3657600080fd5b505afa158015610f4a573d6000803e3d6000fd5b505050506040513d601f19601f82011682018060405250810190610f6e9190613bde565b73ffffffffffffffffffffffffffffffffffffffff163373ffffffffffffffffffffffffffffffffffffffff1614610fa557600080fd5b60006003811115610fb957610fb861317f565b5b60008054906101000a900460ff166003811115610fd957610fd861317f565b5b14611019576040517f08c379a000000000000000000000000000000000000000000000000000000000815260040161101090613f29565b60405180910390fd5b7f000000000000000000000000000000000000000000000000000000000000000073ffffffffffffffffffffffffffffffffffffffff1663b6d5bc6f6040518163ffffffff1660e01b815260040160206040518083038186803b15801561107f57600080fd5b505afa158015611093573d6000803e3d6000fd5b505050506040513d601f19601f820116820180604052508101906110b79190613f5e565b60ff168260ff1611156110ff576040517f08c379a00000000000000000000000000000000000000000000000000000000081526004016110f690613ffd565b60405180910390fd5b60007f000000000000000000000000000000000000000000000000000000000000000073ffffffffffffffffffffffffffffffffffffffff1663041dcfcc84846040518363ffffffff1660e01b815260040161115c92919061401d565b602060405180830381600087803b15801561117657600080fd5b505af115801561118a573d6000803e3d6000fd5b505050506040513d601f19601f820116820180604052508101906111ae9190613d20565b90506000151581151514156111e85760016000806101000a81548160ff021916908360038111156111e2576111e161317f565b5b02179055505b505050565b6111f5611e87565b7fcda6b16767f05ec2f16325d372b235b450091ed813db76d6c3d98a26e52078a560405160405180910390a160008060006101000a81548160ff021916908360038111156112465761124561317f565b5b02179055507f000000000000000000000000000000000000000000000000000000000000000073ffffffffffffffffffffffffffffffffffffffff1663c758c12660016040518263ffffffff1660e01b81526004016112a5919061416a565b600060405180830381600087803b1580156112bf57600080fd5b505af11580156112d3573d6000803e3d6000fd5b505050505050565b7f000000000000000000000000000000000000000000000000000000000000000073ffffffffffffffffffffffffffffffffffffffff16632572cd6e6040518163ffffffff1660e01b815260040160206040518083038186803b15801561134157600080fd5b505afa158015611355573d6000803e3d6000fd5b505050506040513d601f19601f820116820180604052508101906113799190613bde565b73ffffffffffffffffffffffffffffffffffffffff163373ffffffffffffffffffffffffffffffffffffffff16146113b057600080fd5b600015157f000000000000000000000000000000000000000000000000000000000000000073ffffffffffffffffffffffffffffffffffffffff1663af0b94d46040518163ffffffff1660e01b815260040160206040518083038186803b15801561141a57600080fd5b505afa15801561142e573d6000803e3d6000fd5b505050506040513d601f19601f820116820180604052508101906114529190613d20565b15151461145e57600080fd5b60026000806101000a81548160ff021916908360038111156114835761148261317f565b5b0217905550565b6000600361ffff16905090565b6000606060006001808111156114b0576114af61317f565b5b600060019054906101000a900460ff1660018111156114d2576114d161317f565b5b149050600060046001805490501490506000804711905060008060018111156114fe576114fd61317f565b5b600060029054906101000a900460ff1660018111156115205761151f61317f565b5b14905083801561152d5750825b80156115365750815b801561153f5750805b955050505050915091565b600060029054906101000a900460ff1681565b611565611e87565b565b600260149054906101000a900460ff1681565b60018081111561158d5761158c61317f565b5b600260149054906101000a900460ff1660018111156115af576115ae61317f565b5b146115ef576040517f08c379a00000000000000000000000000000000000000000000000000000000081526004016115e6906141fe565b60405180910390fd5b7f000000000000000000000000000000000000000000000000000000000000000073ffffffffffffffffffffffffffffffffffffffff166305ca49b0306040518263ffffffff1660e01b81526004016116489190613596565b600060405180830381600087803b15801561166257600080fd5b505af1158015611676573d6000803e3d6000fd5b505050506000600260146101000a81548160ff021916908360018111156116a05761169f61317f565b5b0217905550565b60008054906101000a900460ff1681565b6000600554905090565b600181815481106116d257600080fd5b906000526020600020016000915054906101000a900473ffffffffffffffffffffffffffffffffffffffff1681565b611709611e87565b7fcda6b16767f05ec2f16325d372b235b450091ed813db76d6c3d98a26e52078a560405160405180910390a160008060006101000a81548160ff0219169083600381111561175a5761175961317f565b5b02179055507f000000000000000000000000000000000000000000000000000000000000000073ffffffffffffffffffffffffffffffffffffffff1663c758c12660016040518263ffffffff1660e01b81526004016117b9919061416a565b600060405180830381600087803b1580156117d357600080fd5b505af11580156117e7573d6000803e3d6000fd5b50505050565b60007f0000000000000000000000000000000000000000000000000000000000000000905090565b6004818154811061182557600080fd5b906000526020600020016000915054906101000a900473ffffffffffffffffffffffffffffffffffffffff1681565b7f00000000000000000000000000000000000000000000000000000000000000003410156118b7576040517f08c379a00000000000000000000000000000000000000000000000000000000081526004016118ae9061426a565b60405180910390fd5b600060018111156118cb576118ca61317f565b5b600060019054906101000a900460ff1660018111156118ed576118ec61317f565b5b1461192d576040517f08c379a0000000000000000000000000000000000000000000000000000000008152600401611924906142d6565b60405180910390fd5b60001515600360003373ffffffffffffffffffffffffffffffffffffffff1673ffffffffffffffffffffffffffffffffffffffff16815260200190815260200160002060009054906101000a900460ff161515146119c0576040517f08c379a00000000000000000000000000000000000000000000000000000000081526004016119b790614342565b60405180910390fd5b6001339080600181540180825580915050600190039060005260206000200160009091909190916101000a81548173ffffffffffffffffffffffffffffffffffffffff021916908373ffffffffffffffffffffffffffffffffffffffff1602179055506004339080600181540180825580915050600190039060005260206000200160009091909190916101000a81548173ffffffffffffffffffffffffffffffffffffffff021916908373ffffffffffffffffffffffffffffffffffffffff1602179055503373ffffffffffffffffffffffffffffffffffffffff167fa0df676a3a1d8a4dc693c144ac79c01945b4464a07bccdbf66c068127c32cfd760405160405180910390a26001600360003373ffffffffffffffffffffffffffffffffffffffff1673ffffffffffffffffffffffffffffffffffffffff16815260200190815260200160002060006101000a81548160ff02191690831515021790555060046001805490501415611b87576001600060016101000a81548160ff02191690836001811115611b5557611b5461317f565b5b02179055507f095744e432dd463fbf0fa4a256e21ddb462dbc9cc4e27248ebd5a28d759cc9e560405160405180910390a15b565b6000805b60008314611bb557600a83611ba291906143c0565b925080611bae906143f1565b9050611b8d565b80915050919050565b611bc6611fd2565b565b60007f0000000000000000000000000000000000000000000000000000000000000000905090565b60007f0000000000000000000000000000000000000000000000000000000000000000905090565b600060018281548110611c2e57611c2d61443a565b5b9060005260206000200160009054906101000a900473ffffffffffffffffffffffffffffffffffffffff169050919050565b6000600a82600a611c71919061459c565b84611c7c91906143c0565b611c8691906145e7565b905092915050565b6000600180549050905090565b60008060016101000a81548160ff02191690836001811115611cc057611cbf61317f565b5b0217905550600067ffffffffffffffff811115611ce057611cdf61335c565b5b604051908082528060200260200182016040528015611d0e5781602001602082028036833780820191505090505b5060019080519060200190611d249291906130b6565b5060036000806101000a81548160ff02191690836003811115611d4a57611d4961317f565b5b021790555060005b600480549050811015611e065760006003600060048481548110611d7957611d7861443a565b5b9060005260206000200160009054906101000a900473ffffffffffffffffffffffffffffffffffffffff1673ffffffffffffffffffffffffffffffffffffffff1673ffffffffffffffffffffffffffffffffffffffff16815260200190815260200160002060006101000a81548160ff02191690831515021790555080611dff906143f1565b9050611d52565b507fddf25b659ac34302a47d8558d65f7af2579a28dd349a418009a1754bd599928460405160405180910390a1565b80600081518110611e4957611e4861443a565b5b60200260200101516005819055507ffbb70d2846767293cb82ce688c3768de4b71a06d5f547369d2987abd387c2aba60405160405180910390a15050565b6000602a67ffffffffffffffff811115611ea457611ea361335c565b5b604051908082528060200260200182016040528015611ed25781602001602082028036833780820191505090505b5090506000611ee2600554611b89565b905060008060005b602a811015611fc257600a80600184611f039190614618565b600a611f0f919061459c565b600554611f1c91906143c0565b611f2691906145e7565b611f30919061466e565b600a83600a611f3f919061459c565b600554611f4c91906143c0565b611f5691906145e7565b611f609190614618565b925082858281518110611f7657611f7561443a565b5b60200260200101818152505080611f8c906143f1565b90506003841115611fb157600284611fa491906146c8565b821415611fb057600091505b5b81611fbb906143f1565b9150611eea565b611fcb8561211b565b5050505050565b60007f000000000000000000000000000000000000000000000000000000000000000073ffffffffffffffffffffffffffffffffffffffff16635d3b1d307f00000000000000000000000000000000000000000000000000000000000000007f000000000000000000000000000000000000000000000000000000000000000060037f000000000000000000000000000000000000000000000000000000000000000060016040518663ffffffff1660e01b8152600401612097959493929190614741565b602060405180830381600087803b1580156120b157600080fd5b505af11580156120c5573d6000803e3d6000fd5b505050506040513d601f19601f820116820180604052508101906120e991906147a9565b9050807f5d7d0431c4991fcc9f63f03ad0ead4128b866a8ed115a818b6d87a3afedb726460405160405180910390a250565b6000602a67ffffffffffffffff8111156121385761213761335c565b5b6040519080825280602002602001820160405280156121665781602001602082028036833780820191505090505b509050612171613140565b60006040518060800160405280600060ff168152602001600160ff168152602001600260ff168152602001600360ff1681525090506000600a905060006004905060008060005b602a811015612315578360ff168982815181106121d8576121d761443a565b5b60200260200101516121ea91906145e7565b92508583600481106121ff576121fe61443a565b5b602002015191508188828151811061221a5761221961443a565b5b602002602001019060ff16908160ff1681525050868260ff16600481106122445761224361443a565b5b602002018051612253906143f1565b9081815250508460ff16878360ff16600481106122735761227261443a565b5b60200201511415612304578583600481106122915761229061443a565b5b60200201600060ff1681525085600160046122ac91906146c8565b600481106122bd576122bc61443a565b5b60200201518684600481106122d5576122d461443a565b5b602002019060ff16908160ff1681525050836122f0906147d6565b935060028460ff16141561230357600b94505b5b8061230e906143f1565b90506121b8565b507f000000000000000000000000000000000000000000000000000000000000000073ffffffffffffffffffffffffffffffffffffffff16633381c5b9886040518263ffffffff1660e01b815260040161236f91906148be565b600060405180830381600087803b15801561238957600080fd5b505af115801561239d573d6000803e3d6000fd5b505050506123ab88876123b5565b5050505050505050565b6000806000836000600481106123ce576123cd61443a565b5b602002015167ffffffffffffffff8111156123ec576123eb61335c565b5b60405190808252806020026020018201604052801561241a5781602001602082028036833780820191505090505b509050600080856001600481106124345761243361443a565b5b602002015167ffffffffffffffff8111156124525761245161335c565b5b6040519080825280602002602001820160405280156124805781602001602082028036833780820191505090505b5090506000808760026004811061249a5761249961443a565b5b602002015167ffffffffffffffff8111156124b8576124b761335c565b5b6040519080825280602002602001820160405280156124e65781602001602082028036833780820191505090505b50905060008089600360048110612500576124ff61443a565b5b602002015167ffffffffffffffff81111561251e5761251d61335c565b5b60405190808252806020026020018201604052801561254c5781602001602082028036833780820191505090505b50905060005b602a8110156128fb5760007f000000000000000000000000000000000000000000000000000000000000000073ffffffffffffffffffffffffffffffffffffffff1663780b5bf9836040518263ffffffff1660e01b81526004016125b6919061322a565b602060405180830381600087803b1580156125d057600080fd5b505af11580156125e4573d6000803e3d6000fd5b505050506040513d601f19601f8201168201806040525081019061260891906147a9565b141561263f5780888a8061261b906143f1565b9b508151811061262e5761262d61443a565b5b6020026020010181815250506128ea565b60017f000000000000000000000000000000000000000000000000000000000000000073ffffffffffffffffffffffffffffffffffffffff1663780b5bf9836040518263ffffffff1660e01b815260040161269a919061322a565b602060405180830381600087803b1580156126b457600080fd5b505af11580156126c8573d6000803e3d6000fd5b505050506040513d601f19601f820116820180604052508101906126ec91906147a9565b141561272357808688806126ff906143f1565b9950815181106127125761271161443a565b5b6020026020010181815250506128e9565b60027f000000000000000000000000000000000000000000000000000000000000000073ffffffffffffffffffffffffffffffffffffffff1663780b5bf9836040518263ffffffff1660e01b815260040161277e919061322a565b602060405180830381600087803b15801561279857600080fd5b505af11580156127ac573d6000803e3d6000fd5b505050506040513d601f19601f820116820180604052508101906127d091906147a9565b141561280757808486806127e3906143f1565b9750815181106127f6576127f561443a565b5b6020026020010181815250506128e8565b60037f000000000000000000000000000000000000000000000000000000000000000073ffffffffffffffffffffffffffffffffffffffff1663780b5bf9836040518263ffffffff1660e01b8152600401612862919061322a565b602060405180830381600087803b15801561287c57600080fd5b505af1158015612890573d6000803e3d6000fd5b505050506040513d601f19601f820116820180604052508101906128b491906147a9565b14156128e757808284806128c7906143f1565b9550815181106128da576128d961443a565b5b6020026020010181815250505b5b5b5b806128f4906143f1565b9050612552565b5060005b60148110156130a85760008b60006004811061291e5761291d61443a565b5b60200201518d8c815181106129365761293561443a565b5b602002602001015161294891906145e7565b9050600b8c6000600481106129605761295f61443a565b5b6020020151148015612973575060138214155b15612a22577f000000000000000000000000000000000000000000000000000000000000000073ffffffffffffffffffffffffffffffffffffffff16635a1095f38a83815181106129c7576129c661443a565b5b60200260200101516040518263ffffffff1660e01b81526004016129eb919061322a565b600060405180830381600087803b158015612a0557600080fd5b505af1158015612a19573d6000803e3d6000fd5b50505050612aea565b600a8c600060048110612a3857612a3761443a565b5b60200201511415612ae9577f000000000000000000000000000000000000000000000000000000000000000073ffffffffffffffffffffffffffffffffffffffff16635a1095f38a8381518110612a9257612a9161443a565b5b60200260200101516040518263ffffffff1660e01b8152600401612ab6919061322a565b600060405180830381600087803b158015612ad057600080fd5b505af1158015612ae4573d6000803e3d6000fd5b505050505b5b8b600160048110612afe57612afd61443a565b5b60200201518d8c81518110612b1657612b1561443a565b5b6020026020010151612b2891906145e7565b9050600b8c600160048110612b4057612b3f61443a565b5b6020020151148015612b53575060138214155b15612c02577f000000000000000000000000000000000000000000000000000000000000000073ffffffffffffffffffffffffffffffffffffffff16635a1095f3888381518110612ba757612ba661443a565b5b60200260200101516040518263ffffffff1660e01b8152600401612bcb919061322a565b600060405180830381600087803b158015612be557600080fd5b505af1158015612bf9573d6000803e3d6000fd5b50505050612cca565b600a8c600160048110612c1857612c1761443a565b5b60200201511415612cc9577f000000000000000000000000000000000000000000000000000000000000000073ffffffffffffffffffffffffffffffffffffffff16635a1095f3888381518110612c7257612c7161443a565b5b60200260200101516040518263ffffffff1660e01b8152600401612c96919061322a565b600060405180830381600087803b158015612cb057600080fd5b505af1158015612cc4573d6000803e3d6000fd5b505050505b5b8b600260048110612cde57612cdd61443a565b5b60200201518d8c81518110612cf657612cf561443a565b5b6020026020010151612d0891906145e7565b9050600b8c600260048110612d2057612d1f61443a565b5b6020020151148015612d33575060138214155b15612de2577f000000000000000000000000000000000000000000000000000000000000000073ffffffffffffffffffffffffffffffffffffffff16635a1095f3868381518110612d8757612d8661443a565b5b60200260200101516040518263ffffffff1660e01b8152600401612dab919061322a565b600060405180830381600087803b158015612dc557600080fd5b505af1158015612dd9573d6000803e3d6000fd5b50505050612eaa565b600a8c600260048110612df857612df761443a565b5b60200201511415612ea9577f000000000000000000000000000000000000000000000000000000000000000073ffffffffffffffffffffffffffffffffffffffff16635a1095f3868381518110612e5257612e5161443a565b5b60200260200101516040518263ffffffff1660e01b8152600401612e76919061322a565b600060405180830381600087803b158015612e9057600080fd5b505af1158015612ea4573d6000803e3d6000fd5b505050505b5b8b600360048110612ebe57612ebd61443a565b5b60200201518d8c80612ecf906143f1565b9d5081518110612ee257612ee161443a565b5b6020026020010151612ef491906145e7565b9050600b8c600360048110612f0c57612f0b61443a565b5b6020020151148015612f1f575060138214155b15612fce577f000000000000000000000000000000000000000000000000000000000000000073ffffffffffffffffffffffffffffffffffffffff16635a1095f3848381518110612f7357612f7261443a565b5b60200260200101516040518263ffffffff1660e01b8152600401612f97919061322a565b600060405180830381600087803b158015612fb157600080fd5b505af1158015612fc5573d6000803e3d6000fd5b50505050613096565b600a8c600360048110612fe457612fe361443a565b5b60200201511415613095577f000000000000000000000000000000000000000000000000000000000000000073ffffffffffffffffffffffffffffffffffffffff16635a1095f384838151811061303e5761303d61443a565b5b60200260200101516040518263ffffffff1660e01b8152600401613062919061322a565b600060405180830381600087803b15801561307c57600080fd5b505af1158015613090573d6000803e3d6000fd5b505050505b5b50806130a1906143f1565b90506128ff565b505050505050505050505050565b82805482825590600052602060002090810192821561312f579160200282015b8281111561312e5782518260006101000a81548173ffffffffffffffffffffffffffffffffffffffff021916908373ffffffffffffffffffffffffffffffffffffffff160217905550916020019190600101906130d6565b5b50905061313c9190613162565b5090565b6040518060800160405280600490602082028036833780820191505090505090565b5b8082111561317b576000816000905550600101613163565b5090565b7f4e487b7100000000000000000000000000000000000000000000000000000000600052602160045260246000fd5b600281106131bf576131be61317f565b5b50565b60008190506131d0826131ae565b919050565b60006131e0826131c2565b9050919050565b6131f0816131d5565b82525050565b600060208201905061320b60008301846131e7565b92915050565b6000819050919050565b61322481613211565b82525050565b600060208201905061323f600083018461321b565b92915050565b6000604051905090565b600080fd5b600080fd5b600073ffffffffffffffffffffffffffffffffffffffff82169050919050565b600061328482613259565b9050919050565b61329481613279565b811461329f57600080fd5b50565b6000813590506132b18161328b565b92915050565b6000602082840312156132cd576132cc61324f565b5b60006132db848285016132a2565b91505092915050565b60008115159050919050565b6132f9816132e4565b82525050565b600060208201905061331460008301846132f0565b92915050565b61332381613211565b811461332e57600080fd5b50565b6000813590506133408161331a565b92915050565b600080fd5b6000601f19601f8301169050919050565b7f4e487b7100000000000000000000000000000000000000000000000000000000600052604160045260246000fd5b6133948261334b565b810181811067ffffffffffffffff821117156133b3576133b261335c565b5b80604052505050565b60006133c6613245565b90506133d2828261338b565b919050565b600067ffffffffffffffff8211156133f2576133f161335c565b5b602082029050602081019050919050565b600080fd5b600061341b613416846133d7565b6133bc565b9050808382526020820190506020840283018581111561343e5761343d613403565b5b835b8181101561346757806134538882613331565b845260208401935050602081019050613440565b5050509392505050565b600082601f83011261348657613485613346565b5b8135613496848260208601613408565b91505092915050565b600080604083850312156134b6576134b561324f565b5b60006134c485828601613331565b925050602083013567ffffffffffffffff8111156134e5576134e4613254565b5b6134f185828601613471565b9150509250929050565b600060ff82169050919050565b613511816134fb565b811461351c57600080fd5b50565b60008135905061352e81613508565b92915050565b60008060006060848603121561354d5761354c61324f565b5b600061355b8682870161351f565b935050602061356c8682870161351f565b925050604061357d86828701613331565b9150509250925092565b61359081613279565b82525050565b60006020820190506135ab6000830184613587565b92915050565b600061ffff82169050919050565b6135c8816135b1565b81146135d357600080fd5b50565b6000813590506135e5816135bf565b92915050565b6000806000606084860312156136045761360361324f565b5b60006136128682870161351f565b93505060206136238682870161351f565b9250506040613634868287016135d6565b9150509250925092565b600080604083850312156136555761365461324f565b5b60006136638582860161351f565b92505060206136748582860161351f565b9150509250929050565b600080fd5b60008083601f84011261369957613698613346565b5b8235905067ffffffffffffffff8111156136b6576136b561367e565b5b6020830191508360018202830111156136d2576136d1613403565b5b9250929050565b600080602083850312156136f0576136ef61324f565b5b600083013567ffffffffffffffff81111561370e5761370d613254565b5b61371a85828601613683565b92509250509250929050565b600080fd5b600067ffffffffffffffff8211156137465761374561335c565b5b61374f8261334b565b9050602081019050919050565b82818337600083830152505050565b600061377e6137798461372b565b6133bc565b90508281526020810184848401111561379a57613799613726565b5b6137a584828561375c565b509392505050565b600082601f8301126137c2576137c1613346565b5b81356137d284826020860161376b565b91505092915050565b6000602082840312156137f1576137f061324f565b5b600082013567ffffffffffffffff81111561380f5761380e613254565b5b61381b848285016137ad565b91505092915050565b600081519050919050565b600082825260208201905092915050565b60005b8381101561385e578082015181840152602081019050613843565b8381111561386d576000848401525b50505050565b600061387e82613824565b613888818561382f565b9350613898818560208601613840565b6138a18161334b565b840191505092915050565b60006040820190506138c160008301856132f0565b81810360208301526138d38184613873565b90509392505050565b600281106138ed576138ec61317f565b5b50565b60008190506138fe826138dc565b919050565b600061390e826138f0565b9050919050565b61391e81613903565b82525050565b60006020820190506139396000830184613915565b92915050565b600281106139505761394f61317f565b5b50565b60008190506139618261393f565b919050565b600061397182613953565b9050919050565b61398181613966565b82525050565b600060208201905061399c6000830184613978565b92915050565b600481106139b3576139b261317f565b5b50565b60008190506139c4826139a2565b919050565b60006139d4826139b6565b9050919050565b6139e4816139c9565b82525050565b60006020820190506139ff60008301846139db565b92915050565b600060208284031215613a1b57613a1a61324f565b5b6000613a2984828501613331565b91505092915050565b6000613a3d82613259565b9050919050565b613a4d81613a32565b82525050565b6000602082019050613a686000830184613a44565b92915050565b6000819050919050565b613a8181613a6e565b82525050565b6000602082019050613a9c6000830184613a78565b92915050565b600067ffffffffffffffff82169050919050565b613abf81613aa2565b82525050565b6000602082019050613ada6000830184613ab6565b92915050565b600063ffffffff82169050919050565b613af981613ae0565b82525050565b6000602082019050613b146000830184613af0565b92915050565b60008060408385031215613b3157613b3061324f565b5b6000613b3f85828601613331565b9250506020613b5085828601613331565b9150509250929050565b600081905092915050565b50565b6000613b75600083613b5a565b9150613b8082613b65565b600082019050919050565b6000613b9682613b68565b9150819050919050565b6000604082019050613bb56000830185613587565b613bc26020830184613587565b9392505050565b600081519050613bd88161328b565b92915050565b600060208284031215613bf457613bf361324f565b5b6000613c0284828501613bc9565b91505092915050565b600082825260208201905092915050565b7f49742069732063757272656e746c79206e6f7420666f7274696679207068617360008201527f6521000000000000000000000000000000000000000000000000000000000000602082015250565b6000613c78602283613c0b565b9150613c8382613c1c565b604082019050919050565b60006020820190508181036000830152613ca781613c6b565b9050919050565b613cb7816134fb565b82525050565b6000606082019050613cd26000830186613cae565b613cdf6020830185613cae565b613cec604083018461321b565b949350505050565b613cfd816132e4565b8114613d0857600080fd5b50565b600081519050613d1a81613cf4565b92915050565b600060208284031215613d3657613d3561324f565b5b6000613d4484828501613d0b565b91505092915050565b7f596f757220666f7274696669636174696f6e20617474656d7074206661696c6560008201527f6400000000000000000000000000000000000000000000000000000000000000602082015250565b6000613da9602183613c0b565b9150613db482613d4d565b604082019050919050565b60006020820190508181036000830152613dd881613d9c565b9050919050565b7f49742069732063757272656e746c79206e6f742061747461636b20706861736560008201527f2100000000000000000000000000000000000000000000000000000000000000602082015250565b6000613e3b602183613c0b565b9150613e4682613ddf565b604082019050919050565b60006020820190508181036000830152613e6a81613e2e565b9050919050565b613e7a816135b1565b82525050565b6000606082019050613e956000830186613cae565b613ea26020830185613cae565b613eaf6040830184613e71565b949350505050565b7f49742069732063757272656e746c79206e6f74206465706c6f7920706861736560008201527f2100000000000000000000000000000000000000000000000000000000000000602082015250565b6000613f13602183613c0b565b9150613f1e82613eb7565b604082019050919050565b60006020820190508181036000830152613f4281613f06565b9050919050565b600081519050613f5881613508565b92915050565b600060208284031215613f7457613f7361324f565b5b6000613f8284828501613f49565b91505092915050565b7f596f7520646f206e6f7420686176652074686174206d616e792074726f6f707360008201527f20746f206465706c6f7921000000000000000000000000000000000000000000602082015250565b6000613fe7602b83613c0b565b9150613ff282613f8b565b604082019050919050565b6000602082019050818103600083015261401681613fda565b9050919050565b60006040820190506140326000830185613cae565b61403f6020830184613cae565b9392505050565b600081549050919050565b600082825260208201905092915050565b60008190508160005260206000209050919050565b61408081613a32565b82525050565b60006140928383614077565b60208301905092915050565b60008160001c9050919050565b600073ffffffffffffffffffffffffffffffffffffffff82169050919050565b60006140de6140d98361409e565b6140ab565b9050919050565b60006140f182546140cb565b9050919050565b6000600182019050919050565b600061411082614046565b61411a8185614051565b935061412583614062565b8060005b8381101561415d5761413a826140e5565b6141448882614086565b975061414f836140f8565b925050600181019050614129565b5085935050505092915050565b600060208201905081810360008301526141848184614105565b905092915050565b7f436f6e74726f6c7320636f6e74726163742068617320616c726561647920726560008201527f636569766564204d61696e206164647265737300000000000000000000000000602082015250565b60006141e8603383613c0b565b91506141f38261418c565b604082019050919050565b60006020820190508181036000830152614217816141db565b9050919050565b7f53656e64204d6f726520746f20456e746572204c6f6262790000000000000000600082015250565b6000614254601883613c0b565b915061425f8261421e565b602082019050919050565b6000602082019050818103600083015261428381614247565b9050919050565b7f4c6f6262792069732066756c6c00000000000000000000000000000000000000600082015250565b60006142c0600d83613c0b565b91506142cb8261428a565b602082019050919050565b600060208201905081810360008301526142ef816142b3565b9050919050565b7f596f7527766520616c726561647920656e7465726564207468652067616d6521600082015250565b600061432c602083613c0b565b9150614337826142f6565b602082019050919050565b6000602082019050818103600083015261435b8161431f565b9050919050565b7f4e487b7100000000000000000000000000000000000000000000000000000000600052601260045260246000fd5b7f4e487b7100000000000000000000000000000000000000000000000000000000600052601160045260246000fd5b60006143cb82613211565b91506143d683613211565b9250826143e6576143e5614362565b5b828204905092915050565b60006143fc82613211565b91507fffffffffffffffffffffffffffffffffffffffffffffffffffffffffffffffff82141561442f5761442e614391565b5b600182019050919050565b7f4e487b7100000000000000000000000000000000000000000000000000000000600052603260045260246000fd5b60008160011c9050919050565b6000808291508390505b60018511156144c05780860481111561449c5761449b614391565b5b60018516156144ab5780820291505b80810290506144b985614469565b9450614480565b94509492505050565b6000826144d95760019050614595565b816144e75760009050614595565b81600181146144fd576002811461450757614536565b6001915050614595565b60ff84111561451957614518614391565b5b8360020a9150848211156145305761452f614391565b5b50614595565b5060208310610133831016604e8410600b841016171561456b5782820a90508381111561456657614565614391565b5b614595565b6145788484846001614476565b9250905081840481111561458f5761458e614391565b5b81810290505b9392505050565b60006145a782613211565b91506145b283613211565b92506145df7fffffffffffffffffffffffffffffffffffffffffffffffffffffffffffffffff84846144c9565b905092915050565b60006145f282613211565b91506145fd83613211565b92508261460d5761460c614362565b5b828206905092915050565b600061462382613211565b915061462e83613211565b9250827fffffffffffffffffffffffffffffffffffffffffffffffffffffffffffffffff0382111561466357614662614391565b5b828201905092915050565b600061467982613211565b915061468483613211565b9250817fffffffffffffffffffffffffffffffffffffffffffffffffffffffffffffffff04831182151516156146bd576146bc614391565b5b828202905092915050565b60006146d382613211565b91506146de83613211565b9250828210156146f1576146f0614391565b5b828203905092915050565b6000819050919050565b6000819050919050565b600061472b614726614721846146fc565b614706565b613ae0565b9050919050565b61473b81614710565b82525050565b600060a0820190506147566000830188613a78565b6147636020830187613ab6565b6147706040830186613e71565b61477d6060830185613af0565b61478a6080830184614732565b9695505050505050565b6000815190506147a38161331a565b92915050565b6000602082840312156147bf576147be61324f565b5b60006147cd84828501614794565b91505092915050565b60006147e1826134fb565b915060008214156147f5576147f4614391565b5b600182039050919050565b600081519050919050565b600082825260208201905092915050565b6000819050602082019050919050565b614835816134fb565b82525050565b6000614847838361482c565b60208301905092915050565b6000602082019050919050565b600061486b82614800565b614875818561480b565b93506148808361481c565b8060005b838110156148b1578151614898888261483b565b97506148a383614853565b925050600181019050614884565b5085935050505092915050565b600060208201905081810360008301526148d88184614860565b90509291505056fea2646970667358221220a8ac2d80fc15a7a97ac15f456ff5510329f0512662529e342159efd5efe7a16364736f6c63430008080033",
  "devdoc": {
    "kind": "dev",
    "methods": {},
    "version": 1
  },
  "userdoc": {
    "kind": "user",
    "methods": {
      "getRandomWord()": {
        "notice": "Getter Functions "
      },
      "numDigits(uint256)": {
        "notice": "Pure Functions "
      }
    },
    "version": 1
  },
  "storageLayout": {
    "storage": [
      {
        "astId": 2703,
        "contract": "contracts/Main.sol:Main",
        "label": "s_gameState",
        "offset": 0,
        "slot": "0",
        "type": "t_enum(GameState)2676"
      },
      {
        "astId": 2706,
        "contract": "contracts/Main.sol:Main",
        "label": "s_lobbyState",
        "offset": 1,
        "slot": "0",
        "type": "t_enum(LobbyState)2671"
      },
      {
        "astId": 2709,
        "contract": "contracts/Main.sol:Main",
        "label": "s_hasRandomWords",
        "offset": 2,
        "slot": "0",
        "type": "t_enum(RandomState)2679"
      },
      {
        "astId": 2712,
        "contract": "contracts/Main.sol:Main",
        "label": "s_players",
        "offset": 0,
        "slot": "1",
        "type": "t_array(t_address_payable)dyn_storage"
      },
      {
        "astId": 2714,
        "contract": "contracts/Main.sol:Main",
        "label": "player_turn",
        "offset": 0,
        "slot": "2",
        "type": "t_address"
      },
      {
        "astId": 2717,
        "contract": "contracts/Main.sol:Main",
        "label": "s_mainSet",
        "offset": 20,
        "slot": "2",
        "type": "t_enum(mainAddressSent)2682"
      },
      {
        "astId": 2721,
        "contract": "contracts/Main.sol:Main",
        "label": "duplicateAddresses",
        "offset": 0,
        "slot": "3",
        "type": "t_mapping(t_address,t_bool)"
      },
      {
        "astId": 2724,
        "contract": "contracts/Main.sol:Main",
        "label": "s_lobbyEntrants",
        "offset": 0,
        "slot": "4",
        "type": "t_array(t_address_payable)dyn_storage"
      },
      {
        "astId": 2726,
        "contract": "contracts/Main.sol:Main",
        "label": "randomWord",
        "offset": 0,
        "slot": "5",
        "type": "t_uint256"
      }
    ],
    "types": {
      "t_address": {
        "encoding": "inplace",
        "label": "address",
        "numberOfBytes": "20"
      },
      "t_address_payable": {
        "encoding": "inplace",
        "label": "address payable",
        "numberOfBytes": "20"
      },
      "t_array(t_address_payable)dyn_storage": {
        "base": "t_address_payable",
        "encoding": "dynamic_array",
        "label": "address payable[]",
        "numberOfBytes": "32"
      },
      "t_bool": {
        "encoding": "inplace",
        "label": "bool",
        "numberOfBytes": "1"
      },
      "t_enum(GameState)2676": {
        "encoding": "inplace",
        "label": "enum Main.GameState",
        "numberOfBytes": "1"
      },
      "t_enum(LobbyState)2671": {
        "encoding": "inplace",
        "label": "enum Main.LobbyState",
        "numberOfBytes": "1"
      },
      "t_enum(RandomState)2679": {
        "encoding": "inplace",
        "label": "enum Main.RandomState",
        "numberOfBytes": "1"
      },
      "t_enum(mainAddressSent)2682": {
        "encoding": "inplace",
        "label": "enum Main.mainAddressSent",
        "numberOfBytes": "1"
      },
      "t_mapping(t_address,t_bool)": {
        "encoding": "mapping",
        "key": "t_address",
        "label": "mapping(address => bool)",
        "numberOfBytes": "32",
        "value": "t_bool"
      },
      "t_uint256": {
        "encoding": "inplace",
        "label": "uint256",
        "numberOfBytes": "32"
      }
    }
  }
}