{
  "address": "0x2279B7A0a67DB372996a5FaB50D91eAA73d2eBe6",
  "abi": [
    {
      "inputs": [
        {
          "internalType": "address",
          "name": "vrfCoordinatorV2",
          "type": "address"
        },
        {
          "internalType": "uint64",
          "name": "subscriptionId",
          "type": "uint64"
        },
        {
          "internalType": "bytes32",
          "name": "gasLane",
          "type": "bytes32"
        },
        {
          "internalType": "uint32",
          "name": "callbackGasLimit",
          "type": "uint32"
        },
        {
          "internalType": "uint256",
          "name": "entranceFee",
          "type": "uint256"
        },
        {
          "internalType": "address",
          "name": "controls",
          "type": "address"
        },
        {
          "internalType": "address",
          "name": "data",
          "type": "address"
        }
      ],
      "stateMutability": "nonpayable",
      "type": "constructor"
    },
    {
      "inputs": [
        {
          "internalType": "address",
          "name": "have",
          "type": "address"
        },
        {
          "internalType": "address",
          "name": "want",
          "type": "address"
        }
      ],
      "name": "OnlyCoordinatorCanFulfill",
      "type": "error"
    },
    {
      "inputs": [],
      "name": "Transfer___Failed",
      "type": "error"
    },
    {
      "anonymous": false,
      "inputs": [],
      "name": "GameSetupComplete",
      "type": "event"
    },
    {
      "anonymous": false,
      "inputs": [],
      "name": "GameStarting",
      "type": "event"
    },
    {
      "anonymous": false,
      "inputs": [],
      "name": "MainReset",
      "type": "event"
    },
    {
      "anonymous": false,
      "inputs": [
        {
          "indexed": true,
          "internalType": "address",
          "name": "player",
          "type": "address"
        }
      ],
      "name": "PlayerJoinedLobby",
      "type": "event"
    },
    {
      "anonymous": false,
      "inputs": [
        {
          "indexed": true,
          "internalType": "uint256",
          "name": "requestId",
          "type": "uint256"
        }
      ],
      "name": "RequestedRandomness",
      "type": "event"
    },
    {
      "anonymous": false,
      "inputs": [
        {
          "indexed": true,
          "internalType": "address",
          "name": "player",
          "type": "address"
        }
      ],
      "name": "WinnerSentFunds",
      "type": "event"
    },
    {
      "anonymous": false,
      "inputs": [],
      "name": "gotRandomness",
      "type": "event"
    },
    {
      "inputs": [
        {
          "internalType": "uint8",
          "name": "useThisTerritory",
          "type": "uint8"
        },
        {
          "internalType": "uint8",
          "name": "toAttackThisTerritory",
          "type": "uint8"
        },
        {
          "internalType": "uint256",
          "name": "withTroopQuantity",
          "type": "uint256"
        }
      ],
      "name": "attack",
      "outputs": [],
      "stateMutability": "nonpayable",
      "type": "function"
    },
    {
      "inputs": [
        {
          "internalType": "bytes",
          "name": "",
          "type": "bytes"
        }
      ],
      "name": "checkUpkeep",
      "outputs": [
        {
          "internalType": "bool",
          "name": "upkeepNeeded",
          "type": "bool"
        },
        {
          "internalType": "bytes",
          "name": "",
          "type": "bytes"
        }
      ],
      "stateMutability": "view",
      "type": "function"
    },
    {
      "inputs": [
        {
          "internalType": "uint8",
          "name": "amountToDeploy",
          "type": "uint8"
        },
        {
          "internalType": "uint8",
          "name": "location",
          "type": "uint8"
        }
      ],
      "name": "deploy",
      "outputs": [],
      "stateMutability": "nonpayable",
      "type": "function"
    },
    {
      "inputs": [
        {
          "internalType": "address",
          "name": "",
          "type": "address"
        }
      ],
      "name": "duplicateAddresses",
      "outputs": [
        {
          "internalType": "bool",
          "name": "",
          "type": "bool"
        }
      ],
      "stateMutability": "view",
      "type": "function"
    },
    {
      "inputs": [],
      "name": "enterLobby",
      "outputs": [],
      "stateMutability": "payable",
      "type": "function"
    },
    {
      "inputs": [],
      "name": "finishAttack",
      "outputs": [],
      "stateMutability": "nonpayable",
      "type": "function"
    },
    {
      "inputs": [
        {
          "internalType": "uint8",
          "name": "territoryMovingFrom",
          "type": "uint8"
        },
        {
          "internalType": "uint8",
          "name": "territoryMovingTo",
          "type": "uint8"
        },
        {
          "internalType": "uint256",
          "name": "troopsMoving",
          "type": "uint256"
        }
      ],
      "name": "fortify",
      "outputs": [],
      "stateMutability": "nonpayable",
      "type": "function"
    },
    {
      "inputs": [],
      "name": "getCallbackGasLimit",
      "outputs": [
        {
          "internalType": "uint32",
          "name": "",
          "type": "uint32"
        }
      ],
      "stateMutability": "view",
      "type": "function"
    },
    {
      "inputs": [
        {
          "internalType": "uint256",
          "name": "n",
          "type": "uint256"
        },
        {
          "internalType": "uint256",
          "name": "index",
          "type": "uint256"
        }
      ],
      "name": "getDigitAtIndex",
      "outputs": [
        {
          "internalType": "uint256",
          "name": "",
          "type": "uint256"
        }
      ],
      "stateMutability": "pure",
      "type": "function"
    },
    {
      "inputs": [],
      "name": "getEntranceFee",
      "outputs": [
        {
          "internalType": "uint256",
          "name": "",
          "type": "uint256"
        }
      ],
      "stateMutability": "view",
      "type": "function"
    },
    {
      "inputs": [],
      "name": "getGasLane",
      "outputs": [
        {
          "internalType": "bytes32",
          "name": "",
          "type": "bytes32"
        }
      ],
      "stateMutability": "view",
      "type": "function"
    },
    {
      "inputs": [],
      "name": "getLobbyState",
      "outputs": [
        {
          "internalType": "enum Main.LobbyState",
          "name": "",
          "type": "uint8"
        }
      ],
      "stateMutability": "view",
      "type": "function"
    },
    {
      "inputs": [],
      "name": "getNumberOfPlayers",
      "outputs": [
        {
          "internalType": "uint256",
          "name": "",
          "type": "uint256"
        }
      ],
      "stateMutability": "view",
      "type": "function"
    },
    {
      "inputs": [
        {
          "internalType": "uint256",
          "name": "index",
          "type": "uint256"
        }
      ],
      "name": "getPlayer",
      "outputs": [
        {
          "internalType": "address",
          "name": "",
          "type": "address"
        }
      ],
      "stateMutability": "view",
      "type": "function"
    },
    {
      "inputs": [],
      "name": "getRequestConfirmations",
      "outputs": [
        {
          "internalType": "uint256",
          "name": "",
          "type": "uint256"
        }
      ],
      "stateMutability": "pure",
      "type": "function"
    },
    {
      "inputs": [],
      "name": "getSubscriptionId",
      "outputs": [
        {
          "internalType": "uint64",
          "name": "",
          "type": "uint64"
        }
      ],
      "stateMutability": "view",
      "type": "function"
    },
    {
      "inputs": [
        {
          "internalType": "uint256",
          "name": "number",
          "type": "uint256"
        }
      ],
      "name": "numDigits",
      "outputs": [
        {
          "internalType": "uint256",
          "name": "",
          "type": "uint256"
        }
      ],
      "stateMutability": "pure",
      "type": "function"
    },
    {
      "inputs": [
        {
          "internalType": "address",
          "name": "winner",
          "type": "address"
        }
      ],
      "name": "payWinner",
      "outputs": [
        {
          "internalType": "bool",
          "name": "",
          "type": "bool"
        }
      ],
      "stateMutability": "nonpayable",
      "type": "function"
    },
    {
      "inputs": [
        {
          "internalType": "bytes",
          "name": "",
          "type": "bytes"
        }
      ],
      "name": "performUpkeep",
      "outputs": [],
      "stateMutability": "nonpayable",
      "type": "function"
    },
    {
      "inputs": [],
      "name": "player_turn",
      "outputs": [
        {
          "internalType": "address",
          "name": "",
          "type": "address"
        }
      ],
      "stateMutability": "view",
      "type": "function"
    },
    {
      "inputs": [
        {
          "internalType": "uint256",
          "name": "requestId",
          "type": "uint256"
        },
        {
          "internalType": "uint256[]",
          "name": "randomWords",
          "type": "uint256[]"
        }
      ],
      "name": "rawFulfillRandomWords",
      "outputs": [],
      "stateMutability": "nonpayable",
      "type": "function"
    },
    {
      "inputs": [],
      "name": "s_gameState",
      "outputs": [
        {
          "internalType": "enum Main.GameState",
          "name": "",
          "type": "uint8"
        }
      ],
      "stateMutability": "view",
      "type": "function"
    },
    {
      "inputs": [],
      "name": "s_hasRandomWords",
      "outputs": [
        {
          "internalType": "enum Main.RandomState",
          "name": "",
          "type": "uint8"
        }
      ],
      "stateMutability": "view",
      "type": "function"
    },
    {
      "inputs": [
        {
          "internalType": "uint256",
          "name": "",
          "type": "uint256"
        }
      ],
      "name": "s_lobbyEntrants",
      "outputs": [
        {
          "internalType": "address payable",
          "name": "",
          "type": "address"
        }
      ],
      "stateMutability": "view",
      "type": "function"
    },
    {
      "inputs": [],
      "name": "s_lobbyState",
      "outputs": [
        {
          "internalType": "enum Main.LobbyState",
          "name": "",
          "type": "uint8"
        }
      ],
      "stateMutability": "view",
      "type": "function"
    },
    {
      "inputs": [],
      "name": "s_mainSet",
      "outputs": [
        {
          "internalType": "enum Main.mainAddressSent",
          "name": "",
          "type": "uint8"
        }
      ],
      "stateMutability": "view",
      "type": "function"
    },
    {
      "inputs": [
        {
          "internalType": "uint256",
          "name": "",
          "type": "uint256"
        }
      ],
      "name": "s_players",
      "outputs": [
        {
          "internalType": "address payable",
          "name": "",
          "type": "address"
        }
      ],
      "stateMutability": "view",
      "type": "function"
    },
    {
      "inputs": [],
      "name": "setMainAddress",
      "outputs": [],
      "stateMutability": "nonpayable",
      "type": "function"
    },
    {
      "inputs": [],
      "name": "testKeeper",
      "outputs": [],
      "stateMutability": "nonpayable",
      "type": "function"
    }
  ],
  "transactionHash": "0x5476f3087d792108408a2729f13491832c70d591a07ebe0a2aa6a932021814f5",
  "args": [
    "0x5FbDB2315678afecb367f032d93F642f64180aa3",
    "2",
    "0x79d3d8832d904592c0bf9818b621522c988bb8b0c05cdc3b15aea1b6e8db0c15",
    "30000000",
    "100000000000000000",
    "0xDc64a140Aa3E981100a9becA4E685f962f0cF6C9",
    "0xe7f1725E7734CE288F8367e1Bb143E90bb3F0512"
  ],
  "numDeployments": 1,
  "solcInputHash": "81fab6f8d982eddb6e0df2f999f34d70",
  "bytecode": "0x6101806040523480156200001257600080fd5b5060405162004c4938038062004c4983398181016040528101906200003891906200035b565b868073ffffffffffffffffffffffffffffffffffffffff1660808173ffffffffffffffffffffffffffffffffffffffff1660601b81525050508673ffffffffffffffffffffffffffffffffffffffff1660a08173ffffffffffffffffffffffffffffffffffffffff1660601b815250508567ffffffffffffffff1660c08167ffffffffffffffff1660c01b815250508460e081815250508363ffffffff166101008163ffffffff1660e01b8152505082610120818152505060008060016101000a81548160ff021916908360018111156200011857620001176200040e565b5b021790555060036000806101000a81548160ff021916908360038111156200014557620001446200040e565b5b02179055506001600260146101000a81548160ff021916908360018111156200017357620001726200040e565b5b02179055508173ffffffffffffffffffffffffffffffffffffffff166101408173ffffffffffffffffffffffffffffffffffffffff1660601b815250508073ffffffffffffffffffffffffffffffffffffffff166101608173ffffffffffffffffffffffffffffffffffffffff1660601b81525050505050505050506200043d565b600080fd5b600073ffffffffffffffffffffffffffffffffffffffff82169050919050565b60006200022782620001fa565b9050919050565b62000239816200021a565b81146200024557600080fd5b50565b60008151905062000259816200022e565b92915050565b600067ffffffffffffffff82169050919050565b6200027e816200025f565b81146200028a57600080fd5b50565b6000815190506200029e8162000273565b92915050565b6000819050919050565b620002b981620002a4565b8114620002c557600080fd5b50565b600081519050620002d981620002ae565b92915050565b600063ffffffff82169050919050565b620002fa81620002df565b81146200030657600080fd5b50565b6000815190506200031a81620002ef565b92915050565b6000819050919050565b620003358162000320565b81146200034157600080fd5b50565b60008151905062000355816200032a565b92915050565b600080600080600080600060e0888a0312156200037d576200037c620001f5565b5b60006200038d8a828b0162000248565b9750506020620003a08a828b016200028d565b9650506040620003b38a828b01620002c8565b9550506060620003c68a828b0162000309565b9450506080620003d98a828b0162000344565b93505060a0620003ec8a828b0162000248565b92505060c0620003ff8a828b0162000248565b91505092959891949750929550565b7f4e487b7100000000000000000000000000000000000000000000000000000000600052602160045260246000fd5b60805160601c60a05160601c60c05160c01c60e0516101005160e01c610120516101405160601c6101605160601c6146be6200058b6000396000505060008181610723015281816107fc0152818161091a015281816109d001528181610bdf01528181610d2c01528181610e7201528181610fbb015281816110a3015281816111ed0152818161127d0152818161135601528181611587015281816116ed0152818161214401528181612474015281816125580152818161263c015281816127200152818161288f0152818161295a01528181612a6f01528181612b3a01528181612c4f01528181612d1a01528181612e3b0152612f060152600081816106e701526117e2015260008181611b7e0152611fe001526000818161177d0152611f9c015260008181611b560152611fbd01526000611f60015260008181610b1f0152610b7301526146be6000f3fe6080604052600436106101c25760003560e01c806371e6c842116100f7578063d4e94c4611610095578063de8be8e711610064578063de8be8e714610600578063e55ae4e81461062b578063ef00ebb314610668578063fd6673f5146106a5576101c2565b8063d4e94c4614610551578063d9eb8a441461058e578063db9d28d514610598578063de3d9fb7146105d5576101c2565b8063a6ac3b10116100d1578063a6ac3b10146104a7578063ae771f6b146104d2578063b6ec89e01461050f578063c19dd76b14610526576101c2565b806371e6c8421461043a5780638d2ed9971461046557806399c914fb14610490576101c2565b80633691770a116101645780634585e33b1161013e5780634585e33b14610391578063505e53ab146103ba5780635f1b0fd8146103d15780636e04ff0d146103fc576101c2565b80633691770a146103145780633b63601e1461033d5780633d777d9514610368576101c2565b806314b1f907116101a057806314b1f907146102485780631664bb631461027157806319b09f9b146102ae5780631fe543e3146102eb576101c2565b806304889afb146101c757806309bc33a7146101f25780630fb081df1461021d575b600080fd5b3480156101d357600080fd5b506101dc6106d0565b6040516101e9919061310b565b60405180910390f35b3480156101fe57600080fd5b506102076106e3565b604051610214919061313f565b60405180910390f35b34801561022957600080fd5b5061023261070b565b60405161023f919061310b565b60405180910390f35b34801561025457600080fd5b5061026f600480360381019061026a91906131d3565b610721565b005b34801561027d57600080fd5b5061029860048036038101906102939190613284565b6109ac565b6040516102a591906132cc565b60405180910390f35b3480156102ba57600080fd5b506102d560048036038101906102d09190613284565b6109cc565b6040516102e291906132cc565b60405180910390f35b3480156102f757600080fd5b50610312600480360381019061030d9190613440565b610b1d565b005b34801561032057600080fd5b5061033b600480360381019061033691906131d3565b610bdd565b005b34801561034957600080fd5b50610352610e4a565b60405161035f91906134ab565b60405180910390f35b34801561037457600080fd5b5061038f600480360381019061038a91906134c6565b610e70565b005b34801561039d57600080fd5b506103b860048036038101906103b39190613561565b61118d565b005b3480156103c657600080fd5b506103cf61127b565b005b3480156103dd57600080fd5b506103e661142a565b6040516103f3919061313f565b60405180910390f35b34801561040857600080fd5b50610423600480360381019061041e9190613663565b611437565b604051610431929190613734565b60405180910390f35b34801561044657600080fd5b5061044f6114ea565b60405161045c91906137ac565b60405180910390f35b34801561047157600080fd5b5061047a6114fd565b604051610487919061380f565b60405180910390f35b34801561049c57600080fd5b506104a5611510565b005b3480156104b357600080fd5b506104bc61163d565b6040516104c99190613872565b60405180910390f35b3480156104de57600080fd5b506104f960048036038101906104f4919061388d565b61164e565b60405161050691906138db565b60405180910390f35b34801561051b57600080fd5b5061052461168d565b005b34801561053257600080fd5b5061053b611779565b604051610548919061390f565b60405180910390f35b34801561055d57600080fd5b506105786004803603810190610573919061388d565b6117a1565b60405161058591906138db565b60405180910390f35b6105966117e0565b005b3480156105a457600080fd5b506105bf60048036038101906105ba919061388d565b611b1d565b6040516105cc919061313f565b60405180910390f35b3480156105e157600080fd5b506105ea611b52565b6040516105f7919061394d565b60405180910390f35b34801561060c57600080fd5b50610615611b7a565b6040516106229190613987565b60405180910390f35b34801561063757600080fd5b50610652600480360381019061064d919061388d565b611ba2565b60405161065f91906134ab565b60405180910390f35b34801561067457600080fd5b5061068f600480360381019061068a91906139a2565b611bea565b60405161069c919061313f565b60405180910390f35b3480156106b157600080fd5b506106ba611c18565b6040516106c7919061313f565b60405180910390f35b600060019054906101000a900460ff1681565b60007f0000000000000000000000000000000000000000000000000000000000000000905090565b60008060019054906101000a900460ff16905090565b7f000000000000000000000000000000000000000000000000000000000000000073ffffffffffffffffffffffffffffffffffffffff16632572cd6e6040518163ffffffff1660e01b815260040160206040518083038186803b15801561078757600080fd5b505afa15801561079b573d6000803e3d6000fd5b505050506040513d601f19601f820116820180604052508101906107bf91906139f7565b73ffffffffffffffffffffffffffffffffffffffff163373ffffffffffffffffffffffffffffffffffffffff16146107f657600080fd5b600015157f000000000000000000000000000000000000000000000000000000000000000073ffffffffffffffffffffffffffffffffffffffff1663af0b94d46040518163ffffffff1660e01b815260040160206040518083038186803b15801561086057600080fd5b505afa158015610874573d6000803e3d6000fd5b505050506040513d601f19601f820116820180604052508101906108989190613a50565b1515146108a457600080fd5b600160038111156108b8576108b7613094565b5b60008054906101000a900460ff1660038111156108d8576108d7613094565b5b14610918576040517f08c379a000000000000000000000000000000000000000000000000000000000815260040161090f90613b00565b60405180910390fd5b7f000000000000000000000000000000000000000000000000000000000000000073ffffffffffffffffffffffffffffffffffffffff1663be85fc768484846040518463ffffffff1660e01b815260040161097593929190613b2f565b600060405180830381600087803b15801561098f57600080fd5b505af11580156109a3573d6000803e3d6000fd5b50505050505050565b60036020528060005260406000206000915054906101000a900460ff1681565b60007f000000000000000000000000000000000000000000000000000000000000000073ffffffffffffffffffffffffffffffffffffffff163373ffffffffffffffffffffffffffffffffffffffff1614610a2657600080fd5b60008273ffffffffffffffffffffffffffffffffffffffff1647604051610a4c90613b97565b60006040518083038185875af1925050503d8060008114610a89576040519150601f19603f3d011682016040523d82523d6000602084013e610a8e565b606091505b5050905080610ac9576040517faad40e9700000000000000000000000000000000000000000000000000000000815260040160405180910390fd5b8273ffffffffffffffffffffffffffffffffffffffff167f6484268da2aca55c67beef4127a9a4f83ec74ff7fa3d896a9b23c86e12427e7b60405160405180910390a2610b14611c25565b80915050919050565b7f000000000000000000000000000000000000000000000000000000000000000073ffffffffffffffffffffffffffffffffffffffff163373ffffffffffffffffffffffffffffffffffffffff1614610bcf57337f00000000000000000000000000000000000000000000000000000000000000006040517f1cf993f4000000000000000000000000000000000000000000000000000000008152600401610bc6929190613bac565b60405180910390fd5b610bd98282611dbf565b5050565b7f000000000000000000000000000000000000000000000000000000000000000073ffffffffffffffffffffffffffffffffffffffff16632572cd6e6040518163ffffffff1660e01b815260040160206040518083038186803b158015610c4357600080fd5b505afa158015610c57573d6000803e3d6000fd5b505050506040513d601f19601f82011682018060405250810190610c7b91906139f7565b73ffffffffffffffffffffffffffffffffffffffff163373ffffffffffffffffffffffffffffffffffffffff1614610cb257600080fd5b60026003811115610cc657610cc5613094565b5b60008054906101000a900460ff166003811115610ce657610ce5613094565b5b14610d26576040517f08c379a0000000000000000000000000000000000000000000000000000000008152600401610d1d90613c47565b60405180910390fd5b600115157f000000000000000000000000000000000000000000000000000000000000000073ffffffffffffffffffffffffffffffffffffffff1663ada2c7a88585856040518463ffffffff1660e01b8152600401610d8793929190613b2f565b602060405180830381600087803b158015610da157600080fd5b505af1158015610db5573d6000803e3d6000fd5b505050506040513d601f19601f82011682018060405250810190610dd99190613a50565b151514610e1b576040517f08c379a0000000000000000000000000000000000000000000000000000000008152600401610e1290613cd9565b60405180910390fd5b60008060006101000a81548160ff02191690836003811115610e4057610e3f613094565b5b0217905550505050565b600260009054906101000a900473ffffffffffffffffffffffffffffffffffffffff1681565b7f000000000000000000000000000000000000000000000000000000000000000073ffffffffffffffffffffffffffffffffffffffff16632572cd6e6040518163ffffffff1660e01b815260040160206040518083038186803b158015610ed657600080fd5b505afa158015610eea573d6000803e3d6000fd5b505050506040513d601f19601f82011682018060405250810190610f0e91906139f7565b73ffffffffffffffffffffffffffffffffffffffff163373ffffffffffffffffffffffffffffffffffffffff1614610f4557600080fd5b60006003811115610f5957610f58613094565b5b60008054906101000a900460ff166003811115610f7957610f78613094565b5b14610fb9576040517f08c379a0000000000000000000000000000000000000000000000000000000008152600401610fb090613d6b565b60405180910390fd5b7f000000000000000000000000000000000000000000000000000000000000000073ffffffffffffffffffffffffffffffffffffffff1663b6d5bc6f6040518163ffffffff1660e01b815260040160206040518083038186803b15801561101f57600080fd5b505afa158015611033573d6000803e3d6000fd5b505050506040513d601f19601f820116820180604052508101906110579190613da0565b60ff168260ff16111561109f576040517f08c379a000000000000000000000000000000000000000000000000000000000815260040161109690613e3f565b60405180910390fd5b60007f000000000000000000000000000000000000000000000000000000000000000073ffffffffffffffffffffffffffffffffffffffff1663041dcfcc84846040518363ffffffff1660e01b81526004016110fc929190613e5f565b602060405180830381600087803b15801561111657600080fd5b505af115801561112a573d6000803e3d6000fd5b505050506040513d601f19601f8201168201806040525081019061114e9190613a50565b90506000151581151514156111885760016000806101000a81548160ff0219169083600381111561118257611181613094565b5b02179055505b505050565b611195611e11565b7fcda6b16767f05ec2f16325d372b235b450091ed813db76d6c3d98a26e52078a560405160405180910390a160008060006101000a81548160ff021916908360038111156111e6576111e5613094565b5b02179055507f000000000000000000000000000000000000000000000000000000000000000073ffffffffffffffffffffffffffffffffffffffff1663c758c12660016040518263ffffffff1660e01b81526004016112459190613fac565b600060405180830381600087803b15801561125f57600080fd5b505af1158015611273573d6000803e3d6000fd5b505050505050565b7f000000000000000000000000000000000000000000000000000000000000000073ffffffffffffffffffffffffffffffffffffffff16632572cd6e6040518163ffffffff1660e01b815260040160206040518083038186803b1580156112e157600080fd5b505afa1580156112f5573d6000803e3d6000fd5b505050506040513d601f19601f8201168201806040525081019061131991906139f7565b73ffffffffffffffffffffffffffffffffffffffff163373ffffffffffffffffffffffffffffffffffffffff161461135057600080fd5b600015157f000000000000000000000000000000000000000000000000000000000000000073ffffffffffffffffffffffffffffffffffffffff1663af0b94d46040518163ffffffff1660e01b815260040160206040518083038186803b1580156113ba57600080fd5b505afa1580156113ce573d6000803e3d6000fd5b505050506040513d601f19601f820116820180604052508101906113f29190613a50565b1515146113fe57600080fd5b60026000806101000a81548160ff0219169083600381111561142357611422613094565b5b0217905550565b6000600361ffff16905090565b6000606060006001808111156114505761144f613094565b5b600060019054906101000a900460ff16600181111561147257611471613094565b5b1490506000600460018054905014905060008047119050600080600181111561149e5761149d613094565b5b600060029054906101000a900460ff1660018111156114c0576114bf613094565b5b1490508380156114cd5750825b80156114d65750815b80156114df5750805b955050505050915091565b600060029054906101000a900460ff1681565b600260149054906101000a900460ff1681565b60018081111561152357611522613094565b5b600260149054906101000a900460ff16600181111561154557611544613094565b5b14611585576040517f08c379a000000000000000000000000000000000000000000000000000000000815260040161157c90614040565b60405180910390fd5b7f000000000000000000000000000000000000000000000000000000000000000073ffffffffffffffffffffffffffffffffffffffff166305ca49b0306040518263ffffffff1660e01b81526004016115de91906134ab565b600060405180830381600087803b1580156115f857600080fd5b505af115801561160c573d6000803e3d6000fd5b505050506000600260146101000a81548160ff0219169083600181111561163657611635613094565b5b0217905550565b60008054906101000a900460ff1681565b6001818154811061165e57600080fd5b906000526020600020016000915054906101000a900473ffffffffffffffffffffffffffffffffffffffff1681565b611695611e11565b7fcda6b16767f05ec2f16325d372b235b450091ed813db76d6c3d98a26e52078a560405160405180910390a160008060006101000a81548160ff021916908360038111156116e6576116e5613094565b5b02179055507f000000000000000000000000000000000000000000000000000000000000000073ffffffffffffffffffffffffffffffffffffffff1663c758c12660016040518263ffffffff1660e01b81526004016117459190613fac565b600060405180830381600087803b15801561175f57600080fd5b505af1158015611773573d6000803e3d6000fd5b50505050565b60007f0000000000000000000000000000000000000000000000000000000000000000905090565b600481815481106117b157600080fd5b906000526020600020016000915054906101000a900473ffffffffffffffffffffffffffffffffffffffff1681565b7f0000000000000000000000000000000000000000000000000000000000000000341015611843576040517f08c379a000000000000000000000000000000000000000000000000000000000815260040161183a906140ac565b60405180910390fd5b6000600181111561185757611856613094565b5b600060019054906101000a900460ff16600181111561187957611878613094565b5b146118b9576040517f08c379a00000000000000000000000000000000000000000000000000000000081526004016118b090614118565b60405180910390fd5b60001515600360003373ffffffffffffffffffffffffffffffffffffffff1673ffffffffffffffffffffffffffffffffffffffff16815260200190815260200160002060009054906101000a900460ff1615151461194c576040517f08c379a000000000000000000000000000000000000000000000000000000000815260040161194390614184565b60405180910390fd5b6001339080600181540180825580915050600190039060005260206000200160009091909190916101000a81548173ffffffffffffffffffffffffffffffffffffffff021916908373ffffffffffffffffffffffffffffffffffffffff1602179055506004339080600181540180825580915050600190039060005260206000200160009091909190916101000a81548173ffffffffffffffffffffffffffffffffffffffff021916908373ffffffffffffffffffffffffffffffffffffffff1602179055503373ffffffffffffffffffffffffffffffffffffffff167fa0df676a3a1d8a4dc693c144ac79c01945b4464a07bccdbf66c068127c32cfd760405160405180910390a26001600360003373ffffffffffffffffffffffffffffffffffffffff1673ffffffffffffffffffffffffffffffffffffffff16815260200190815260200160002060006101000a81548160ff02191690831515021790555060046001805490501415611b1b576001600060016101000a81548160ff02191690836001811115611ae157611ae0613094565b5b02179055507f095744e432dd463fbf0fa4a256e21ddb462dbc9cc4e27248ebd5a28d759cc9e560405160405180910390a1611b1a611f5c565b5b565b6000805b60008314611b4957600a83611b369190614202565b925080611b4290614233565b9050611b21565b80915050919050565b60007f0000000000000000000000000000000000000000000000000000000000000000905090565b60007f0000000000000000000000000000000000000000000000000000000000000000905090565b600060018281548110611bb857611bb761427c565b5b9060005260206000200160009054906101000a900473ffffffffffffffffffffffffffffffffffffffff169050919050565b6000600a82600a611bfb91906143de565b84611c069190614202565b611c109190614429565b905092915050565b6000600180549050905090565b60008060016101000a81548160ff02191690836001811115611c4a57611c49613094565b5b0217905550600067ffffffffffffffff811115611c6a57611c696132fd565b5b604051908082528060200260200182016040528015611c985781602001602082028036833780820191505090505b5060019080519060200190611cae929190612fcb565b5060036000806101000a81548160ff02191690836003811115611cd457611cd3613094565b5b021790555060005b600480549050811015611d905760006003600060048481548110611d0357611d0261427c565b5b9060005260206000200160009054906101000a900473ffffffffffffffffffffffffffffffffffffffff1673ffffffffffffffffffffffffffffffffffffffff1673ffffffffffffffffffffffffffffffffffffffff16815260200190815260200160002060006101000a81548160ff02191690831515021790555080611d8990614233565b9050611cdc565b507fddf25b659ac34302a47d8558d65f7af2579a28dd349a418009a1754bd599928460405160405180910390a1565b7ffbb70d2846767293cb82ce688c3768de4b71a06d5f547369d2987abd387c2aba60405160405180910390a180600081518110611dff57611dfe61427c565b5b60200260200101516005819055505050565b6000602a67ffffffffffffffff811115611e2e57611e2d6132fd565b5b604051908082528060200260200182016040528015611e5c5781602001602082028036833780820191505090505b5090506000611e6c600554611b1d565b905060008060005b602a811015611f4c57600a80600184611e8d919061445a565b600a611e9991906143de565b600554611ea69190614202565b611eb09190614429565b611eba91906144b0565b600a83600a611ec991906143de565b600554611ed69190614202565b611ee09190614429565b611eea919061445a565b925082858281518110611f0057611eff61427c565b5b60200260200101818152505080611f1690614233565b90506003841115611f3b57600284611f2e919061450a565b821415611f3a57600091505b5b81611f4590614233565b9150611e74565b611f55856120a5565b5050505050565b60007f000000000000000000000000000000000000000000000000000000000000000073ffffffffffffffffffffffffffffffffffffffff16635d3b1d307f00000000000000000000000000000000000000000000000000000000000000007f000000000000000000000000000000000000000000000000000000000000000060037f000000000000000000000000000000000000000000000000000000000000000060016040518663ffffffff1660e01b81526004016120219594939291906145a0565b602060405180830381600087803b15801561203b57600080fd5b505af115801561204f573d6000803e3d6000fd5b505050506040513d601f19601f820116820180604052508101906120739190614608565b9050807f5d7d0431c4991fcc9f63f03ad0ead4128b866a8ed115a818b6d87a3afedb726460405160405180910390a250565b6120ad613055565b60006040518060800160405280600060ff168152602001600160ff168152602001600260ff168152602001600360ff1681525090506000600a905060006004905060008060005b602a8110156122b6578360ff168882815181106121145761211361427c565b5b60200260200101516121269190614429565b925085836004811061213b5761213a61427c565b5b602002015191507f000000000000000000000000000000000000000000000000000000000000000073ffffffffffffffffffffffffffffffffffffffff16630698b7e082846040518363ffffffff1660e01b815260040161219d929190614635565b600060405180830381600087803b1580156121b757600080fd5b505af11580156121cb573d6000803e3d6000fd5b50505050868260ff16600481106121e5576121e461427c565b5b6020020180516121f490614233565b9081815250508460ff16878360ff16600481106122145761221361427c565b5b602002015114156122a5578583600481106122325761223161427c565b5b60200201600060ff16815250856001600461224d919061450a565b6004811061225e5761225d61427c565b5b60200201518684600481106122765761227561427c565b5b602002019060ff16908160ff1681525050836122919061465e565b935060028460ff1614156122a457600b94505b5b806122af90614233565b90506120f4565b506122c187876122ca565b50505050505050565b6000806000836000600481106122e3576122e261427c565b5b602002015167ffffffffffffffff811115612301576123006132fd565b5b60405190808252806020026020018201604052801561232f5781602001602082028036833780820191505090505b509050600080856001600481106123495761234861427c565b5b602002015167ffffffffffffffff811115612367576123666132fd565b5b6040519080825280602002602001820160405280156123955781602001602082028036833780820191505090505b509050600080876002600481106123af576123ae61427c565b5b602002015167ffffffffffffffff8111156123cd576123cc6132fd565b5b6040519080825280602002602001820160405280156123fb5781602001602082028036833780820191505090505b509050600080896003600481106124155761241461427c565b5b602002015167ffffffffffffffff811115612433576124326132fd565b5b6040519080825280602002602001820160405280156124615781602001602082028036833780820191505090505b50905060005b602a8110156128105760007f000000000000000000000000000000000000000000000000000000000000000073ffffffffffffffffffffffffffffffffffffffff1663780b5bf9836040518263ffffffff1660e01b81526004016124cb919061313f565b602060405180830381600087803b1580156124e557600080fd5b505af11580156124f9573d6000803e3d6000fd5b505050506040513d601f19601f8201168201806040525081019061251d9190614608565b14156125545780888a8061253090614233565b9b50815181106125435761254261427c565b5b6020026020010181815250506127ff565b60017f000000000000000000000000000000000000000000000000000000000000000073ffffffffffffffffffffffffffffffffffffffff1663780b5bf9836040518263ffffffff1660e01b81526004016125af919061313f565b602060405180830381600087803b1580156125c957600080fd5b505af11580156125dd573d6000803e3d6000fd5b505050506040513d601f19601f820116820180604052508101906126019190614608565b1415612638578086888061261490614233565b9950815181106126275761262661427c565b5b6020026020010181815250506127fe565b60027f000000000000000000000000000000000000000000000000000000000000000073ffffffffffffffffffffffffffffffffffffffff1663780b5bf9836040518263ffffffff1660e01b8152600401612693919061313f565b602060405180830381600087803b1580156126ad57600080fd5b505af11580156126c1573d6000803e3d6000fd5b505050506040513d601f19601f820116820180604052508101906126e59190614608565b141561271c57808486806126f890614233565b97508151811061270b5761270a61427c565b5b6020026020010181815250506127fd565b60037f000000000000000000000000000000000000000000000000000000000000000073ffffffffffffffffffffffffffffffffffffffff1663780b5bf9836040518263ffffffff1660e01b8152600401612777919061313f565b602060405180830381600087803b15801561279157600080fd5b505af11580156127a5573d6000803e3d6000fd5b505050506040513d601f19601f820116820180604052508101906127c99190614608565b14156127fc57808284806127dc90614233565b9550815181106127ef576127ee61427c565b5b6020026020010181815250505b5b5b5b8061280990614233565b9050612467565b5060005b6014811015612fbd5760008b6000600481106128335761283261427c565b5b60200201518d8c8151811061284b5761284a61427c565b5b602002602001015161285d9190614429565b9050600b8c6000600481106128755761287461427c565b5b6020020151148015612888575060138214155b15612937577f000000000000000000000000000000000000000000000000000000000000000073ffffffffffffffffffffffffffffffffffffffff16635a1095f38a83815181106128dc576128db61427c565b5b60200260200101516040518263ffffffff1660e01b8152600401612900919061313f565b600060405180830381600087803b15801561291a57600080fd5b505af115801561292e573d6000803e3d6000fd5b505050506129ff565b600a8c60006004811061294d5761294c61427c565b5b602002015114156129fe577f000000000000000000000000000000000000000000000000000000000000000073ffffffffffffffffffffffffffffffffffffffff16635a1095f38a83815181106129a7576129a661427c565b5b60200260200101516040518263ffffffff1660e01b81526004016129cb919061313f565b600060405180830381600087803b1580156129e557600080fd5b505af11580156129f9573d6000803e3d6000fd5b505050505b5b8b600160048110612a1357612a1261427c565b5b60200201518d8c81518110612a2b57612a2a61427c565b5b6020026020010151612a3d9190614429565b9050600b8c600160048110612a5557612a5461427c565b5b6020020151148015612a68575060138214155b15612b17577f000000000000000000000000000000000000000000000000000000000000000073ffffffffffffffffffffffffffffffffffffffff16635a1095f3888381518110612abc57612abb61427c565b5b60200260200101516040518263ffffffff1660e01b8152600401612ae0919061313f565b600060405180830381600087803b158015612afa57600080fd5b505af1158015612b0e573d6000803e3d6000fd5b50505050612bdf565b600a8c600160048110612b2d57612b2c61427c565b5b60200201511415612bde577f000000000000000000000000000000000000000000000000000000000000000073ffffffffffffffffffffffffffffffffffffffff16635a1095f3888381518110612b8757612b8661427c565b5b60200260200101516040518263ffffffff1660e01b8152600401612bab919061313f565b600060405180830381600087803b158015612bc557600080fd5b505af1158015612bd9573d6000803e3d6000fd5b505050505b5b8b600260048110612bf357612bf261427c565b5b60200201518d8c81518110612c0b57612c0a61427c565b5b6020026020010151612c1d9190614429565b9050600b8c600260048110612c3557612c3461427c565b5b6020020151148015612c48575060138214155b15612cf7577f000000000000000000000000000000000000000000000000000000000000000073ffffffffffffffffffffffffffffffffffffffff16635a1095f3868381518110612c9c57612c9b61427c565b5b60200260200101516040518263ffffffff1660e01b8152600401612cc0919061313f565b600060405180830381600087803b158015612cda57600080fd5b505af1158015612cee573d6000803e3d6000fd5b50505050612dbf565b600a8c600260048110612d0d57612d0c61427c565b5b60200201511415612dbe577f000000000000000000000000000000000000000000000000000000000000000073ffffffffffffffffffffffffffffffffffffffff16635a1095f3868381518110612d6757612d6661427c565b5b60200260200101516040518263ffffffff1660e01b8152600401612d8b919061313f565b600060405180830381600087803b158015612da557600080fd5b505af1158015612db9573d6000803e3d6000fd5b505050505b5b8b600360048110612dd357612dd261427c565b5b60200201518d8c80612de490614233565b9d5081518110612df757612df661427c565b5b6020026020010151612e099190614429565b9050600b8c600360048110612e2157612e2061427c565b5b6020020151148015612e34575060138214155b15612ee3577f000000000000000000000000000000000000000000000000000000000000000073ffffffffffffffffffffffffffffffffffffffff16635a1095f3848381518110612e8857612e8761427c565b5b60200260200101516040518263ffffffff1660e01b8152600401612eac919061313f565b600060405180830381600087803b158015612ec657600080fd5b505af1158015612eda573d6000803e3d6000fd5b50505050612fab565b600a8c600360048110612ef957612ef861427c565b5b60200201511415612faa577f000000000000000000000000000000000000000000000000000000000000000073ffffffffffffffffffffffffffffffffffffffff16635a1095f3848381518110612f5357612f5261427c565b5b60200260200101516040518263ffffffff1660e01b8152600401612f77919061313f565b600060405180830381600087803b158015612f9157600080fd5b505af1158015612fa5573d6000803e3d6000fd5b505050505b5b5080612fb690614233565b9050612814565b505050505050505050505050565b828054828255906000526020600020908101928215613044579160200282015b828111156130435782518260006101000a81548173ffffffffffffffffffffffffffffffffffffffff021916908373ffffffffffffffffffffffffffffffffffffffff16021790555091602001919060010190612feb565b5b5090506130519190613077565b5090565b6040518060800160405280600490602082028036833780820191505090505090565b5b80821115613090576000816000905550600101613078565b5090565b7f4e487b7100000000000000000000000000000000000000000000000000000000600052602160045260246000fd5b600281106130d4576130d3613094565b5b50565b60008190506130e5826130c3565b919050565b60006130f5826130d7565b9050919050565b613105816130ea565b82525050565b600060208201905061312060008301846130fc565b92915050565b6000819050919050565b61313981613126565b82525050565b60006020820190506131546000830184613130565b92915050565b6000604051905090565b600080fd5b600080fd5b600060ff82169050919050565b6131848161316e565b811461318f57600080fd5b50565b6000813590506131a18161317b565b92915050565b6131b081613126565b81146131bb57600080fd5b50565b6000813590506131cd816131a7565b92915050565b6000806000606084860312156131ec576131eb613164565b5b60006131fa86828701613192565b935050602061320b86828701613192565b925050604061321c868287016131be565b9150509250925092565b600073ffffffffffffffffffffffffffffffffffffffff82169050919050565b600061325182613226565b9050919050565b61326181613246565b811461326c57600080fd5b50565b60008135905061327e81613258565b92915050565b60006020828403121561329a57613299613164565b5b60006132a88482850161326f565b91505092915050565b60008115159050919050565b6132c6816132b1565b82525050565b60006020820190506132e160008301846132bd565b92915050565b600080fd5b6000601f19601f8301169050919050565b7f4e487b7100000000000000000000000000000000000000000000000000000000600052604160045260246000fd5b613335826132ec565b810181811067ffffffffffffffff82111715613354576133536132fd565b5b80604052505050565b600061336761315a565b9050613373828261332c565b919050565b600067ffffffffffffffff821115613393576133926132fd565b5b602082029050602081019050919050565b600080fd5b60006133bc6133b784613378565b61335d565b905080838252602082019050602084028301858111156133df576133de6133a4565b5b835b8181101561340857806133f488826131be565b8452602084019350506020810190506133e1565b5050509392505050565b600082601f830112613427576134266132e7565b5b81356134378482602086016133a9565b91505092915050565b6000806040838503121561345757613456613164565b5b6000613465858286016131be565b925050602083013567ffffffffffffffff81111561348657613485613169565b5b61349285828601613412565b9150509250929050565b6134a581613246565b82525050565b60006020820190506134c0600083018461349c565b92915050565b600080604083850312156134dd576134dc613164565b5b60006134eb85828601613192565b92505060206134fc85828601613192565b9150509250929050565b600080fd5b60008083601f840112613521576135206132e7565b5b8235905067ffffffffffffffff81111561353e5761353d613506565b5b60208301915083600182028301111561355a576135596133a4565b5b9250929050565b6000806020838503121561357857613577613164565b5b600083013567ffffffffffffffff81111561359657613595613169565b5b6135a28582860161350b565b92509250509250929050565b600080fd5b600067ffffffffffffffff8211156135ce576135cd6132fd565b5b6135d7826132ec565b9050602081019050919050565b82818337600083830152505050565b6000613606613601846135b3565b61335d565b905082815260208101848484011115613622576136216135ae565b5b61362d8482856135e4565b509392505050565b600082601f83011261364a576136496132e7565b5b813561365a8482602086016135f3565b91505092915050565b60006020828403121561367957613678613164565b5b600082013567ffffffffffffffff81111561369757613696613169565b5b6136a384828501613635565b91505092915050565b600081519050919050565b600082825260208201905092915050565b60005b838110156136e65780820151818401526020810190506136cb565b838111156136f5576000848401525b50505050565b6000613706826136ac565b61371081856136b7565b93506137208185602086016136c8565b613729816132ec565b840191505092915050565b600060408201905061374960008301856132bd565b818103602083015261375b81846136fb565b90509392505050565b6002811061377557613774613094565b5b50565b600081905061378682613764565b919050565b600061379682613778565b9050919050565b6137a68161378b565b82525050565b60006020820190506137c1600083018461379d565b92915050565b600281106137d8576137d7613094565b5b50565b60008190506137e9826137c7565b919050565b60006137f9826137db565b9050919050565b613809816137ee565b82525050565b60006020820190506138246000830184613800565b92915050565b6004811061383b5761383a613094565b5b50565b600081905061384c8261382a565b919050565b600061385c8261383e565b9050919050565b61386c81613851565b82525050565b60006020820190506138876000830184613863565b92915050565b6000602082840312156138a3576138a2613164565b5b60006138b1848285016131be565b91505092915050565b60006138c582613226565b9050919050565b6138d5816138ba565b82525050565b60006020820190506138f060008301846138cc565b92915050565b6000819050919050565b613909816138f6565b82525050565b60006020820190506139246000830184613900565b92915050565b600067ffffffffffffffff82169050919050565b6139478161392a565b82525050565b6000602082019050613962600083018461393e565b92915050565b600063ffffffff82169050919050565b61398181613968565b82525050565b600060208201905061399c6000830184613978565b92915050565b600080604083850312156139b9576139b8613164565b5b60006139c7858286016131be565b92505060206139d8858286016131be565b9150509250929050565b6000815190506139f181613258565b92915050565b600060208284031215613a0d57613a0c613164565b5b6000613a1b848285016139e2565b91505092915050565b613a2d816132b1565b8114613a3857600080fd5b50565b600081519050613a4a81613a24565b92915050565b600060208284031215613a6657613a65613164565b5b6000613a7484828501613a3b565b91505092915050565b600082825260208201905092915050565b7f49742069732063757272656e746c79206e6f742061747461636b20706861736560008201527f2100000000000000000000000000000000000000000000000000000000000000602082015250565b6000613aea602183613a7d565b9150613af582613a8e565b604082019050919050565b60006020820190508181036000830152613b1981613add565b9050919050565b613b298161316e565b82525050565b6000606082019050613b446000830186613b20565b613b516020830185613b20565b613b5e6040830184613130565b949350505050565b600081905092915050565b50565b6000613b81600083613b66565b9150613b8c82613b71565b600082019050919050565b6000613ba282613b74565b9150819050919050565b6000604082019050613bc1600083018561349c565b613bce602083018461349c565b9392505050565b7f49742069732063757272656e746c79206e6f7420666f7274696679207068617360008201527f6521000000000000000000000000000000000000000000000000000000000000602082015250565b6000613c31602283613a7d565b9150613c3c82613bd5565b604082019050919050565b60006020820190508181036000830152613c6081613c24565b9050919050565b7f596f757220666f7274696669636174696f6e20617474656d7074206661696c6560008201527f6400000000000000000000000000000000000000000000000000000000000000602082015250565b6000613cc3602183613a7d565b9150613cce82613c67565b604082019050919050565b60006020820190508181036000830152613cf281613cb6565b9050919050565b7f49742069732063757272656e746c79206e6f74206465706c6f7920706861736560008201527f2100000000000000000000000000000000000000000000000000000000000000602082015250565b6000613d55602183613a7d565b9150613d6082613cf9565b604082019050919050565b60006020820190508181036000830152613d8481613d48565b9050919050565b600081519050613d9a8161317b565b92915050565b600060208284031215613db657613db5613164565b5b6000613dc484828501613d8b565b91505092915050565b7f596f7520646f206e6f7420686176652074686174206d616e792074726f6f707360008201527f20746f206465706c6f7921000000000000000000000000000000000000000000602082015250565b6000613e29602b83613a7d565b9150613e3482613dcd565b604082019050919050565b60006020820190508181036000830152613e5881613e1c565b9050919050565b6000604082019050613e746000830185613b20565b613e816020830184613b20565b9392505050565b600081549050919050565b600082825260208201905092915050565b60008190508160005260206000209050919050565b613ec2816138ba565b82525050565b6000613ed48383613eb9565b60208301905092915050565b60008160001c9050919050565b600073ffffffffffffffffffffffffffffffffffffffff82169050919050565b6000613f20613f1b83613ee0565b613eed565b9050919050565b6000613f338254613f0d565b9050919050565b6000600182019050919050565b6000613f5282613e88565b613f5c8185613e93565b9350613f6783613ea4565b8060005b83811015613f9f57613f7c82613f27565b613f868882613ec8565b9750613f9183613f3a565b925050600181019050613f6b565b5085935050505092915050565b60006020820190508181036000830152613fc68184613f47565b905092915050565b7f436f6e74726f6c7320636f6e74726163742068617320616c726561647920726560008201527f636569766564204d61696e206164647265737300000000000000000000000000602082015250565b600061402a603383613a7d565b915061403582613fce565b604082019050919050565b600060208201905081810360008301526140598161401d565b9050919050565b7f53656e64204d6f726520746f20456e746572204c6f6262790000000000000000600082015250565b6000614096601883613a7d565b91506140a182614060565b602082019050919050565b600060208201905081810360008301526140c581614089565b9050919050565b7f4c6f6262792069732066756c6c00000000000000000000000000000000000000600082015250565b6000614102600d83613a7d565b915061410d826140cc565b602082019050919050565b60006020820190508181036000830152614131816140f5565b9050919050565b7f596f7527766520616c726561647920656e7465726564207468652067616d6521600082015250565b600061416e602083613a7d565b915061417982614138565b602082019050919050565b6000602082019050818103600083015261419d81614161565b9050919050565b7f4e487b7100000000000000000000000000000000000000000000000000000000600052601260045260246000fd5b7f4e487b7100000000000000000000000000000000000000000000000000000000600052601160045260246000fd5b600061420d82613126565b915061421883613126565b925082614228576142276141a4565b5b828204905092915050565b600061423e82613126565b91507fffffffffffffffffffffffffffffffffffffffffffffffffffffffffffffffff821415614271576142706141d3565b5b600182019050919050565b7f4e487b7100000000000000000000000000000000000000000000000000000000600052603260045260246000fd5b60008160011c9050919050565b6000808291508390505b6001851115614302578086048111156142de576142dd6141d3565b5b60018516156142ed5780820291505b80810290506142fb856142ab565b94506142c2565b94509492505050565b60008261431b57600190506143d7565b8161432957600090506143d7565b816001811461433f576002811461434957614378565b60019150506143d7565b60ff84111561435b5761435a6141d3565b5b8360020a915084821115614372576143716141d3565b5b506143d7565b5060208310610133831016604e8410600b84101617156143ad5782820a9050838111156143a8576143a76141d3565b5b6143d7565b6143ba84848460016142b8565b925090508184048111156143d1576143d06141d3565b5b81810290505b9392505050565b60006143e982613126565b91506143f483613126565b92506144217fffffffffffffffffffffffffffffffffffffffffffffffffffffffffffffffff848461430b565b905092915050565b600061443482613126565b915061443f83613126565b92508261444f5761444e6141a4565b5b828206905092915050565b600061446582613126565b915061447083613126565b9250827fffffffffffffffffffffffffffffffffffffffffffffffffffffffffffffffff038211156144a5576144a46141d3565b5b828201905092915050565b60006144bb82613126565b91506144c683613126565b9250817fffffffffffffffffffffffffffffffffffffffffffffffffffffffffffffffff04831182151516156144ff576144fe6141d3565b5b828202905092915050565b600061451582613126565b915061452083613126565b925082821015614533576145326141d3565b5b828203905092915050565b600061ffff82169050919050565b6145558161453e565b82525050565b6000819050919050565b6000819050919050565b600061458a6145856145808461455b565b614565565b613968565b9050919050565b61459a8161456f565b82525050565b600060a0820190506145b56000830188613900565b6145c2602083018761393e565b6145cf604083018661454c565b6145dc6060830185613978565b6145e96080830184614591565b9695505050505050565b600081519050614602816131a7565b92915050565b60006020828403121561461e5761461d613164565b5b600061462c848285016145f3565b91505092915050565b600060408201905061464a6000830185613130565b6146576020830184613b20565b9392505050565b60006146698261316e565b9150600082141561467d5761467c6141d3565b5b60018203905091905056fea26469706673582212205acb539f202cdb41560b2afcb1621b1ab0e8d3135255c5b17e96a6f9ea5d50b864736f6c63430008080033",
  "devdoc": {
    "kind": "dev",
    "methods": {},
    "version": 1
  },
  "userdoc": {
    "kind": "user",
    "methods": {
      "getSubscriptionId()": {
        "notice": "Getter Functions "
      },
      "numDigits(uint256)": {
        "notice": "Pure Functions "
      }
    },
    "version": 1
  },
  "storageLayout": {
    "storage": [
      {
        "astId": 2694,
        "contract": "contracts/Main.sol:Main",
        "label": "s_gameState",
        "offset": 0,
        "slot": "0",
        "type": "t_enum(GameState)2667"
      },
      {
        "astId": 2697,
        "contract": "contracts/Main.sol:Main",
        "label": "s_lobbyState",
        "offset": 1,
        "slot": "0",
        "type": "t_enum(LobbyState)2662"
      },
      {
        "astId": 2700,
        "contract": "contracts/Main.sol:Main",
        "label": "s_hasRandomWords",
        "offset": 2,
        "slot": "0",
        "type": "t_enum(RandomState)2670"
      },
      {
        "astId": 2703,
        "contract": "contracts/Main.sol:Main",
        "label": "s_players",
        "offset": 0,
        "slot": "1",
        "type": "t_array(t_address_payable)dyn_storage"
      },
      {
        "astId": 2705,
        "contract": "contracts/Main.sol:Main",
        "label": "player_turn",
        "offset": 0,
        "slot": "2",
        "type": "t_address"
      },
      {
        "astId": 2708,
        "contract": "contracts/Main.sol:Main",
        "label": "s_mainSet",
        "offset": 20,
        "slot": "2",
        "type": "t_enum(mainAddressSent)2673"
      },
      {
        "astId": 2712,
        "contract": "contracts/Main.sol:Main",
        "label": "duplicateAddresses",
        "offset": 0,
        "slot": "3",
        "type": "t_mapping(t_address,t_bool)"
      },
      {
        "astId": 2715,
        "contract": "contracts/Main.sol:Main",
        "label": "s_lobbyEntrants",
        "offset": 0,
        "slot": "4",
        "type": "t_array(t_address_payable)dyn_storage"
      },
      {
        "astId": 2717,
        "contract": "contracts/Main.sol:Main",
        "label": "randomWord",
        "offset": 0,
        "slot": "5",
        "type": "t_uint256"
      }
    ],
    "types": {
      "t_address": {
        "encoding": "inplace",
        "label": "address",
        "numberOfBytes": "20"
      },
      "t_address_payable": {
        "encoding": "inplace",
        "label": "address payable",
        "numberOfBytes": "20"
      },
      "t_array(t_address_payable)dyn_storage": {
        "base": "t_address_payable",
        "encoding": "dynamic_array",
        "label": "address payable[]",
        "numberOfBytes": "32"
      },
      "t_bool": {
        "encoding": "inplace",
        "label": "bool",
        "numberOfBytes": "1"
      },
      "t_enum(GameState)2667": {
        "encoding": "inplace",
        "label": "enum Main.GameState",
        "numberOfBytes": "1"
      },
      "t_enum(LobbyState)2662": {
        "encoding": "inplace",
        "label": "enum Main.LobbyState",
        "numberOfBytes": "1"
      },
      "t_enum(RandomState)2670": {
        "encoding": "inplace",
        "label": "enum Main.RandomState",
        "numberOfBytes": "1"
      },
      "t_enum(mainAddressSent)2673": {
        "encoding": "inplace",
        "label": "enum Main.mainAddressSent",
        "numberOfBytes": "1"
      },
      "t_mapping(t_address,t_bool)": {
        "encoding": "mapping",
        "key": "t_address",
        "label": "mapping(address => bool)",
        "numberOfBytes": "32",
        "value": "t_bool"
      },
      "t_uint256": {
        "encoding": "inplace",
        "label": "uint256",
        "numberOfBytes": "32"
      }
    }
  }
}