{
  "address": "0xa513E6E4b8f2a923D98304ec87F64353C4D5C853",
  "abi": [
    {
      "inputs": [
        {
          "internalType": "address",
          "name": "vrfCoordinatorV2",
          "type": "address"
        },
        {
          "internalType": "uint64",
          "name": "subscriptionId",
          "type": "uint64"
        },
        {
          "internalType": "bytes32",
          "name": "gasLane",
          "type": "bytes32"
        },
        {
          "internalType": "uint32",
          "name": "callbackGasLimit",
          "type": "uint32"
        },
        {
          "internalType": "uint256",
          "name": "entranceFee",
          "type": "uint256"
        },
        {
          "internalType": "address",
          "name": "controls",
          "type": "address"
        },
        {
          "internalType": "address",
          "name": "data",
          "type": "address"
        }
      ],
      "stateMutability": "nonpayable",
      "type": "constructor"
    },
    {
      "inputs": [
        {
          "internalType": "address",
          "name": "have",
          "type": "address"
        },
        {
          "internalType": "address",
          "name": "want",
          "type": "address"
        }
      ],
      "name": "OnlyCoordinatorCanFulfill",
      "type": "error"
    },
    {
      "inputs": [],
      "name": "Transfer___Failed",
      "type": "error"
    },
    {
      "anonymous": false,
      "inputs": [],
      "name": "GameSetupComplete",
      "type": "event"
    },
    {
      "anonymous": false,
      "inputs": [],
      "name": "GameStarting",
      "type": "event"
    },
    {
      "anonymous": false,
      "inputs": [],
      "name": "MainReset",
      "type": "event"
    },
    {
      "anonymous": false,
      "inputs": [
        {
          "indexed": true,
          "internalType": "address",
          "name": "player",
          "type": "address"
        }
      ],
      "name": "PlayerJoinedLobby",
      "type": "event"
    },
    {
      "anonymous": false,
      "inputs": [],
      "name": "ReceivedRandomWords",
      "type": "event"
    },
    {
      "anonymous": false,
      "inputs": [
        {
          "indexed": true,
          "internalType": "uint256",
          "name": "requestId",
          "type": "uint256"
        }
      ],
      "name": "RequestedTerritoryRandomness",
      "type": "event"
    },
    {
      "anonymous": false,
      "inputs": [
        {
          "indexed": true,
          "internalType": "uint256",
          "name": "requestId",
          "type": "uint256"
        }
      ],
      "name": "RequestedTroopRandomness",
      "type": "event"
    },
    {
      "anonymous": false,
      "inputs": [
        {
          "indexed": true,
          "internalType": "address",
          "name": "player",
          "type": "address"
        }
      ],
      "name": "WinnerSentFunds",
      "type": "event"
    },
    {
      "inputs": [
        {
          "internalType": "uint8",
          "name": "territoryOwned",
          "type": "uint8"
        },
        {
          "internalType": "uint8",
          "name": "territoryAttacking",
          "type": "uint8"
        },
        {
          "internalType": "uint256",
          "name": "troopQuantity",
          "type": "uint256"
        }
      ],
      "name": "attack",
      "outputs": [],
      "stateMutability": "nonpayable",
      "type": "function"
    },
    {
      "inputs": [
        {
          "internalType": "uint8",
          "name": "amountToDeploy",
          "type": "uint8"
        },
        {
          "internalType": "uint8",
          "name": "location",
          "type": "uint8"
        }
      ],
      "name": "deploy",
      "outputs": [],
      "stateMutability": "nonpayable",
      "type": "function"
    },
    {
      "inputs": [],
      "name": "enterLobby",
      "outputs": [],
      "stateMutability": "payable",
      "type": "function"
    },
    {
      "inputs": [],
      "name": "finishAttack",
      "outputs": [],
      "stateMutability": "nonpayable",
      "type": "function"
    },
    {
      "inputs": [
        {
          "internalType": "uint8",
          "name": "territoryMovingFrom",
          "type": "uint8"
        },
        {
          "internalType": "uint8",
          "name": "territoryMovingTo",
          "type": "uint8"
        },
        {
          "internalType": "uint256",
          "name": "troopsMoving",
          "type": "uint256"
        }
      ],
      "name": "fortify",
      "outputs": [],
      "stateMutability": "nonpayable",
      "type": "function"
    },
    {
      "inputs": [],
      "name": "getCallbackGasLimit",
      "outputs": [
        {
          "internalType": "uint32",
          "name": "",
          "type": "uint32"
        }
      ],
      "stateMutability": "view",
      "type": "function"
    },
    {
      "inputs": [],
      "name": "getEntranceFee",
      "outputs": [
        {
          "internalType": "uint256",
          "name": "",
          "type": "uint256"
        }
      ],
      "stateMutability": "view",
      "type": "function"
    },
    {
      "inputs": [],
      "name": "getGasLane",
      "outputs": [
        {
          "internalType": "bytes32",
          "name": "",
          "type": "bytes32"
        }
      ],
      "stateMutability": "view",
      "type": "function"
    },
    {
      "inputs": [],
      "name": "getLobbyState",
      "outputs": [
        {
          "internalType": "enum Main.LobbyState",
          "name": "",
          "type": "uint8"
        }
      ],
      "stateMutability": "view",
      "type": "function"
    },
    {
      "inputs": [],
      "name": "getNumberOfPlayers",
      "outputs": [
        {
          "internalType": "uint256",
          "name": "",
          "type": "uint256"
        }
      ],
      "stateMutability": "view",
      "type": "function"
    },
    {
      "inputs": [
        {
          "internalType": "uint256",
          "name": "index",
          "type": "uint256"
        }
      ],
      "name": "getPlayer",
      "outputs": [
        {
          "internalType": "address",
          "name": "",
          "type": "address"
        }
      ],
      "stateMutability": "view",
      "type": "function"
    },
    {
      "inputs": [],
      "name": "getRandomWordsArray",
      "outputs": [
        {
          "internalType": "uint256[]",
          "name": "",
          "type": "uint256[]"
        }
      ],
      "stateMutability": "view",
      "type": "function"
    },
    {
      "inputs": [
        {
          "internalType": "uint256",
          "name": "index",
          "type": "uint256"
        }
      ],
      "name": "getRandomWordsArrayIndex",
      "outputs": [
        {
          "internalType": "uint256",
          "name": "",
          "type": "uint256"
        }
      ],
      "stateMutability": "view",
      "type": "function"
    },
    {
      "inputs": [],
      "name": "getRequestConfirmations",
      "outputs": [
        {
          "internalType": "uint256",
          "name": "",
          "type": "uint256"
        }
      ],
      "stateMutability": "pure",
      "type": "function"
    },
    {
      "inputs": [],
      "name": "getSubscriptionId",
      "outputs": [
        {
          "internalType": "uint64",
          "name": "",
          "type": "uint64"
        }
      ],
      "stateMutability": "view",
      "type": "function"
    },
    {
      "inputs": [],
      "name": "getTerritoryState",
      "outputs": [
        {
          "internalType": "enum Main.TerritoryState",
          "name": "",
          "type": "uint8"
        }
      ],
      "stateMutability": "view",
      "type": "function"
    },
    {
      "inputs": [
        {
          "internalType": "address",
          "name": "winner",
          "type": "address"
        }
      ],
      "name": "payWinner",
      "outputs": [
        {
          "internalType": "bool",
          "name": "",
          "type": "bool"
        }
      ],
      "stateMutability": "nonpayable",
      "type": "function"
    },
    {
      "inputs": [],
      "name": "player_turn",
      "outputs": [
        {
          "internalType": "address",
          "name": "",
          "type": "address"
        }
      ],
      "stateMutability": "view",
      "type": "function"
    },
    {
      "inputs": [
        {
          "internalType": "uint256",
          "name": "requestId",
          "type": "uint256"
        },
        {
          "internalType": "uint256[]",
          "name": "randomWords",
          "type": "uint256[]"
        }
      ],
      "name": "rawFulfillRandomWords",
      "outputs": [],
      "stateMutability": "nonpayable",
      "type": "function"
    },
    {
      "inputs": [],
      "name": "s_gameState",
      "outputs": [
        {
          "internalType": "enum Main.GameState",
          "name": "",
          "type": "uint8"
        }
      ],
      "stateMutability": "view",
      "type": "function"
    },
    {
      "inputs": [],
      "name": "s_lobbyState",
      "outputs": [
        {
          "internalType": "enum Main.LobbyState",
          "name": "",
          "type": "uint8"
        }
      ],
      "stateMutability": "view",
      "type": "function"
    },
    {
      "inputs": [],
      "name": "s_mainSet",
      "outputs": [
        {
          "internalType": "enum Main.mainAddressSent",
          "name": "",
          "type": "uint8"
        }
      ],
      "stateMutability": "view",
      "type": "function"
    },
    {
      "inputs": [
        {
          "internalType": "uint256",
          "name": "",
          "type": "uint256"
        }
      ],
      "name": "s_players",
      "outputs": [
        {
          "internalType": "address payable",
          "name": "",
          "type": "address"
        }
      ],
      "stateMutability": "view",
      "type": "function"
    },
    {
      "inputs": [],
      "name": "s_territoryState",
      "outputs": [
        {
          "internalType": "enum Main.TerritoryState",
          "name": "",
          "type": "uint8"
        }
      ],
      "stateMutability": "view",
      "type": "function"
    },
    {
      "inputs": [],
      "name": "setMainAddress",
      "outputs": [],
      "stateMutability": "nonpayable",
      "type": "function"
    }
  ],
  "transactionHash": "0x59b08985b75eedec31ba56287e4ae07c318008d06e17fb76a4ffc18ad1cbf03c",
  "args": [
    "0x5FbDB2315678afecb367f032d93F642f64180aa3",
    "2",
    "0x79d3d8832d904592c0bf9818b621522c988bb8b0c05cdc3b15aea1b6e8db0c15",
    "3000000",
    "100000000000000000",
    "0xDc64a140Aa3E981100a9becA4E685f962f0cF6C9",
    "0xe7f1725E7734CE288F8367e1Bb143E90bb3F0512"
  ],
  "numDeployments": 1,
  "solcInputHash": "f851865327b17bc511bc6cb79d0af24b",
  "bytecode": "0x6101806040526040518060800160405280600060ff168152602001600060ff168152602001600060ff168152602001600060ff168152506000906004620000489291906200023a565b503480156200005657600080fd5b50604051620040f3380380620040f383398181016040528101906200007c919062000460565b868073ffffffffffffffffffffffffffffffffffffffff1660808173ffffffffffffffffffffffffffffffffffffffff1660601b81525050508673ffffffffffffffffffffffffffffffffffffffff1660a08173ffffffffffffffffffffffffffffffffffffffff1660601b815250508567ffffffffffffffff1660c08167ffffffffffffffff1660c01b815250508460e081815250508363ffffffff166101008163ffffffff1660e01b8152505082610120818152505060006002806101000a81548160ff021916908360018111156200015c576200015b62000513565b5b02179055506003600260016101000a81548160ff021916908360038111156200018a576200018962000513565b5b02179055506001600460146101000a81548160ff02191690836001811115620001b857620001b762000513565b5b02179055508173ffffffffffffffffffffffffffffffffffffffff166101408173ffffffffffffffffffffffffffffffffffffffff1660601b815250508073ffffffffffffffffffffffffffffffffffffffff166101608173ffffffffffffffffffffffffffffffffffffffff1660601b815250505050505050505062000542565b826004601f01602090048101928215620002c85791602002820160005b838211156200029757835183826101000a81548160ff021916908360ff160217905550926020019260010160208160000104928301926001030262000257565b8015620002c65782816101000a81549060ff021916905560010160208160000104928301926001030262000297565b505b509050620002d79190620002db565b5090565b5b80821115620002f6576000816000905550600101620002dc565b5090565b600080fd5b600073ffffffffffffffffffffffffffffffffffffffff82169050919050565b60006200032c82620002ff565b9050919050565b6200033e816200031f565b81146200034a57600080fd5b50565b6000815190506200035e8162000333565b92915050565b600067ffffffffffffffff82169050919050565b620003838162000364565b81146200038f57600080fd5b50565b600081519050620003a38162000378565b92915050565b6000819050919050565b620003be81620003a9565b8114620003ca57600080fd5b50565b600081519050620003de81620003b3565b92915050565b600063ffffffff82169050919050565b620003ff81620003e4565b81146200040b57600080fd5b50565b6000815190506200041f81620003f4565b92915050565b6000819050919050565b6200043a8162000425565b81146200044657600080fd5b50565b6000815190506200045a816200042f565b92915050565b600080600080600080600060e0888a031215620004825762000481620002fa565b5b6000620004928a828b016200034d565b9750506020620004a58a828b0162000392565b9650506040620004b88a828b01620003cd565b9550506060620004cb8a828b016200040e565b9450506080620004de8a828b0162000449565b93505060a0620004f18a828b016200034d565b92505060c0620005048a828b016200034d565b91505092959891949750929550565b7f4e487b7100000000000000000000000000000000000000000000000000000000600052602160045260246000fd5b60805160601c60a05160601c60c05160c01c60e0516101005160e01c610120516101405160601c6101605160601c613a946200065f60003960005050600081816105e5015281816106f30152818161079a015281816108ba0152818161095001528181610b5f01528181610c6d01528181610e0601528181610f4d0152818161105b015281816111f001528181611316015281816114410152818161154f015281816115f6015281816117d00152818161213a0152818161237a0152818161251001526126370152600081816105aa0152611902015260008181611b2d0152611f470152600081816118dc0152611f03015260008181611b050152611f2401526000611ec7015260008181610a9f0152610af30152613a946000f3fe6080604052600436106101665760003560e01c80635f1b0fd8116100d1578063d9eb8a441161008a578063de8be8e711610064578063de8be8e7146104c5578063e55ae4e8146104f0578063e83463eb1461052d578063fd6673f51461056a57610166565b8063d9eb8a4414610465578063da4701cd1461046f578063de3d9fb71461049a57610166565b80635f1b0fd8146103655780638d2ed9971461039057806399c914fb146103bb578063a6ac3b10146103d2578063ae771f6b146103fd578063c19dd76b1461043a57610166565b80633691770a116101235780633691770a1461027b5780633b63601e146102a45780633d777d95146102cf578063505e53ab146102f85780635229134a1461030f5780635ad964ae1461033a57610166565b806304889afb1461016b57806309bc33a7146101965780630fb081df146101c157806314b1f907146101ec57806319b09f9b146102155780631fe543e314610252575b600080fd5b34801561017757600080fd5b50610180610595565b60405161018d91906128ca565b60405180910390f35b3480156101a257600080fd5b506101ab6105a6565b6040516101b891906128fe565b60405180910390f35b3480156101cd57600080fd5b506101d66105ce565b6040516101e391906128ca565b60405180910390f35b3480156101f857600080fd5b50610213600480360381019061020e9190612992565b6105e3565b005b34801561022157600080fd5b5061023c60048036038101906102379190612a43565b61094c565b6040516102499190612a8b565b60405180910390f35b34801561025e57600080fd5b5061027960048036038101906102749190612bff565b610a9d565b005b34801561028757600080fd5b506102a2600480360381019061029d9190612992565b610b5d565b005b3480156102b057600080fd5b506102b9610f25565b6040516102c69190612c6a565b60405180910390f35b3480156102db57600080fd5b506102f660048036038101906102f19190612c85565b610f4b565b005b34801561030457600080fd5b5061030d61143f565b005b34801561031b57600080fd5b506103246116ca565b6040516103319190612d83565b60405180910390f35b34801561034657600080fd5b5061034f611722565b60405161035c9190612ded565b60405180910390f35b34801561037157600080fd5b5061037a611739565b60405161038791906128fe565b60405180910390f35b34801561039c57600080fd5b506103a5611746565b6040516103b29190612e50565b60405180910390f35b3480156103c757600080fd5b506103d0611759565b005b3480156103de57600080fd5b506103e7611886565b6040516103f49190612eb3565b60405180910390f35b34801561040957600080fd5b50610424600480360381019061041f9190612ece565b611899565b6040516104319190612f1c565b60405180910390f35b34801561044657600080fd5b5061044f6118d8565b60405161045c9190612f50565b60405180910390f35b61046d611900565b005b34801561047b57600080fd5b50610484611aee565b6040516104919190612ded565b60405180910390f35b3480156104a657600080fd5b506104af611b01565b6040516104bc9190612f8e565b60405180910390f35b3480156104d157600080fd5b506104da611b29565b6040516104e79190612fc8565b60405180910390f35b3480156104fc57600080fd5b5061051760048036038101906105129190612ece565b611b51565b6040516105249190612c6a565b60405180910390f35b34801561053957600080fd5b50610554600480360381019061054f9190612ece565b611b99565b60405161056191906128fe565b60405180910390f35b34801561057657600080fd5b5061057f611bc1565b60405161058c91906128fe565b60405180910390f35b60028054906101000a900460ff1681565b60007f0000000000000000000000000000000000000000000000000000000000000000905090565b600060028054906101000a900460ff16905090565b7f000000000000000000000000000000000000000000000000000000000000000073ffffffffffffffffffffffffffffffffffffffff16632572cd6e6040518163ffffffff1660e01b815260040160206040518083038186803b15801561064957600080fd5b505afa15801561065d573d6000803e3d6000fd5b505050506040513d601f19601f820116820180604052508101906106819190612ff8565b73ffffffffffffffffffffffffffffffffffffffff163373ffffffffffffffffffffffffffffffffffffffff16146106b857600080fd5b6107946040518060400160405280600b81526020017f706c617965725f7475726e0000000000000000000000000000000000000000008152507f000000000000000000000000000000000000000000000000000000000000000073ffffffffffffffffffffffffffffffffffffffff16632572cd6e6040518163ffffffff1660e01b815260040160206040518083038186803b15801561075757600080fd5b505afa15801561076b573d6000803e3d6000fd5b505050506040513d601f19601f8201168201806040525081019061078f9190612ff8565b611bce565b600015157f000000000000000000000000000000000000000000000000000000000000000073ffffffffffffffffffffffffffffffffffffffff1663af0b94d46040518163ffffffff1660e01b815260040160206040518083038186803b1580156107fe57600080fd5b505afa158015610812573d6000803e3d6000fd5b505050506040513d601f19601f820116820180604052508101906108369190613051565b15151461084257600080fd5b6001600381111561085657610855612853565b5b600260019054906101000a900460ff16600381111561087857610877612853565b5b146108b8576040517f08c379a00000000000000000000000000000000000000000000000000000000081526004016108af90613101565b60405180910390fd5b7f000000000000000000000000000000000000000000000000000000000000000073ffffffffffffffffffffffffffffffffffffffff1663be85fc768484846040518463ffffffff1660e01b815260040161091593929190613130565b600060405180830381600087803b15801561092f57600080fd5b505af1158015610943573d6000803e3d6000fd5b50505050505050565b60007f000000000000000000000000000000000000000000000000000000000000000073ffffffffffffffffffffffffffffffffffffffff163373ffffffffffffffffffffffffffffffffffffffff16146109a657600080fd5b60008273ffffffffffffffffffffffffffffffffffffffff16476040516109cc90613198565b60006040518083038185875af1925050503d8060008114610a09576040519150601f19603f3d011682016040523d82523d6000602084013e610a0e565b606091505b5050905080610a49576040517faad40e9700000000000000000000000000000000000000000000000000000000815260040160405180910390fd5b8273ffffffffffffffffffffffffffffffffffffffff167f6484268da2aca55c67beef4127a9a4f83ec74ff7fa3d896a9b23c86e12427e7b60405160405180910390a2610a94611c6a565b80915050919050565b7f000000000000000000000000000000000000000000000000000000000000000073ffffffffffffffffffffffffffffffffffffffff163373ffffffffffffffffffffffffffffffffffffffff1614610b4f57337f00000000000000000000000000000000000000000000000000000000000000006040517f1cf993f4000000000000000000000000000000000000000000000000000000008152600401610b469291906131ad565b60405180910390fd5b610b598282611d8f565b5050565b7f000000000000000000000000000000000000000000000000000000000000000073ffffffffffffffffffffffffffffffffffffffff16632572cd6e6040518163ffffffff1660e01b815260040160206040518083038186803b158015610bc357600080fd5b505afa158015610bd7573d6000803e3d6000fd5b505050506040513d601f19601f82011682018060405250810190610bfb9190612ff8565b73ffffffffffffffffffffffffffffffffffffffff163373ffffffffffffffffffffffffffffffffffffffff1614610c3257600080fd5b610d0e6040518060400160405280600b81526020017f706c617965725f7475726e0000000000000000000000000000000000000000008152507f000000000000000000000000000000000000000000000000000000000000000073ffffffffffffffffffffffffffffffffffffffff16632572cd6e6040518163ffffffff1660e01b815260040160206040518083038186803b158015610cd157600080fd5b505afa158015610ce5573d6000803e3d6000fd5b505050506040513d601f19601f82011682018060405250810190610d099190612ff8565b611bce565b610d4c6040518060400160405280600b81526020017f696e73696465206d61696e000000000000000000000000000000000000000000815250611e2a565b60026003811115610d6057610d5f612853565b5b600260019054906101000a900460ff166003811115610d8257610d81612853565b5b14610dc2576040517f08c379a0000000000000000000000000000000000000000000000000000000008152600401610db990613248565b60405180910390fd5b610e006040518060400160405280600481526020017f6865726500000000000000000000000000000000000000000000000000000000815250611e2a565b600115157f000000000000000000000000000000000000000000000000000000000000000073ffffffffffffffffffffffffffffffffffffffff1663ada2c7a88585856040518463ffffffff1660e01b8152600401610e6193929190613130565b602060405180830381600087803b158015610e7b57600080fd5b505af1158015610e8f573d6000803e3d6000fd5b505050506040513d601f19601f82011682018060405250810190610eb39190613051565b151514610ef5576040517f08c379a0000000000000000000000000000000000000000000000000000000008152600401610eec906132da565b60405180910390fd5b6000600260016101000a81548160ff02191690836003811115610f1b57610f1a612853565b5b0217905550505050565b600460009054906101000a900473ffffffffffffffffffffffffffffffffffffffff1681565b7f000000000000000000000000000000000000000000000000000000000000000073ffffffffffffffffffffffffffffffffffffffff16632572cd6e6040518163ffffffff1660e01b815260040160206040518083038186803b158015610fb157600080fd5b505afa158015610fc5573d6000803e3d6000fd5b505050506040513d601f19601f82011682018060405250810190610fe99190612ff8565b73ffffffffffffffffffffffffffffffffffffffff163373ffffffffffffffffffffffffffffffffffffffff161461102057600080fd5b6110fc6040518060400160405280600b81526020017f706c617965725f7475726e0000000000000000000000000000000000000000008152507f000000000000000000000000000000000000000000000000000000000000000073ffffffffffffffffffffffffffffffffffffffff16632572cd6e6040518163ffffffff1660e01b815260040160206040518083038186803b1580156110bf57600080fd5b505afa1580156110d3573d6000803e3d6000fd5b505050506040513d601f19601f820116820180604052508101906110f79190612ff8565b611bce565b61113a6040518060400160405280600981526020017f6465706c6f79696e670000000000000000000000000000000000000000000000815250611e2a565b6000600381111561114e5761114d612853565b5b600260019054906101000a900460ff1660038111156111705761116f612853565b5b146111b0576040517f08c379a00000000000000000000000000000000000000000000000000000000081526004016111a79061336c565b60405180910390fd5b6111ee6040518060400160405280601981526020017f617420656e64206f66206465706c6f792066756e6374696f6e00000000000000815250611e2a565b7f000000000000000000000000000000000000000000000000000000000000000073ffffffffffffffffffffffffffffffffffffffff1663b6d5bc6f6040518163ffffffff1660e01b815260040160206040518083038186803b15801561125457600080fd5b505afa158015611268573d6000803e3d6000fd5b505050506040513d601f19601f8201168201806040525081019061128c91906133a1565b60ff168260ff1611156112d4576040517f08c379a00000000000000000000000000000000000000000000000000000000081526004016112cb90613440565b60405180910390fd5b6113126040518060400160405280601981526020017f617420656e64206f66206465706c6f792066756e6374696f6e00000000000000815250611e2a565b60007f000000000000000000000000000000000000000000000000000000000000000073ffffffffffffffffffffffffffffffffffffffff1663041dcfcc84846040518363ffffffff1660e01b815260040161136f929190613460565b602060405180830381600087803b15801561138957600080fd5b505af115801561139d573d6000803e3d6000fd5b505050506040513d601f19601f820116820180604052508101906113c19190613051565b90506114016040518060400160405280601981526020017f617420656e64206f66206465706c6f792066756e6374696f6e00000000000000815250611e2a565b60001515811515141561143a576001600260016101000a81548160ff0219169083600381111561143457611433612853565b5b02179055505b505050565b7f000000000000000000000000000000000000000000000000000000000000000073ffffffffffffffffffffffffffffffffffffffff16632572cd6e6040518163ffffffff1660e01b815260040160206040518083038186803b1580156114a557600080fd5b505afa1580156114b9573d6000803e3d6000fd5b505050506040513d601f19601f820116820180604052508101906114dd9190612ff8565b73ffffffffffffffffffffffffffffffffffffffff163373ffffffffffffffffffffffffffffffffffffffff161461151457600080fd5b6115f06040518060400160405280600b81526020017f706c617965725f7475726e0000000000000000000000000000000000000000008152507f000000000000000000000000000000000000000000000000000000000000000073ffffffffffffffffffffffffffffffffffffffff16632572cd6e6040518163ffffffff1660e01b815260040160206040518083038186803b1580156115b357600080fd5b505afa1580156115c7573d6000803e3d6000fd5b505050506040513d601f19601f820116820180604052508101906115eb9190612ff8565b611bce565b600015157f000000000000000000000000000000000000000000000000000000000000000073ffffffffffffffffffffffffffffffffffffffff1663af0b94d46040518163ffffffff1660e01b815260040160206040518083038186803b15801561165a57600080fd5b505afa15801561166e573d6000803e3d6000fd5b505050506040513d601f19601f820116820180604052508101906116929190613051565b15151461169e57600080fd5b60028060016101000a81548160ff021916908360038111156116c3576116c2612853565b5b0217905550565b6060600180548060200260200160405190810160405280929190818152602001828054801561171857602002820191906000526020600020905b815481526020019060010190808311611704575b5050505050905090565b6000600260009054906101000a900460ff16905090565b6000600361ffff16905090565b600460149054906101000a900460ff1681565b60018081111561176c5761176b612853565b5b600460149054906101000a900460ff16600181111561178e5761178d612853565b5b146117ce576040517f08c379a00000000000000000000000000000000000000000000000000000000081526004016117c5906134fb565b60405180910390fd5b7f000000000000000000000000000000000000000000000000000000000000000073ffffffffffffffffffffffffffffffffffffffff166305ca49b0306040518263ffffffff1660e01b81526004016118279190612c6a565b600060405180830381600087803b15801561184157600080fd5b505af1158015611855573d6000803e3d6000fd5b505050506000600460146101000a81548160ff0219169083600181111561187f5761187e612853565b5b0217905550565b600260019054906101000a900460ff1681565b600381815481106118a957600080fd5b906000526020600020016000915054906101000a900473ffffffffffffffffffffffffffffffffffffffff1681565b60007f0000000000000000000000000000000000000000000000000000000000000000905090565b7f0000000000000000000000000000000000000000000000000000000000000000341015611963576040517f08c379a000000000000000000000000000000000000000000000000000000000815260040161195a90613567565b60405180910390fd5b6000600181111561197757611976612853565b5b60028054906101000a900460ff16600181111561199757611996612853565b5b146119d7576040517f08c379a00000000000000000000000000000000000000000000000000000000081526004016119ce906135d3565b60405180910390fd5b6003339080600181540180825580915050600190039060005260206000200160009091909190916101000a81548173ffffffffffffffffffffffffffffffffffffffff021916908373ffffffffffffffffffffffffffffffffffffffff1602179055503373ffffffffffffffffffffffffffffffffffffffff167fa0df676a3a1d8a4dc693c144ac79c01945b4464a07bccdbf66c068127c32cfd760405160405180910390a260046003805490501415611aec5760016002806101000a81548160ff02191690836001811115611ab057611aaf612853565b5b02179055507f095744e432dd463fbf0fa4a256e21ddb462dbc9cc4e27248ebd5a28d759cc9e560405160405180910390a1611aeb602a611ec3565b5b565b600260009054906101000a900460ff1681565b60007f0000000000000000000000000000000000000000000000000000000000000000905090565b60007f0000000000000000000000000000000000000000000000000000000000000000905090565b600060038281548110611b6757611b666135f3565b5b9060005260206000200160009054906101000a900473ffffffffffffffffffffffffffffffffffffffff169050919050565b600060018281548110611baf57611bae6135f3565b5b90600052602060002001549050919050565b6000600380549050905090565b611c668282604051602401611be4929190613699565b6040516020818303038152906040527f319af333000000000000000000000000000000000000000000000000000000007bffffffffffffffffffffffffffffffffffffffffffffffffffffffff19166020820180517bffffffffffffffffffffffffffffffffffffffffffffffffffffffff838183161783525050505061207a565b5050565b60006002806101000a81548160ff02191690836001811115611c8f57611c8e612853565b5b0217905550600067ffffffffffffffff811115611caf57611cae612abc565b5b604051908082528060200260200182016040528015611cdd5781602001602082028036833780820191505090505b5060039080519060200190611cf39291906126c5565b506003600260016101000a81548160ff02191690836003811115611d1a57611d19612853565b5b02179055506040518060800160405280600060ff168152602001600060ff168152602001600060ff168152602001600060ff168152506000906004611d6092919061274f565b507fddf25b659ac34302a47d8558d65f7af2579a28dd349a418009a1754bd599928460405160405180910390a1565b8060019080519060200190611da59291906127e9565b507f1d8f6997ec77a160b10f1131c09af88a6a895ea5f542c5fbca36ce69a9f5424860405160405180910390a160006001811115611de657611de5612853565b5b600260009054906101000a900460ff166001811115611e0857611e07612853565b5b1415611e1c57611e17816120a3565b611e26565b611e25816122e5565b5b5050565b611ec081604051602401611e3e91906136c9565b6040516020818303038152906040527f41304fac000000000000000000000000000000000000000000000000000000007bffffffffffffffffffffffffffffffffffffffffffffffffffffffff19166020820180517bffffffffffffffffffffffffffffffffffffffffffffffffffffffff838183161783525050505061207a565b50565b60007f000000000000000000000000000000000000000000000000000000000000000073ffffffffffffffffffffffffffffffffffffffff16635d3b1d307f00000000000000000000000000000000000000000000000000000000000000007f000000000000000000000000000000000000000000000000000000000000000060037f0000000000000000000000000000000000000000000000000000000000000000876040518663ffffffff1660e01b8152600401611f87959493929190613708565b602060405180830381600087803b158015611fa157600080fd5b505af1158015611fb5573d6000803e3d6000fd5b505050506040513d601f19601f82011682018060405250810190611fd99190613770565b9050600180811115611fee57611fed612853565b5b600260009054906101000a900460ff1660018111156120105761200f612853565b5b141561204857807f6dd9490da71258343c2f0b9c99ec9c283c04748dc6f9ca43c8b9c88ebef7640060405160405180910390a2612076565b807f14811023daed30f0f57d7f3d94dc3026647731787a9dec5abe13aa62f4a2f0dd60405160405180910390a25b5050565b60008151905060006a636f6e736f6c652e6c6f679050602083016000808483855afa5050505050565b60006040518060800160405280600060ff168152602001600160ff168152602001600260ff168152602001600360ff1681525090506000600a905060006004905060008060005b86518110156122a7578360ff1687828151811061210a576121096135f3565b5b602002602001015161211c91906137cc565b9250858360048110612131576121306135f3565b5b602002015191507f000000000000000000000000000000000000000000000000000000000000000073ffffffffffffffffffffffffffffffffffffffff1663aa181e85836040518263ffffffff1660e01b815260040161219191906137fd565b600060405180830381600087803b1580156121ab57600080fd5b505af11580156121bf573d6000803e3d6000fd5b5050505060008260ff16600481106121da576121d96135f3565b5b6020918282040191900681819054906101000a900460ff16809291906121ff90613847565b91906101000a81548160ff021916908360ff160217905550508460ff1660008360ff1660048110612233576122326135f3565b5b602091828204019190069054906101000a900460ff1660ff16141561229457858260ff1660048110612268576122676135f3565b5b60200201600060ff16815250838061227f90613871565b94505060028460ff16141561229357600b94505b5b808061229f9061389b565b9150506120ea565b506001600260006101000a81548160ff021916908360018111156122ce576122cd612853565b5b02179055506122dd604e611ec3565b505050505050565b6000805b60048110156125dd576000808260048110612307576123066135f3565b5b602091828204019190069054906101000a900460ff1660ff1667ffffffffffffffff81111561233957612338612abc565b5b6040519080825280602002602001820160405280156123675781602001602082028036833780820191505090505b5090506000805b602a81101561246957837f000000000000000000000000000000000000000000000000000000000000000073ffffffffffffffffffffffffffffffffffffffff1663780b5bf9836040518263ffffffff1660e01b81526004016123d191906128fe565b602060405180830381600087803b1580156123eb57600080fd5b505af11580156123ff573d6000803e3d6000fd5b505050506040513d601f19601f820116820180604052508101906124239190613770565b141561245657808383806124369061389b565b945081518110612449576124486135f3565b5b6020026020010181815250505b80806124619061389b565b91505061236e565b5060005b60008460048110612481576124806135f3565b5b602091828204019190069054906101000a900460ff16601e6124a391906138e4565b60ff168110156125c75760008085600481106124c2576124c16135f3565b5b602091828204019190069054906101000a900460ff1660ff168787806124e79061389b565b9850815181106124fa576124f96135f3565b5b602002602001015161250c91906137cc565b90507f000000000000000000000000000000000000000000000000000000000000000073ffffffffffffffffffffffffffffffffffffffff16635a1095f385838151811061255d5761255c6135f3565b5b60200260200101516040518263ffffffff1660e01b815260040161258191906128fe565b600060405180830381600087803b15801561259b57600080fd5b505af11580156125af573d6000803e3d6000fd5b505050505080806125bf9061389b565b91505061246d565b50505080806125d59061389b565b9150506122e9565b507fcda6b16767f05ec2f16325d372b235b450091ed813db76d6c3d98a26e52078a560405160405180910390a16000600260016101000a81548160ff021916908360038111156126305761262f612853565b5b02179055507f000000000000000000000000000000000000000000000000000000000000000073ffffffffffffffffffffffffffffffffffffffff1663c758c12660036040518263ffffffff1660e01b815260040161268f9190613a3c565b600060405180830381600087803b1580156126a957600080fd5b505af11580156126bd573d6000803e3d6000fd5b505050505050565b82805482825590600052602060002090810192821561273e579160200282015b8281111561273d5782518260006101000a81548173ffffffffffffffffffffffffffffffffffffffff021916908373ffffffffffffffffffffffffffffffffffffffff160217905550916020019190600101906126e5565b5b50905061274b9190612836565b5090565b826004601f016020900481019282156127d85791602002820160005b838211156127a957835183826101000a81548160ff021916908360ff160217905550926020019260010160208160000104928301926001030261276b565b80156127d65782816101000a81549060ff02191690556001016020816000010492830192600103026127a9565b505b5090506127e59190612836565b5090565b828054828255906000526020600020908101928215612825579160200282015b82811115612824578251825591602001919060010190612809565b5b5090506128329190612836565b5090565b5b8082111561284f576000816000905550600101612837565b5090565b7f4e487b7100000000000000000000000000000000000000000000000000000000600052602160045260246000fd5b6002811061289357612892612853565b5b50565b60008190506128a482612882565b919050565b60006128b482612896565b9050919050565b6128c4816128a9565b82525050565b60006020820190506128df60008301846128bb565b92915050565b6000819050919050565b6128f8816128e5565b82525050565b600060208201905061291360008301846128ef565b92915050565b6000604051905090565b600080fd5b600080fd5b600060ff82169050919050565b6129438161292d565b811461294e57600080fd5b50565b6000813590506129608161293a565b92915050565b61296f816128e5565b811461297a57600080fd5b50565b60008135905061298c81612966565b92915050565b6000806000606084860312156129ab576129aa612923565b5b60006129b986828701612951565b93505060206129ca86828701612951565b92505060406129db8682870161297d565b9150509250925092565b600073ffffffffffffffffffffffffffffffffffffffff82169050919050565b6000612a10826129e5565b9050919050565b612a2081612a05565b8114612a2b57600080fd5b50565b600081359050612a3d81612a17565b92915050565b600060208284031215612a5957612a58612923565b5b6000612a6784828501612a2e565b91505092915050565b60008115159050919050565b612a8581612a70565b82525050565b6000602082019050612aa06000830184612a7c565b92915050565b600080fd5b6000601f19601f8301169050919050565b7f4e487b7100000000000000000000000000000000000000000000000000000000600052604160045260246000fd5b612af482612aab565b810181811067ffffffffffffffff82111715612b1357612b12612abc565b5b80604052505050565b6000612b26612919565b9050612b328282612aeb565b919050565b600067ffffffffffffffff821115612b5257612b51612abc565b5b602082029050602081019050919050565b600080fd5b6000612b7b612b7684612b37565b612b1c565b90508083825260208201905060208402830185811115612b9e57612b9d612b63565b5b835b81811015612bc75780612bb3888261297d565b845260208401935050602081019050612ba0565b5050509392505050565b600082601f830112612be657612be5612aa6565b5b8135612bf6848260208601612b68565b91505092915050565b60008060408385031215612c1657612c15612923565b5b6000612c248582860161297d565b925050602083013567ffffffffffffffff811115612c4557612c44612928565b5b612c5185828601612bd1565b9150509250929050565b612c6481612a05565b82525050565b6000602082019050612c7f6000830184612c5b565b92915050565b60008060408385031215612c9c57612c9b612923565b5b6000612caa85828601612951565b9250506020612cbb85828601612951565b9150509250929050565b600081519050919050565b600082825260208201905092915050565b6000819050602082019050919050565b612cfa816128e5565b82525050565b6000612d0c8383612cf1565b60208301905092915050565b6000602082019050919050565b6000612d3082612cc5565b612d3a8185612cd0565b9350612d4583612ce1565b8060005b83811015612d76578151612d5d8882612d00565b9750612d6883612d18565b925050600181019050612d49565b5085935050505092915050565b60006020820190508181036000830152612d9d8184612d25565b905092915050565b60028110612db657612db5612853565b5b50565b6000819050612dc782612da5565b919050565b6000612dd782612db9565b9050919050565b612de781612dcc565b82525050565b6000602082019050612e026000830184612dde565b92915050565b60028110612e1957612e18612853565b5b50565b6000819050612e2a82612e08565b919050565b6000612e3a82612e1c565b9050919050565b612e4a81612e2f565b82525050565b6000602082019050612e656000830184612e41565b92915050565b60048110612e7c57612e7b612853565b5b50565b6000819050612e8d82612e6b565b919050565b6000612e9d82612e7f565b9050919050565b612ead81612e92565b82525050565b6000602082019050612ec86000830184612ea4565b92915050565b600060208284031215612ee457612ee3612923565b5b6000612ef28482850161297d565b91505092915050565b6000612f06826129e5565b9050919050565b612f1681612efb565b82525050565b6000602082019050612f316000830184612f0d565b92915050565b6000819050919050565b612f4a81612f37565b82525050565b6000602082019050612f656000830184612f41565b92915050565b600067ffffffffffffffff82169050919050565b612f8881612f6b565b82525050565b6000602082019050612fa36000830184612f7f565b92915050565b600063ffffffff82169050919050565b612fc281612fa9565b82525050565b6000602082019050612fdd6000830184612fb9565b92915050565b600081519050612ff281612a17565b92915050565b60006020828403121561300e5761300d612923565b5b600061301c84828501612fe3565b91505092915050565b61302e81612a70565b811461303957600080fd5b50565b60008151905061304b81613025565b92915050565b60006020828403121561306757613066612923565b5b60006130758482850161303c565b91505092915050565b600082825260208201905092915050565b7f49742069732063757272656e746c79206e6f742061747461636b20706861736560008201527f2100000000000000000000000000000000000000000000000000000000000000602082015250565b60006130eb60218361307e565b91506130f68261308f565b604082019050919050565b6000602082019050818103600083015261311a816130de565b9050919050565b61312a8161292d565b82525050565b60006060820190506131456000830186613121565b6131526020830185613121565b61315f60408301846128ef565b949350505050565b600081905092915050565b50565b6000613182600083613167565b915061318d82613172565b600082019050919050565b60006131a382613175565b9150819050919050565b60006040820190506131c26000830185612c5b565b6131cf6020830184612c5b565b9392505050565b7f49742069732063757272656e746c79206e6f7420666f7274696679207068617360008201527f6521000000000000000000000000000000000000000000000000000000000000602082015250565b600061323260228361307e565b915061323d826131d6565b604082019050919050565b6000602082019050818103600083015261326181613225565b9050919050565b7f596f757220666f7274696669636174696f6e20617474656d7074206661696c6560008201527f6400000000000000000000000000000000000000000000000000000000000000602082015250565b60006132c460218361307e565b91506132cf82613268565b604082019050919050565b600060208201905081810360008301526132f3816132b7565b9050919050565b7f49742069732063757272656e746c79206e6f74206465706c6f7920706861736560008201527f2100000000000000000000000000000000000000000000000000000000000000602082015250565b600061335660218361307e565b9150613361826132fa565b604082019050919050565b6000602082019050818103600083015261338581613349565b9050919050565b60008151905061339b8161293a565b92915050565b6000602082840312156133b7576133b6612923565b5b60006133c58482850161338c565b91505092915050565b7f596f7520646f206e6f7420686176652074686174206d616e792074726f6f707360008201527f20746f206465706c6f7921000000000000000000000000000000000000000000602082015250565b600061342a602b8361307e565b9150613435826133ce565b604082019050919050565b600060208201905081810360008301526134598161341d565b9050919050565b60006040820190506134756000830185613121565b6134826020830184613121565b9392505050565b7f436f6e74726f6c7320636f6e74726163742068617320616c726561647920726560008201527f636569766564204d61696e206164647265737300000000000000000000000000602082015250565b60006134e560338361307e565b91506134f082613489565b604082019050919050565b60006020820190508181036000830152613514816134d8565b9050919050565b7f53656e64204d6f726520746f20456e746572204c6f6262790000000000000000600082015250565b600061355160188361307e565b915061355c8261351b565b602082019050919050565b6000602082019050818103600083015261358081613544565b9050919050565b7f4c6f6262792069732066756c6c00000000000000000000000000000000000000600082015250565b60006135bd600d8361307e565b91506135c882613587565b602082019050919050565b600060208201905081810360008301526135ec816135b0565b9050919050565b7f4e487b7100000000000000000000000000000000000000000000000000000000600052603260045260246000fd5b600081519050919050565b60005b8381101561364b578082015181840152602081019050613630565b8381111561365a576000848401525b50505050565b600061366b82613622565b613675818561307e565b935061368581856020860161362d565b61368e81612aab565b840191505092915050565b600060408201905081810360008301526136b38185613660565b90506136c26020830184612c5b565b9392505050565b600060208201905081810360008301526136e38184613660565b905092915050565b600061ffff82169050919050565b613702816136eb565b82525050565b600060a08201905061371d6000830188612f41565b61372a6020830187612f7f565b61373760408301866136f9565b6137446060830185612fb9565b6137516080830184612fb9565b9695505050505050565b60008151905061376a81612966565b92915050565b60006020828403121561378657613785612923565b5b60006137948482850161375b565b91505092915050565b7f4e487b7100000000000000000000000000000000000000000000000000000000600052601260045260246000fd5b60006137d7826128e5565b91506137e2836128e5565b9250826137f2576137f161379d565b5b828206905092915050565b60006020820190506138126000830184613121565b92915050565b7f4e487b7100000000000000000000000000000000000000000000000000000000600052601160045260246000fd5b60006138528261292d565b915060ff82141561386657613865613818565b5b600182019050919050565b600061387c8261292d565b915060008214156138905761388f613818565b5b600182039050919050565b60006138a6826128e5565b91507fffffffffffffffffffffffffffffffffffffffffffffffffffffffffffffffff8214156138d9576138d8613818565b5b600182019050919050565b60006138ef8261292d565b91506138fa8361292d565b92508282101561390d5761390c613818565b5b828203905092915050565b600081549050919050565b600082825260208201905092915050565b60008190508160005260206000209050919050565b61395281612efb565b82525050565b60006139648383613949565b60208301905092915050565b60008160001c9050919050565b600073ffffffffffffffffffffffffffffffffffffffff82169050919050565b60006139b06139ab83613970565b61397d565b9050919050565b60006139c3825461399d565b9050919050565b6000600182019050919050565b60006139e282613918565b6139ec8185613923565b93506139f783613934565b8060005b83811015613a2f57613a0c826139b7565b613a168882613958565b9750613a21836139ca565b9250506001810190506139fb565b5085935050505092915050565b60006020820190508181036000830152613a5681846139d7565b90509291505056fea2646970667358221220d56f649e8497f402feb642b3ec7014c4ad235d6e023e50211146e9b41c14805364736f6c63430008080033",
  "devdoc": {
    "kind": "dev",
    "methods": {},
    "version": 1
  },
  "userdoc": {
    "kind": "user",
    "methods": {
      "getRandomWordsArray()": {
        "notice": "Getter Functions "
      }
    },
    "version": 1
  },
  "storageLayout": {
    "storage": [
      {
        "astId": 2684,
        "contract": "contracts/Main.sol:Main",
        "label": "territoriesAssigned",
        "offset": 0,
        "slot": "0",
        "type": "t_array(t_uint8)4_storage"
      },
      {
        "astId": 2687,
        "contract": "contracts/Main.sol:Main",
        "label": "s_randomWordsArray",
        "offset": 0,
        "slot": "1",
        "type": "t_array(t_uint256)dyn_storage"
      },
      {
        "astId": 2690,
        "contract": "contracts/Main.sol:Main",
        "label": "s_territoryState",
        "offset": 0,
        "slot": "2",
        "type": "t_enum(TerritoryState)2646"
      },
      {
        "astId": 2693,
        "contract": "contracts/Main.sol:Main",
        "label": "s_gameState",
        "offset": 1,
        "slot": "2",
        "type": "t_enum(GameState)2654"
      },
      {
        "astId": 2696,
        "contract": "contracts/Main.sol:Main",
        "label": "s_lobbyState",
        "offset": 2,
        "slot": "2",
        "type": "t_enum(LobbyState)2649"
      },
      {
        "astId": 2699,
        "contract": "contracts/Main.sol:Main",
        "label": "s_players",
        "offset": 0,
        "slot": "3",
        "type": "t_array(t_address_payable)dyn_storage"
      },
      {
        "astId": 2701,
        "contract": "contracts/Main.sol:Main",
        "label": "player_turn",
        "offset": 0,
        "slot": "4",
        "type": "t_address"
      },
      {
        "astId": 2704,
        "contract": "contracts/Main.sol:Main",
        "label": "s_mainSet",
        "offset": 20,
        "slot": "4",
        "type": "t_enum(mainAddressSent)2657"
      }
    ],
    "types": {
      "t_address": {
        "encoding": "inplace",
        "label": "address",
        "numberOfBytes": "20"
      },
      "t_address_payable": {
        "encoding": "inplace",
        "label": "address payable",
        "numberOfBytes": "20"
      },
      "t_array(t_address_payable)dyn_storage": {
        "base": "t_address_payable",
        "encoding": "dynamic_array",
        "label": "address payable[]",
        "numberOfBytes": "32"
      },
      "t_array(t_uint256)dyn_storage": {
        "base": "t_uint256",
        "encoding": "dynamic_array",
        "label": "uint256[]",
        "numberOfBytes": "32"
      },
      "t_array(t_uint8)4_storage": {
        "base": "t_uint8",
        "encoding": "inplace",
        "label": "uint8[4]",
        "numberOfBytes": "32"
      },
      "t_enum(GameState)2654": {
        "encoding": "inplace",
        "label": "enum Main.GameState",
        "numberOfBytes": "1"
      },
      "t_enum(LobbyState)2649": {
        "encoding": "inplace",
        "label": "enum Main.LobbyState",
        "numberOfBytes": "1"
      },
      "t_enum(TerritoryState)2646": {
        "encoding": "inplace",
        "label": "enum Main.TerritoryState",
        "numberOfBytes": "1"
      },
      "t_enum(mainAddressSent)2657": {
        "encoding": "inplace",
        "label": "enum Main.mainAddressSent",
        "numberOfBytes": "1"
      },
      "t_uint256": {
        "encoding": "inplace",
        "label": "uint256",
        "numberOfBytes": "32"
      },
      "t_uint8": {
        "encoding": "inplace",
        "label": "uint8",
        "numberOfBytes": "1"
      }
    }
  }
}