{
  "address": "0xfDE447BFa4e774606a6b0c73268Bc515a12c09c7",
  "abi": [
    {
      "inputs": [
        {
          "internalType": "address",
          "name": "vrfCoordinatorV2",
          "type": "address"
        },
        {
          "internalType": "uint64",
          "name": "subscriptionId",
          "type": "uint64"
        },
        {
          "internalType": "bytes32",
          "name": "gasLane",
          "type": "bytes32"
        },
        {
          "internalType": "uint256",
          "name": "entranceFee",
          "type": "uint256"
        },
        {
          "internalType": "uint32",
          "name": "callbackGasLimit",
          "type": "uint32"
        }
      ],
      "stateMutability": "nonpayable",
      "type": "constructor"
    },
    {
      "inputs": [
        {
          "internalType": "address",
          "name": "have",
          "type": "address"
        },
        {
          "internalType": "address",
          "name": "want",
          "type": "address"
        }
      ],
      "name": "OnlyCoordinatorCanFulfill",
      "type": "error"
    },
    {
      "anonymous": false,
      "inputs": [],
      "name": "GameStarting",
      "type": "event"
    },
    {
      "anonymous": false,
      "inputs": [
        {
          "indexed": true,
          "internalType": "address",
          "name": "player",
          "type": "address"
        }
      ],
      "name": "PlayerJoinedLobby",
      "type": "event"
    },
    {
      "anonymous": false,
      "inputs": [],
      "name": "ReceivedRandomWords",
      "type": "event"
    },
    {
      "anonymous": false,
      "inputs": [
        {
          "indexed": true,
          "internalType": "uint256",
          "name": "requestId",
          "type": "uint256"
        }
      ],
      "name": "RequestedRandomness",
      "type": "event"
    },
    {
      "anonymous": false,
      "inputs": [
        {
          "indexed": true,
          "internalType": "address",
          "name": "player",
          "type": "address"
        }
      ],
      "name": "WinnerPicked",
      "type": "event"
    },
    {
      "inputs": [],
      "name": "enterLobby",
      "outputs": [],
      "stateMutability": "payable",
      "type": "function"
    },
    {
      "inputs": [],
      "name": "getCallbackGasLimit",
      "outputs": [
        {
          "internalType": "uint32",
          "name": "",
          "type": "uint32"
        }
      ],
      "stateMutability": "view",
      "type": "function"
    },
    {
      "inputs": [],
      "name": "getEntranceFee",
      "outputs": [
        {
          "internalType": "uint256",
          "name": "",
          "type": "uint256"
        }
      ],
      "stateMutability": "view",
      "type": "function"
    },
    {
      "inputs": [],
      "name": "getGasLane",
      "outputs": [
        {
          "internalType": "bytes32",
          "name": "",
          "type": "bytes32"
        }
      ],
      "stateMutability": "view",
      "type": "function"
    },
    {
      "inputs": [],
      "name": "getLastTimeStamp",
      "outputs": [
        {
          "internalType": "uint256",
          "name": "",
          "type": "uint256"
        }
      ],
      "stateMutability": "view",
      "type": "function"
    },
    {
      "inputs": [],
      "name": "getLobbyState",
      "outputs": [
        {
          "internalType": "enum Setup.LobbyState",
          "name": "",
          "type": "uint8"
        }
      ],
      "stateMutability": "view",
      "type": "function"
    },
    {
      "inputs": [],
      "name": "getNumberOfPlayers",
      "outputs": [
        {
          "internalType": "uint256",
          "name": "",
          "type": "uint256"
        }
      ],
      "stateMutability": "view",
      "type": "function"
    },
    {
      "inputs": [
        {
          "internalType": "uint256",
          "name": "index",
          "type": "uint256"
        }
      ],
      "name": "getPlayer",
      "outputs": [
        {
          "internalType": "address",
          "name": "",
          "type": "address"
        }
      ],
      "stateMutability": "view",
      "type": "function"
    },
    {
      "inputs": [
        {
          "internalType": "uint256",
          "name": "index",
          "type": "uint256"
        }
      ],
      "name": "getRandomWordsArray",
      "outputs": [
        {
          "internalType": "uint256",
          "name": "",
          "type": "uint256"
        }
      ],
      "stateMutability": "view",
      "type": "function"
    },
    {
      "inputs": [],
      "name": "getRecentWinner",
      "outputs": [
        {
          "internalType": "address",
          "name": "",
          "type": "address"
        }
      ],
      "stateMutability": "view",
      "type": "function"
    },
    {
      "inputs": [],
      "name": "getRequestConfirmations",
      "outputs": [
        {
          "internalType": "uint256",
          "name": "",
          "type": "uint256"
        }
      ],
      "stateMutability": "pure",
      "type": "function"
    },
    {
      "inputs": [],
      "name": "getSubscriptionId",
      "outputs": [
        {
          "internalType": "uint64",
          "name": "",
          "type": "uint64"
        }
      ],
      "stateMutability": "view",
      "type": "function"
    },
    {
      "inputs": [
        {
          "internalType": "uint256",
          "name": "territoryId",
          "type": "uint256"
        }
      ],
      "name": "getTerritories",
      "outputs": [
        {
          "components": [
            {
              "internalType": "uint256",
              "name": "owner",
              "type": "uint256"
            },
            {
              "internalType": "uint256",
              "name": "troops",
              "type": "uint256"
            }
          ],
          "internalType": "struct Setup.Territory_Info",
          "name": "",
          "type": "tuple"
        }
      ],
      "stateMutability": "view",
      "type": "function"
    },
    {
      "inputs": [],
      "name": "getTerritoryState",
      "outputs": [
        {
          "internalType": "enum Setup.TerritoryState",
          "name": "",
          "type": "uint8"
        }
      ],
      "stateMutability": "view",
      "type": "function"
    },
    {
      "inputs": [
        {
          "internalType": "uint256",
          "name": "requestId",
          "type": "uint256"
        },
        {
          "internalType": "uint256[]",
          "name": "randomWords",
          "type": "uint256[]"
        }
      ],
      "name": "rawFulfillRandomWords",
      "outputs": [],
      "stateMutability": "nonpayable",
      "type": "function"
    },
    {
      "inputs": [],
      "name": "testTerritoryAssignment",
      "outputs": [],
      "stateMutability": "nonpayable",
      "type": "function"
    }
  ],
  "transactionHash": "0x27726a2db2ebea8cdbe4b92319d1f18cbc94d3a5e6d64ea0957518beba735206",
  "args": [
    "0x8dA47DD12384f3A0c711E0cCb8Ac60D50d0e8cC8",
    "2",
    "0x79d3d8832d904592c0bf9818b621522c988bb8b0c05cdc3b15aea1b6e8db0c15",
    "100000000000000000",
    "2000000"
  ],
  "numDeployments": 28,
  "solcInputHash": "67c462fde1d628b31168c4b7bd2f8ca2",
  "bytecode": "0x6101406040526040518060800160405280600060ff168152602001600060ff168152602001600060ff168152602001600060ff16815250600690600462000048929190620001a2565b503480156200005657600080fd5b5060405162001dff38038062001dff83398181016040528101906200007c9190620003c8565b848073ffffffffffffffffffffffffffffffffffffffff1660808173ffffffffffffffffffffffffffffffffffffffff1660601b81525050508473ffffffffffffffffffffffffffffffffffffffff1660a08173ffffffffffffffffffffffffffffffffffffffff1660601b815250508367ffffffffffffffff1660c08167ffffffffffffffff1660c01b815250508260e081815250508161012081815250508063ffffffff166101008163ffffffff1660e01b815250506000600460016101000a81548160ff021916908360018111156200015d576200015c62000450565b5b0217905550426001819055506000600460006101000a81548160ff0219169083600181111562000192576200019162000450565b5b021790555050505050506200047f565b826004601f01602090048101928215620002305791602002820160005b83821115620001ff57835183826101000a81548160ff021916908360ff1602179055509260200192600101602081600001049283019260010302620001bf565b80156200022e5782816101000a81549060ff0219169055600101602081600001049283019260010302620001ff565b505b5090506200023f919062000243565b5090565b5b808211156200025e57600081600090555060010162000244565b5090565b600080fd5b600073ffffffffffffffffffffffffffffffffffffffff82169050919050565b6000620002948262000267565b9050919050565b620002a68162000287565b8114620002b257600080fd5b50565b600081519050620002c6816200029b565b92915050565b600067ffffffffffffffff82169050919050565b620002eb81620002cc565b8114620002f757600080fd5b50565b6000815190506200030b81620002e0565b92915050565b6000819050919050565b620003268162000311565b81146200033257600080fd5b50565b60008151905062000346816200031b565b92915050565b6000819050919050565b62000361816200034c565b81146200036d57600080fd5b50565b600081519050620003818162000356565b92915050565b600063ffffffff82169050919050565b620003a28162000387565b8114620003ae57600080fd5b50565b600081519050620003c28162000397565b92915050565b600080600080600060a08688031215620003e757620003e662000262565b5b6000620003f788828901620002b5565b95505060206200040a88828901620002fa565b94505060406200041d8882890162000335565b9350506060620004308882890162000370565b92505060806200044388828901620003b1565b9150509295509295909350565b7f4e487b7100000000000000000000000000000000000000000000000000000000600052602160045260246000fd5b60805160601c60a05160601c60c05160c01c60e0516101005160e01c61012051611901620004fe600039600081816103ab01526105d30152600081816107ee0152610bed0152600081816105a30152610ba90152600081816107c60152610bca01526000610b6d015260008181610443015261049701526119016000f3fe6080604052600436106100f35760003560e01c8063c19dd76b1161008a578063de8be8e711610059578063de8be8e7146102d7578063e55ae4e814610302578063fd6673f51461033f578063feaf53481461036a576100f3565b8063c19dd76b1461024c578063c1c244e814610277578063d9eb8a44146102a2578063de3d9fb7146102ac576100f3565b8063473f1ddc116100c6578063473f1ddc1461018e5780635ad964ae146101b95780635f1b0fd8146101e45780638d0688841461020f576100f3565b806309bc33a7146100f857806309d69e6d146101235780630fb081df1461013a5780631fe543e314610165575b600080fd5b34801561010457600080fd5b5061010d6103a7565b60405161011a919061103f565b60405180910390f35b34801561012f57600080fd5b506101386103cf565b005b34801561014657600080fd5b5061014f61042a565b60405161015c91906110d1565b60405180910390f35b34801561017157600080fd5b5061018c60048036038101906101879190611285565b610441565b005b34801561019a57600080fd5b506101a3610501565b6040516101b09190611322565b60405180910390f35b3480156101c557600080fd5b506101ce61052b565b6040516101db9190611385565b60405180910390f35b3480156101f057600080fd5b506101f9610542565b604051610206919061103f565b60405180910390f35b34801561021b57600080fd5b50610236600480360381019061023191906113a0565b61054f565b604051610243919061140b565b60405180910390f35b34801561025857600080fd5b5061026161059f565b60405161026e919061143f565b60405180910390f35b34801561028357600080fd5b5061028c6105c7565b604051610299919061103f565b60405180910390f35b6102aa6105d1565b005b3480156102b857600080fd5b506102c16107c2565b6040516102ce919061147d565b60405180910390f35b3480156102e357600080fd5b506102ec6107ea565b6040516102f991906114b7565b60405180910390f35b34801561030e57600080fd5b50610329600480360381019061032491906113a0565b610812565b6040516103369190611322565b60405180910390f35b34801561034b57600080fd5b5061035461085a565b604051610361919061103f565b60405180910390f35b34801561037657600080fd5b50610391600480360381019061038c91906113a0565b610867565b60405161039e919061103f565b60405180910390f35b60007f0000000000000000000000000000000000000000000000000000000000000000905090565b610428600080548060200260200160405190810160405280929190818152602001828054801561041e57602002820191906000526020600020905b81548152602001906001019080831161040a575b505050505061088e565b565b6000600460019054906101000a900460ff16905090565b7f000000000000000000000000000000000000000000000000000000000000000073ffffffffffffffffffffffffffffffffffffffff163373ffffffffffffffffffffffffffffffffffffffff16146104f357337f00000000000000000000000000000000000000000000000000000000000000006040517f1cf993f40000000000000000000000000000000000000000000000000000000081526004016104ea9291906114d2565b60405180910390fd5b6104fd8282610a95565b5050565b6000600260009054906101000a900473ffffffffffffffffffffffffffffffffffffffff16905090565b6000600460029054906101000a900460ff16905090565b6000600361ffff16905090565b610557610fa2565b6005828154811061056b5761056a6114fb565b5b9060005260206000209060020201604051806040016040529081600082015481526020016001820154815250509050919050565b60007f0000000000000000000000000000000000000000000000000000000000000000905090565b6000600154905090565b7f0000000000000000000000000000000000000000000000000000000000000000341015610634576040517f08c379a000000000000000000000000000000000000000000000000000000000815260040161062b90611587565b60405180910390fd5b600060018111156106485761064761105a565b5b600460019054906101000a900460ff16600181111561066a5761066961105a565b5b146106aa576040517f08c379a00000000000000000000000000000000000000000000000000000000081526004016106a1906115f3565b60405180910390fd5b6003339080600181540180825580915050600190039060005260206000200160009091909190916101000a81548173ffffffffffffffffffffffffffffffffffffffff021916908373ffffffffffffffffffffffffffffffffffffffff1602179055503373ffffffffffffffffffffffffffffffffffffffff167fa0df676a3a1d8a4dc693c144ac79c01945b4464a07bccdbf66c068127c32cfd760405160405180910390a2600460038054905014156107c0576001600460016101000a81548160ff021916908360018111156107845761078361105a565b5b02179055507f095744e432dd463fbf0fa4a256e21ddb462dbc9cc4e27248ebd5a28d759cc9e560405160405180910390a16107bf602a610b69565b5b565b60007f0000000000000000000000000000000000000000000000000000000000000000905090565b60007f0000000000000000000000000000000000000000000000000000000000000000905090565b600060038281548110610828576108276114fb565b5b9060005260206000200160009054906101000a900473ffffffffffffffffffffffffffffffffffffffff169050919050565b6000600380549050905090565b600080828154811061087c5761087b6114fb565b5b90600052602060002001549050919050565b60006040518060800160405280600060ff168152602001600160ff168152602001600260ff168152602001600360ff1681525090506000600a905060006004905060008060005b8651811015610a61578360ff168782815181106108f5576108f46114fb565b5b60200260200101516109079190611642565b925085836004811061091c5761091b6114fb565b5b60200201519150600560405180604001604052808460ff168152602001600181525090806001815401808255809150506001900390600052602060002090600202016000909190919091506000820151816000015560208201518160010155505060068260ff1660048110610994576109936114fb565b5b6020918282040191900681819054906101000a900460ff16809291906109b9906116af565b91906101000a81548160ff021916908360ff160217905550508460ff1660068360ff16600481106109ed576109ec6114fb565b5b602091828204019190069054906101000a900460ff1660ff161415610a4e57858260ff1660048110610a2257610a216114fb565b5b60200201600060ff168152508380610a39906116d9565b94505060028460ff161415610a4d57600b94505b5b8080610a5990611703565b9150506108d5565b506001600460026101000a81548160ff02191690836001811115610a8857610a8761105a565b5b0217905550505050505050565b610ad36040518060400160405280601681526020017f72616e646f6d20776f7264732072656365697665642100000000000000000000815250610cb2565b8060009080519060200190610ae9929190610fbc565b507f1d8f6997ec77a160b10f1131c09af88a6a895ea5f542c5fbca36ce69a9f5424860405160405180910390a160006001811115610b2a57610b2961105a565b5b600460029054906101000a900460ff166001811115610b4c57610b4b61105a565b5b1415610b5c57610b5b8161088e565b5b610b6581610d4b565b5050565b60007f000000000000000000000000000000000000000000000000000000000000000073ffffffffffffffffffffffffffffffffffffffff16635d3b1d307f00000000000000000000000000000000000000000000000000000000000000007f000000000000000000000000000000000000000000000000000000000000000060037f0000000000000000000000000000000000000000000000000000000000000000876040518663ffffffff1660e01b8152600401610c2d959493929190611769565b602060405180830381600087803b158015610c4757600080fd5b505af1158015610c5b573d6000803e3d6000fd5b505050506040513d601f19601f82011682018060405250810190610c7f91906117d1565b9050807f5d7d0431c4991fcc9f63f03ad0ead4128b866a8ed115a818b6d87a3afedb726460405160405180910390a25050565b610d4881604051602401610cc69190611875565b6040516020818303038152906040527f41304fac000000000000000000000000000000000000000000000000000000007bffffffffffffffffffffffffffffffffffffffffffffffffffffffff19166020820180517bffffffffffffffffffffffffffffffffffffffffffffffffffffffff8381831617835250505050610f79565b50565b6000805b6004811015610f7457600060068260048110610d6e57610d6d6114fb565b5b602091828204019190069054906101000a900460ff1660ff1667ffffffffffffffff811115610da057610d9f611142565b5b604051908082528060200260200182016040528015610dce5781602001602082028036833780820191505090505b5090506000805b600580549050811015610e4f578360058281548110610df757610df66114fb565b5b9060005260206000209060020201600001541415610e3c5780838380610e1c90611703565b945081518110610e2f57610e2e6114fb565b5b6020026020010181815250505b8380610e4790611703565b945050610dd5565b5060005b60068460048110610e6757610e666114fb565b5b602091828204019190069054906101000a900460ff16601e610e899190611897565b60ff16811015610f5e57600060068560048110610ea957610ea86114fb565b5b602091828204019190069054906101000a900460ff1660ff16878780610ece90611703565b985081518110610ee157610ee06114fb565b5b6020026020010151610ef39190611642565b90506005848281518110610f0a57610f096114fb565b5b602002602001015181548110610f2357610f226114fb565b5b90600052602060002090600202016001016000815480929190610f4590611703565b9190505550508080610f5690611703565b915050610e53565b5050508080610f6c90611703565b915050610d4f565b505050565b60008151905060006a636f6e736f6c652e6c6f679050602083016000808483855afa5050505050565b604051806040016040528060008152602001600081525090565b828054828255906000526020600020908101928215610ff8579160200282015b82811115610ff7578251825591602001919060010190610fdc565b5b5090506110059190611009565b5090565b5b8082111561102257600081600090555060010161100a565b5090565b6000819050919050565b61103981611026565b82525050565b60006020820190506110546000830184611030565b92915050565b7f4e487b7100000000000000000000000000000000000000000000000000000000600052602160045260246000fd5b6002811061109a5761109961105a565b5b50565b60008190506110ab82611089565b919050565b60006110bb8261109d565b9050919050565b6110cb816110b0565b82525050565b60006020820190506110e660008301846110c2565b92915050565b6000604051905090565b600080fd5b600080fd5b61110981611026565b811461111457600080fd5b50565b60008135905061112681611100565b92915050565b600080fd5b6000601f19601f8301169050919050565b7f4e487b7100000000000000000000000000000000000000000000000000000000600052604160045260246000fd5b61117a82611131565b810181811067ffffffffffffffff8211171561119957611198611142565b5b80604052505050565b60006111ac6110ec565b90506111b88282611171565b919050565b600067ffffffffffffffff8211156111d8576111d7611142565b5b602082029050602081019050919050565b600080fd5b60006112016111fc846111bd565b6111a2565b90508083825260208201905060208402830185811115611224576112236111e9565b5b835b8181101561124d57806112398882611117565b845260208401935050602081019050611226565b5050509392505050565b600082601f83011261126c5761126b61112c565b5b813561127c8482602086016111ee565b91505092915050565b6000806040838503121561129c5761129b6110f6565b5b60006112aa85828601611117565b925050602083013567ffffffffffffffff8111156112cb576112ca6110fb565b5b6112d785828601611257565b9150509250929050565b600073ffffffffffffffffffffffffffffffffffffffff82169050919050565b600061130c826112e1565b9050919050565b61131c81611301565b82525050565b60006020820190506113376000830184611313565b92915050565b6002811061134e5761134d61105a565b5b50565b600081905061135f8261133d565b919050565b600061136f82611351565b9050919050565b61137f81611364565b82525050565b600060208201905061139a6000830184611376565b92915050565b6000602082840312156113b6576113b56110f6565b5b60006113c484828501611117565b91505092915050565b6113d681611026565b82525050565b6040820160008201516113f260008501826113cd565b50602082015161140560208501826113cd565b50505050565b600060408201905061142060008301846113dc565b92915050565b6000819050919050565b61143981611426565b82525050565b60006020820190506114546000830184611430565b92915050565b600067ffffffffffffffff82169050919050565b6114778161145a565b82525050565b6000602082019050611492600083018461146e565b92915050565b600063ffffffff82169050919050565b6114b181611498565b82525050565b60006020820190506114cc60008301846114a8565b92915050565b60006040820190506114e76000830185611313565b6114f46020830184611313565b9392505050565b7f4e487b7100000000000000000000000000000000000000000000000000000000600052603260045260246000fd5b600082825260208201905092915050565b7f53656e64204d6f726520746f20456e746572204c6f6262790000000000000000600082015250565b600061157160188361152a565b915061157c8261153b565b602082019050919050565b600060208201905081810360008301526115a081611564565b9050919050565b7f4c6f6262792069732066756c6c00000000000000000000000000000000000000600082015250565b60006115dd600d8361152a565b91506115e8826115a7565b602082019050919050565b6000602082019050818103600083015261160c816115d0565b9050919050565b7f4e487b7100000000000000000000000000000000000000000000000000000000600052601260045260246000fd5b600061164d82611026565b915061165883611026565b92508261166857611667611613565b5b828206905092915050565b7f4e487b7100000000000000000000000000000000000000000000000000000000600052601160045260246000fd5b600060ff82169050919050565b60006116ba826116a2565b915060ff8214156116ce576116cd611673565b5b600182019050919050565b60006116e4826116a2565b915060008214156116f8576116f7611673565b5b600182039050919050565b600061170e82611026565b91507fffffffffffffffffffffffffffffffffffffffffffffffffffffffffffffffff82141561174157611740611673565b5b600182019050919050565b600061ffff82169050919050565b6117638161174c565b82525050565b600060a08201905061177e6000830188611430565b61178b602083018761146e565b611798604083018661175a565b6117a560608301856114a8565b6117b260808301846114a8565b9695505050505050565b6000815190506117cb81611100565b92915050565b6000602082840312156117e7576117e66110f6565b5b60006117f5848285016117bc565b91505092915050565b600081519050919050565b60005b8381101561182757808201518184015260208101905061180c565b83811115611836576000848401525b50505050565b6000611847826117fe565b611851818561152a565b9350611861818560208601611809565b61186a81611131565b840191505092915050565b6000602082019050818103600083015261188f818461183c565b905092915050565b60006118a2826116a2565b91506118ad836116a2565b9250828210156118c0576118bf611673565b5b82820390509291505056fea264697066735822122048ecc0b6173e3d0258fd6b86f4b79f6c3185c95b7b713a71d9ddfd733b3aa6fd64736f6c63430008080033",
  "devdoc": {
    "author": "Mitchell Spencer",
    "details": "Implements the Chainlink VRF V2",
    "kind": "dev",
    "methods": {},
    "title": "A sample Raffle Contract",
    "version": 1
  },
  "userdoc": {
    "kind": "user",
    "methods": {
      "getRandomWordsArray(uint256)": {
        "notice": "Getter Functions "
      },
      "testTerritoryAssignment()": {
        "notice": "Tester Functions "
      }
    },
    "notice": "Cryptorisk setup contract.",
    "version": 1
  },
  "storageLayout": {
    "storage": [
      {
        "astId": 191,
        "contract": "contracts/Setup.sol:Setup",
        "label": "s_randomWordsArray",
        "offset": 0,
        "slot": "0",
        "type": "t_array(t_uint256)dyn_storage"
      },
      {
        "astId": 195,
        "contract": "contracts/Setup.sol:Setup",
        "label": "s_lastTimeStamp",
        "offset": 0,
        "slot": "1",
        "type": "t_uint256"
      },
      {
        "astId": 197,
        "contract": "contracts/Setup.sol:Setup",
        "label": "s_recentWinner",
        "offset": 0,
        "slot": "2",
        "type": "t_address"
      },
      {
        "astId": 200,
        "contract": "contracts/Setup.sol:Setup",
        "label": "s_players",
        "offset": 0,
        "slot": "3",
        "type": "t_array(t_address_payable)dyn_storage"
      },
      {
        "astId": 203,
        "contract": "contracts/Setup.sol:Setup",
        "label": "s_vrfState",
        "offset": 0,
        "slot": "4",
        "type": "t_enum(VRFState)176"
      },
      {
        "astId": 206,
        "contract": "contracts/Setup.sol:Setup",
        "label": "s_lobbyState",
        "offset": 1,
        "slot": "4",
        "type": "t_enum(LobbyState)167"
      },
      {
        "astId": 209,
        "contract": "contracts/Setup.sol:Setup",
        "label": "s_territoryState",
        "offset": 2,
        "slot": "4",
        "type": "t_enum(TerritoryState)170"
      },
      {
        "astId": 212,
        "contract": "contracts/Setup.sol:Setup",
        "label": "s_setupState",
        "offset": 3,
        "slot": "4",
        "type": "t_enum(SetupState)173"
      },
      {
        "astId": 216,
        "contract": "contracts/Setup.sol:Setup",
        "label": "s_territories",
        "offset": 0,
        "slot": "5",
        "type": "t_array(t_struct(Territory_Info)230_storage)dyn_storage"
      },
      {
        "astId": 225,
        "contract": "contracts/Setup.sol:Setup",
        "label": "territoriesAssigned",
        "offset": 0,
        "slot": "6",
        "type": "t_array(t_uint8)4_storage"
      }
    ],
    "types": {
      "t_address": {
        "encoding": "inplace",
        "label": "address",
        "numberOfBytes": "20"
      },
      "t_address_payable": {
        "encoding": "inplace",
        "label": "address payable",
        "numberOfBytes": "20"
      },
      "t_array(t_address_payable)dyn_storage": {
        "base": "t_address_payable",
        "encoding": "dynamic_array",
        "label": "address payable[]",
        "numberOfBytes": "32"
      },
      "t_array(t_struct(Territory_Info)230_storage)dyn_storage": {
        "base": "t_struct(Territory_Info)230_storage",
        "encoding": "dynamic_array",
        "label": "struct Setup.Territory_Info[]",
        "numberOfBytes": "32"
      },
      "t_array(t_uint256)dyn_storage": {
        "base": "t_uint256",
        "encoding": "dynamic_array",
        "label": "uint256[]",
        "numberOfBytes": "32"
      },
      "t_array(t_uint8)4_storage": {
        "base": "t_uint8",
        "encoding": "inplace",
        "label": "uint8[4]",
        "numberOfBytes": "32"
      },
      "t_enum(LobbyState)167": {
        "encoding": "inplace",
        "label": "enum Setup.LobbyState",
        "numberOfBytes": "1"
      },
      "t_enum(SetupState)173": {
        "encoding": "inplace",
        "label": "enum Setup.SetupState",
        "numberOfBytes": "1"
      },
      "t_enum(TerritoryState)170": {
        "encoding": "inplace",
        "label": "enum Setup.TerritoryState",
        "numberOfBytes": "1"
      },
      "t_enum(VRFState)176": {
        "encoding": "inplace",
        "label": "enum Setup.VRFState",
        "numberOfBytes": "1"
      },
      "t_struct(Territory_Info)230_storage": {
        "encoding": "inplace",
        "label": "struct Setup.Territory_Info",
        "members": [
          {
            "astId": 227,
            "contract": "contracts/Setup.sol:Setup",
            "label": "owner",
            "offset": 0,
            "slot": "0",
            "type": "t_uint256"
          },
          {
            "astId": 229,
            "contract": "contracts/Setup.sol:Setup",
            "label": "troops",
            "offset": 0,
            "slot": "1",
            "type": "t_uint256"
          }
        ],
        "numberOfBytes": "64"
      },
      "t_uint256": {
        "encoding": "inplace",
        "label": "uint256",
        "numberOfBytes": "32"
      },
      "t_uint8": {
        "encoding": "inplace",
        "label": "uint8",
        "numberOfBytes": "1"
      }
    }
  }
}