{
  "address": "0x047450C8c591b5E6Dc0A827378a0aabd9FD041f9",
  "abi": [
    {
      "inputs": [
        {
          "internalType": "address",
          "name": "vrfCoordinatorV2",
          "type": "address"
        },
        {
          "internalType": "uint64",
          "name": "subscriptionId",
          "type": "uint64"
        },
        {
          "internalType": "bytes32",
          "name": "gasLane",
          "type": "bytes32"
        },
        {
          "internalType": "uint256",
          "name": "entranceFee",
          "type": "uint256"
        },
        {
          "internalType": "uint32",
          "name": "callbackGasLimit",
          "type": "uint32"
        }
      ],
      "stateMutability": "nonpayable",
      "type": "constructor"
    },
    {
      "inputs": [
        {
          "internalType": "address",
          "name": "have",
          "type": "address"
        },
        {
          "internalType": "address",
          "name": "want",
          "type": "address"
        }
      ],
      "name": "OnlyCoordinatorCanFulfill",
      "type": "error"
    },
    {
      "anonymous": false,
      "inputs": [],
      "name": "GameStarting",
      "type": "event"
    },
    {
      "anonymous": false,
      "inputs": [
        {
          "indexed": true,
          "internalType": "address",
          "name": "player",
          "type": "address"
        }
      ],
      "name": "PlayerJoinedLobby",
      "type": "event"
    },
    {
      "anonymous": false,
      "inputs": [],
      "name": "ReceivedRandomWords",
      "type": "event"
    },
    {
      "anonymous": false,
      "inputs": [
        {
          "indexed": true,
          "internalType": "uint256",
          "name": "requestId",
          "type": "uint256"
        }
      ],
      "name": "RequestedRandomness",
      "type": "event"
    },
    {
      "anonymous": false,
      "inputs": [
        {
          "indexed": true,
          "internalType": "address",
          "name": "player",
          "type": "address"
        }
      ],
      "name": "WinnerPicked",
      "type": "event"
    },
    {
      "inputs": [],
      "name": "callRequestRandomness",
      "outputs": [],
      "stateMutability": "nonpayable",
      "type": "function"
    },
    {
      "inputs": [],
      "name": "enterLobby",
      "outputs": [],
      "stateMutability": "payable",
      "type": "function"
    },
    {
      "inputs": [],
      "name": "getCallbackGasLimit",
      "outputs": [
        {
          "internalType": "uint32",
          "name": "",
          "type": "uint32"
        }
      ],
      "stateMutability": "view",
      "type": "function"
    },
    {
      "inputs": [],
      "name": "getEntranceFee",
      "outputs": [
        {
          "internalType": "uint256",
          "name": "",
          "type": "uint256"
        }
      ],
      "stateMutability": "view",
      "type": "function"
    },
    {
      "inputs": [],
      "name": "getGasLane",
      "outputs": [
        {
          "internalType": "bytes32",
          "name": "",
          "type": "bytes32"
        }
      ],
      "stateMutability": "view",
      "type": "function"
    },
    {
      "inputs": [],
      "name": "getLastTimeStamp",
      "outputs": [
        {
          "internalType": "uint256",
          "name": "",
          "type": "uint256"
        }
      ],
      "stateMutability": "view",
      "type": "function"
    },
    {
      "inputs": [],
      "name": "getLobbyState",
      "outputs": [
        {
          "internalType": "enum Setup.LobbyState",
          "name": "",
          "type": "uint8"
        }
      ],
      "stateMutability": "view",
      "type": "function"
    },
    {
      "inputs": [],
      "name": "getNumberOfPlayers",
      "outputs": [
        {
          "internalType": "uint256",
          "name": "",
          "type": "uint256"
        }
      ],
      "stateMutability": "view",
      "type": "function"
    },
    {
      "inputs": [
        {
          "internalType": "uint256",
          "name": "index",
          "type": "uint256"
        }
      ],
      "name": "getPlayer",
      "outputs": [
        {
          "internalType": "address",
          "name": "",
          "type": "address"
        }
      ],
      "stateMutability": "view",
      "type": "function"
    },
    {
      "inputs": [
        {
          "internalType": "uint256",
          "name": "index",
          "type": "uint256"
        }
      ],
      "name": "getRandomWordsArray",
      "outputs": [
        {
          "internalType": "uint256",
          "name": "",
          "type": "uint256"
        }
      ],
      "stateMutability": "view",
      "type": "function"
    },
    {
      "inputs": [],
      "name": "getRecentWinner",
      "outputs": [
        {
          "internalType": "address",
          "name": "",
          "type": "address"
        }
      ],
      "stateMutability": "view",
      "type": "function"
    },
    {
      "inputs": [],
      "name": "getRequestConfirmations",
      "outputs": [
        {
          "internalType": "uint256",
          "name": "",
          "type": "uint256"
        }
      ],
      "stateMutability": "pure",
      "type": "function"
    },
    {
      "inputs": [],
      "name": "getSubscriptionId",
      "outputs": [
        {
          "internalType": "uint64",
          "name": "",
          "type": "uint64"
        }
      ],
      "stateMutability": "view",
      "type": "function"
    },
    {
      "inputs": [
        {
          "internalType": "uint256",
          "name": "territoryId",
          "type": "uint256"
        }
      ],
      "name": "getTerritories",
      "outputs": [
        {
          "components": [
            {
              "internalType": "uint256",
              "name": "owner",
              "type": "uint256"
            },
            {
              "internalType": "uint256",
              "name": "troops",
              "type": "uint256"
            }
          ],
          "internalType": "struct Setup.Territory_Info",
          "name": "",
          "type": "tuple"
        }
      ],
      "stateMutability": "view",
      "type": "function"
    },
    {
      "inputs": [],
      "name": "getTerritoryState",
      "outputs": [
        {
          "internalType": "enum Setup.TerritoryState",
          "name": "",
          "type": "uint8"
        }
      ],
      "stateMutability": "view",
      "type": "function"
    },
    {
      "inputs": [
        {
          "internalType": "uint256",
          "name": "requestId",
          "type": "uint256"
        },
        {
          "internalType": "uint256[]",
          "name": "randomWords",
          "type": "uint256[]"
        }
      ],
      "name": "rawFulfillRandomWords",
      "outputs": [],
      "stateMutability": "nonpayable",
      "type": "function"
    },
    {
      "inputs": [],
      "name": "testTerritoryAssignment",
      "outputs": [],
      "stateMutability": "nonpayable",
      "type": "function"
    }
  ],
  "transactionHash": "0x383081bd58437a095bdadbb8cc545fc754e7696e6a6abf757d8e7528867b374d",
  "args": [
    "0x51c2E51BB6C404C52fDeFA58a97C9A0279F0326e",
    "1",
    "0x79d3d8832d904592c0bf9818b621522c988bb8b0c05cdc3b15aea1b6e8db0c15",
    "100000000000000000",
    "1500000"
  ],
  "numDeployments": 26,
  "solcInputHash": "f73206f9c4822e7f5cc882edacccb5da",
  "bytecode": "0x6101406040526040518060800160405280600060ff168152602001600060ff168152602001600060ff168152602001600060ff1681525060069060046200004892919062000174565b503480156200005657600080fd5b5060405162001b4a38038062001b4a83398181016040528101906200007c91906200039a565b848073ffffffffffffffffffffffffffffffffffffffff1660808173ffffffffffffffffffffffffffffffffffffffff1660601b81525050508473ffffffffffffffffffffffffffffffffffffffff1660a08173ffffffffffffffffffffffffffffffffffffffff1660601b815250508367ffffffffffffffff1660c08167ffffffffffffffff1660c01b815250508260e081815250508161012081815250508063ffffffff166101008163ffffffff1660e01b815250506000600460006101000a81548160ff021916908360018111156200015d576200015c62000422565b5b021790555042600181905550505050505062000451565b826004601f01602090048101928215620002025791602002820160005b83821115620001d157835183826101000a81548160ff021916908360ff160217905550926020019260010160208160000104928301926001030262000191565b8015620002005782816101000a81549060ff0219169055600101602081600001049283019260010302620001d1565b505b50905062000211919062000215565b5090565b5b808211156200023057600081600090555060010162000216565b5090565b600080fd5b600073ffffffffffffffffffffffffffffffffffffffff82169050919050565b6000620002668262000239565b9050919050565b620002788162000259565b81146200028457600080fd5b50565b60008151905062000298816200026d565b92915050565b600067ffffffffffffffff82169050919050565b620002bd816200029e565b8114620002c957600080fd5b50565b600081519050620002dd81620002b2565b92915050565b6000819050919050565b620002f881620002e3565b81146200030457600080fd5b50565b6000815190506200031881620002ed565b92915050565b6000819050919050565b62000333816200031e565b81146200033f57600080fd5b50565b600081519050620003538162000328565b92915050565b600063ffffffff82169050919050565b620003748162000359565b81146200038057600080fd5b50565b600081519050620003948162000369565b92915050565b600080600080600060a08688031215620003b957620003b862000234565b5b6000620003c98882890162000287565b9550506020620003dc88828901620002cc565b9450506040620003ef8882890162000307565b9350506060620004028882890162000342565b9250506080620004158882890162000383565b9150509295509295909350565b7f4e487b7100000000000000000000000000000000000000000000000000000000600052602160045260246000fd5b60805160601c60a05160601c60c05160c01c60e0516101005160e01c6101205161167a620004d0600039600081816103cd01526106070152600081816108180152610bc80152600081816105d70152610b840152600081816107f00152610ba501526000610b4801526000818161046501526104b9015261167a6000f3fe6080604052600436106100fe5760003560e01c80638d06888411610095578063de3d9fb711610064578063de3d9fb7146102ce578063de8be8e7146102f9578063e55ae4e814610324578063fd6673f514610361578063feaf53481461038c576100fe565b80638d06888414610231578063c19dd76b1461026e578063c1c244e814610299578063d9eb8a44146102c4576100fe565b8063473f1ddc116100d1578063473f1ddc146101995780635ad964ae146101c45780635f1b0fd8146101ef578063790b86c71461021a576100fe565b806309bc33a71461010357806309d69e6d1461012e5780630fb081df146101455780631fe543e314610170575b600080fd5b34801561010f57600080fd5b506101186103c9565b6040516101259190610dec565b60405180910390f35b34801561013a57600080fd5b506101436103f1565b005b34801561015157600080fd5b5061015a61044c565b6040516101679190610e7e565b60405180910390f35b34801561017c57600080fd5b5061019760048036038101906101929190611032565b610463565b005b3480156101a557600080fd5b506101ae610523565b6040516101bb91906110cf565b60405180910390f35b3480156101d057600080fd5b506101d961054d565b6040516101e69190611132565b60405180910390f35b3480156101fb57600080fd5b50610204610564565b6040516102119190610dec565b60405180910390f35b34801561022657600080fd5b5061022f610571565b005b34801561023d57600080fd5b506102586004803603810190610253919061114d565b610583565b60405161026591906111b8565b60405180910390f35b34801561027a57600080fd5b506102836105d3565b60405161029091906111ec565b60405180910390f35b3480156102a557600080fd5b506102ae6105fb565b6040516102bb9190610dec565b60405180910390f35b6102cc610605565b005b3480156102da57600080fd5b506102e36107ec565b6040516102f0919061122a565b60405180910390f35b34801561030557600080fd5b5061030e610814565b60405161031b9190611264565b60405180910390f35b34801561033057600080fd5b5061034b6004803603810190610346919061114d565b61083c565b60405161035891906110cf565b60405180910390f35b34801561036d57600080fd5b50610376610884565b6040516103839190610dec565b60405180910390f35b34801561039857600080fd5b506103b360048036038101906103ae919061114d565b610891565b6040516103c09190610dec565b60405180910390f35b60007f0000000000000000000000000000000000000000000000000000000000000000905090565b61044a600080548060200260200160405190810160405280929190818152602001828054801561044057602002820191906000526020600020905b81548152602001906001019080831161042c575b50505050506108b8565b565b6000600460009054906101000a900460ff16905090565b7f000000000000000000000000000000000000000000000000000000000000000073ffffffffffffffffffffffffffffffffffffffff163373ffffffffffffffffffffffffffffffffffffffff161461051557337f00000000000000000000000000000000000000000000000000000000000000006040517f1cf993f400000000000000000000000000000000000000000000000000000000815260040161050c92919061127f565b60405180910390fd5b61051f8282610abf565b5050565b6000600260009054906101000a900473ffffffffffffffffffffffffffffffffffffffff16905090565b6000600460019054906101000a900460ff16905090565b6000600361ffff16905090565b60006023905061058081610b44565b50565b61058b610d4f565b6005828154811061059f5761059e6112a8565b5b9060005260206000209060020201604051806040016040529081600082015481526020016001820154815250509050919050565b60007f0000000000000000000000000000000000000000000000000000000000000000905090565b6000600154905090565b7f0000000000000000000000000000000000000000000000000000000000000000341015610668576040517f08c379a000000000000000000000000000000000000000000000000000000000815260040161065f90611334565b60405180910390fd5b6000600181111561067c5761067b610e07565b5b600460009054906101000a900460ff16600181111561069e5761069d610e07565b5b146106de576040517f08c379a00000000000000000000000000000000000000000000000000000000081526004016106d5906113a0565b60405180910390fd5b6003339080600181540180825580915050600190039060005260206000200160009091909190916101000a81548173ffffffffffffffffffffffffffffffffffffffff021916908373ffffffffffffffffffffffffffffffffffffffff1602179055503373ffffffffffffffffffffffffffffffffffffffff167fa0df676a3a1d8a4dc693c144ac79c01945b4464a07bccdbf66c068127c32cfd760405160405180910390a2600460038054905014156107ea576001600460006101000a81548160ff021916908360018111156107b8576107b7610e07565b5b02179055507f095744e432dd463fbf0fa4a256e21ddb462dbc9cc4e27248ebd5a28d759cc9e560405160405180910390a15b565b60007f0000000000000000000000000000000000000000000000000000000000000000905090565b60007f0000000000000000000000000000000000000000000000000000000000000000905090565b600060038281548110610852576108516112a8565b5b9060005260206000200160009054906101000a900473ffffffffffffffffffffffffffffffffffffffff169050919050565b6000600380549050905090565b60008082815481106108a6576108a56112a8565b5b90600052602060002001549050919050565b60006040518060800160405280600060ff168152602001600160ff168152602001600260ff168152602001600360ff1681525090506000600a905060006004905060008060005b8651811015610a8b578360ff1687828151811061091f5761091e6112a8565b5b602002602001015161093191906113ef565b9250858360048110610946576109456112a8565b5b60200201519150600560405180604001604052808460ff168152602001600181525090806001815401808255809150506001900390600052602060002090600202016000909190919091506000820151816000015560208201518160010155505060068260ff16600481106109be576109bd6112a8565b5b6020918282040191900681819054906101000a900460ff16809291906109e39061145c565b91906101000a81548160ff021916908360ff160217905550508460ff1660068360ff1660048110610a1757610a166112a8565b5b602091828204019190069054906101000a900460ff1660ff161415610a7857858260ff1660048110610a4c57610a4b6112a8565b5b60200201600060ff168152508380610a6390611486565b94505060028460ff161415610a7757600b94505b5b8080610a83906114b0565b9150506108ff565b506001600460016101000a81548160ff02191690836001811115610ab257610ab1610e07565b5b0217905550505050505050565b610afd6040518060400160405280601681526020017f72616e646f6d20776f7264732072656365697665642100000000000000000000815250610c8d565b8060009080519060200190610b13929190610d69565b507f1d8f6997ec77a160b10f1131c09af88a6a895ea5f542c5fbca36ce69a9f5424860405160405180910390a15050565b60007f000000000000000000000000000000000000000000000000000000000000000073ffffffffffffffffffffffffffffffffffffffff16635d3b1d307f00000000000000000000000000000000000000000000000000000000000000007f000000000000000000000000000000000000000000000000000000000000000060037f0000000000000000000000000000000000000000000000000000000000000000876040518663ffffffff1660e01b8152600401610c08959493929190611516565b602060405180830381600087803b158015610c2257600080fd5b505af1158015610c36573d6000803e3d6000fd5b505050506040513d601f19601f82011682018060405250810190610c5a919061157e565b9050807f5d7d0431c4991fcc9f63f03ad0ead4128b866a8ed115a818b6d87a3afedb726460405160405180910390a25050565b610d2381604051602401610ca19190611622565b6040516020818303038152906040527f41304fac000000000000000000000000000000000000000000000000000000007bffffffffffffffffffffffffffffffffffffffffffffffffffffffff19166020820180517bffffffffffffffffffffffffffffffffffffffffffffffffffffffff8381831617835250505050610d26565b50565b60008151905060006a636f6e736f6c652e6c6f679050602083016000808483855afa5050505050565b604051806040016040528060008152602001600081525090565b828054828255906000526020600020908101928215610da5579160200282015b82811115610da4578251825591602001919060010190610d89565b5b509050610db29190610db6565b5090565b5b80821115610dcf576000816000905550600101610db7565b5090565b6000819050919050565b610de681610dd3565b82525050565b6000602082019050610e016000830184610ddd565b92915050565b7f4e487b7100000000000000000000000000000000000000000000000000000000600052602160045260246000fd5b60028110610e4757610e46610e07565b5b50565b6000819050610e5882610e36565b919050565b6000610e6882610e4a565b9050919050565b610e7881610e5d565b82525050565b6000602082019050610e936000830184610e6f565b92915050565b6000604051905090565b600080fd5b600080fd5b610eb681610dd3565b8114610ec157600080fd5b50565b600081359050610ed381610ead565b92915050565b600080fd5b6000601f19601f8301169050919050565b7f4e487b7100000000000000000000000000000000000000000000000000000000600052604160045260246000fd5b610f2782610ede565b810181811067ffffffffffffffff82111715610f4657610f45610eef565b5b80604052505050565b6000610f59610e99565b9050610f658282610f1e565b919050565b600067ffffffffffffffff821115610f8557610f84610eef565b5b602082029050602081019050919050565b600080fd5b6000610fae610fa984610f6a565b610f4f565b90508083825260208201905060208402830185811115610fd157610fd0610f96565b5b835b81811015610ffa5780610fe68882610ec4565b845260208401935050602081019050610fd3565b5050509392505050565b600082601f83011261101957611018610ed9565b5b8135611029848260208601610f9b565b91505092915050565b6000806040838503121561104957611048610ea3565b5b600061105785828601610ec4565b925050602083013567ffffffffffffffff81111561107857611077610ea8565b5b61108485828601611004565b9150509250929050565b600073ffffffffffffffffffffffffffffffffffffffff82169050919050565b60006110b98261108e565b9050919050565b6110c9816110ae565b82525050565b60006020820190506110e460008301846110c0565b92915050565b600281106110fb576110fa610e07565b5b50565b600081905061110c826110ea565b919050565b600061111c826110fe565b9050919050565b61112c81611111565b82525050565b60006020820190506111476000830184611123565b92915050565b60006020828403121561116357611162610ea3565b5b600061117184828501610ec4565b91505092915050565b61118381610dd3565b82525050565b60408201600082015161119f600085018261117a565b5060208201516111b2602085018261117a565b50505050565b60006040820190506111cd6000830184611189565b92915050565b6000819050919050565b6111e6816111d3565b82525050565b600060208201905061120160008301846111dd565b92915050565b600067ffffffffffffffff82169050919050565b61122481611207565b82525050565b600060208201905061123f600083018461121b565b92915050565b600063ffffffff82169050919050565b61125e81611245565b82525050565b60006020820190506112796000830184611255565b92915050565b600060408201905061129460008301856110c0565b6112a160208301846110c0565b9392505050565b7f4e487b7100000000000000000000000000000000000000000000000000000000600052603260045260246000fd5b600082825260208201905092915050565b7f53656e64204d6f726520746f20456e746572204c6f6262790000000000000000600082015250565b600061131e6018836112d7565b9150611329826112e8565b602082019050919050565b6000602082019050818103600083015261134d81611311565b9050919050565b7f4c6f6262792069732066756c6c00000000000000000000000000000000000000600082015250565b600061138a600d836112d7565b915061139582611354565b602082019050919050565b600060208201905081810360008301526113b98161137d565b9050919050565b7f4e487b7100000000000000000000000000000000000000000000000000000000600052601260045260246000fd5b60006113fa82610dd3565b915061140583610dd3565b925082611415576114146113c0565b5b828206905092915050565b7f4e487b7100000000000000000000000000000000000000000000000000000000600052601160045260246000fd5b600060ff82169050919050565b60006114678261144f565b915060ff82141561147b5761147a611420565b5b600182019050919050565b60006114918261144f565b915060008214156114a5576114a4611420565b5b600182039050919050565b60006114bb82610dd3565b91507fffffffffffffffffffffffffffffffffffffffffffffffffffffffffffffffff8214156114ee576114ed611420565b5b600182019050919050565b600061ffff82169050919050565b611510816114f9565b82525050565b600060a08201905061152b60008301886111dd565b611538602083018761121b565b6115456040830186611507565b6115526060830185611255565b61155f6080830184611255565b9695505050505050565b60008151905061157881610ead565b92915050565b60006020828403121561159457611593610ea3565b5b60006115a284828501611569565b91505092915050565b600081519050919050565b60005b838110156115d45780820151818401526020810190506115b9565b838111156115e3576000848401525b50505050565b60006115f4826115ab565b6115fe81856112d7565b935061160e8185602086016115b6565b61161781610ede565b840191505092915050565b6000602082019050818103600083015261163c81846115e9565b90509291505056fea2646970667358221220b3ad37d5bb949a835f43bc4ded35ff9c19f234ac597b29c7d3d94d19072e043864736f6c63430008080033",
  "devdoc": {
    "author": "Mitchell Spencer",
    "details": "Implements the Chainlink VRF V2",
    "kind": "dev",
    "methods": {},
    "title": "A sample Raffle Contract",
    "version": 1
  },
  "userdoc": {
    "kind": "user",
    "methods": {
      "getRandomWordsArray(uint256)": {
        "notice": "Getter Functions "
      },
      "testTerritoryAssignment()": {
        "notice": "Tester Functions "
      }
    },
    "notice": "Cryptorisk setup contract.",
    "version": 1
  },
  "storageLayout": {
    "storage": [
      {
        "astId": 188,
        "contract": "contracts/Setup.sol:Setup",
        "label": "s_randomWordsArray",
        "offset": 0,
        "slot": "0",
        "type": "t_array(t_uint256)dyn_storage"
      },
      {
        "astId": 192,
        "contract": "contracts/Setup.sol:Setup",
        "label": "s_lastTimeStamp",
        "offset": 0,
        "slot": "1",
        "type": "t_uint256"
      },
      {
        "astId": 194,
        "contract": "contracts/Setup.sol:Setup",
        "label": "s_recentWinner",
        "offset": 0,
        "slot": "2",
        "type": "t_address"
      },
      {
        "astId": 197,
        "contract": "contracts/Setup.sol:Setup",
        "label": "s_players",
        "offset": 0,
        "slot": "3",
        "type": "t_array(t_address_payable)dyn_storage"
      },
      {
        "astId": 200,
        "contract": "contracts/Setup.sol:Setup",
        "label": "s_lobbyState",
        "offset": 0,
        "slot": "4",
        "type": "t_enum(LobbyState)167"
      },
      {
        "astId": 203,
        "contract": "contracts/Setup.sol:Setup",
        "label": "s_territoryState",
        "offset": 1,
        "slot": "4",
        "type": "t_enum(TerritoryState)170"
      },
      {
        "astId": 206,
        "contract": "contracts/Setup.sol:Setup",
        "label": "s_setupState",
        "offset": 2,
        "slot": "4",
        "type": "t_enum(SetupState)173"
      },
      {
        "astId": 210,
        "contract": "contracts/Setup.sol:Setup",
        "label": "s_territories",
        "offset": 0,
        "slot": "5",
        "type": "t_array(t_struct(Territory_Info)224_storage)dyn_storage"
      },
      {
        "astId": 219,
        "contract": "contracts/Setup.sol:Setup",
        "label": "territoriesAssigned",
        "offset": 0,
        "slot": "6",
        "type": "t_array(t_uint8)4_storage"
      }
    ],
    "types": {
      "t_address": {
        "encoding": "inplace",
        "label": "address",
        "numberOfBytes": "20"
      },
      "t_address_payable": {
        "encoding": "inplace",
        "label": "address payable",
        "numberOfBytes": "20"
      },
      "t_array(t_address_payable)dyn_storage": {
        "base": "t_address_payable",
        "encoding": "dynamic_array",
        "label": "address payable[]",
        "numberOfBytes": "32"
      },
      "t_array(t_struct(Territory_Info)224_storage)dyn_storage": {
        "base": "t_struct(Territory_Info)224_storage",
        "encoding": "dynamic_array",
        "label": "struct Setup.Territory_Info[]",
        "numberOfBytes": "32"
      },
      "t_array(t_uint256)dyn_storage": {
        "base": "t_uint256",
        "encoding": "dynamic_array",
        "label": "uint256[]",
        "numberOfBytes": "32"
      },
      "t_array(t_uint8)4_storage": {
        "base": "t_uint8",
        "encoding": "inplace",
        "label": "uint8[4]",
        "numberOfBytes": "32"
      },
      "t_enum(LobbyState)167": {
        "encoding": "inplace",
        "label": "enum Setup.LobbyState",
        "numberOfBytes": "1"
      },
      "t_enum(SetupState)173": {
        "encoding": "inplace",
        "label": "enum Setup.SetupState",
        "numberOfBytes": "1"
      },
      "t_enum(TerritoryState)170": {
        "encoding": "inplace",
        "label": "enum Setup.TerritoryState",
        "numberOfBytes": "1"
      },
      "t_struct(Territory_Info)224_storage": {
        "encoding": "inplace",
        "label": "struct Setup.Territory_Info",
        "members": [
          {
            "astId": 221,
            "contract": "contracts/Setup.sol:Setup",
            "label": "owner",
            "offset": 0,
            "slot": "0",
            "type": "t_uint256"
          },
          {
            "astId": 223,
            "contract": "contracts/Setup.sol:Setup",
            "label": "troops",
            "offset": 0,
            "slot": "1",
            "type": "t_uint256"
          }
        ],
        "numberOfBytes": "64"
      },
      "t_uint256": {
        "encoding": "inplace",
        "label": "uint256",
        "numberOfBytes": "32"
      },
      "t_uint8": {
        "encoding": "inplace",
        "label": "uint8",
        "numberOfBytes": "1"
      }
    }
  }
}