{
  "address": "0xCf7Ed3AccA5a467e9e704C703E8D87F634fB0Fc9",
  "abi": [
    {
      "inputs": [
        {
          "internalType": "address",
          "name": "vrfCoordinatorV2",
          "type": "address"
        },
        {
          "internalType": "uint64",
          "name": "subscriptionId",
          "type": "uint64"
        },
        {
          "internalType": "bytes32",
          "name": "gasLane",
          "type": "bytes32"
        },
        {
          "internalType": "uint256",
          "name": "interval",
          "type": "uint256"
        },
        {
          "internalType": "uint256",
          "name": "entranceFee",
          "type": "uint256"
        },
        {
          "internalType": "uint32",
          "name": "callbackGasLimit",
          "type": "uint32"
        }
      ],
      "stateMutability": "nonpayable",
      "type": "constructor"
    },
    {
      "inputs": [],
      "name": "Lobby_LobbyNotOpen",
      "type": "error"
    },
    {
      "inputs": [],
      "name": "Lobby__SendMoreToEnterLobby",
      "type": "error"
    },
    {
      "inputs": [
        {
          "internalType": "address",
          "name": "have",
          "type": "address"
        },
        {
          "internalType": "address",
          "name": "want",
          "type": "address"
        }
      ],
      "name": "OnlyCoordinatorCanFulfill",
      "type": "error"
    },
    {
      "anonymous": false,
      "inputs": [],
      "name": "GameStarting",
      "type": "event"
    },
    {
      "anonymous": false,
      "inputs": [
        {
          "indexed": true,
          "internalType": "address",
          "name": "player",
          "type": "address"
        }
      ],
      "name": "PlayerJoinedLobby",
      "type": "event"
    },
    {
      "anonymous": false,
      "inputs": [],
      "name": "ReceivedRandomWords",
      "type": "event"
    },
    {
      "anonymous": false,
      "inputs": [
        {
          "indexed": true,
          "internalType": "uint256",
          "name": "requestId",
          "type": "uint256"
        }
      ],
      "name": "RequestedRandomness",
      "type": "event"
    },
    {
      "anonymous": false,
      "inputs": [
        {
          "indexed": true,
          "internalType": "address",
          "name": "player",
          "type": "address"
        }
      ],
      "name": "WinnerPicked",
      "type": "event"
    },
    {
      "inputs": [],
      "name": "enterLobby",
      "outputs": [],
      "stateMutability": "payable",
      "type": "function"
    },
    {
      "inputs": [],
      "name": "getEntranceFee",
      "outputs": [
        {
          "internalType": "uint256",
          "name": "",
          "type": "uint256"
        }
      ],
      "stateMutability": "view",
      "type": "function"
    },
    {
      "inputs": [],
      "name": "getGameState",
      "outputs": [
        {
          "internalType": "enum Setup.LobbyState",
          "name": "",
          "type": "uint8"
        }
      ],
      "stateMutability": "view",
      "type": "function"
    },
    {
      "inputs": [],
      "name": "getInterval",
      "outputs": [
        {
          "internalType": "uint256",
          "name": "",
          "type": "uint256"
        }
      ],
      "stateMutability": "view",
      "type": "function"
    },
    {
      "inputs": [],
      "name": "getLastTimeStamp",
      "outputs": [
        {
          "internalType": "uint256",
          "name": "",
          "type": "uint256"
        }
      ],
      "stateMutability": "view",
      "type": "function"
    },
    {
      "inputs": [],
      "name": "getNumWords",
      "outputs": [
        {
          "internalType": "uint256",
          "name": "",
          "type": "uint256"
        }
      ],
      "stateMutability": "pure",
      "type": "function"
    },
    {
      "inputs": [],
      "name": "getNumberOfPlayers",
      "outputs": [
        {
          "internalType": "uint256",
          "name": "",
          "type": "uint256"
        }
      ],
      "stateMutability": "view",
      "type": "function"
    },
    {
      "inputs": [
        {
          "internalType": "uint256",
          "name": "index",
          "type": "uint256"
        }
      ],
      "name": "getPlayer",
      "outputs": [
        {
          "internalType": "address",
          "name": "",
          "type": "address"
        }
      ],
      "stateMutability": "view",
      "type": "function"
    },
    {
      "inputs": [],
      "name": "getRecentWinner",
      "outputs": [
        {
          "internalType": "address",
          "name": "",
          "type": "address"
        }
      ],
      "stateMutability": "view",
      "type": "function"
    },
    {
      "inputs": [],
      "name": "getRequestConfirmations",
      "outputs": [
        {
          "internalType": "uint256",
          "name": "",
          "type": "uint256"
        }
      ],
      "stateMutability": "pure",
      "type": "function"
    },
    {
      "inputs": [
        {
          "internalType": "uint256",
          "name": "requestId",
          "type": "uint256"
        },
        {
          "internalType": "uint256[]",
          "name": "randomWords",
          "type": "uint256[]"
        }
      ],
      "name": "rawFulfillRandomWords",
      "outputs": [],
      "stateMutability": "nonpayable",
      "type": "function"
    }
  ],
  "transactionHash": "0x562f99f1c5d1da0ce777f9dea9b5a628408c5386f2a30b53c9569ba7b605b62e",
  "args": [
    "0x5FbDB2315678afecb367f032d93F642f64180aa3",
    "100000000000000000",
    "0xd89b2bf150e3b9e13446986e571fb9cab24b13cea0a43ea20a6049a85cc807cc",
    "1",
    "500000",
    "30"
  ],
  "numDeployments": 1,
  "solcInputHash": "4513897be97bd3cc8bbe4b3e982bb0d2",
  "bytecode": "0x6101606040523480156200001257600080fd5b5060405162001319380380620013198339818101604052810190620000389190620002a0565b858073ffffffffffffffffffffffffffffffffffffffff1660808173ffffffffffffffffffffffffffffffffffffffff1660601b81525050508573ffffffffffffffffffffffffffffffffffffffff1660a08173ffffffffffffffffffffffffffffffffffffffff1660601b815250508360e081815250508261012081815250508467ffffffffffffffff1660c08167ffffffffffffffff1660c01b815250508161014081815250506000600360006101000a81548160ff021916908360018111156200010a57620001096200033c565b5b0217905550426000819055508063ffffffff166101008163ffffffff1660e01b815250505050505050506200036b565b600080fd5b600073ffffffffffffffffffffffffffffffffffffffff82169050919050565b60006200016c826200013f565b9050919050565b6200017e816200015f565b81146200018a57600080fd5b50565b6000815190506200019e8162000173565b92915050565b600067ffffffffffffffff82169050919050565b620001c381620001a4565b8114620001cf57600080fd5b50565b600081519050620001e381620001b8565b92915050565b6000819050919050565b620001fe81620001e9565b81146200020a57600080fd5b50565b6000815190506200021e81620001f3565b92915050565b6000819050919050565b620002398162000224565b81146200024557600080fd5b50565b60008151905062000259816200022e565b92915050565b600063ffffffff82169050919050565b6200027a816200025f565b81146200028657600080fd5b50565b6000815190506200029a816200026f565b92915050565b60008060008060008060c08789031215620002c057620002bf6200013a565b5b6000620002d089828a016200018d565b9650506020620002e389828a01620001d2565b9550506040620002f689828a016200020d565b94505060606200030989828a0162000248565b93505060806200031c89828a0162000248565b92505060a06200032f89828a0162000289565b9150509295509295509295565b7f4e487b7100000000000000000000000000000000000000000000000000000000600052602160045260246000fd5b60805160601c60a05160601c60c05160c01c60e0516101005160e01c6101205161014051610f32620003e76000396000818161026d015281816103e101526104ba0152600061039b01526000610813015260006107cf015260006107f00152600061079301526000818161029301526102e70152610f326000f3fe60806040526004361061009c5760003560e01c806391ad27b41161006457806391ad27b414610176578063b7d0628b146101a1578063c1c244e8146101cc578063d9eb8a44146101f7578063e55ae4e814610201578063fd6673f51461023e5761009c565b806309bc33a7146100a15780631fe543e3146100cc578063473f1ddc146100f557806353a2c19a146101205780635f1b0fd81461014b575b600080fd5b3480156100ad57600080fd5b506100b6610269565b6040516100c391906108f1565b60405180910390f35b3480156100d857600080fd5b506100f360048036038101906100ee9190610aa5565b610291565b005b34801561010157600080fd5b5061010a610351565b6040516101179190610b42565b60405180910390f35b34801561012c57600080fd5b5061013561037b565b60405161014291906108f1565b60405180910390f35b34801561015757600080fd5b5061016061038a565b60405161016d91906108f1565b60405180910390f35b34801561018257600080fd5b5061018b610397565b60405161019891906108f1565b60405180910390f35b3480156101ad57600080fd5b506101b66103bf565b6040516101c39190610bd4565b60405180910390f35b3480156101d857600080fd5b506101e16103d6565b6040516101ee91906108f1565b60405180910390f35b6101ff6103df565b005b34801561020d57600080fd5b5061022860048036038101906102239190610bef565b610695565b6040516102359190610b42565b60405180910390f35b34801561024a57600080fd5b506102536106dd565b60405161026091906108f1565b60405180910390f35b60007f0000000000000000000000000000000000000000000000000000000000000000905090565b7f000000000000000000000000000000000000000000000000000000000000000073ffffffffffffffffffffffffffffffffffffffff163373ffffffffffffffffffffffffffffffffffffffff161461034357337f00000000000000000000000000000000000000000000000000000000000000006040517f1cf993f400000000000000000000000000000000000000000000000000000000815260040161033a929190610c1c565b60405180910390fd5b61034d82826106ea565b5050565b6000600160009054906101000a900473ffffffffffffffffffffffffffffffffffffffff16905090565b6000600163ffffffff16905090565b6000600361ffff16905090565b60007f0000000000000000000000000000000000000000000000000000000000000000905090565b6000600360009054906101000a900460ff16905090565b60008054905090565b7f0000000000000000000000000000000000000000000000000000000000000000341015610442576040517f08c379a000000000000000000000000000000000000000000000000000000000815260040161043990610ca2565b60405180910390fd5b6000600181111561045657610455610b5d565b5b600360009054906101000a900460ff16600181111561047857610477610b5d565b5b146104b8576040517f08c379a00000000000000000000000000000000000000000000000000000000081526004016104af90610d0e565b60405180910390fd5b7f0000000000000000000000000000000000000000000000000000000000000000341015610512576040517fc4221be500000000000000000000000000000000000000000000000000000000815260040160405180910390fd5b6000600181111561052657610525610b5d565b5b600360009054906101000a900460ff16600181111561054857610547610b5d565b5b1461057f576040517fc56c42a200000000000000000000000000000000000000000000000000000000815260040160405180910390fd5b6002339080600181540180825580915050600190039060005260206000200160009091909190916101000a81548173ffffffffffffffffffffffffffffffffffffffff021916908373ffffffffffffffffffffffffffffffffffffffff1602179055503373ffffffffffffffffffffffffffffffffffffffff167fa0df676a3a1d8a4dc693c144ac79c01945b4464a07bccdbf66c068127c32cfd760405160405180910390a260046002805490501415610693576001600360006101000a81548160ff0219169083600181111561065957610658610b5d565b5b02179055507f095744e432dd463fbf0fa4a256e21ddb462dbc9cc4e27248ebd5a28d759cc9e560405160405180910390a161069261071a565b5b565b6000600282815481106106ab576106aa610d2e565b5b9060005260206000200160009054906101000a900473ffffffffffffffffffffffffffffffffffffffff169050919050565b6000600280549050905090565b7f1d8f6997ec77a160b10f1131c09af88a6a895ea5f542c5fbca36ce69a9f5424860405160405180910390a15050565b60018081111561072d5761072c610b5d565b5b600360009054906101000a900460ff16600181111561074f5761074e610b5d565b5b1461078f576040517f08c379a000000000000000000000000000000000000000000000000000000000815260040161078690610dcf565b60405180910390fd5b60007f000000000000000000000000000000000000000000000000000000000000000073ffffffffffffffffffffffffffffffffffffffff16635d3b1d307f00000000000000000000000000000000000000000000000000000000000000007f000000000000000000000000000000000000000000000000000000000000000060037f000000000000000000000000000000000000000000000000000000000000000060016040518663ffffffff1660e01b8152600401610854959493929190610e67565b602060405180830381600087803b15801561086e57600080fd5b505af1158015610882573d6000803e3d6000fd5b505050506040513d601f19601f820116820180604052508101906108a69190610ecf565b9050807f5d7d0431c4991fcc9f63f03ad0ead4128b866a8ed115a818b6d87a3afedb726460405160405180910390a250565b6000819050919050565b6108eb816108d8565b82525050565b600060208201905061090660008301846108e2565b92915050565b6000604051905090565b600080fd5b600080fd5b610929816108d8565b811461093457600080fd5b50565b60008135905061094681610920565b92915050565b600080fd5b6000601f19601f8301169050919050565b7f4e487b7100000000000000000000000000000000000000000000000000000000600052604160045260246000fd5b61099a82610951565b810181811067ffffffffffffffff821117156109b9576109b8610962565b5b80604052505050565b60006109cc61090c565b90506109d88282610991565b919050565b600067ffffffffffffffff8211156109f8576109f7610962565b5b602082029050602081019050919050565b600080fd5b6000610a21610a1c846109dd565b6109c2565b90508083825260208201905060208402830185811115610a4457610a43610a09565b5b835b81811015610a6d5780610a598882610937565b845260208401935050602081019050610a46565b5050509392505050565b600082601f830112610a8c57610a8b61094c565b5b8135610a9c848260208601610a0e565b91505092915050565b60008060408385031215610abc57610abb610916565b5b6000610aca85828601610937565b925050602083013567ffffffffffffffff811115610aeb57610aea61091b565b5b610af785828601610a77565b9150509250929050565b600073ffffffffffffffffffffffffffffffffffffffff82169050919050565b6000610b2c82610b01565b9050919050565b610b3c81610b21565b82525050565b6000602082019050610b576000830184610b33565b92915050565b7f4e487b7100000000000000000000000000000000000000000000000000000000600052602160045260246000fd5b60028110610b9d57610b9c610b5d565b5b50565b6000819050610bae82610b8c565b919050565b6000610bbe82610ba0565b9050919050565b610bce81610bb3565b82525050565b6000602082019050610be96000830184610bc5565b92915050565b600060208284031215610c0557610c04610916565b5b6000610c1384828501610937565b91505092915050565b6000604082019050610c316000830185610b33565b610c3e6020830184610b33565b9392505050565b600082825260208201905092915050565b7f4e6f7420656e6f7567682076616c75652073656e740000000000000000000000600082015250565b6000610c8c601583610c45565b9150610c9782610c56565b602082019050919050565b60006020820190508181036000830152610cbb81610c7f565b9050919050565b7f4c6f6262792069732066756c6c00000000000000000000000000000000000000600082015250565b6000610cf8600d83610c45565b9150610d0382610cc2565b602082019050919050565b60006020820190508181036000830152610d2781610ceb565b9050919050565b7f4e487b7100000000000000000000000000000000000000000000000000000000600052603260045260246000fd5b7f4c6f626279206973206e6f742066756c6c2028746869732073686f756c64206260008201527f6520696d706f737369626c652900000000000000000000000000000000000000602082015250565b6000610db9602d83610c45565b9150610dc482610d5d565b604082019050919050565b60006020820190508181036000830152610de881610dac565b9050919050565b6000819050919050565b610e0281610def565b82525050565b600067ffffffffffffffff82169050919050565b610e2581610e08565b82525050565b600061ffff82169050919050565b610e4281610e2b565b82525050565b600063ffffffff82169050919050565b610e6181610e48565b82525050565b600060a082019050610e7c6000830188610df9565b610e896020830187610e1c565b610e966040830186610e39565b610ea36060830185610e58565b610eb06080830184610e58565b9695505050505050565b600081519050610ec981610920565b92915050565b600060208284031215610ee557610ee4610916565b5b6000610ef384828501610eba565b9150509291505056fea26469706673582212208f593ac5a0a2cb2a4f548ea1758c7605ecba1d6317886010ab7b73f71fa0920064736f6c63430008080033",
  "devdoc": {
    "author": "Mitchell Spencer",
    "details": "Implements the Chainlink VRF V2",
    "kind": "dev",
    "methods": {},
    "title": "A sample Raffle Contract",
    "version": 1
  },
  "userdoc": {
    "kind": "user",
    "methods": {
      "getGameState()": {
        "notice": "Getter Functions "
      }
    },
    "notice": "Cryptorisk setup contract.",
    "version": 1
  },
  "storageLayout": {
    "storage": [
      {
        "astId": 1180,
        "contract": "contracts/Setup.sol:Setup",
        "label": "s_lastTimeStamp",
        "offset": 0,
        "slot": "0",
        "type": "t_uint256"
      },
      {
        "astId": 1182,
        "contract": "contracts/Setup.sol:Setup",
        "label": "s_recentWinner",
        "offset": 0,
        "slot": "1",
        "type": "t_address"
      },
      {
        "astId": 1185,
        "contract": "contracts/Setup.sol:Setup",
        "label": "s_players",
        "offset": 0,
        "slot": "2",
        "type": "t_array(t_address_payable)dyn_storage"
      },
      {
        "astId": 1188,
        "contract": "contracts/Setup.sol:Setup",
        "label": "s_lobbyState",
        "offset": 0,
        "slot": "3",
        "type": "t_enum(LobbyState)1159"
      }
    ],
    "types": {
      "t_address": {
        "encoding": "inplace",
        "label": "address",
        "numberOfBytes": "20"
      },
      "t_address_payable": {
        "encoding": "inplace",
        "label": "address payable",
        "numberOfBytes": "20"
      },
      "t_array(t_address_payable)dyn_storage": {
        "base": "t_address_payable",
        "encoding": "dynamic_array",
        "label": "address payable[]",
        "numberOfBytes": "32"
      },
      "t_enum(LobbyState)1159": {
        "encoding": "inplace",
        "label": "enum Setup.LobbyState",
        "numberOfBytes": "1"
      },
      "t_uint256": {
        "encoding": "inplace",
        "label": "uint256",
        "numberOfBytes": "32"
      }
    }
  }
}