{
  "address": "0xE867f9D7d13f6B0B7a85949B5A1E344f628cD571",
  "abi": [
    {
      "inputs": [
        {
          "internalType": "address",
          "name": "vrfCoordinatorV2",
          "type": "address"
        },
        {
          "internalType": "uint64",
          "name": "subscriptionId",
          "type": "uint64"
        },
        {
          "internalType": "bytes32",
          "name": "gasLane",
          "type": "bytes32"
        },
        {
          "internalType": "uint32",
          "name": "callbackGasLimit",
          "type": "uint32"
        },
        {
          "internalType": "address",
          "name": "data",
          "type": "address"
        }
      ],
      "stateMutability": "nonpayable",
      "type": "constructor"
    },
    {
      "inputs": [
        {
          "internalType": "address",
          "name": "have",
          "type": "address"
        },
        {
          "internalType": "address",
          "name": "want",
          "type": "address"
        }
      ],
      "name": "OnlyCoordinatorCanFulfill",
      "type": "error"
    },
    {
      "anonymous": false,
      "inputs": [
        {
          "indexed": true,
          "internalType": "address",
          "name": "player",
          "type": "address"
        }
      ],
      "name": "CurrentPlayer",
      "type": "event"
    },
    {
      "anonymous": false,
      "inputs": [],
      "name": "DiceRolled",
      "type": "event"
    },
    {
      "anonymous": false,
      "inputs": [
        {
          "indexed": true,
          "internalType": "address",
          "name": "winner",
          "type": "address"
        }
      ],
      "name": "GameOver",
      "type": "event"
    },
    {
      "anonymous": false,
      "inputs": [
        {
          "indexed": true,
          "internalType": "address",
          "name": "player",
          "type": "address"
        }
      ],
      "name": "PlayerAttacking",
      "type": "event"
    },
    {
      "anonymous": false,
      "inputs": [
        {
          "indexed": true,
          "internalType": "address",
          "name": "player",
          "type": "address"
        }
      ],
      "name": "PlayerDeploying",
      "type": "event"
    },
    {
      "anonymous": false,
      "inputs": [
        {
          "indexed": true,
          "internalType": "address",
          "name": "player",
          "type": "address"
        }
      ],
      "name": "PlayerFortifying",
      "type": "event"
    },
    {
      "anonymous": false,
      "inputs": [
        {
          "indexed": true,
          "internalType": "address",
          "name": "main",
          "type": "address"
        }
      ],
      "name": "ReceivedMain",
      "type": "event"
    },
    {
      "anonymous": false,
      "inputs": [
        {
          "indexed": true,
          "internalType": "uint256",
          "name": "s_requestId",
          "type": "uint256"
        }
      ],
      "name": "RollingDice",
      "type": "event"
    },
    {
      "anonymous": false,
      "inputs": [
        {
          "indexed": true,
          "internalType": "uint256",
          "name": "territoryBeingAttacked",
          "type": "uint256"
        }
      ],
      "name": "TransferTroopsAvailable",
      "type": "event"
    },
    {
      "inputs": [
        {
          "internalType": "uint256",
          "name": "index",
          "type": "uint256"
        }
      ],
      "name": "add_troop_to_territory",
      "outputs": [],
      "stateMutability": "nonpayable",
      "type": "function"
    },
    {
      "inputs": [
        {
          "internalType": "uint8",
          "name": "territoryOwned",
          "type": "uint8"
        },
        {
          "internalType": "uint8",
          "name": "territoryAttacking",
          "type": "uint8"
        },
        {
          "internalType": "uint256",
          "name": "attackingArmies",
          "type": "uint256"
        }
      ],
      "name": "attack_control",
      "outputs": [],
      "stateMutability": "nonpayable",
      "type": "function"
    },
    {
      "inputs": [
        {
          "internalType": "uint8",
          "name": "amountToDeploy",
          "type": "uint8"
        },
        {
          "internalType": "uint8",
          "name": "location",
          "type": "uint8"
        }
      ],
      "name": "deploy_control",
      "outputs": [
        {
          "internalType": "bool",
          "name": "",
          "type": "bool"
        }
      ],
      "stateMutability": "nonpayable",
      "type": "function"
    },
    {
      "inputs": [
        {
          "internalType": "uint8",
          "name": "territoryMovingFrom",
          "type": "uint8"
        },
        {
          "internalType": "uint8",
          "name": "territoryMovingTo",
          "type": "uint8"
        },
        {
          "internalType": "uint256",
          "name": "troopsMoving",
          "type": "uint256"
        }
      ],
      "name": "fortify_control",
      "outputs": [
        {
          "internalType": "bool",
          "name": "",
          "type": "bool"
        }
      ],
      "stateMutability": "nonpayable",
      "type": "function"
    },
    {
      "inputs": [],
      "name": "gameOver",
      "outputs": [],
      "stateMutability": "nonpayable",
      "type": "function"
    },
    {
      "inputs": [],
      "name": "getAttackStatus",
      "outputs": [
        {
          "internalType": "bool",
          "name": "",
          "type": "bool"
        }
      ],
      "stateMutability": "view",
      "type": "function"
    },
    {
      "inputs": [],
      "name": "getPlayerTurn",
      "outputs": [
        {
          "internalType": "address",
          "name": "",
          "type": "address"
        }
      ],
      "stateMutability": "view",
      "type": "function"
    },
    {
      "inputs": [],
      "name": "getRequestId",
      "outputs": [
        {
          "internalType": "uint256",
          "name": "",
          "type": "uint256"
        }
      ],
      "stateMutability": "view",
      "type": "function"
    },
    {
      "inputs": [
        {
          "internalType": "uint256",
          "name": "player",
          "type": "uint256"
        }
      ],
      "name": "getTotalTroops",
      "outputs": [
        {
          "internalType": "uint256",
          "name": "",
          "type": "uint256"
        }
      ],
      "stateMutability": "nonpayable",
      "type": "function"
    },
    {
      "inputs": [
        {
          "internalType": "uint256",
          "name": "j",
          "type": "uint256"
        }
      ],
      "name": "get_territory_owner",
      "outputs": [
        {
          "internalType": "uint256",
          "name": "",
          "type": "uint256"
        }
      ],
      "stateMutability": "nonpayable",
      "type": "function"
    },
    {
      "inputs": [],
      "name": "get_troops_to_deploy",
      "outputs": [
        {
          "internalType": "uint8",
          "name": "",
          "type": "uint8"
        }
      ],
      "stateMutability": "view",
      "type": "function"
    },
    {
      "inputs": [
        {
          "internalType": "uint8",
          "name": "playerAwarded",
          "type": "uint8"
        }
      ],
      "name": "push_to_territories",
      "outputs": [],
      "stateMutability": "nonpayable",
      "type": "function"
    },
    {
      "inputs": [
        {
          "internalType": "uint256",
          "name": "requestId",
          "type": "uint256"
        },
        {
          "internalType": "uint256[]",
          "name": "randomWords",
          "type": "uint256[]"
        }
      ],
      "name": "rawFulfillRandomWords",
      "outputs": [],
      "stateMutability": "nonpayable",
      "type": "function"
    },
    {
      "inputs": [],
      "name": "s_mainSet",
      "outputs": [
        {
          "internalType": "enum Controls.mainAddressSent",
          "name": "",
          "type": "uint8"
        }
      ],
      "stateMutability": "view",
      "type": "function"
    },
    {
      "inputs": [],
      "name": "s_playerTurn",
      "outputs": [
        {
          "internalType": "uint8",
          "name": "",
          "type": "uint8"
        }
      ],
      "stateMutability": "view",
      "type": "function"
    },
    {
      "inputs": [],
      "name": "s_requestId",
      "outputs": [
        {
          "internalType": "uint256",
          "name": "",
          "type": "uint256"
        }
      ],
      "stateMutability": "view",
      "type": "function"
    },
    {
      "inputs": [],
      "name": "s_troopsToDeploy",
      "outputs": [
        {
          "internalType": "uint8",
          "name": "",
          "type": "uint8"
        }
      ],
      "stateMutability": "view",
      "type": "function"
    },
    {
      "inputs": [
        {
          "internalType": "address",
          "name": "main",
          "type": "address"
        }
      ],
      "name": "set_main_address",
      "outputs": [],
      "stateMutability": "nonpayable",
      "type": "function"
    },
    {
      "inputs": [
        {
          "internalType": "address payable[]",
          "name": "players",
          "type": "address[]"
        }
      ],
      "name": "set_players",
      "outputs": [],
      "stateMutability": "nonpayable",
      "type": "function"
    },
    {
      "inputs": [
        {
          "internalType": "uint8",
          "name": "territoryMovingFrom",
          "type": "uint8"
        },
        {
          "internalType": "uint8",
          "name": "territoryMovingTo",
          "type": "uint8"
        },
        {
          "internalType": "uint256",
          "name": "troopsMoving",
          "type": "uint256"
        }
      ],
      "name": "transferTroops",
      "outputs": [],
      "stateMutability": "nonpayable",
      "type": "function"
    },
    {
      "inputs": [
        {
          "internalType": "uint256",
          "name": "amountOfTroops",
          "type": "uint256"
        }
      ],
      "name": "troopTransferAfterAttack",
      "outputs": [],
      "stateMutability": "nonpayable",
      "type": "function"
    }
  ],
  "transactionHash": "0xaa9c540847576a2fb5100605985d15aa8f470e10bb555c31a91e34c723077fbb",
  "args": [
    "0x2eD832Ba664535e5886b75D64C46EB9a228C2610",
    "143",
    "0x354d2f95da55398f44b7cff77da56283d9c6c829a4bdf1bbcaf2ad6a4d081f61",
    "3000000",
    "0x38Fea5914DF09bA507CE3cca097Da0B0eDE59090"
  ],
  "numDeployments": 3,
  "solcInputHash": "f66c1b8a29c110a89d111a72982e08d4",
  "bytecode": "0x6101206040523480156200001257600080fd5b50604051620049a3380380620049a38339818101604052810190620000389190620002fa565b848073ffffffffffffffffffffffffffffffffffffffff1660808173ffffffffffffffffffffffffffffffffffffffff1660601b81525050508473ffffffffffffffffffffffffffffffffffffffff1660a08173ffffffffffffffffffffffffffffffffffffffff1660601b815250508367ffffffffffffffff1660c08167ffffffffffffffff1660c01b815250508260e081815250508163ffffffff166101008163ffffffff1660e01b8152505080600360006101000a81548173ffffffffffffffffffffffffffffffffffffffff021916908373ffffffffffffffffffffffffffffffffffffffff1602179055506001600360146101000a81548160ff0219169083600181111562000151576200015062000382565b5b02179055506003600560016101000a81548160ff021916908360ff1602179055506000600560006101000a81548160ff021916908360ff1602179055506000600860006101000a81548160ff0219169083151502179055506000600860016101000a81548160ff0219169083151502179055505050505050620003b1565b600080fd5b600073ffffffffffffffffffffffffffffffffffffffff82169050919050565b60006200020182620001d4565b9050919050565b6200021381620001f4565b81146200021f57600080fd5b50565b600081519050620002338162000208565b92915050565b600067ffffffffffffffff82169050919050565b620002588162000239565b81146200026457600080fd5b50565b60008151905062000278816200024d565b92915050565b6000819050919050565b62000293816200027e565b81146200029f57600080fd5b50565b600081519050620002b38162000288565b92915050565b600063ffffffff82169050919050565b620002d481620002b9565b8114620002e057600080fd5b50565b600081519050620002f481620002c9565b92915050565b600080600080600060a08688031215620003195762000318620001cf565b5b6000620003298882890162000222565b95505060206200033c8882890162000267565b94505060406200034f88828901620002a2565b93505060606200036288828901620002e3565b9250506080620003758882890162000222565b9150509295509295909350565b7f4e487b7100000000000000000000000000000000000000000000000000000000600052602160045260246000fd5b60805160601c60a05160601c60c05160c01c60e0516101005160e01c61459a62000409600039600061273d015260006126f90152600061271a015260006126bd01526000818161087601526108ca015261459a6000f3fe608060405234801561001057600080fd5b50600436106101375760003560e01c8063785776d2116100b8578063b6d5bc6f1161007c578063b6d5bc6f14610328578063bdb337d114610346578063be85fc7614610350578063c53752101461036c578063c758c1261461039c578063e89e106a146103b857610137565b8063785776d2146102845780638d2ed997146102a0578063aa181e85146102be578063ada2c7a8146102da578063af0b94d41461030a57610137565b806323c288e7116100ff57806323c288e7146101e05780632572cd6e146101fc5780635a1095f31461021a57806366f9879514610236578063780b5bf91461025457610137565b8063041dcfcc1461013c57806305ca49b01461016c578063077001b9146101885780631c6f86cc146101a65780631fe543e3146101c4575b600080fd5b6101566004803603810190610151919061328f565b6103d6565b60405161016391906132ea565b60405180910390f35b61018660048036038101906101819190613363565b6106da565b005b610190610857565b60405161019d91906133a9565b60405180910390f35b6101ae610861565b6040516101bb91906133d3565b60405180910390f35b6101de60048036038101906101d99190613573565b610874565b005b6101fa60048036038101906101f591906135cf565b610934565b005b610204610b6a565b6040516102119190613631565b60405180910390f35b610234600480360381019061022f919061364c565b610bc2565b005b61023e610caa565b60405161024b91906133d3565b60405180910390f35b61026e6004803603810190610269919061364c565b610cbd565b60405161027b91906133a9565b60405180910390f35b61029e6004803603810190610299919061364c565b610dce565b005b6102a86110eb565b6040516102b591906136f0565b60405180910390f35b6102d860048036038101906102d3919061370b565b6110fe565b005b6102f460048036038101906102ef91906135cf565b6111e6565b60405161030191906132ea565b60405180910390f35b61031261133a565b60405161031f91906132ea565b60405180910390f35b610330611351565b60405161033d91906133d3565b60405180910390f35b61034e611368565b005b61036a600480360381019061036591906135cf565b611608565b005b6103866004803603810190610381919061364c565b61195e565b60405161039391906133a9565b60405180910390f35b6103b660048036038101906103b19190613839565b611afe565b005b6103c0611bfa565b6040516103cd91906133a9565b60405180910390f35b600060028054906101000a900473ffffffffffffffffffffffffffffffffffffffff1673ffffffffffffffffffffffffffffffffffffffff163373ffffffffffffffffffffffffffffffffffffffff161461043057600080fd5b600560019054906101000a900460ff1660ff16600360009054906101000a900473ffffffffffffffffffffffffffffffffffffffff1673ffffffffffffffffffffffffffffffffffffffff16634423b787846040518263ffffffff1660e01b815260040161049e91906138bd565b602060405180830381600087803b1580156104b857600080fd5b505af11580156104cc573d6000803e3d6000fd5b505050506040513d601f19601f820116820180604052508101906104f091906138ed565b60ff1614610533576040517f08c379a000000000000000000000000000000000000000000000000000000000815260040161052a90613977565b60405180910390fd5b6006600560019054906101000a900460ff1660ff168154811061055957610558613997565b5b9060005260206000200160009054906101000a900473ffffffffffffffffffffffffffffffffffffffff1673ffffffffffffffffffffffffffffffffffffffff167fe92878f508d0c22d489dcd5f4ee8376a415f0ee7b5dcba2ceae2d73da0fdfce960405160405180910390a260005b8360ff1681101561067457600360009054906101000a900473ffffffffffffffffffffffffffffffffffffffff1673ffffffffffffffffffffffffffffffffffffffff1663a3f09a93846040518263ffffffff1660e01b815260040161062f91906138bd565b600060405180830381600087803b15801561064957600080fd5b505af115801561065d573d6000803e3d6000fd5b50505050808061066c906139f5565b9150506105c9565b5082600560008282829054906101000a900460ff166106939190613a3e565b92506101000a81548160ff021916908360ff1602179055506000600560009054906101000a900460ff1660ff1614156106cf57600090506106d4565b600190505b92915050565b6001808111156106ed576106ec613679565b5b600360149054906101000a900460ff16600181111561070f5761070e613679565b5b1461071957600080fd5b8073ffffffffffffffffffffffffffffffffffffffff167fc347a26bea69a31d705cd31225784accd8aabfcba5952e3b6c2d66429acaca4f60405160405180910390a2806002806101000a81548173ffffffffffffffffffffffffffffffffffffffff021916908373ffffffffffffffffffffffffffffffffffffffff1602179055506000600360146101000a81548160ff021916908360018111156107c2576107c1613679565b5b0217905550600360009054906101000a900473ffffffffffffffffffffffffffffffffffffffff1673ffffffffffffffffffffffffffffffffffffffff1663b0876995306040518263ffffffff1660e01b81526004016108229190613631565b600060405180830381600087803b15801561083c57600080fd5b505af1158015610850573d6000803e3d6000fd5b5050505050565b6000600454905090565b600560009054906101000a900460ff1681565b7f000000000000000000000000000000000000000000000000000000000000000073ffffffffffffffffffffffffffffffffffffffff163373ffffffffffffffffffffffffffffffffffffffff161461092657337f00000000000000000000000000000000000000000000000000000000000000006040517f1cf993f400000000000000000000000000000000000000000000000000000000815260040161091d929190613a72565b60405180910390fd5b6109308282611c00565b5050565b600360009054906101000a900473ffffffffffffffffffffffffffffffffffffffff1673ffffffffffffffffffffffffffffffffffffffff1663d2885910846040518263ffffffff1660e01b815260040161098f91906138bd565b60206040518083038186803b1580156109a757600080fd5b505afa1580156109bb573d6000803e3d6000fd5b505050506040513d601f19601f820116820180604052508101906109df9190613ab0565b811080156109ed5750600081115b610a2c576040517f08c379a0000000000000000000000000000000000000000000000000000000008152600401610a2390613b4f565b60405180910390fd5b60005b81811015610b6457600360009054906101000a900473ffffffffffffffffffffffffffffffffffffffff1673ffffffffffffffffffffffffffffffffffffffff1663a3f09a93846040518263ffffffff1660e01b8152600401610a9291906138bd565b600060405180830381600087803b158015610aac57600080fd5b505af1158015610ac0573d6000803e3d6000fd5b50505050600360009054906101000a900473ffffffffffffffffffffffffffffffffffffffff1673ffffffffffffffffffffffffffffffffffffffff1663d86819d7856040518263ffffffff1660e01b8152600401610b1f91906138bd565b600060405180830381600087803b158015610b3957600080fd5b505af1158015610b4d573d6000803e3d6000fd5b505050508080610b5c906139f5565b915050610a2f565b50505050565b60006006600560019054906101000a900460ff1660ff1681548110610b9257610b91613997565b5b9060005260206000200160009054906101000a900473ffffffffffffffffffffffffffffffffffffffff16905090565b60028054906101000a900473ffffffffffffffffffffffffffffffffffffffff1673ffffffffffffffffffffffffffffffffffffffff163373ffffffffffffffffffffffffffffffffffffffff1614610c1a57600080fd5b600360009054906101000a900473ffffffffffffffffffffffffffffffffffffffff1673ffffffffffffffffffffffffffffffffffffffff1663a3f09a93826040518263ffffffff1660e01b8152600401610c7591906133a9565b600060405180830381600087803b158015610c8f57600080fd5b505af1158015610ca3573d6000803e3d6000fd5b5050505050565b600560019054906101000a900460ff1681565b600060028054906101000a900473ffffffffffffffffffffffffffffffffffffffff1673ffffffffffffffffffffffffffffffffffffffff163373ffffffffffffffffffffffffffffffffffffffff1614610d1757600080fd5b600360009054906101000a900473ffffffffffffffffffffffffffffffffffffffff1673ffffffffffffffffffffffffffffffffffffffff16634423b787836040518263ffffffff1660e01b8152600401610d7291906133a9565b602060405180830381600087803b158015610d8c57600080fd5b505af1158015610da0573d6000803e3d6000fd5b505050506040513d601f19601f82011682018060405250810190610dc491906138ed565b60ff169050919050565b600860009054906101000a900460ff16610de757600080fd5b3373ffffffffffffffffffffffffffffffffffffffff166006600560019054906101000a900460ff1660ff1681548110610e2457610e23613997565b5b9060005260206000200160009054906101000a900473ffffffffffffffffffffffffffffffffffffffff1673ffffffffffffffffffffffffffffffffffffffff1614610e6f57600080fd5b600360009054906101000a900473ffffffffffffffffffffffffffffffffffffffff1673ffffffffffffffffffffffffffffffffffffffff1663d2885910600260009054906101000a900460ff166040518263ffffffff1660e01b8152600401610ed991906138bd565b60206040518083038186803b158015610ef157600080fd5b505afa158015610f05573d6000803e3d6000fd5b505050506040513d601f19601f82011682018060405250810190610f299190613ab0565b81108015610f375750600081115b610f76576040517f08c379a0000000000000000000000000000000000000000000000000000000008152600401610f6d90613b4f565b60405180910390fd5b60005b818110156110cc57600360009054906101000a900473ffffffffffffffffffffffffffffffffffffffff1673ffffffffffffffffffffffffffffffffffffffff1663a3f09a93600260019054906101000a900460ff166040518263ffffffff1660e01b8152600401610feb91906138bd565b600060405180830381600087803b15801561100557600080fd5b505af1158015611019573d6000803e3d6000fd5b50505050600360009054906101000a900473ffffffffffffffffffffffffffffffffffffffff1673ffffffffffffffffffffffffffffffffffffffff1663d86819d7600260009054906101000a900460ff166040518263ffffffff1660e01b815260040161108791906138bd565b600060405180830381600087803b1580156110a157600080fd5b505af11580156110b5573d6000803e3d6000fd5b5050505080806110c4906139f5565b915050610f79565b506000600860006101000a81548160ff02191690831515021790555050565b600360149054906101000a900460ff1681565b60028054906101000a900473ffffffffffffffffffffffffffffffffffffffff1673ffffffffffffffffffffffffffffffffffffffff163373ffffffffffffffffffffffffffffffffffffffff161461115657600080fd5b600360009054906101000a900473ffffffffffffffffffffffffffffffffffffffff1673ffffffffffffffffffffffffffffffffffffffff166321eb9dab826040518263ffffffff1660e01b81526004016111b191906133d3565b600060405180830381600087803b1580156111cb57600080fd5b505af11580156111df573d6000803e3d6000fd5b5050505050565b600060028054906101000a900473ffffffffffffffffffffffffffffffffffffffff1673ffffffffffffffffffffffffffffffffffffffff163373ffffffffffffffffffffffffffffffffffffffff161461124057600080fd5b6006600560019054906101000a900460ff1660ff168154811061126657611265613997565b5b9060005260206000200160009054906101000a900473ffffffffffffffffffffffffffffffffffffffff1673ffffffffffffffffffffffffffffffffffffffff167fe5e8bf4ce065b9d690ddea8f25596e4baf50c582be4eacf4717653e910adf52860405160405180910390a26112dd8484611c7c565b61131c576040517f08c379a000000000000000000000000000000000000000000000000000000000815260040161131390613c07565b60405180910390fd5b611327848484610934565b61132f611ed7565b600190509392505050565b6000600860009054906101000a900460ff16905090565b6000600560009054906101000a900460ff16905090565b60011515600860019054906101000a900460ff1615151461138857600080fd5b60006006600560019054906101000a900460ff1660ff16815481106113b0576113af613997565b5b9060005260206000200160009054906101000a900473ffffffffffffffffffffffffffffffffffffffff1690508073ffffffffffffffffffffffffffffffffffffffff167ff556ad7790e70877edcf3b3bb441255def8a405faa0dfdb005a02fa8e557bca960405160405180910390a2600060028054906101000a900473ffffffffffffffffffffffffffffffffffffffff1673ffffffffffffffffffffffffffffffffffffffff168260405160240161146a9190613631565b6040516020818303038152906040527f19b09f9b000000000000000000000000000000000000000000000000000000007bffffffffffffffffffffffffffffffffffffffffffffffffffffffff19166020820180517bffffffffffffffffffffffffffffffffffffffffffffffffffffffff83818316178352505050506040516114f49190613ca1565b6000604051808303816000865af19150503d8060008114611531576040519150601f19603f3d011682016040523d82523d6000602084013e611536565b606091505b505090508061157a576040517f08c379a000000000000000000000000000000000000000000000000000000000815260040161157190613d04565b60405180910390fd5b600360009054906101000a900473ffffffffffffffffffffffffffffffffffffffff1673ffffffffffffffffffffffffffffffffffffffff1663478c4e0e6040518163ffffffff1660e01b8152600401600060405180830381600087803b1580156115e457600080fd5b505af11580156115f8573d6000803e3d6000fd5b50505050611604612338565b5050565b60028054906101000a900473ffffffffffffffffffffffffffffffffffffffff1673ffffffffffffffffffffffffffffffffffffffff163373ffffffffffffffffffffffffffffffffffffffff161461166057600080fd5b61166a8383612408565b6116a9576040517f08c379a00000000000000000000000000000000000000000000000000000000081526004016116a090613d96565b60405180910390fd5b600360009054906101000a900473ffffffffffffffffffffffffffffffffffffffff1673ffffffffffffffffffffffffffffffffffffffff1663d2885910846040518263ffffffff1660e01b815260040161170491906138bd565b60206040518083038186803b15801561171c57600080fd5b505afa158015611730573d6000803e3d6000fd5b505050506040513d601f19601f820116820180604052508101906117549190613ab0565b811080156117625750600081115b6117a1576040517f08c379a000000000000000000000000000000000000000000000000000000000815260040161179890613e28565b60405180910390fd5b6006600560019054906101000a900460ff1660ff16815481106117c7576117c6613997565b5b9060005260206000200160009054906101000a900473ffffffffffffffffffffffffffffffffffffffff1673ffffffffffffffffffffffffffffffffffffffff167f4faa3127e27f3f0467a37943f210253ed28fe31be9064ac5e66ed6e805c947c260405160405180910390a26000600360009054906101000a900473ffffffffffffffffffffffffffffffffffffffff1673ffffffffffffffffffffffffffffffffffffffff1663d2885910846040518263ffffffff1660e01b815260040161189191906138bd565b60206040518083038186803b1580156118a957600080fd5b505afa1580156118bd573d6000803e3d6000fd5b505050506040513d601f19601f820116820180604052508101906118e19190613ab0565b9050600281106118f457600290506118f9565b600190505b60006119058383612653565b905084600260006101000a81548160ff021916908360ff16021790555083600260016101000a81548160ff021916908360ff16021790555082600081905550816001819055506119578160ff166126bb565b5050505050565b6000806000905060005b602a811015611af45783600360009054906101000a900473ffffffffffffffffffffffffffffffffffffffff1673ffffffffffffffffffffffffffffffffffffffff16634423b787836040518263ffffffff1660e01b81526004016119cd91906133a9565b602060405180830381600087803b1580156119e757600080fd5b505af11580156119fb573d6000803e3d6000fd5b505050506040513d601f19601f82011682018060405250810190611a1f91906138ed565b60ff161415611ae157600360009054906101000a900473ffffffffffffffffffffffffffffffffffffffff1673ffffffffffffffffffffffffffffffffffffffff1663d2885910826040518263ffffffff1660e01b8152600401611a8391906133a9565b60206040518083038186803b158015611a9b57600080fd5b505afa158015611aaf573d6000803e3d6000fd5b505050506040513d601f19601f82011682018060405250810190611ad39190613ab0565b82611ade9190613e48565b91505b8080611aec906139f5565b915050611968565b5080915050919050565b60028054906101000a900473ffffffffffffffffffffffffffffffffffffffff1673ffffffffffffffffffffffffffffffffffffffff163373ffffffffffffffffffffffffffffffffffffffff1614611b5657600080fd5b8060069080519060200190611b6c92919061314e565b50600360009054906101000a900473ffffffffffffffffffffffffffffffffffffffff1673ffffffffffffffffffffffffffffffffffffffff16633bee987f6040518163ffffffff1660e01b8152600401600060405180830381600087803b158015611bd757600080fd5b505af1158015611beb573d6000803e3d6000fd5b50505050611bf7611ed7565b50565b60045481565b8060079080519060200190611c169291906131d8565b507f48ed86bcf5a9db215d430a3d797d5fd900be09379a002b6f37891bd2aacbe5cf60405160405180910390a1611c78600054600154600260009054906101000a900460ff1660ff16600260019054906101000a900460ff1660ff1685612807565b5050565b60006001600360009054906101000a900473ffffffffffffffffffffffffffffffffffffffff1673ffffffffffffffffffffffffffffffffffffffff1663d2885910856040518263ffffffff1660e01b8152600401611cdb91906138bd565b60206040518083038186803b158015611cf357600080fd5b505afa158015611d07573d6000803e3d6000fd5b505050506040513d601f19601f82011682018060405250810190611d2b9190613ab0565b11611d6b576040517f08c379a0000000000000000000000000000000000000000000000000000000008152600401611d6290613f10565b60405180910390fd5b611d7483612f18565b8015611d855750611d8482612f18565b5b611dc4576040517f08c379a0000000000000000000000000000000000000000000000000000000008152600401611dbb90613fa2565b60405180910390fd5b6000600360009054906101000a900473ffffffffffffffffffffffffffffffffffffffff1673ffffffffffffffffffffffffffffffffffffffff166389290109856040518263ffffffff1660e01b8152600401611e2191906138bd565b60006040518083038186803b158015611e3957600080fd5b505afa158015611e4d573d6000803e3d6000fd5b505050506040513d6000823e3d601f19601f82011682018060405250810190611e769190614085565b905060005b6006811015611eca57818181518110611e9757611e96613997565b5b602002602001015160ff168460ff161415611eb757600192505050611ed1565b8080611ec2906139f5565b915050611e7b565b5060009150505b92915050565b6005600181819054906101000a900460ff1680929190611ef6906140ce565b91906101000a81548160ff021916908360ff16021790555050600680549050600560019054906101000a900460ff1660ff161415611f4b576000600560016101000a81548160ff021916908360ff1602179055505b600360009054906101000a900473ffffffffffffffffffffffffffffffffffffffff1673ffffffffffffffffffffffffffffffffffffffff166364b6667d6040518163ffffffff1660e01b8152600401600060405180830381600087803b158015611fb557600080fd5b505af1158015611fc9573d6000803e3d6000fd5b505050506000600560006101000a81548160ff021916908360ff16021790555060005b60068110156121b057600560019054906101000a900460ff1660ff16600360009054906101000a900473ffffffffffffffffffffffffffffffffffffffff1673ffffffffffffffffffffffffffffffffffffffff16630452338e836040518263ffffffff1660e01b815260040161206391906133a9565b60206040518083038186803b15801561207b57600080fd5b505afa15801561208f573d6000803e3d6000fd5b505050506040513d601f19601f820116820180604052508101906120b391906138ed565b60ff16141561219d57600360009054906101000a900473ffffffffffffffffffffffffffffffffffffffff1673ffffffffffffffffffffffffffffffffffffffff16631e8d6c3c826040518263ffffffff1660e01b815260040161211791906133a9565b60206040518083038186803b15801561212f57600080fd5b505afa158015612143573d6000803e3d6000fd5b505050506040513d601f19601f8201168201806040525081019061216791906138ed565b600560008282829054906101000a900460ff1661218491906140f8565b92506101000a81548160ff021916908360ff1602179055505b80806121a8906139f5565b915050611fec565b506000805b602a8110156122a957600560019054906101000a900460ff1660ff16600360009054906101000a900473ffffffffffffffffffffffffffffffffffffffff1673ffffffffffffffffffffffffffffffffffffffff16634423b787836040518263ffffffff1660e01b815260040161222c91906133a9565b602060405180830381600087803b15801561224657600080fd5b505af115801561225a573d6000803e3d6000fd5b505050506040513d601f19601f8201168201806040525081019061227e91906138ed565b60ff161415612296578180612292906140ce565b9250505b80806122a1906139f5565b9150506121b5565b5060098160ff1610156122f2576003600560008282829054906101000a900460ff166122d591906140f8565b92506101000a81548160ff021916908360ff160217905550612335565b6003816122ff919061415e565b600560008282829054906101000a900460ff1661231c91906140f8565b92506101000a81548160ff021916908360ff1602179055505b50565b6003600560016101000a81548160ff021916908360ff1602179055506000600560006101000a81548160ff021916908360ff1602179055506000600860006101000a81548160ff0219169083151502179055506000600860016101000a81548160ff021916908315150217905550600067ffffffffffffffff8111156123c1576123c0613430565b5b6040519080825280602002602001820160405280156123ef5781602001602082028036833780820191505090505b506006908051906020019061240592919061314e565b50565b60006001600360009054906101000a900473ffffffffffffffffffffffffffffffffffffffff1673ffffffffffffffffffffffffffffffffffffffff1663d2885910856040518263ffffffff1660e01b815260040161246791906138bd565b60206040518083038186803b15801561247f57600080fd5b505afa158015612493573d6000803e3d6000fd5b505050506040513d601f19601f820116820180604052508101906124b79190613ab0565b116124f7576040517f08c379a00000000000000000000000000000000000000000000000000000000081526004016124ee90614227565b60405180910390fd5b61250082612f18565b15612540576040517f08c379a0000000000000000000000000000000000000000000000000000000008152600401612537906142b9565b60405180910390fd5b6000600360009054906101000a900473ffffffffffffffffffffffffffffffffffffffff1673ffffffffffffffffffffffffffffffffffffffff166389290109856040518263ffffffff1660e01b815260040161259d91906138bd565b60006040518083038186803b1580156125b557600080fd5b505afa1580156125c9573d6000803e3d6000fd5b505050506040513d6000823e3d601f19601f820116820180604052508101906125f29190614085565b905060005b60068110156126465781818151811061261357612612613997565b5b602002602001015160ff168460ff1614156126335760019250505061264d565b808061263e906139f5565b9150506125f7565b5060009150505b92915050565b60008060009050600384141561266c5760039050612684565b600284141561267e5760029050612683565b600190505b5b60028314156126a15760028161269a91906140f8565b90506126b1565b6001816126ae91906140f8565b90505b8091505092915050565b7f000000000000000000000000000000000000000000000000000000000000000073ffffffffffffffffffffffffffffffffffffffff16635d3b1d307f00000000000000000000000000000000000000000000000000000000000000007f000000000000000000000000000000000000000000000000000000000000000060037f0000000000000000000000000000000000000000000000000000000000000000866040518663ffffffff1660e01b815260040161277d959493929190614351565b602060405180830381600087803b15801561279757600080fd5b505af11580156127ab573d6000803e3d6000fd5b505050506040513d601f19601f820116820180604052508101906127cf9190613ab0565b6004819055506004547f20d9f2861ba87fcdc90b5f0254ea9210c08b0aaf238de5b53049db100f4f6a5760405160405180910390a250565b60008567ffffffffffffffff81111561282357612822613430565b5b6040519080825280602002602001820160405280156128515781602001602082028036833780820191505090505b50905060008567ffffffffffffffff8111156128705761286f613430565b5b60405190808252806020026020018201604052801561289e5781602001602082028036833780820191505090505b50905060005b86886128b09190613e48565b81101561296f578781101561290a5760068482815181106128d4576128d3613997565b5b60200260200101516128e691906143a4565b8382815181106128f9576128f8613997565b5b60200260200101818152505061295c565b600684828151811061291f5761291e613997565b5b602002602001015161293191906143a4565b82898361293e91906143d5565b8151811061294f5761294e613997565b5b6020026020010181815250505b8080612967906139f5565b9150506128a4565b5061297982612ffc565b61298281612ffc565b60005b82518110156129a1578080612999906139f5565b915050612985565b5060005b81518110156129c15780806129b9906139f5565b9150506129a5565b506000868811156129d4578690506129d8565b8790505b60005b81811015612f0d578281815181106129f6576129f5613997565b5b6020026020010151848281518110612a1157612a10613997565b5b60200260200101511115612e6c57600360009054906101000a900473ffffffffffffffffffffffffffffffffffffffff1673ffffffffffffffffffffffffffffffffffffffff1663d86819d7876040518263ffffffff1660e01b8152600401612a7a91906133a9565b600060405180830381600087803b158015612a9457600080fd5b505af1158015612aa8573d6000803e3d6000fd5b505050506000600360009054906101000a900473ffffffffffffffffffffffffffffffffffffffff1673ffffffffffffffffffffffffffffffffffffffff1663d2885910886040518263ffffffff1660e01b8152600401612b0991906133a9565b60206040518083038186803b158015612b2157600080fd5b505afa158015612b35573d6000803e3d6000fd5b505050506040513d601f19601f82011682018060405250810190612b599190613ab0565b1415612e6757600360009054906101000a900473ffffffffffffffffffffffffffffffffffffffff1673ffffffffffffffffffffffffffffffffffffffff1663b66831e287600560019054906101000a900460ff166040518363ffffffff1660e01b8152600401612bcb929190614409565b600060405180830381600087803b158015612be557600080fd5b505af1158015612bf9573d6000803e3d6000fd5b50505050600360009054906101000a900473ffffffffffffffffffffffffffffffffffffffff1673ffffffffffffffffffffffffffffffffffffffff1663d86819d7886040518263ffffffff1660e01b8152600401612c5891906133a9565b600060405180830381600087803b158015612c7257600080fd5b505af1158015612c86573d6000803e3d6000fd5b50505050600360009054906101000a900473ffffffffffffffffffffffffffffffffffffffff1673ffffffffffffffffffffffffffffffffffffffff1663a3f09a93876040518263ffffffff1660e01b8152600401612ce591906133a9565b600060405180830381600087803b158015612cff57600080fd5b505af1158015612d13573d6000803e3d6000fd5b505050506001600860006101000a81548160ff0219169083151502179055506000600360009054906101000a900473ffffffffffffffffffffffffffffffffffffffff1673ffffffffffffffffffffffffffffffffffffffff16634423b787886040518263ffffffff1660e01b8152600401612d8f91906133a9565b602060405180830381600087803b158015612da957600080fd5b505af1158015612dbd573d6000803e3d6000fd5b505050506040513d601f19601f82011682018060405250810190612de191906138ed565b60ff1690506000612df18261195e565b1415612e0157612e008161310a565b5b60016006805490501415612e3757612e17611368565b6001600860016101000a81548160ff021916908315150217905550612e65565b867f91c9edc9b039d5f7fae48dcc2f589f5e1f79055249eaca570a445d00692b14ee60405160405180910390a25b505b612efa565b600360009054906101000a900473ffffffffffffffffffffffffffffffffffffffff1673ffffffffffffffffffffffffffffffffffffffff1663d86819d7886040518263ffffffff1660e01b8152600401612ec791906133a9565b600060405180830381600087803b158015612ee157600080fd5b505af1158015612ef5573d6000803e3d6000fd5b505050505b8080612f05906139f5565b9150506129db565b505050505050505050565b600080600360009054906101000a900473ffffffffffffffffffffffffffffffffffffffff1673ffffffffffffffffffffffffffffffffffffffff16634423b787846040518263ffffffff1660e01b8152600401612f7691906138bd565b602060405180830381600087803b158015612f9057600080fd5b505af1158015612fa4573d6000803e3d6000fd5b505050506040513d601f19601f82011682018060405250810190612fc891906138ed565b9050600560019054906101000a900460ff1660ff168160ff161415612ff1576001915050612ff7565b60009150505b919050565b6000806000600192505b83518310156131045783838151811061302257613021613997565b5b6020026020010151915060018361303991906143d5565b90505b6000811215801561306657508184828151811061305c5761305b613997565b5b6020026020010151105b156130c55783818151811061307e5761307d613997565b5b602002602001015184600183613094919061443c565b815181106130a5576130a4613997565b5b6020026020010181815250506001816130be91906144d0565b905061303c565b81846001836130d4919061443c565b815181106130e5576130e4613997565b5b60200260200101818152505082806130fc906139f5565b935050613006565b50505050565b6006818154811061311e5761311d613997565b5b9060005260206000200160006101000a81549073ffffffffffffffffffffffffffffffffffffffff021916905550565b8280548282559060005260206000209081019282156131c7579160200282015b828111156131c65782518260006101000a81548173ffffffffffffffffffffffffffffffffffffffff021916908373ffffffffffffffffffffffffffffffffffffffff1602179055509160200191906001019061316e565b5b5090506131d49190613225565b5090565b828054828255906000526020600020908101928215613214579160200282015b828111156132135782518255916020019190600101906131f8565b5b5090506132219190613225565b5090565b5b8082111561323e576000816000905550600101613226565b5090565b6000604051905090565b600080fd5b600080fd5b600060ff82169050919050565b61326c81613256565b811461327757600080fd5b50565b60008135905061328981613263565b92915050565b600080604083850312156132a6576132a561324c565b5b60006132b48582860161327a565b92505060206132c58582860161327a565b9150509250929050565b60008115159050919050565b6132e4816132cf565b82525050565b60006020820190506132ff60008301846132db565b92915050565b600073ffffffffffffffffffffffffffffffffffffffff82169050919050565b600061333082613305565b9050919050565b61334081613325565b811461334b57600080fd5b50565b60008135905061335d81613337565b92915050565b6000602082840312156133795761337861324c565b5b60006133878482850161334e565b91505092915050565b6000819050919050565b6133a381613390565b82525050565b60006020820190506133be600083018461339a565b92915050565b6133cd81613256565b82525050565b60006020820190506133e860008301846133c4565b92915050565b6133f781613390565b811461340257600080fd5b50565b600081359050613414816133ee565b92915050565b600080fd5b6000601f19601f8301169050919050565b7f4e487b7100000000000000000000000000000000000000000000000000000000600052604160045260246000fd5b6134688261341f565b810181811067ffffffffffffffff8211171561348757613486613430565b5b80604052505050565b600061349a613242565b90506134a6828261345f565b919050565b600067ffffffffffffffff8211156134c6576134c5613430565b5b602082029050602081019050919050565b600080fd5b60006134ef6134ea846134ab565b613490565b90508083825260208201905060208402830185811115613512576135116134d7565b5b835b8181101561353b57806135278882613405565b845260208401935050602081019050613514565b5050509392505050565b600082601f83011261355a5761355961341a565b5b813561356a8482602086016134dc565b91505092915050565b6000806040838503121561358a5761358961324c565b5b600061359885828601613405565b925050602083013567ffffffffffffffff8111156135b9576135b8613251565b5b6135c585828601613545565b9150509250929050565b6000806000606084860312156135e8576135e761324c565b5b60006135f68682870161327a565b93505060206136078682870161327a565b925050604061361886828701613405565b9150509250925092565b61362b81613325565b82525050565b60006020820190506136466000830184613622565b92915050565b6000602082840312156136625761366161324c565b5b600061367084828501613405565b91505092915050565b7f4e487b7100000000000000000000000000000000000000000000000000000000600052602160045260246000fd5b600281106136b9576136b8613679565b5b50565b60008190506136ca826136a8565b919050565b60006136da826136bc565b9050919050565b6136ea816136cf565b82525050565b600060208201905061370560008301846136e1565b92915050565b6000602082840312156137215761372061324c565b5b600061372f8482850161327a565b91505092915050565b600067ffffffffffffffff82111561375357613752613430565b5b602082029050602081019050919050565b600061376f82613305565b9050919050565b61377f81613764565b811461378a57600080fd5b50565b60008135905061379c81613776565b92915050565b60006137b56137b084613738565b613490565b905080838252602082019050602084028301858111156137d8576137d76134d7565b5b835b8181101561380157806137ed888261378d565b8452602084019350506020810190506137da565b5050509392505050565b600082601f8301126138205761381f61341a565b5b81356138308482602086016137a2565b91505092915050565b60006020828403121561384f5761384e61324c565b5b600082013567ffffffffffffffff81111561386d5761386c613251565b5b6138798482850161380b565b91505092915050565b6000819050919050565b60006138a76138a261389d84613256565b613882565b613390565b9050919050565b6138b78161388c565b82525050565b60006020820190506138d260008301846138ae565b92915050565b6000815190506138e781613263565b92915050565b6000602082840312156139035761390261324c565b5b6000613911848285016138d8565b91505092915050565b600082825260208201905092915050565b7f596f7520646f206e6f74206f776e2074686973207465727269746f7279000000600082015250565b6000613961601d8361391a565b915061396c8261392b565b602082019050919050565b6000602082019050818103600083015261399081613954565b9050919050565b7f4e487b7100000000000000000000000000000000000000000000000000000000600052603260045260246000fd5b7f4e487b7100000000000000000000000000000000000000000000000000000000600052601160045260246000fd5b6000613a0082613390565b91507fffffffffffffffffffffffffffffffffffffffffffffffffffffffffffffffff821415613a3357613a326139c6565b5b600182019050919050565b6000613a4982613256565b9150613a5483613256565b925082821015613a6757613a666139c6565b5b828203905092915050565b6000604082019050613a876000830185613622565b613a946020830184613622565b9392505050565b600081519050613aaa816133ee565b92915050565b600060208284031215613ac657613ac561324c565b5b6000613ad484828501613a9b565b91505092915050565b7f596f752063616e6e6f74206d6f7665207468617420616d6f756e74206f66207460008201527f726f6f7073210000000000000000000000000000000000000000000000000000602082015250565b6000613b3960268361391a565b9150613b4482613add565b604082019050919050565b60006020820190508181036000830152613b6881613b2c565b9050919050565b7f5465727269746f727920796f752061726520747279696e67206d6f766520747260008201527f6f6f707320746f206973206e6f74206f6e65206f6620796f7572206e6569676860208201527f626f757273210000000000000000000000000000000000000000000000000000604082015250565b6000613bf160468361391a565b9150613bfc82613b6f565b606082019050919050565b60006020820190508181036000830152613c2081613be4565b9050919050565b600081519050919050565b600081905092915050565b60005b83811015613c5b578082015181840152602081019050613c40565b83811115613c6a576000848401525b50505050565b6000613c7b82613c27565b613c858185613c32565b9350613c95818560208601613c3d565b80840191505092915050565b6000613cad8284613c70565b915081905092915050565b7f63616c6c20746f206d61696e206661696c656400000000000000000000000000600082015250565b6000613cee60138361391a565b9150613cf982613cb8565b602082019050919050565b60006020820190508181036000830152613d1d81613ce1565b9050919050565b7f5465727269746f727920796f752061726520747279696e6720746f206174746160008201527f636b206973206e6f742061206e65696768626f75722100000000000000000000602082015250565b6000613d8060368361391a565b9150613d8b82613d24565b604082019050919050565b60006020820190508181036000830152613daf81613d73565b9050919050565b7f596f752063616e6e6f742061747461636b20776974682074686174206d616e7960008201527f2074726f6f707321000000000000000000000000000000000000000000000000602082015250565b6000613e1260288361391a565b9150613e1d82613db6565b604082019050919050565b60006020820190508181036000830152613e4181613e05565b9050919050565b6000613e5382613390565b9150613e5e83613390565b9250827fffffffffffffffffffffffffffffffffffffffffffffffffffffffffffffffff03821115613e9357613e926139c6565b5b828201905092915050565b7f596f75206d7573742068617665206d6f7265207468616e20312074726f6f702060008201527f746f206d6f766521000000000000000000000000000000000000000000000000602082015250565b6000613efa60288361391a565b9150613f0582613e9e565b604082019050919050565b60006020820190508181036000830152613f2981613eed565b9050919050565b7f596f75206d757374206f776e20626f7468207465727269746f7269657320746f60008201527f206d6f76652074726f6f70732100000000000000000000000000000000000000602082015250565b6000613f8c602d8361391a565b9150613f9782613f30565b604082019050919050565b60006020820190508181036000830152613fbb81613f7f565b9050919050565b600067ffffffffffffffff821115613fdd57613fdc613430565b5b602082029050602081019050919050565b6000614001613ffc84613fc2565b613490565b90508083825260208201905060208402830185811115614024576140236134d7565b5b835b8181101561404d578061403988826138d8565b845260208401935050602081019050614026565b5050509392505050565b600082601f83011261406c5761406b61341a565b5b815161407c848260208601613fee565b91505092915050565b60006020828403121561409b5761409a61324c565b5b600082015167ffffffffffffffff8111156140b9576140b8613251565b5b6140c584828501614057565b91505092915050565b60006140d982613256565b915060ff8214156140ed576140ec6139c6565b5b600182019050919050565b600061410382613256565b915061410e83613256565b92508260ff03821115614124576141236139c6565b5b828201905092915050565b7f4e487b7100000000000000000000000000000000000000000000000000000000600052601260045260246000fd5b600061416982613256565b915061417483613256565b9250826141845761418361412f565b5b828204905092915050565b7f596f75206d7573742068617665206174206c6561737420312074726f6f70207260008201527f656d61696e696e6720696e20796f7572207465727269746f727920746f20617460208201527f7461636b21000000000000000000000000000000000000000000000000000000604082015250565b600061421160458361391a565b915061421c8261418f565b606082019050919050565b6000602082019050818103600083015261424081614204565b9050919050565b7f596f752063616e6e6f742061747461636b20796f7572206f776e20746572726960008201527f746f727921000000000000000000000000000000000000000000000000000000602082015250565b60006142a360258361391a565b91506142ae82614247565b604082019050919050565b600060208201905081810360008301526142d281614296565b9050919050565b6000819050919050565b6142ec816142d9565b82525050565b600067ffffffffffffffff82169050919050565b61430f816142f2565b82525050565b600061ffff82169050919050565b61432c81614315565b82525050565b600063ffffffff82169050919050565b61434b81614332565b82525050565b600060a08201905061436660008301886142e3565b6143736020830187614306565b6143806040830186614323565b61438d6060830185614342565b61439a6080830184614342565b9695505050505050565b60006143af82613390565b91506143ba83613390565b9250826143ca576143c961412f565b5b828206905092915050565b60006143e082613390565b91506143eb83613390565b9250828210156143fe576143fd6139c6565b5b828203905092915050565b600060408201905061441e600083018561339a565b61442b60208301846133c4565b9392505050565b6000819050919050565b600061444782614432565b915061445283614432565b9250817f7fffffffffffffffffffffffffffffffffffffffffffffffffffffffffffffff0383136000831215161561448d5761448c6139c6565b5b817f80000000000000000000000000000000000000000000000000000000000000000383126000831216156144c5576144c46139c6565b5b828201905092915050565b60006144db82614432565b91506144e683614432565b9250827f800000000000000000000000000000000000000000000000000000000000000001821260008412151615614521576145206139c6565b5b827f7fffffffffffffffffffffffffffffffffffffffffffffffffffffffffffffff018213600084121615614559576145586139c6565b5b82820390509291505056fea26469706673582212208a105599c7cc5501e87b638040eb9d48249f3631b01279b1f9c1321d97f3d85b64736f6c63430008080033",
  "devdoc": {
    "kind": "dev",
    "methods": {},
    "version": 1
  },
  "userdoc": {
    "kind": "user",
    "methods": {},
    "version": 1
  },
  "storageLayout": {
    "storage": [
      {
        "astId": 279,
        "contract": "contracts/Controls.sol:Controls",
        "label": "s_recentAttackingArmies",
        "offset": 0,
        "slot": "0",
        "type": "t_uint256"
      },
      {
        "astId": 281,
        "contract": "contracts/Controls.sol:Controls",
        "label": "s_recentDefendingArmies",
        "offset": 0,
        "slot": "1",
        "type": "t_uint256"
      },
      {
        "astId": 283,
        "contract": "contracts/Controls.sol:Controls",
        "label": "s_recentTerritoryAttacking",
        "offset": 0,
        "slot": "2",
        "type": "t_uint8"
      },
      {
        "astId": 285,
        "contract": "contracts/Controls.sol:Controls",
        "label": "s_recentTerritoryBeingAttacked",
        "offset": 1,
        "slot": "2",
        "type": "t_uint8"
      },
      {
        "astId": 287,
        "contract": "contracts/Controls.sol:Controls",
        "label": "main_address",
        "offset": 2,
        "slot": "2",
        "type": "t_address"
      },
      {
        "astId": 289,
        "contract": "contracts/Controls.sol:Controls",
        "label": "data_address",
        "offset": 0,
        "slot": "3",
        "type": "t_address"
      },
      {
        "astId": 292,
        "contract": "contracts/Controls.sol:Controls",
        "label": "s_mainSet",
        "offset": 20,
        "slot": "3",
        "type": "t_enum(mainAddressSent)265"
      },
      {
        "astId": 294,
        "contract": "contracts/Controls.sol:Controls",
        "label": "s_requestId",
        "offset": 0,
        "slot": "4",
        "type": "t_uint256"
      },
      {
        "astId": 296,
        "contract": "contracts/Controls.sol:Controls",
        "label": "s_troopsToDeploy",
        "offset": 0,
        "slot": "5",
        "type": "t_uint8"
      },
      {
        "astId": 298,
        "contract": "contracts/Controls.sol:Controls",
        "label": "s_playerTurn",
        "offset": 1,
        "slot": "5",
        "type": "t_uint8"
      },
      {
        "astId": 301,
        "contract": "contracts/Controls.sol:Controls",
        "label": "s_playersArray",
        "offset": 0,
        "slot": "6",
        "type": "t_array(t_address_payable)dyn_storage"
      },
      {
        "astId": 304,
        "contract": "contracts/Controls.sol:Controls",
        "label": "s_diceWords",
        "offset": 0,
        "slot": "7",
        "type": "t_array(t_uint256)dyn_storage"
      },
      {
        "astId": 306,
        "contract": "contracts/Controls.sol:Controls",
        "label": "s_attackSuccess",
        "offset": 0,
        "slot": "8",
        "type": "t_bool"
      },
      {
        "astId": 308,
        "contract": "contracts/Controls.sol:Controls",
        "label": "s_gameIsOver",
        "offset": 1,
        "slot": "8",
        "type": "t_bool"
      }
    ],
    "types": {
      "t_address": {
        "encoding": "inplace",
        "label": "address",
        "numberOfBytes": "20"
      },
      "t_address_payable": {
        "encoding": "inplace",
        "label": "address payable",
        "numberOfBytes": "20"
      },
      "t_array(t_address_payable)dyn_storage": {
        "base": "t_address_payable",
        "encoding": "dynamic_array",
        "label": "address payable[]",
        "numberOfBytes": "32"
      },
      "t_array(t_uint256)dyn_storage": {
        "base": "t_uint256",
        "encoding": "dynamic_array",
        "label": "uint256[]",
        "numberOfBytes": "32"
      },
      "t_bool": {
        "encoding": "inplace",
        "label": "bool",
        "numberOfBytes": "1"
      },
      "t_enum(mainAddressSent)265": {
        "encoding": "inplace",
        "label": "enum Controls.mainAddressSent",
        "numberOfBytes": "1"
      },
      "t_uint256": {
        "encoding": "inplace",
        "label": "uint256",
        "numberOfBytes": "32"
      },
      "t_uint8": {
        "encoding": "inplace",
        "label": "uint8",
        "numberOfBytes": "1"
      }
    }
  }
}