{
  "address": "0x73DE4A83f9fdE3D8e1268F4183129b20cDBD2f51",
  "abi": [
    {
      "inputs": [],
      "stateMutability": "nonpayable",
      "type": "constructor"
    },
    {
      "anonymous": false,
      "inputs": [
        {
          "indexed": true,
          "internalType": "address",
          "name": "controls",
          "type": "address"
        }
      ],
      "name": "ReceivedControls",
      "type": "event"
    },
    {
      "inputs": [
        {
          "internalType": "uint256",
          "name": "index",
          "type": "uint256"
        }
      ],
      "name": "addTroopToTerritory",
      "outputs": [],
      "stateMutability": "nonpayable",
      "type": "function"
    },
    {
      "inputs": [
        {
          "internalType": "uint256",
          "name": "territory",
          "type": "uint256"
        },
        {
          "internalType": "uint8",
          "name": "newOwner",
          "type": "uint8"
        }
      ],
      "name": "changeOwner",
      "outputs": [],
      "stateMutability": "nonpayable",
      "type": "function"
    },
    {
      "inputs": [],
      "name": "getAllTerritories",
      "outputs": [
        {
          "components": [
            {
              "internalType": "uint8",
              "name": "owner",
              "type": "uint8"
            },
            {
              "internalType": "uint16",
              "name": "troops",
              "type": "uint16"
            }
          ],
          "internalType": "struct Data.Territory_Info[42]",
          "name": "",
          "type": "tuple[42]"
        }
      ],
      "stateMutability": "view",
      "type": "function"
    },
    {
      "inputs": [
        {
          "internalType": "uint256",
          "name": "continent",
          "type": "uint256"
        }
      ],
      "name": "getContinentBonus",
      "outputs": [
        {
          "internalType": "uint8",
          "name": "",
          "type": "uint8"
        }
      ],
      "stateMutability": "view",
      "type": "function"
    },
    {
      "inputs": [],
      "name": "getContinentInfo",
      "outputs": [
        {
          "components": [
            {
              "internalType": "uint8",
              "name": "owner",
              "type": "uint8"
            },
            {
              "internalType": "uint8",
              "name": "troopBonus",
              "type": "uint8"
            }
          ],
          "internalType": "struct Data.Continent_Info[6]",
          "name": "",
          "type": "tuple[6]"
        }
      ],
      "stateMutability": "view",
      "type": "function"
    },
    {
      "inputs": [
        {
          "internalType": "uint256",
          "name": "continent",
          "type": "uint256"
        }
      ],
      "name": "getContinentOwner",
      "outputs": [
        {
          "internalType": "uint8",
          "name": "",
          "type": "uint8"
        }
      ],
      "stateMutability": "view",
      "type": "function"
    },
    {
      "inputs": [
        {
          "internalType": "uint256",
          "name": "territory",
          "type": "uint256"
        }
      ],
      "name": "getNeighbours",
      "outputs": [
        {
          "internalType": "uint8[]",
          "name": "",
          "type": "uint8[]"
        }
      ],
      "stateMutability": "view",
      "type": "function"
    },
    {
      "inputs": [
        {
          "internalType": "uint256",
          "name": "territoryId",
          "type": "uint256"
        }
      ],
      "name": "getTerritories",
      "outputs": [
        {
          "components": [
            {
              "internalType": "uint8",
              "name": "owner",
              "type": "uint8"
            },
            {
              "internalType": "uint16",
              "name": "troops",
              "type": "uint16"
            }
          ],
          "internalType": "struct Data.Territory_Info",
          "name": "",
          "type": "tuple"
        }
      ],
      "stateMutability": "view",
      "type": "function"
    },
    {
      "inputs": [
        {
          "internalType": "uint256",
          "name": "j",
          "type": "uint256"
        }
      ],
      "name": "getTerritoryOwner",
      "outputs": [
        {
          "internalType": "uint8",
          "name": "owner",
          "type": "uint8"
        }
      ],
      "stateMutability": "view",
      "type": "function"
    },
    {
      "inputs": [
        {
          "internalType": "uint256",
          "name": "territory",
          "type": "uint256"
        }
      ],
      "name": "getTroopCount",
      "outputs": [
        {
          "internalType": "uint256",
          "name": "",
          "type": "uint256"
        }
      ],
      "stateMutability": "view",
      "type": "function"
    },
    {
      "inputs": [],
      "name": "initializeContinents",
      "outputs": [],
      "stateMutability": "nonpayable",
      "type": "function"
    },
    {
      "inputs": [
        {
          "internalType": "uint8[]",
          "name": "array_of_territories",
          "type": "uint8[]"
        }
      ],
      "name": "pushToTerritories",
      "outputs": [],
      "stateMutability": "nonpayable",
      "type": "function"
    },
    {
      "inputs": [
        {
          "internalType": "uint256",
          "name": "index",
          "type": "uint256"
        }
      ],
      "name": "removeTroopFromTerritory",
      "outputs": [],
      "stateMutability": "nonpayable",
      "type": "function"
    },
    {
      "inputs": [],
      "name": "resetData",
      "outputs": [],
      "stateMutability": "nonpayable",
      "type": "function"
    },
    {
      "inputs": [
        {
          "internalType": "uint256",
          "name": "",
          "type": "uint256"
        }
      ],
      "name": "s_continents",
      "outputs": [
        {
          "internalType": "uint8",
          "name": "owner",
          "type": "uint8"
        },
        {
          "internalType": "uint8",
          "name": "troopBonus",
          "type": "uint8"
        }
      ],
      "stateMutability": "view",
      "type": "function"
    },
    {
      "inputs": [],
      "name": "s_controlsSet",
      "outputs": [
        {
          "internalType": "enum Data.controlsAddressSent",
          "name": "",
          "type": "uint8"
        }
      ],
      "stateMutability": "view",
      "type": "function"
    },
    {
      "inputs": [
        {
          "internalType": "uint256",
          "name": "",
          "type": "uint256"
        },
        {
          "internalType": "uint256",
          "name": "",
          "type": "uint256"
        }
      ],
      "name": "s_neighbours",
      "outputs": [
        {
          "internalType": "uint8",
          "name": "",
          "type": "uint8"
        }
      ],
      "stateMutability": "view",
      "type": "function"
    },
    {
      "inputs": [
        {
          "internalType": "uint256",
          "name": "",
          "type": "uint256"
        }
      ],
      "name": "s_territories",
      "outputs": [
        {
          "internalType": "uint8",
          "name": "owner",
          "type": "uint8"
        },
        {
          "internalType": "uint16",
          "name": "troops",
          "type": "uint16"
        }
      ],
      "stateMutability": "view",
      "type": "function"
    },
    {
      "inputs": [
        {
          "internalType": "address",
          "name": "controls",
          "type": "address"
        }
      ],
      "name": "setControlsAddress",
      "outputs": [],
      "stateMutability": "nonpayable",
      "type": "function"
    },
    {
      "inputs": [],
      "name": "updateContinents",
      "outputs": [],
      "stateMutability": "nonpayable",
      "type": "function"
    }
  ],
  "transactionHash": "0x31ce947a422080a8d4f9e473fffe844c793aa423103f00eb42176701c490dafe",
  "args": [],
  "numDeployments": 3,
  "solcInputHash": "c2d7274a1aa0c82ab0fa9648e1494938",
  "bytecode": "0x60806040526040518061054001604052806040518060c00160405280600160ff168152602001600360ff168152602001601d60ff168152602001606360ff168152602001606360ff168152602001606360ff1681525081526020016040518060c00160405280600060ff168152602001600360ff168152602001600460ff168152602001600260ff168152602001606360ff168152602001606360ff1681525081526020016040518060c00160405280600160ff168152602001600460ff168152602001600560ff168152602001600d60ff168152602001606360ff168152602001606360ff1681525081526020016040518060c00160405280600060ff168152602001600160ff168152602001600460ff168152602001600660ff168152602001606360ff168152602001606360ff1681525081526020016040518060c00160405280600160ff168152602001600260ff168152602001600360ff168152602001600560ff168152602001600660ff168152602001600760ff1681525081526020016040518060c00160405280600260ff168152602001600460ff168152602001600760ff168152602001606360ff168152602001606360ff168152602001606360ff1681525081526020016040518060c00160405280600360ff168152602001600460ff168152602001600760ff168152602001600860ff168152602001606360ff168152602001606360ff1681525081526020016040518060c00160405280600460ff168152602001600560ff168152602001600660ff168152602001600860ff168152602001606360ff168152602001606360ff1681525081526020016040518060c00160405280600660ff168152602001600760ff168152602001600960ff168152602001606360ff168152602001606360ff168152602001606360ff1681525081526020016040518060c00160405280600860ff168152602001600a60ff168152602001600b60ff168152602001606360ff168152602001606360ff168152602001606360ff1681525081526020016040518060c00160405280600960ff168152602001600b60ff168152602001600c60ff168152602001606360ff168152602001606360ff168152602001606360ff1681525081526020016040518060c00160405280600960ff168152602001600a60ff168152602001600c60ff168152602001601460ff168152602001606360ff168152602001606360ff1681525081526020016040518060c00160405280600a60ff168152602001600b60ff168152602001606360ff168152602001606360ff168152602001606360ff168152602001606360ff1681525081526020016040518060c00160405280600260ff168152602001600e60ff168152602001600f60ff168152602001606360ff168152602001606360ff168152602001606360ff1681525081526020016040518060c00160405280600d60ff168152602001600f60ff168152602001601060ff168152602001601160ff168152602001606360ff168152602001606360ff1681525081526020016040518060c00160405280600d60ff168152602001600e60ff168152602001601060ff168152602001601260ff168152602001606360ff168152602001606360ff1681525081526020016040518060c00160405280600e60ff168152602001600f60ff168152602001601160ff168152602001601260ff168152602001601360ff168152602001606360ff1681525081526020016040518060c00160405280600e60ff168152602001601060ff168152602001601360ff168152602001601a60ff168152602001602160ff168152602001602360ff1681525081526020016040518060c00160405280600f60ff168152602001601060ff168152602001601360ff168152602001601460ff168152602001606360ff168152602001606360ff1681525081526020016040518060c00160405280601060ff168152602001601160ff168152602001601260ff168152602001601460ff168152602001601560ff168152602001602360ff1681525081526020016040518060c00160405280600b60ff168152602001601260ff168152602001601360ff168152602001601560ff168152602001601660ff168152602001601760ff1681525081526020016040518060c00160405280601360ff168152602001601460ff168152602001601760ff168152602001602360ff168152602001606360ff168152602001606360ff1681525081526020016040518060c00160405280601460ff168152602001601560ff168152602001601760ff168152602001601860ff168152602001606360ff168152602001606360ff1681525081526020016040518060c00160405280601460ff168152602001601560ff168152602001601660ff168152602001601860ff168152602001601960ff168152602001602360ff1681525081526020016040518060c00160405280601660ff168152602001601760ff168152602001601960ff168152602001606360ff168152602001606360ff168152602001606360ff1681525081526020016040518060c00160405280601760ff168152602001601860ff168152602001606360ff168152602001606360ff168152602001606360ff168152602001606360ff1681525081526020016040518060c00160405280601160ff168152602001601b60ff168152602001602160ff168152602001602260ff168152602001606360ff168152602001606360ff1681525081526020016040518060c00160405280601a60ff168152602001601c60ff168152602001601e60ff168152602001601f60ff168152602001602260ff168152602001606360ff1681525081526020016040518060c00160405280601b60ff168152602001601e60ff168152602001601d60ff168152602001606360ff168152602001606360ff168152602001606360ff1681525081526020016040518060c00160405280601c60ff168152602001601e60ff168152602001601f60ff168152602001602060ff168152602001600060ff168152602001606360ff1681525081526020016040518060c00160405280601b60ff168152602001601c60ff168152602001601d60ff168152602001601f60ff168152602001606360ff168152602001606360ff1681525081526020016040518060c00160405280601d60ff168152602001601e60ff168152602001601b60ff168152602001602260ff168152602001602060ff168152602001606360ff1681525081526020016040518060c00160405280601d60ff168152602001601f60ff168152602001606360ff168152602001606360ff168152602001606360ff168152602001606360ff1681525081526020016040518060c00160405280601160ff168152602001601a60ff168152602001602260ff168152602001602460ff168152602001602360ff168152602001606360ff1681525081526020016040518060c00160405280601f60ff168152602001601b60ff168152602001601a60ff168152602001602160ff168152602001602460ff168152602001602560ff1681525081526020016040518060c00160405280601360ff168152602001601160ff168152602001602160ff168152602001602460ff168152602001601760ff168152602001601560ff1681525081526020016040518060c00160405280602360ff168152602001602160ff168152602001602260ff168152602001602560ff168152602001606360ff168152602001606360ff1681525081526020016040518060c00160405280602260ff168152602001602460ff168152602001602660ff168152602001606360ff168152602001606360ff168152602001606360ff1681525081526020016040518060c00160405280602560ff168152602001602760ff168152602001602860ff168152602001606360ff168152602001606360ff168152602001606360ff1681525081526020016040518060c00160405280602660ff168152602001602960ff168152602001602c60ff168152602001606360ff168152602001606360ff168152602001606360ff1681525081526020016040518060c00160405280602660ff168152602001602760ff168152602001602960ff168152602001606360ff168152602001606360ff168152602001606360ff1681525081526020016040518060c00160405280602860ff168152602001602760ff168152602001606360ff168152602001606360ff168152602001606360ff168152602001606360ff16815250815250603190602a62000c4492919062000c87565b5034801562000c5257600080fd5b506001603060146101000a81548160ff0219169083600181111562000c7c5762000c7b62000e08565b5b021790555062000e37565b82805482825590600052602060002090810192821562000cd6579160200282015b8281111562000cd55782518290600662000cc492919062000ce9565b509160200191906001019062000ca8565b5b50905062000ce5919062000d97565b5090565b82805482825590600052602060002090601f0160209004810192821562000d845791602002820160005b8382111562000d5357835183826101000a81548160ff021916908360ff160217905550926020019260010160208160000104928301926001030262000d13565b801562000d825782816101000a81549060ff021916905560010160208160000104928301926001030262000d53565b505b50905062000d93919062000dbf565b5090565b5b8082111562000dbb576000818162000db1919062000dde565b5060010162000d98565b5090565b5b8082111562000dda57600081600090555060010162000dc0565b5090565b50805460008255601f01602090049060005260206000209081019062000e05919062000dbf565b50565b7f4e487b7100000000000000000000000000000000000000000000000000000000600052602160045260246000fd5b611ab48062000e476000396000f3fe608060405234801561001057600080fd5b506004361061012b5760003560e01c80637cea559e116100ad578063b087699511610071578063b087699514610332578063b66831e21461034e578063c21c58f81461036a578063d28859101461039a578063d86819d7146103ca5761012b565b80637cea559e1461026757806389290109146102985780638d068884146102c8578063906b1871146102f8578063a3f09a93146103165761012b565b806343a964cf116100f457806343a964cf146101d45780634423b78714610205578063478c4e0e1461023557806353964cc01461023f57806364b6667d1461025d5761012b565b8062371dc5146101305780630452338e1461014e57806312b9d4231461017e5780631e8d6c3c1461019a5780633bee987f146101ca575b600080fd5b6101386103e6565b604051610145919061126f565b60405180910390f35b610168600480360381019061016391906112d5565b610472565b6040516101759190611311565b60405180910390f35b610198600480360381019061019391906114b1565b6104a0565b005b6101b460048036038101906101af91906112d5565b6105a6565b6040516101c19190611311565b60405180910390f35b6101d26105d4565b005b6101ee60048036038101906101e991906112d5565b61082d565b6040516101fc929190611509565b60405180910390f35b61021f600480360381019061021a91906112d5565b61086f565b60405161022c9190611311565b60405180910390f35b61023d61089e565b005b610247610908565b60405161025491906115a9565b60405180910390f35b61026561091b565b005b610281600480360381019061027c91906112d5565b6109cb565b60405161028f9291906115c4565b60405180910390f35b6102b260048036038101906102ad91906112d5565b610a0c565b6040516102bf919061169c565b60405180910390f35b6102e260048036038101906102dd91906112d5565b610b02565b6040516102ef91906116ed565b60405180910390f35b610300610b6e565b60405161030d91906117d3565b60405180910390f35b610330600480360381019061032b91906112d5565b610bf7565b005b61034c6004803603810190610347919061184d565b610ca0565b005b6103686004803603810190610363919061187a565b610d91565b005b610384600480360381019061037f91906118ba565b610e20565b6040516103919190611311565b60405180910390f35b6103b460048036038101906103af91906112d5565b610e6f565b6040516103c19190611909565b60405180910390f35b6103e460048036038101906103df91906112d5565b610ea3565b005b6103ee61107c565b6006602a80602002604051908101604052809291906000905b82821015610469578382016040518060400160405290816000820160009054906101000a900460ff1660ff1660ff1681526020016000820160019054906101000a900461ffff1661ffff1661ffff168152505081526020019060010190610407565b50505050905090565b600080826006811061048757610486611924565b5b0160000160009054906101000a900460ff169050919050565b603060009054906101000a900473ffffffffffffffffffffffffffffffffffffffff1673ffffffffffffffffffffffffffffffffffffffff163373ffffffffffffffffffffffffffffffffffffffff16146104fa57600080fd5b60005b602a8160ff1610156105a257818160ff168151811061051f5761051e611924565b5b602002602001015160068260ff16602a811061053e5761053d611924565b5b0160000160006101000a81548160ff021916908360ff160217905550600160068260ff16602a811061057357610572611924565b5b0160000160016101000a81548161ffff021916908361ffff1602179055508061059b90611982565b90506104fd565b5050565b60008082600681106105bb576105ba611924565b5b0160000160019054906101000a900460ff169050919050565b603060009054906101000a900473ffffffffffffffffffffffffffffffffffffffff1673ffffffffffffffffffffffffffffffffffffffff163373ffffffffffffffffffffffffffffffffffffffff161461062e57600080fd5b60005b60068160ff16101561082a57600460008260ff166006811061065657610655611924565b5b0160000160006101000a81548160ff021916908360ff16021790555060008160ff1614156106b857600560008260ff166006811061069757610696611924565b5b0160000160016101000a81548160ff021916908360ff160217905550610817565b60018160ff1614156106fe57600260008260ff16600681106106dd576106dc611924565b5b0160000160016101000a81548160ff021916908360ff160217905550610816565b60028160ff16141561074457600560008260ff166006811061072357610722611924565b5b0160000160016101000a81548160ff021916908360ff160217905550610815565b60038160ff16141561078a57600360008260ff166006811061076957610768611924565b5b0160000160016101000a81548160ff021916908360ff160217905550610814565b60048160ff1614156107d057600760008260ff16600681106107af576107ae611924565b5b0160000160016101000a81548160ff021916908360ff160217905550610813565b60058160ff16141561081257600260008260ff16600681106107f5576107f4611924565b5b0160000160016101000a81548160ff021916908360ff1602179055505b5b5b5b5b5b808061082290611982565b915050610631565b50565b600681602a811061083d57600080fd5b016000915090508060000160009054906101000a900460ff16908060000160019054906101000a900461ffff16905082565b6000600682602a811061088557610884611924565b5b0160000160009054906101000a900460ff169050919050565b603060009054906101000a900473ffffffffffffffffffffffffffffffffffffffff1673ffffffffffffffffffffffffffffffffffffffff163373ffffffffffffffffffffffffffffffffffffffff16146108f857600080fd5b6006600061090691906110aa565b565b603060149054906101000a900460ff1681565b603060009054906101000a900473ffffffffffffffffffffffffffffffffffffffff1673ffffffffffffffffffffffffffffffffffffffff163373ffffffffffffffffffffffffffffffffffffffff161461097557600080fd5b610983600060096000610f51565b6109916009600d6001610f51565b61099f600d60146002610f51565b6109ad6014601a6003610f51565b6109bb601a60266004610f51565b6109c96026602a6005610f51565b565b600081600681106109db57600080fd5b016000915090508060000160009054906101000a900460ff16908060000160019054906101000a900460ff16905082565b6060603060009054906101000a900473ffffffffffffffffffffffffffffffffffffffff1673ffffffffffffffffffffffffffffffffffffffff163373ffffffffffffffffffffffffffffffffffffffff1614610a6857600080fd5b60318281548110610a7c57610a7b611924565b5b90600052602060002001805480602002602001604051908101604052809291908181526020018280548015610af657602002820191906000526020600020906000905b82829054906101000a900460ff1660ff1681526020019060010190602082600001049283019260010382029150808411610abf5790505b50505050509050919050565b610b0a6110bd565b600682602a8110610b1e57610b1d611924565b5b016040518060400160405290816000820160009054906101000a900460ff1660ff1660ff1681526020016000820160019054906101000a900461ffff1661ffff1661ffff16815250509050919050565b610b766110de565b6000600680602002604051908101604052809291906000905b82821015610bee578382016040518060400160405290816000820160009054906101000a900460ff1660ff1660ff1681526020016000820160019054906101000a900460ff1660ff1660ff168152505081526020019060010190610b8f565b50505050905090565b603060009054906101000a900473ffffffffffffffffffffffffffffffffffffffff1673ffffffffffffffffffffffffffffffffffffffff163373ffffffffffffffffffffffffffffffffffffffff1614610c5157600080fd5b600681602a8110610c6557610c64611924565b5b01600001600181819054906101000a900461ffff16610c83906119ac565b91906101000a81548161ffff021916908361ffff16021790555050565b600180811115610cb357610cb2611532565b5b603060149054906101000a900460ff166001811115610cd557610cd4611532565b5b14610cdf57600080fd5b8073ffffffffffffffffffffffffffffffffffffffff167ff489abb24c0b02d87da58652d32937ca705601f4d9b20bf80d471f2a74d2c5a560405160405180910390a280603060006101000a81548173ffffffffffffffffffffffffffffffffffffffff021916908373ffffffffffffffffffffffffffffffffffffffff1602179055506000603060146101000a81548160ff02191690836001811115610d8957610d88611532565b5b021790555050565b603060009054906101000a900473ffffffffffffffffffffffffffffffffffffffff1673ffffffffffffffffffffffffffffffffffffffff163373ffffffffffffffffffffffffffffffffffffffff1614610deb57600080fd5b80600683602a8110610e0057610dff611924565b5b0160000160006101000a81548160ff021916908360ff1602179055505050565b60318281548110610e3057600080fd5b906000526020600020018181548110610e4857600080fd5b9060005260206000209060209182820401919006915091509054906101000a900460ff1681565b6000600682602a8110610e8557610e84611924565b5b0160000160019054906101000a900461ffff1661ffff169050919050565b603060009054906101000a900473ffffffffffffffffffffffffffffffffffffffff1673ffffffffffffffffffffffffffffffffffffffff163373ffffffffffffffffffffffffffffffffffffffff1614610efd57600080fd5b600681602a8110610f1157610f10611924565b5b01600001600181819054906101000a900461ffff1680929190610f33906119d7565b91906101000a81548161ffff021916908361ffff1602179055505050565b60008060008590505b8481101561107457600681602a8110610f7657610f75611924565b5b0160000160009054906101000a900460ff169250848114158015610fa057508160ff168360ff1614155b15610fdf57600460008560ff1660068110610fbe57610fbd611924565b5b0160000160006101000a81548160ff021916908360ff160217905550611074565b600185610fec9190611a01565b81148015610fff57508160ff168360ff16145b15611039578260008560ff166006811061101c5761101b611924565b5b0160000160006101000a81548160ff021916908360ff1602179055505b600681602a811061104d5761104c611924565b5b0160000160009054906101000a900460ff169150808061106c90611a35565b915050610f5a565b505050505050565b604051806105400160405280602a905b6110946110bd565b81526020019060019003908161108c5790505090565b5080602a01906110ba919061110b565b50565b6040518060400160405280600060ff168152602001600061ffff1681525090565b6040518060c001604052806006905b6110f561114b565b8152602001906001900390816110ed5790505090565b5b8082111561114757600080820160006101000a81549060ff02191690556000820160016101000a81549061ffff02191690555060010161110c565b5090565b6040518060400160405280600060ff168152602001600060ff1681525090565b6000602a9050919050565b600081905092915050565b6000819050919050565b600060ff82169050919050565b6111a18161118b565b82525050565b600061ffff82169050919050565b6111be816111a7565b82525050565b6040820160008201516111da6000850182611198565b5060208201516111ed60208501826111b5565b50505050565b60006111ff83836111c4565b60408301905092915050565b6000602082019050919050565b6112218161116b565b61122b8184611176565b925061123682611181565b8060005b8381101561126757815161124e87826111f3565b96506112598361120b565b92505060018101905061123a565b505050505050565b6000610a80820190506112856000830184611218565b92915050565b6000604051905090565b600080fd5b600080fd5b6000819050919050565b6112b28161129f565b81146112bd57600080fd5b50565b6000813590506112cf816112a9565b92915050565b6000602082840312156112eb576112ea611295565b5b60006112f9848285016112c0565b91505092915050565b61130b8161118b565b82525050565b60006020820190506113266000830184611302565b92915050565b600080fd5b6000601f19601f8301169050919050565b7f4e487b7100000000000000000000000000000000000000000000000000000000600052604160045260246000fd5b61137a82611331565b810181811067ffffffffffffffff8211171561139957611398611342565b5b80604052505050565b60006113ac61128b565b90506113b88282611371565b919050565b600067ffffffffffffffff8211156113d8576113d7611342565b5b602082029050602081019050919050565b600080fd5b6113f78161118b565b811461140257600080fd5b50565b600081359050611414816113ee565b92915050565b600061142d611428846113bd565b6113a2565b905080838252602082019050602084028301858111156114505761144f6113e9565b5b835b8181101561147957806114658882611405565b845260208401935050602081019050611452565b5050509392505050565b600082601f8301126114985761149761132c565b5b81356114a884826020860161141a565b91505092915050565b6000602082840312156114c7576114c6611295565b5b600082013567ffffffffffffffff8111156114e5576114e461129a565b5b6114f184828501611483565b91505092915050565b611503816111a7565b82525050565b600060408201905061151e6000830185611302565b61152b60208301846114fa565b9392505050565b7f4e487b7100000000000000000000000000000000000000000000000000000000600052602160045260246000fd5b6002811061157257611571611532565b5b50565b600081905061158382611561565b919050565b600061159382611575565b9050919050565b6115a381611588565b82525050565b60006020820190506115be600083018461159a565b92915050565b60006040820190506115d96000830185611302565b6115e66020830184611302565b9392505050565b600081519050919050565b600082825260208201905092915050565b6000819050602082019050919050565b60006116258383611198565b60208301905092915050565b6000602082019050919050565b6000611649826115ed565b61165381856115f8565b935061165e83611609565b8060005b8381101561168f5781516116768882611619565b975061168183611631565b925050600181019050611662565b5085935050505092915050565b600060208201905081810360008301526116b6818461163e565b905092915050565b6040820160008201516116d46000850182611198565b5060208201516116e760208501826111b5565b50505050565b600060408201905061170260008301846116be565b92915050565b600060069050919050565b600081905092915050565b6000819050919050565b60408201600082015161173e6000850182611198565b5060208201516117516020850182611198565b50505050565b60006117638383611728565b60408301905092915050565b6000602082019050919050565b61178581611708565b61178f8184611713565b925061179a8261171e565b8060005b838110156117cb5781516117b28782611757565b96506117bd8361176f565b92505060018101905061179e565b505050505050565b6000610180820190506117e9600083018461177c565b92915050565b600073ffffffffffffffffffffffffffffffffffffffff82169050919050565b600061181a826117ef565b9050919050565b61182a8161180f565b811461183557600080fd5b50565b60008135905061184781611821565b92915050565b60006020828403121561186357611862611295565b5b600061187184828501611838565b91505092915050565b6000806040838503121561189157611890611295565b5b600061189f858286016112c0565b92505060206118b085828601611405565b9150509250929050565b600080604083850312156118d1576118d0611295565b5b60006118df858286016112c0565b92505060206118f0858286016112c0565b9150509250929050565b6119038161129f565b82525050565b600060208201905061191e60008301846118fa565b92915050565b7f4e487b7100000000000000000000000000000000000000000000000000000000600052603260045260246000fd5b7f4e487b7100000000000000000000000000000000000000000000000000000000600052601160045260246000fd5b600061198d8261118b565b915060ff8214156119a1576119a0611953565b5b600182019050919050565b60006119b7826111a7565b915061ffff8214156119cc576119cb611953565b5b600182019050919050565b60006119e2826111a7565b915060008214156119f6576119f5611953565b5b600182039050919050565b6000611a0c8261129f565b9150611a178361129f565b925082821015611a2a57611a29611953565b5b828203905092915050565b6000611a408261129f565b91507fffffffffffffffffffffffffffffffffffffffffffffffffffffffffffffffff821415611a7357611a72611953565b5b60018201905091905056fea26469706673582212208a5b7c07c395301cede43c543f0066672ad260f097d00ac741d8c561420d152d64736f6c63430008080033",
  "devdoc": {
    "kind": "dev",
    "methods": {},
    "version": 1
  },
  "userdoc": {
    "kind": "user",
    "methods": {},
    "version": 1
  },
  "storageLayout": {
    "storage": [
      {
        "astId": 1806,
        "contract": "contracts/Data.sol:Data",
        "label": "s_continents",
        "offset": 0,
        "slot": "0",
        "type": "t_array(t_struct(Continent_Info)1793_storage)6_storage"
      },
      {
        "astId": 1811,
        "contract": "contracts/Data.sol:Data",
        "label": "s_territories",
        "offset": 0,
        "slot": "6",
        "type": "t_array(t_struct(Territory_Info)1798_storage)42_storage"
      },
      {
        "astId": 1814,
        "contract": "contracts/Data.sol:Data",
        "label": "controls_address",
        "offset": 0,
        "slot": "48",
        "type": "t_address"
      },
      {
        "astId": 1817,
        "contract": "contracts/Data.sol:Data",
        "label": "s_controlsSet",
        "offset": 20,
        "slot": "48",
        "type": "t_enum(controlsAddressSent)1801"
      },
      {
        "astId": 2116,
        "contract": "contracts/Data.sol:Data",
        "label": "s_neighbours",
        "offset": 0,
        "slot": "49",
        "type": "t_array(t_array(t_uint8)dyn_storage)dyn_storage"
      }
    ],
    "types": {
      "t_address": {
        "encoding": "inplace",
        "label": "address",
        "numberOfBytes": "20"
      },
      "t_array(t_array(t_uint8)dyn_storage)dyn_storage": {
        "base": "t_array(t_uint8)dyn_storage",
        "encoding": "dynamic_array",
        "label": "uint8[][]",
        "numberOfBytes": "32"
      },
      "t_array(t_struct(Continent_Info)1793_storage)6_storage": {
        "base": "t_struct(Continent_Info)1793_storage",
        "encoding": "inplace",
        "label": "struct Data.Continent_Info[6]",
        "numberOfBytes": "192"
      },
      "t_array(t_struct(Territory_Info)1798_storage)42_storage": {
        "base": "t_struct(Territory_Info)1798_storage",
        "encoding": "inplace",
        "label": "struct Data.Territory_Info[42]",
        "numberOfBytes": "1344"
      },
      "t_array(t_uint8)dyn_storage": {
        "base": "t_uint8",
        "encoding": "dynamic_array",
        "label": "uint8[]",
        "numberOfBytes": "32"
      },
      "t_enum(controlsAddressSent)1801": {
        "encoding": "inplace",
        "label": "enum Data.controlsAddressSent",
        "numberOfBytes": "1"
      },
      "t_struct(Continent_Info)1793_storage": {
        "encoding": "inplace",
        "label": "struct Data.Continent_Info",
        "members": [
          {
            "astId": 1790,
            "contract": "contracts/Data.sol:Data",
            "label": "owner",
            "offset": 0,
            "slot": "0",
            "type": "t_uint8"
          },
          {
            "astId": 1792,
            "contract": "contracts/Data.sol:Data",
            "label": "troopBonus",
            "offset": 1,
            "slot": "0",
            "type": "t_uint8"
          }
        ],
        "numberOfBytes": "32"
      },
      "t_struct(Territory_Info)1798_storage": {
        "encoding": "inplace",
        "label": "struct Data.Territory_Info",
        "members": [
          {
            "astId": 1795,
            "contract": "contracts/Data.sol:Data",
            "label": "owner",
            "offset": 0,
            "slot": "0",
            "type": "t_uint8"
          },
          {
            "astId": 1797,
            "contract": "contracts/Data.sol:Data",
            "label": "troops",
            "offset": 1,
            "slot": "0",
            "type": "t_uint16"
          }
        ],
        "numberOfBytes": "32"
      },
      "t_uint16": {
        "encoding": "inplace",
        "label": "uint16",
        "numberOfBytes": "2"
      },
      "t_uint8": {
        "encoding": "inplace",
        "label": "uint8",
        "numberOfBytes": "1"
      }
    }
  }
}