{
  "address": "0x011269054D297BCc6817d72ac82B0389ACD845f5",
  "abi": [
    {
      "inputs": [
        {
          "internalType": "address",
          "name": "vrfCoordinatorV2",
          "type": "address"
        },
        {
          "internalType": "uint64",
          "name": "subscriptionId",
          "type": "uint64"
        },
        {
          "internalType": "bytes32",
          "name": "gasLane",
          "type": "bytes32"
        },
        {
          "internalType": "uint256",
          "name": "entranceFee",
          "type": "uint256"
        },
        {
          "internalType": "uint32",
          "name": "callbackGasLimit",
          "type": "uint32"
        }
      ],
      "stateMutability": "nonpayable",
      "type": "constructor"
    },
    {
      "inputs": [
        {
          "internalType": "address",
          "name": "have",
          "type": "address"
        },
        {
          "internalType": "address",
          "name": "want",
          "type": "address"
        }
      ],
      "name": "OnlyCoordinatorCanFulfill",
      "type": "error"
    },
    {
      "anonymous": false,
      "inputs": [],
      "name": "GameStarting",
      "type": "event"
    },
    {
      "anonymous": false,
      "inputs": [
        {
          "indexed": true,
          "internalType": "address",
          "name": "player",
          "type": "address"
        }
      ],
      "name": "PlayerJoinedLobby",
      "type": "event"
    },
    {
      "anonymous": false,
      "inputs": [],
      "name": "ReceivedRandomWords",
      "type": "event"
    },
    {
      "anonymous": false,
      "inputs": [
        {
          "indexed": true,
          "internalType": "uint256",
          "name": "requestId",
          "type": "uint256"
        }
      ],
      "name": "RequestedRandomness",
      "type": "event"
    },
    {
      "anonymous": false,
      "inputs": [
        {
          "indexed": true,
          "internalType": "address",
          "name": "player",
          "type": "address"
        }
      ],
      "name": "WinnerPicked",
      "type": "event"
    },
    {
      "inputs": [],
      "name": "enterLobby",
      "outputs": [],
      "stateMutability": "payable",
      "type": "function"
    },
    {
      "inputs": [],
      "name": "getEntranceFee",
      "outputs": [
        {
          "internalType": "uint256",
          "name": "",
          "type": "uint256"
        }
      ],
      "stateMutability": "view",
      "type": "function"
    },
    {
      "inputs": [],
      "name": "getLastTimeStamp",
      "outputs": [
        {
          "internalType": "uint256",
          "name": "",
          "type": "uint256"
        }
      ],
      "stateMutability": "view",
      "type": "function"
    },
    {
      "inputs": [],
      "name": "getLobbyState",
      "outputs": [
        {
          "internalType": "enum Setup.LobbyState",
          "name": "",
          "type": "uint8"
        }
      ],
      "stateMutability": "view",
      "type": "function"
    },
    {
      "inputs": [],
      "name": "getNumberOfPlayers",
      "outputs": [
        {
          "internalType": "uint256",
          "name": "",
          "type": "uint256"
        }
      ],
      "stateMutability": "view",
      "type": "function"
    },
    {
      "inputs": [
        {
          "internalType": "uint256",
          "name": "index",
          "type": "uint256"
        }
      ],
      "name": "getPlayer",
      "outputs": [
        {
          "internalType": "address",
          "name": "",
          "type": "address"
        }
      ],
      "stateMutability": "view",
      "type": "function"
    },
    {
      "inputs": [],
      "name": "getRecentWinner",
      "outputs": [
        {
          "internalType": "address",
          "name": "",
          "type": "address"
        }
      ],
      "stateMutability": "view",
      "type": "function"
    },
    {
      "inputs": [],
      "name": "getRequestConfirmations",
      "outputs": [
        {
          "internalType": "uint256",
          "name": "",
          "type": "uint256"
        }
      ],
      "stateMutability": "pure",
      "type": "function"
    },
    {
      "inputs": [
        {
          "internalType": "uint256",
          "name": "territoryId",
          "type": "uint256"
        }
      ],
      "name": "getTerritories",
      "outputs": [
        {
          "components": [
            {
              "internalType": "uint256",
              "name": "owner",
              "type": "uint256"
            },
            {
              "internalType": "uint256",
              "name": "troops",
              "type": "uint256"
            }
          ],
          "internalType": "struct Setup.Territory_Info",
          "name": "",
          "type": "tuple"
        }
      ],
      "stateMutability": "view",
      "type": "function"
    },
    {
      "inputs": [],
      "name": "getTerritoryState",
      "outputs": [
        {
          "internalType": "enum Setup.TerritoryState",
          "name": "",
          "type": "uint8"
        }
      ],
      "stateMutability": "view",
      "type": "function"
    },
    {
      "inputs": [
        {
          "internalType": "uint256",
          "name": "requestId",
          "type": "uint256"
        },
        {
          "internalType": "uint256[]",
          "name": "randomWords",
          "type": "uint256[]"
        }
      ],
      "name": "rawFulfillRandomWords",
      "outputs": [],
      "stateMutability": "nonpayable",
      "type": "function"
    }
  ],
  "transactionHash": "0xd63de72b90dd406a79c8daa09cdfd10695c7e5b815c3e7320e8ef08d7d993fba",
  "args": [
    "0x2Ca8E0C643bDe4C2E08ab1fA0da3401AdAD7734D",
    "100000000000000000",
    "0x79d3d8832d904592c0bf9818b621522c988bb8b0c05cdc3b15aea1b6e8db0c15",
    "6052",
    "500000"
  ],
  "numDeployments": 1,
  "solcInputHash": "95baa44af338531283e761864e6b400d",
  "bytecode": "0x6101406040526040518060800160405280600060ff168152602001600060ff168152602001600060ff168152602001600060ff1681525060059060046200004892919062000174565b503480156200005657600080fd5b50604051620019343803806200193483398181016040528101906200007c91906200039a565b848073ffffffffffffffffffffffffffffffffffffffff1660808173ffffffffffffffffffffffffffffffffffffffff1660601b81525050508473ffffffffffffffffffffffffffffffffffffffff1660a08173ffffffffffffffffffffffffffffffffffffffff1660601b815250508260e081815250508367ffffffffffffffff1660c08167ffffffffffffffff1660c01b815250508161012081815250506000600360006101000a81548160ff0219169083600181111562000145576200014462000422565b5b0217905550426000819055508063ffffffff166101008163ffffffff1660e01b81525050505050505062000451565b826004601f01602090048101928215620002025791602002820160005b83821115620001d157835183826101000a81548160ff021916908360ff160217905550926020019260010160208160000104928301926001030262000191565b8015620002005782816101000a81549060ff0219169055600101602081600001049283019260010302620001d1565b505b50905062000211919062000215565b5090565b5b808211156200023057600081600090555060010162000216565b5090565b600080fd5b600073ffffffffffffffffffffffffffffffffffffffff82169050919050565b6000620002668262000239565b9050919050565b620002788162000259565b81146200028457600080fd5b50565b60008151905062000298816200026d565b92915050565b600067ffffffffffffffff82169050919050565b620002bd816200029e565b8114620002c957600080fd5b50565b600081519050620002dd81620002b2565b92915050565b6000819050919050565b620002f881620002e3565b81146200030457600080fd5b50565b6000815190506200031881620002ed565b92915050565b6000819050919050565b62000333816200031e565b81146200033f57600080fd5b50565b600081519050620003538162000328565b92915050565b600063ffffffff82169050919050565b620003748162000359565b81146200038057600080fd5b50565b600081519050620003948162000369565b92915050565b600080600080600060a08688031215620003b957620003b862000234565b5b6000620003c98882890162000287565b9550506020620003dc88828901620002cc565b9450506040620003ef8882890162000307565b9350506060620004028882890162000342565b9250506080620004158882890162000383565b9150509295509295909350565b7f4e487b7100000000000000000000000000000000000000000000000000000000600052602160045260246000fd5b60805160601c60a05160601c60c05160c01c60e0516101005160e01c61012051611479620004bb6000396000818161027f01526104230152600061076a0152600061072601526000610747015260006106ea0152600081816102bc015261031001526114796000f3fe60806040526004361061009c5760003560e01c80635f1b0fd8116100645780635f1b0fd8146101765780638d068884146101a1578063c1c244e8146101de578063d9eb8a4414610209578063e55ae4e814610213578063fd6673f5146102505761009c565b806309bc33a7146100a15780630fb081df146100cc5780631fe543e3146100f7578063473f1ddc146101205780635ad964ae1461014b575b600080fd5b3480156100ad57600080fd5b506100b661027b565b6040516100c39190610ca1565b60405180910390f35b3480156100d857600080fd5b506100e16102a3565b6040516100ee9190610d33565b60405180910390f35b34801561010357600080fd5b5061011e60048036038101906101199190610ee7565b6102ba565b005b34801561012c57600080fd5b5061013561037a565b6040516101429190610f84565b60405180910390f35b34801561015757600080fd5b506101606103a4565b60405161016d9190610fe7565b60405180910390f35b34801561018257600080fd5b5061018b6103bb565b6040516101989190610ca1565b60405180910390f35b3480156101ad57600080fd5b506101c860048036038101906101c39190611002565b6103c8565b6040516101d5919061106d565b60405180910390f35b3480156101ea57600080fd5b506101f3610418565b6040516102009190610ca1565b60405180910390f35b610211610421565b005b34801561021f57600080fd5b5061023a60048036038101906102359190611002565b610612565b6040516102479190610f84565b60405180910390f35b34801561025c57600080fd5b5061026561065a565b6040516102729190610ca1565b60405180910390f35b60007f0000000000000000000000000000000000000000000000000000000000000000905090565b6000600360009054906101000a900460ff16905090565b7f000000000000000000000000000000000000000000000000000000000000000073ffffffffffffffffffffffffffffffffffffffff163373ffffffffffffffffffffffffffffffffffffffff161461036c57337f00000000000000000000000000000000000000000000000000000000000000006040517f1cf993f4000000000000000000000000000000000000000000000000000000008152600401610363929190611088565b60405180910390fd5b6103768282610667565b5050565b6000600160009054906101000a900473ffffffffffffffffffffffffffffffffffffffff16905090565b6000600360019054906101000a900460ff16905090565b6000600361ffff16905090565b6103d0610c6e565b600482815481106103e4576103e36110b1565b5b9060005260206000209060020201604051806040016040529081600082015481526020016001820154815250509050919050565b60008054905090565b7f0000000000000000000000000000000000000000000000000000000000000000341015610484576040517f08c379a000000000000000000000000000000000000000000000000000000000815260040161047b9061113d565b60405180910390fd5b6000600181111561049857610497610cbc565b5b600360009054906101000a900460ff1660018111156104ba576104b9610cbc565b5b146104fa576040517f08c379a00000000000000000000000000000000000000000000000000000000081526004016104f1906111a9565b60405180910390fd5b6002339080600181540180825580915050600190039060005260206000200160009091909190916101000a81548173ffffffffffffffffffffffffffffffffffffffff021916908373ffffffffffffffffffffffffffffffffffffffff1602179055503373ffffffffffffffffffffffffffffffffffffffff167fa0df676a3a1d8a4dc693c144ac79c01945b4464a07bccdbf66c068127c32cfd760405160405180910390a260046002805490501415610610576001600360006101000a81548160ff021916908360018111156105d4576105d3610cbc565b5b02179055507f095744e432dd463fbf0fa4a256e21ddb462dbc9cc4e27248ebd5a28d759cc9e560405160405180910390a161060f602a6106e6565b5b565b600060028281548110610628576106276110b1565b5b9060005260206000200160009054906101000a900473ffffffffffffffffffffffffffffffffffffffff169050919050565b6000600280549050905090565b7f1d8f6997ec77a160b10f1131c09af88a6a895ea5f542c5fbca36ce69a9f5424860405160405180910390a1600060018111156106a7576106a6610cbc565b5b600360019054906101000a900460ff1660018111156106c9576106c8610cbc565b5b14156106d9576106d88161082f565b5b6106e281610a40565b5050565b60007f000000000000000000000000000000000000000000000000000000000000000073ffffffffffffffffffffffffffffffffffffffff16635d3b1d307f00000000000000000000000000000000000000000000000000000000000000007f000000000000000000000000000000000000000000000000000000000000000060037f0000000000000000000000000000000000000000000000000000000000000000876040518663ffffffff1660e01b81526004016107aa959493929190611241565b602060405180830381600087803b1580156107c457600080fd5b505af11580156107d8573d6000803e3d6000fd5b505050506040513d601f19601f820116820180604052508101906107fc91906112a9565b9050807f5d7d0431c4991fcc9f63f03ad0ead4128b866a8ed115a818b6d87a3afedb726460405160405180910390a25050565b60006040518060800160405280600060ff168152602001600160ff168152602001600260ff168152602001600360ff1681525090506000600a905060006004905060008060005b8651811015610a02578360ff16878281518110610896576108956110b1565b5b60200260200101516108a89190611305565b92508583600481106108bd576108bc6110b1565b5b60200201519150600460405180604001604052808460ff168152602001600181525090806001815401808255809150506001900390600052602060002090600202016000909190919091506000820151816000015560208201518160010155505060058260ff1660048110610935576109346110b1565b5b6020918282040191900681819054906101000a900460ff168092919061095a90611372565b91906101000a81548160ff021916908360ff160217905550508460ff1660058360ff166004811061098e5761098d6110b1565b5b602091828204019190069054906101000a900460ff1660ff1614156109ef57858260ff16600481106109c3576109c26110b1565b5b60200201600060ff1681525083806109da9061139c565b94505060028460ff1614156109ee57600b94505b5b80806109fa906113c6565b915050610876565b506001600360016101000a81548160ff02191690836001811115610a2957610a28610cbc565b5b0217905550610a38604e6106e6565b505050505050565b6000805b6004811015610c6957600060058260048110610a6357610a626110b1565b5b602091828204019190069054906101000a900460ff1660ff1667ffffffffffffffff811115610a9557610a94610da4565b5b604051908082528060200260200182016040528015610ac35781602001602082028036833780820191505090505b5090506000805b600480549050811015610b44578360048281548110610aec57610aeb6110b1565b5b9060005260206000209060020201600001541415610b315780838380610b11906113c6565b945081518110610b2457610b236110b1565b5b6020026020010181815250505b8380610b3c906113c6565b945050610aca565b5060005b60058460048110610b5c57610b5b6110b1565b5b602091828204019190069054906101000a900460ff16601e610b7e919061140f565b60ff16811015610c5357600060058560048110610b9e57610b9d6110b1565b5b602091828204019190069054906101000a900460ff1660ff16878780610bc3906113c6565b985081518110610bd657610bd56110b1565b5b6020026020010151610be89190611305565b90506004848281518110610bff57610bfe6110b1565b5b602002602001015181548110610c1857610c176110b1565b5b90600052602060002090600202016001016000815480929190610c3a906113c6565b9190505550508080610c4b906113c6565b915050610b48565b5050508080610c61906113c6565b915050610a44565b505050565b604051806040016040528060008152602001600081525090565b6000819050919050565b610c9b81610c88565b82525050565b6000602082019050610cb66000830184610c92565b92915050565b7f4e487b7100000000000000000000000000000000000000000000000000000000600052602160045260246000fd5b60028110610cfc57610cfb610cbc565b5b50565b6000819050610d0d82610ceb565b919050565b6000610d1d82610cff565b9050919050565b610d2d81610d12565b82525050565b6000602082019050610d486000830184610d24565b92915050565b6000604051905090565b600080fd5b600080fd5b610d6b81610c88565b8114610d7657600080fd5b50565b600081359050610d8881610d62565b92915050565b600080fd5b6000601f19601f8301169050919050565b7f4e487b7100000000000000000000000000000000000000000000000000000000600052604160045260246000fd5b610ddc82610d93565b810181811067ffffffffffffffff82111715610dfb57610dfa610da4565b5b80604052505050565b6000610e0e610d4e565b9050610e1a8282610dd3565b919050565b600067ffffffffffffffff821115610e3a57610e39610da4565b5b602082029050602081019050919050565b600080fd5b6000610e63610e5e84610e1f565b610e04565b90508083825260208201905060208402830185811115610e8657610e85610e4b565b5b835b81811015610eaf5780610e9b8882610d79565b845260208401935050602081019050610e88565b5050509392505050565b600082601f830112610ece57610ecd610d8e565b5b8135610ede848260208601610e50565b91505092915050565b60008060408385031215610efe57610efd610d58565b5b6000610f0c85828601610d79565b925050602083013567ffffffffffffffff811115610f2d57610f2c610d5d565b5b610f3985828601610eb9565b9150509250929050565b600073ffffffffffffffffffffffffffffffffffffffff82169050919050565b6000610f6e82610f43565b9050919050565b610f7e81610f63565b82525050565b6000602082019050610f996000830184610f75565b92915050565b60028110610fb057610faf610cbc565b5b50565b6000819050610fc182610f9f565b919050565b6000610fd182610fb3565b9050919050565b610fe181610fc6565b82525050565b6000602082019050610ffc6000830184610fd8565b92915050565b60006020828403121561101857611017610d58565b5b600061102684828501610d79565b91505092915050565b61103881610c88565b82525050565b604082016000820151611054600085018261102f565b506020820151611067602085018261102f565b50505050565b6000604082019050611082600083018461103e565b92915050565b600060408201905061109d6000830185610f75565b6110aa6020830184610f75565b9392505050565b7f4e487b7100000000000000000000000000000000000000000000000000000000600052603260045260246000fd5b600082825260208201905092915050565b7f53656e64204d6f726520746f20456e746572204c6f6262790000000000000000600082015250565b60006111276018836110e0565b9150611132826110f1565b602082019050919050565b600060208201905081810360008301526111568161111a565b9050919050565b7f4c6f6262792069732066756c6c00000000000000000000000000000000000000600082015250565b6000611193600d836110e0565b915061119e8261115d565b602082019050919050565b600060208201905081810360008301526111c281611186565b9050919050565b6000819050919050565b6111dc816111c9565b82525050565b600067ffffffffffffffff82169050919050565b6111ff816111e2565b82525050565b600061ffff82169050919050565b61121c81611205565b82525050565b600063ffffffff82169050919050565b61123b81611222565b82525050565b600060a08201905061125660008301886111d3565b61126360208301876111f6565b6112706040830186611213565b61127d6060830185611232565b61128a6080830184611232565b9695505050505050565b6000815190506112a381610d62565b92915050565b6000602082840312156112bf576112be610d58565b5b60006112cd84828501611294565b91505092915050565b7f4e487b7100000000000000000000000000000000000000000000000000000000600052601260045260246000fd5b600061131082610c88565b915061131b83610c88565b92508261132b5761132a6112d6565b5b828206905092915050565b7f4e487b7100000000000000000000000000000000000000000000000000000000600052601160045260246000fd5b600060ff82169050919050565b600061137d82611365565b915060ff82141561139157611390611336565b5b600182019050919050565b60006113a782611365565b915060008214156113bb576113ba611336565b5b600182039050919050565b60006113d182610c88565b91507fffffffffffffffffffffffffffffffffffffffffffffffffffffffffffffffff82141561140457611403611336565b5b600182019050919050565b600061141a82611365565b915061142583611365565b92508282101561143857611437611336565b5b82820390509291505056fea26469706673582212202564d68b9c31206239896b67150de7099da67a480b9a8a5769f5f5c378f240fc64736f6c63430008080033",
  "devdoc": {
    "author": "Mitchell Spencer",
    "details": "Implements the Chainlink VRF V2",
    "kind": "dev",
    "methods": {},
    "title": "A sample Raffle Contract",
    "version": 1
  },
  "userdoc": {
    "kind": "user",
    "methods": {
      "getLobbyState()": {
        "notice": "Getter Functions "
      }
    },
    "notice": "Cryptorisk setup contract.",
    "version": 1
  },
  "storageLayout": {
    "storage": [
      {
        "astId": 238,
        "contract": "contracts/Setup.sol:Setup",
        "label": "s_lastTimeStamp",
        "offset": 0,
        "slot": "0",
        "type": "t_uint256"
      },
      {
        "astId": 240,
        "contract": "contracts/Setup.sol:Setup",
        "label": "s_recentWinner",
        "offset": 0,
        "slot": "1",
        "type": "t_address"
      },
      {
        "astId": 243,
        "contract": "contracts/Setup.sol:Setup",
        "label": "s_players",
        "offset": 0,
        "slot": "2",
        "type": "t_array(t_address_payable)dyn_storage"
      },
      {
        "astId": 246,
        "contract": "contracts/Setup.sol:Setup",
        "label": "s_lobbyState",
        "offset": 0,
        "slot": "3",
        "type": "t_enum(LobbyState)173"
      },
      {
        "astId": 249,
        "contract": "contracts/Setup.sol:Setup",
        "label": "s_territoryState",
        "offset": 1,
        "slot": "3",
        "type": "t_enum(TerritoryState)176"
      },
      {
        "astId": 252,
        "contract": "contracts/Setup.sol:Setup",
        "label": "s_setupState",
        "offset": 2,
        "slot": "3",
        "type": "t_enum(SetupState)179"
      },
      {
        "astId": 256,
        "contract": "contracts/Setup.sol:Setup",
        "label": "s_territories",
        "offset": 0,
        "slot": "4",
        "type": "t_array(t_struct(Territory_Info)270_storage)dyn_storage"
      },
      {
        "astId": 265,
        "contract": "contracts/Setup.sol:Setup",
        "label": "territoriesAssigned",
        "offset": 0,
        "slot": "5",
        "type": "t_array(t_uint8)4_storage"
      }
    ],
    "types": {
      "t_address": {
        "encoding": "inplace",
        "label": "address",
        "numberOfBytes": "20"
      },
      "t_address_payable": {
        "encoding": "inplace",
        "label": "address payable",
        "numberOfBytes": "20"
      },
      "t_array(t_address_payable)dyn_storage": {
        "base": "t_address_payable",
        "encoding": "dynamic_array",
        "label": "address payable[]",
        "numberOfBytes": "32"
      },
      "t_array(t_struct(Territory_Info)270_storage)dyn_storage": {
        "base": "t_struct(Territory_Info)270_storage",
        "encoding": "dynamic_array",
        "label": "struct Setup.Territory_Info[]",
        "numberOfBytes": "32"
      },
      "t_array(t_uint8)4_storage": {
        "base": "t_uint8",
        "encoding": "inplace",
        "label": "uint8[4]",
        "numberOfBytes": "32"
      },
      "t_enum(LobbyState)173": {
        "encoding": "inplace",
        "label": "enum Setup.LobbyState",
        "numberOfBytes": "1"
      },
      "t_enum(SetupState)179": {
        "encoding": "inplace",
        "label": "enum Setup.SetupState",
        "numberOfBytes": "1"
      },
      "t_enum(TerritoryState)176": {
        "encoding": "inplace",
        "label": "enum Setup.TerritoryState",
        "numberOfBytes": "1"
      },
      "t_struct(Territory_Info)270_storage": {
        "encoding": "inplace",
        "label": "struct Setup.Territory_Info",
        "members": [
          {
            "astId": 267,
            "contract": "contracts/Setup.sol:Setup",
            "label": "owner",
            "offset": 0,
            "slot": "0",
            "type": "t_uint256"
          },
          {
            "astId": 269,
            "contract": "contracts/Setup.sol:Setup",
            "label": "troops",
            "offset": 0,
            "slot": "1",
            "type": "t_uint256"
          }
        ],
        "numberOfBytes": "64"
      },
      "t_uint256": {
        "encoding": "inplace",
        "label": "uint256",
        "numberOfBytes": "32"
      },
      "t_uint8": {
        "encoding": "inplace",
        "label": "uint8",
        "numberOfBytes": "1"
      }
    }
  }
}